:020000040800F2
:10000000C8150020F9010008EF370008773700080D
:10001000ED370008EB2D00088939000800000000CA
:10002000000000000000000000000000F33700089E
:10003000ED2D000800000000F1370008F53700083A
:10004000130200081302000813020008130200083C
:10005000130200081302000813020008130200082C
:10006000130200081302000813020008130200081C
:10007000130200081302000813020008130200080C
:1000800013020008130200081302000813020008FC
:1000900013020008130200081302000813020008EC
:1000A00013020008130200081302000813020008DC
:1000B00013020008130200081302000813020008CC
:1000C00013020008130200081302000813020008BC
:1000D00013020008130200081302000813020008AC
:1000E00013020008130200081302000800F002F8CF
:1000F00000F073F80AA090E8000C82448344AAF14F
:100100000107DA4501D100F068F8AFF2090EBAE84C
:100110000F0013F0010F18BFFB1A43F0010318473B
:10012000684D0000884D000010F8013B0A4413F0B0
:10013000030408BF10F8014B1D1108BF10F8015B44
:10014000641E05D010F8016B641E01F8016BF9D133
:10015000002D15D010F8014B03F00C030C2BA1EB74
:1001600004040ABF10F8013BA4EB8314A4EB03249E
:1001700005F1010314F8016B5B1E01F8016BF9D561
:10018000914238BF10F8013BD1D3704700230024BF
:1001900000250026103A28BF78C1FBD8520728BF97
:1001A00030C148BF0B607047662903F0D687002036
:1001B00070471FB59DE8030000F03EFE00F0D2FA44
:1001C00004000020002103F079FCE06000F0E6FB71
:1001D0001FBD10B500F04BFC10BD00F0B3FC114684
:1001E000FFF7E7FF03F002FC00F0B8FD03B4FFF7F0
:1001F000F0FF03BC00F0B2FF094880470948004700
:10020000FEE7FEE7FEE7FEE7FEE7FEE7FEE7FEE7C6
:10021000FEE7FEE704480549054A064B7047000023
:1002200057380008ED000008C80F0020C81500204E
:10023000C8110020C81100200FB4044910B503AA4A
:10024000029800F07DFA10BC5DF814FBC00E00208F
:100250002DE9F0410E460446002020622046E16868
:10026000884730B3252805D0D4E901219047206A7A
:10027000401CF2E7E168204600278847050018D0B7
:10028000A5F14100192802D820354FF40067324605
:10029000294620462760FFF787FF40B1012804D098
:1002A000F61D26F007060836D8E7361DD6E728469D
:1002B000DAE7206ABDE8F0814FF0000200B513468E
:1002C00094469646203922BFA0E80C50A0E80C5076
:1002D000B1F12001BFF4F7AF090728BFA0E80C5027
:1002E00048BF0CC05DF804EB890028BF40F8042B20
:1002F00008BF704748BF20F8022B11F0804F18BF8D
:1003000000F8012B704770477047704710B500F038
:100310002DFA006810BD10B5044600F027FA0460FD
:1003200010BD70472DE9FF4F0C461E464FF0FF37BA
:100330008BB0D2E90001DDF860800A908A46C1F3F3
:100340000A5505B93D46002108464FF00000BAF1B4
:10035000000F00F4400005DA00EB80004FF440018C
:1003600001EA50004FEA9059B9F1010F00DDB9469A
:100370000A9850EA4A000ED044F61050A5F2FF3514
:1003800045432F14B8F1000F1ED07542291E1EDD03
:10039000C9F100021CE0B8F1010F4FF0000001D0DC
:1003A000302103E0F24305E02154401CB042FBDB66
:1003B00030460022002121540B99C1F80880C1E980
:1003C00000200FB0BDE8F08FBD1B6D1CDEE74A4674
:1003D00000DA694206A800F06BFA06AB93E8070062
:1003E00003AB83E8070050460A9902F036F98DE81E
:1003F0000700A0F500501F3800900398002D0ADD7B
:1004000042F21F014A460844002303A903906846AC
:1004100002F09FFB09E0A0F500504A461F38002378
:1004200003A90390684602F0A9FB8DE807000004C9
:10043000000C03D04FF0FF30410800E01046B8F147
:10044000000F03D00022009215461EE0751E05D451
:1004500000F090F9303262556D1EF9D5B346012295
:10046000084302D000227F1C04E02078302801D10C
:1004700000227F1E002A099784D01DE0112D07DA83
:1004800000F078F9303262556D1C50EA0102F5D166
:10049000084302D00098C8B10EE00021681E05E0B4
:1004A000235C625C63542254401E491C8142F7DB8A
:1004B000AB46A81B401E0990002004F80B000B98C7
:1004C000099AC0F80880C0E9002B7AE711264FF09E
:1004D000000857E72DE9F04F88460446D21D22F068
:1004E000070191B0D1E90001CDE90A0103F04DFA0D
:1004F00002460B98C00F01D02D2007E0206881072D
:1005000001D52B2002E0202101EAC000032A099036
:1005100001D0072A05DB03464146204600F088F952
:100520000BE12078800601D5E06900E00620B8F1F3
:10053000650F814606D0B8F1660F18D0B8F1670F85
:1005400070D131E00020B9F1110F009001DB1123CF
:1005500001E009F101030AAA01A90CA8FFF7E2FED4
:10056000DDE90C70002609F10105834647E0012012
:100570004B4600904FF000470AAA01A90CA8FFF7CC
:10058000D1FEDDE90DB00C995D46002610B909F1E8
:1005900001000D18B9EB050003D4C0F1FF3609F1D5
:1005A0000105A5EB09002BE0B9F1010F01DA4FF0CD
:1005B00001090020B9F1110F0090484601DD112317
:1005C00000E003460AAA01A90CA8FFF7ABFEDDE98B
:1005D0000C704D4600268346207800070AD4AB45B0
:1005E00000DA5D4601A8012D04DD411911F8011C56
:1005F000302907D04F4502DA17F1040F04DA012041
:1006000082460FE06D1EEEE7002F02DCED1B3E443C
:1006100003E0781CA84200DD7D1CB81B00F1010A34
:100620004FF000472078000703D4AA4501DB4FF0C4
:10063000FF3A0021B7F1004F0DF143088DF8431048
:1006400024D002202B23002F01DA7F422D230A2100
:10065000021EA0F1010000DC5FB197FBF1FC97FBEB
:10066000F1F201FB1C7C17460CF1300C08F801CDAF
:10067000EEE7A8F1010003702188090501D54521A5
:1006800000E06521A0F1010800F8011C09980FA9FC
:10069000A1EB0807FF1D00B10120411901EBEA7031
:1006A000A1693844081A401EA0612078C00602D40F
:1006B0002046AFF30080099828B1D4E90121904782
:1006C000206A401C20622078C00622D52046AFF365
:1006D00000801EE0002E04DBB34502DD01A8805D32
:1006E00000E03020D4E901219047206A401C2062BC
:1006F000761CAAF101005FEA000A0AD100F032F884
:10070000C0680168405CD4E901219047206A401C20
:100710002062281EA5F10105DCDC07E0D4E90121F7
:1007200018F8010B9047206A401C2062381EA7F180
:100730000107F3DC2046AFF30080032011B041E64F
:10074000074B70B50D467B4400F05FF80446284621
:1007500000F020F910B14FF0FF3070BD204670BDA1
:100760008B32000000487047880F00200048704717
:10077000680F002030B5B0F10A024FEA900E71F117
:1007800000034EEA817EB0EB0E0061EB91014FEA6F
:10079000101E4EEA017E10EB0E0041EB11114FEAE4
:1007A000102E4EEA016E10EB0E0041EB11214FEAC4
:1007B000104E4EEA014E10EB0E0041EB1141401875
:1007C00041F100014FEAD00040EA41704FEAD10107
:1007D00010EB80054FEA810444EA907444EB010475
:1007E0006D1944EB0404521BA3414FF0000348BFB2
:1007F0000A3200D530BD401C41F1000130BD00007F
:1008000001694A1C02610878704700B58FB0CDE9D4
:1008100001310021059105497944CDE903101146C4
:100820006846FFF715FD0FB000BD0000E5FFFFFFB4
:100830002DE9F0411F46044603260168072A01F40A
:10084000006004DB08B116A505E016A503E008B1B9
:1008500015A500E015A521F010002060A069C01EBC
:10086000A0610FB1401EA0612046AFF300804FB1E0
:10087000D4E9012138469047206A401C2062C01C00
:10088000206206E0206AFAE7D4E9012115F8010B9D
:100890009047761EF8D22046AFF30080BDE8F08185
:1008A0004E414E006E616E00494E4600696E660014
:1008B0002DE9F047814616468AB0354878440DC880
:1008C0008DE80D0032487844801C03AC0DC884E8E4
:1008D0000D0041F69B300844372190FBF1F290FB6C
:1008E000F1F5A5F1800501FB12041B3C02D5644221
:1008F000012000E00020DFF898A080460027FA449D
:10090000AAF1BE0A0EE0E0070AD03246684607EBBD
:10091000470101230AEB810102F030F98DE807005D
:1009200064107F1C002CEED1194F7F44AE3F19E0BC
:10093000E80715D007EB04100DF1180A90E80E0037
:100940008AE80E00C068F04201D19819089032463A
:10095000012306A903A802F011F903AB83E80700FD
:100960006D10641C002DE3D14FF00103324669463F
:10097000B8F1000F03A802D002F0EBF801E002F09A
:10098000FDF8C9E90001C9F808200AB0BDE8F08700
:10099000243A0000007B00F08000704710B5424808
:1009A0005421FFF789FC41485421FFF785FC40485A
:1009B0005421FFF781FC3F493B483C4A3F4B0860CC
:1009C0003D490A603A491960531C0365481C10658B
:1009D000012008653B48344A39A1784400F022F9E7
:1009E00020B9384878440A3800F0C1F937482F4A0E
:1009F00035A1784400F016F920B9344878440A3813
:100A000000F0B5F932482A4A2FA1784400F00AF9DB
:100A100020B92F4878440A3800F0A9F94023224829
:100A2000DC000021224600F0D9F820B125487844A6
:100A3000543800F09CF91D4822464023002100F064
:100A4000CDF820B121487844543800F090F9184886
:100A500022461023002100F0C1F8002806D01C48CF
:100A60007844BDE81040563800F081B910BD1048F8
:100A700070B5006D20F001040B4800F049F90B48F7
:100A800000F046F90A4800F043F909E0206D20F033
:100A90000105204600F03CF9204600F078F82C468D
:100AA000002CF3D170BD00006C0E0020C00E0020A1
:100AB000140F0020180400201C0400202004002033
:100AC000720000001E390000770000000A390000A3
:100AD000F63800000EB5CDE9000100F01FFB0290D2
:100AE00069460120ABBE0EBD08B5694600900220E4
:100AF000ABBE08BD1FB58DE8070069460520ABBE3B
:100B000004B010BD1FB58DE80F0069460620ABBECE
:100B1000F6E708B5694600900920ABBE08BD1CB5D4
:100B2000CDE9000169460A20ABBE1CBD704708B57F
:100B3000694600900C20ABBE08BD0000004870471D
:100B4000680F00207546FFF7F9FFAE4605006946BD
:100B5000534620F00700854618B020B5FFF75AFB32
:100B6000BDE820404FF000064FF000074FF00008AE
:100B70004FF0000B21F00701AC46ACE8C009ACE82F
:100B8000C009ACE8C009ACE8C0098D46704770B533
:100B90000446051F00F034F90068002C14BF4468B7
:100BA00070BD002C18BFAC423CBF20466468F8D32F
:100BB00001680A18AA4218BF456003D12A68054691
:100BC0001144016028684119A1421CBF6C6070BDCE
:100BD0006168696021680844286070BD70B5C468A8
:100BE000A50713D0650211D4B2F5807F09D0B2F504
:100BF000007F06D0B2F5806F08D1012300F12401F7
:100C000006E05D1E6FF07F46B54201D3012070BD46
:100C10000161C361416024F470611143C16000202F
:100C200070BD00002DE9F0410C46074616461046FF
:100C300000F06EF82078611C61280AD0722802D07A
:100C400077283CD102E00125002405E00225042498
:100C500002E0082448F2020511F8010B2B2806D007
:100C6000622809D011F8010C74280AD00BE045F075
:100C7000030544F00204EFE745F0040544F00104E5
:100C8000EAE744F0100438462146FFF723FF411CF1
:100C900015D00021316171604FF40071F560F16190
:100CA0007061200704D530460222002100F022F9AD
:100CB000306D40F0010030653046BDE8F081002025
:100CC000FBE72DE9F0410D460646104C206DC107AB
:100CD00004D0410804D020F00104F7E722460EE0DA
:100CE000542000F0D8F807000ED0206D47F0010125
:100CF0000843542120653846FFF7DEFA3A46294674
:100D00003046BDE8F0418DE70020D6E76C0E0020AC
:100D10002DE9F04704464FF000094FF0FF37C56852
:100D2000D4E90486A80707D0204600F093F930469E
:100D3000FFF7DAFE002802DA3846BDE8F08728051A
:100D400002D54046FFF723FF4C212046FFF7B4FAB7
:100D5000206D20F0010020654846EEE710B50446FE
:100D6000AFF300802046BDE81040FFF73FBA10B552
:100D700000F0BAF9BDE8104000F0B0B94FF0013C06
:100D800050F8042B51F8043B9A4221D1A2EB0C03FA
:100D9000934313EACC1317D150F8042B51F8043BBA
:100DA0009A4215D1A2EB0C03934313EACC130BD157
:100DB00050F8042B51F8043B9A4209D1A2EB0C03E2
:100DC000934313EACC13DBD04FF00000704700BF11
:100DD000D01A01BAB1FA81F101F0180122FA01F03A
:100DE000CB40C1F12001DBB2C0B2C01A2CFA01F332
:100DF000D11A914311EAC311E6D170477047000040
:100E000000487047700F0020704770477047704768
:100E100038B504460A4600206946AFF30080002832
:100E200008BF38BD02460099204600F0A4F9012011
:100E300038BD012000F0F3B9F8B5AFF300800546E6
:100E400000200C46102000BF0646A819A0420DD96C
:100E5000324669460020AFF30080070008BF00F06B
:100E6000DEF90098A04218BF0546C419FFF7C8FF75
:100E700005600746F01D20F007004619284600F0DF
:100E800073F9B44208BFF8BDA21B31463868BDE80B
:100E9000F84000F070B970B50646FFF7B1FF05687D
:100EA00006F10B0020F00704B4429CBF002070BD87
:100EB0002B466A68BAB11068A04210D304F1080149
:100EC00088423CBF5068586007D351681019416090
:100ED0001168091B016058601460101D70BD134635
:100EE0005268002AE7D121462846FFF791FF0028E3
:100EF000DED170BD2DE9F041044616460D46476926
:100F0000007B80072ED03846FFF703FE50BB3EB370
:100F1000012E02D0022E25D104E0204600F045F932
:100F200005441DE03846FFF702FEE168002841F065
:100F30001001E16005DA204600F058F80120BDE814
:100F4000F081C9030BD56268E16A914200D811466D
:100F5000A26911442269891A814200DD08460544CC
:100F6000002D01DA0220EAE7E16A6068E268814266
:100F700006D29103E06203D522F4003141F0100261
:100F8000A6690027AE4213DCE16A814201D90B4613
:100F900000E0034603EB060C2369ACEB030CAC4505
:100FA00006DD814201D98C4600E084469C4505D18E
:100FB000A760276042F02000A5620DE0AD1BE66946
:100FC000AE1B8142A66000D90846C01A281A2060CC
:100FD0005819606022F0200003490840E0600020BA
:100FE00084F84870ABE70000BFCFD7FFC16821F499
:100FF000001141F08001C1600021816001607047F3
:101000002DE9F047814614460E464FF0FF3832482E
:10101000D5685769054209D03846A169FFF77FFDB9
:10102000002811DB2C48C0430540E5602B463246C2
:1010300049463846FFF75EFDA16920F00042B21A2A
:1010400011440028A16103D02046FFF7CFFF40469E
:10105000BDE8F08770B504460569C06A61688842DA
:1010600000D80846E16821F42011E160C90312D5D7
:10107000A84208D02246411B2846FFF7C1FF10B105
:101080004FF0FF3070BD0020E562C4E90150E06818
:1010900020F48030E060002070BD10B50446C068C8
:1010A00020F02000E060A16AA06988420DD02046AF
:1010B000FFF7D0FFE06820F4405040F01000E060FF
:1010C000A06AA0612069E062606044F24001E068CB
:1010D0008843E06010BD000010000200002801D02D
:1010E00000F03CB87047000010B5014602A000F0C7
:1010F0007DF8012010BD0000534947525452454429
:101100003A2052656469726563743A2063616E27A0
:1011100074206F70656E3A200000000010B5431C0B
:1011200002E010F8011B71B18107FAD14FF00132D2
:1011300002C88C1A8C4314EAC211F9D0C01A0A06EC
:1011400003D0C01E10BDC01A10BD0A0401D0801EFD
:1011500010BD0902FCD0401E10BD0000014918203E
:10116000ABBEFEE72600020000210160C0E90110CD
:10117000704710207047034640688C46002818BF0F
:1011800088423CBF03464068F8D318681844884238
:1011900007D00CF1030020F00700001D411A521A7D
:1011A0000146081D0A60FFF7F2BC10B50146C2688F
:1011B000900703D0900607D5886A0AE0FFF7D6FAB1
:1011C00001210160881E10BD8B69486818440B69B5
:1011D000C01A91F848301BB191F84910401A10BD5F
:1011E0001103FCD50028FADD401E10BD70B5054680
:1011F0000C460A2000E06D1C00F018F835B1287884
:101200000028F8D102E0641C00F010F814B1207836
:101210000028F8D1BDE870400A2000F007B810B5EA
:1012200000F00CF8BDE81040FFF758BF08B569465C
:101230008DF800000320ABBE08BD000010B50128EA
:1012400005D0002103A0FFF7D1FF012010BD09A1A7
:10125000F8E7000053494752544D454D3A204F7529
:1012600074206F662068656170206D656D6F72799E
:10127000000000003A2048656170206D656D6F7256
:101280007920636F7272757074656400B0B5E1B1F6
:101290004FF0000C02EB4C0432F81C300CF1020C45
:1012A00064888C4523F0030324F0030450F803E022
:1012B0000559C55040F804E003440444D3F804E061
:1012C00065685D60C4F804E0E4D3B0BD2DE9F04783
:1012D000B0F800A0984691460C460746012A0ED168
:1012E000BAF1000F42D0261D554600BF31684FF0BD
:1012F000004002F0BDFE46F8080B013DF6D1BAF100
:10130000FF0F0CDDBAF5806F13DBBAF5805F27D0D5
:10131000BAF5006F14D0BAF5806F1CD026E0BAF190
:101320003F0F12DCBAF1100F15D0BAF1200F07D021
:101330001CE0BAF5807F03D0BAF5007F10D015E02D
:101340003846214600F084F910E0BAF1400F07D08A
:10135000BAF1800F0AD13846214600F037F805E08F
:101360007A6820465146012300F034FDB8F1000FA1
:1013700004D0BA68B9892046FFF788FFB9F1010F98
:1013800022D1504602F00CFD01464FF07E5002F093
:1013900045FCBAF1000F08BFBDE8F087064600BF64
:1013A000D4E90017304602F00FFD20603046394680
:1013B00002F00AFD01464FF0004002F059FE606065
:1013C0000834BAF1010AEBD1BDE8F0872DE9F04FFE
:1013D0009BB00288059101EB820114910190406855
:1013E0000021B1EBD20F04904FEA5200029000F0BE
:1013F0001D81D008029A05994FF0000A404201EB86
:1014000082010391149901EB820113911290059DC1
:1014100055F80A000A90149A52F80A1014460991D5
:1014200002F094FB139B05EB0A0703EB0A0153F848
:101430000AB04A68119108928A68C9681A9217918D
:10144000DDF80C9009EB0A0659F80A8071681591CD
:10145000B1681691F168189104EB0A01CDF82CB02F
:10146000CDF8308019914A688C68C96845F80A003F
:101470007868BD6807920E9410910690F8680D95F3
:101480000F9002F063FBF8602846214602F05EFBF5
:10149000079C069DB8602846214602F057FB7860FD
:1014A0004046594602F052FB49F80A00DDE91710A0
:1014B00002F04CFBF06016981A9902F047FBDDF839
:1014C0002080B0601598414602F040FB7060DDE975
:1014D000091002F0CDFD07462846214602F0C8FD5E
:1014E000049E0446384656F80A90494602F06CFCC1
:1014F00006EB0A0B05462046DBF80460314602F095
:1015000063FC0146284602F021FB149941F80A00C9
:101510002046494602F058FC04463846314602F05F
:1015200053FC0146204602F0A3FD19994860DDE90D
:101530000B0102F09DFD15990446404602F098FD0E
:1015400005462046314602F03FFC074628464946FC
:1015500002F03AFC0146384602F08AFD139941F840
:101560000A002846314602F02FFC0546204649462F
:1015700002F02AFC294602F0E9FADDF84490C9F8A5
:101580000400DDE90D0102F073FD0646DDE90F01FF
:1015900002F06EFDDBE9028B0746414602F014FCC7
:1015A00004463046594602F00FFC0146204602F040
:1015B0005FFD199D4146E860304602F005FC044697
:1015C0003846594602F000FC0146204602F0BEFAB9
:1015D000A8601A98169902F04BFD0446DDE9170140
:1015E00002F046FD5946064602F0EEFB074620464D
:1015F000414602F0E9FB394602F0A8FAC9F80C00AE
:10160000204659464F4602F0DFFB0446304641462D
:1016100002F0DAFB0146204602F02AFDC9F8080074
:1016200012980AF1100A01307FF4F0AE029C05987E
:10163000049A0223214600F0CDFB019821460223A3
:10164000426814981BB0BDE8F04F00F0C3BB000027
:101650002DE9F04FB3B0834600880C4662684FEA2C
:10166000500A2D90206801EB8A0858F82A102E9114
:101670002C902B9202F06AFA54F82A103290309192
:1016800002F064FA08EB8A0555F82A102F9102F04F
:101690005DFA05EB8A01D5F80490D8F8047005913D
:1016A0004E68DBF80410CDF810B020600691494672
:1016B000DDF8ACB0584602F049FA3946319002F0F4
:1016C00045FA314602F042FA60602C982E9902F0F9
:1016D000CFFC39462E9002F039FA314602F0C8FCB0
:1016E00044F82A0058464946239402F0C1FCDDF82C
:1016F000C0900446494602F0BBFCDDF8BCB0594638
:1017000002F024FAC8F804003298494602F0B0FC0E
:10171000594602F0ADFCCDF80C8048F82A00394655
:10172000319802F0A5FC314602F0A2FC68602E98C8
:10173000394602F09DFC314602F008FA45F82A00CD
:1017400020464946029502F001FA594602F090FC03
:101750000599002700234FEA8A0548606FF00300CF
:1017600000EB8A012B916FF0070101EB8A023092A6
:101770006FF001022D9E31934FEACA0302EB9602ED
:10178000A7EB52022E9200EBCA022A9201EBCA0288
:10179000329201EB0A122F9200EB0A1229920AEB05
:1017A0004A0201EB820100EB82009700289127900A
:1017B000B008002101902D9100212C9187E100BFFC
:1017C000CDE91565DDF88C902A9809EB00060C969A
:1017D0002B9809EB000A279809EB00011291096880
:1017E000299809EB000507F118001E95139002F1E6
:1017F00010000F9004F1080014970790DAF8000029
:101800000A9010910D9202F0A1F931681190269181
:1018100002F09CF92968259102F098F92F9F59F858
:1018200007200B922F97329E59F806202492329669
:10183000289959F801100991309D59F80530CAF8D6
:10184000000018460893309502F080F959F8061008
:101850000E9002F07BF959F8071002F077F949F879
:1018600005000798209DD0F800A02846514602F0B8
:10187000ABFAE468229F06463846214602F0A4FAF5
:101880000146304602F062F9C8F800003846514679
:1018900002F09AFA06462846214602F095FA0146D9
:1018A000304602F0E5FBCBF80000DDE9080102F06C
:1018B000DFFB209005460A98109902F0D9FB229090
:1018C0000646DDE9251002F0D3FB014610902846BC
:1018D00002F03CF9DDF8908005463046414602F0C2
:1018E000C7FBDDF82CB0594602F030F92146064618
:1018F00002F06AFA07462846514602F065FA0146A8
:10190000384602F0B5FB0C9908602846214602F0E3
:101910005BFA04463046514602F056FA214602F080
:1019200015F932991F9F49F801000F98D0F800A0CF
:101930003846514602F048FA05460D98219C466902
:101940002046314602F040FA0146284602F0FEF8F1
:10195000189908602046514602F036FA0546384686
:10196000314602F031FA0146284602F081FB179910
:1019700008600E98414602F07BFB594602F078FB66
:1019800005461198269902F073FB259902F070FB29
:101990005146074602F018FA01464FF0004002F0A7
:1019A00067FB04462846314602F00EFA01462046FF
:1019B00002F05EFB129908602846514602F004FAD4
:1019C00004463846314602F0FFF9214602F050FB4A
:1019D000DDF8A0A0159C49F80A001398D0F8008003
:1019E0002046414602F0F0F906461498169FC56954
:1019F0003846294602F0E8F90146304602F0A6F8DA
:101A0000199908603846414602F0DEF9064620463C
:101A1000294602F0D9F90146304602F029FB1A990D
:101A200008601098209902F023FB24990646584636
:101A300002F01EFB229902F01BFB2946074602F02A
:101A4000C3F904463046414602F0BEF9014620463D
:101A500002F00EFB1E9908603046294602F0B4F9E8
:101A600004463846414602F0AFF9214602F06EF8CE
:101A70002F9949F801002B9808382B903098083896
:101A800030902E9801302E902A9808382A9032985B
:101A9000083832905046AAF1080028902798083854
:101AA00027900846A1F108002F902998083829901E
:101AB0003198083031902D9810302D902C98183096
:101AC0002C901B9F1D9B1C9D083708330835239CB9
:101AD000319904EB010AE618DAF80800DAF80C90FC
:101AE00022901D93159656F8081F209102F02EF8AB
:101AF00004EB050826901C95CDF8508058F8081F77
:101B0000259102F023F81B972744169757F8081FD2
:101B1000249102F01BF8199757F8041FC3465BF88D
:101B2000045F1E91189656F8044FCAF808004846FC
:101B30002146179602F00AF8DBF80010219002F017
:101B400005F839681A9702F001F8CAF80C002298D3
:101B5000209902F08DFA29460646AA4601F0F6FFC2
:101B60001E9D294602F084FA20904846214602F044
:101B70007FFA259F0446394602F07AFADDF8909004
:101B8000494601F0E3FF22903946269802F070FAA8
:101B9000494602F06DFA1F905146219802F068FA0A
:101BA000294602F065FA21903046514602F060FA6B
:101BB000294601F0CBFF06462046394601F0C6FF14
:101BC000494602F055FA054606982C9947182D9972
:101BD0004218319944182E9800287FF4F1ADD4E9C9
:101BE0000294924632944946229802F0EDF8DDF8CC
:101BF00080B080462146584602F0E6F8014640464D
:101C000002F036FADDF850804946C8F80C00584614
:101C100002F0DAF804462298329902F0D5F801462B
:101C2000204601F093FFC8F80800DAE9048ADDF8DD
:101C300084B05846414602F0C7F81F9C8146514681
:101C4000204602F0C1F80146484602F011FADDF8DC
:101C500054904146C9F80C00204602F0B5F8804681
:101C60005846514602F0B0F80146404601F06EFF7A
:101C7000C9F808002846D7E90648214602F0A4F82A
:101C800007463046414602F09FF80146384602F0CA
:101C9000EFF9169F2146F860304602F095F80446A9
:101CA0002846414602F090F80146204601F04EFFDA
:101CB000019DB8602398069A0423294600F08AF80B
:101CC000049C039829460423626800F083F8626844
:101CD00002982946042300F07DF862680598294699
:101CE000042333B0BDE8F04F00F074B82DE9F043A1
:101CF00081B00546002090460C46B0EB920F4CD0C8
:101D00004FEA9800C0F10009D5E90007014602F04A
:101D10005BF806463846394602F056F8014630462A
:101D200001F014FF01F0B4FE2060D5E9020601467F
:101D300002F04AF807463046314602F045F80146BF
:101D4000384601F003FF01F0A3FE6060D5E9040608
:101D5000014602F039F807463046314602F034F8C1
:101D60000146384601F0F2FE01F092FEA060D5E98E
:101D70000606014602F028F807463046314602F0D2
:101D800023F80146384601F0E1FE01F081FEE060F3
:101D90001034203519F10109B6D118F0030016D01E
:101DA000474200BFD5E90006014602F00DF8804623
:101DB0003046314602F008F80146404601F0C6FEC2
:101DC00001F066FE44F8040B08350137EAD101B092
:101DD000BDE8F0832DE9F04FC3B00C460392CDE986
:101DE00001031891E208DDF804B0E600D500059281
:101DF000A5EBD4002095C000429010011D90500129
:101E0000199002EB420002EB8202C300070100209E
:101E10001C93D300CDE91A64CDE91E734190DDF81F
:101E20006490DDE91C785BF805005BF803103590E1
:101E3000369101F08BFEDDF808A104462F905BF887
:101E400007005BF80A103490339101F07FFE0146E1
:101E50002D90204601F07AFE06465BF80910DBF86B
:101E600000003891379001F071FE1E9904462B90C6
:101E70005BF808005BF801103D903C9101F066FEB4
:101E800001462A90204601F061FE3146044601F0E9
:101E90005DFECBF800002046314602F0E9F84BF831
:101EA00009002098584442683E901F985844319247
:101EB000416840901046309101F048FE0BEB0A015A
:101EC000044626900BEB07003F9040683B91496821
:101ED0002E902C9101F03AFE82462046514601F0A8
:101EE00035FE0BEB09040746DBF804000BEB080694
:101EF0006168279639903A9101F028FE80461E9835
:101F0000726858442992416828901046329101F035
:101F10001DFE06464046314601F018FE3946814610
:101F200001F014FECBF804004846394602F0A0F850
:101F300060602698514602F09BF80746DDE92A10BA
:101F400002F096F83946044601F000FE1D994BF860
:101F500001002046394602F08BF81E994BF801002B
:101F60002F982D9902F084F804464046314602F03D
:101F70007FF82146054602F07BF827994860204605
:101F8000294601F0E3FD28994860DDE9350102F0BA
:101F90006FF836900446DDE9331002F069F8014627
:101FA0003590204602F064F840F2F341C3F63571F3
:101FB00001F00AFF0446DDE9301002F059F8054649
:101FC00034902E982C9902F053F8814628464946C1
:101FD00001F0BCFD40F2F341C3F6357101F0F4FEAF
:101FE0000546DDE9370102F043F82146064601F0D7
:101FF000ADFD07462998329902F03AF82946804605
:1020000001F0A4FD82463846514601F09FFD20991B
:102010004BF80100384640F2F3475146C3F6357796
:1020200002F026F842994BF801003046214602F0B2
:102030001FF804464046294602F01AF80546204695
:10204000294601F083FD1F994BF8010020462946DF
:1020500002F00EF81C994BF80100DDE9351001F093
:1020600075FD394601F0B0FE80463498494601F0CE
:10207000FFFF394601F0A8FE8146DDE93C1001F082
:10208000F7FF4146064601F061FD0746DDE93901EB
:1020900001F0EEFF4946044601F058FD3946054679
:1020A00001F0E6FF3E9948603846294601F04EFDB2
:1020B0003B9948603046414601F0DAFF054620462C
:1020C000494601F0D5FF2946044601F0D1FF409969
:1020D00048602846214601F039FDDDE91F35DDE97C
:1020E0001A643F9A189950604198B344204488423A
:1020F000FFF494AE402CC0F0AD820298DDF804C02D
:1021000000244FF0010B80B204900598C0EBC00092
:102110004FEAC008CDF824800498039EE146CDF82C
:102120001CB0CDF81890044456F83400C4EBC40E2B
:1021300004EB840C620104EB44010894179056F8F8
:102140003E00169056F83C001590B0580432B25834
:10215000149056F83100119213902001021D375847
:10216000B058E200043212974F461090B0580A015E
:102170000F90B0580E904FEACE00043030580D90BA
:10218000101D30580C904FEACC00043030580B90A2
:10219000C800043030580A90FA187819CDF800B108
:1021A000429741908068916891463E923590369171
:1021B00001F0CCFC04462A9042981C9900EB010BDC
:1021C0004298DBF80820CDF8FCB000EB080ADAF8FA
:1021D000081010463392CDF8F4A0349101F0B6FC0B
:1021E00001462B90204601F0B1FC0746239042980F
:1021F00019990844816821904298826842983891E0
:10220000D0F80C8010463792CDF8E88001F09EFCA3
:10221000054629901D9842990C1842981E99A2686B
:1022200027944618B16810463C922C963B9101F0D9
:102230008DFC01462890284601F088FC3946229002
:1022400001F084FC429988604198D9F80C10C0686C
:102250002F91309001F07AFC0546DBF80C00DAF89B
:102260000C102E902D9101F071FC0146269028460D
:10227000AA4601F06BFCDDF8849005464046D9F88B
:102280000C10399101F062FCF16807462590E06876
:102290003290319101F05AFC01462490384601F009
:1022A00055FC2946074601F051FC4299C860DDE91A
:1022B000220101F0DDFE04463846294601F0D8FE31
:1022C000149E83465946304601F07EFD119D074617
:1022D0002146284601F078FD0146384601F0C8FE47
:1022E000C9F80C00304621464F4601F06DFD04460A
:1022F0002846594601F068FD0146204601F026FCBB
:10230000C9F80800DDE92A0101F0B2FE2699054668
:102310002B90504601F0ACFE8146DDE9281001F01B
:10232000A7FE4946804601F011FC0446DDE9241071
:1023300001F09EFE2946824601F09AFE129F064653
:102340003146384601F040FDDDF840B005462146F3
:10235000584601F039FD0146284601F089FE279DC7
:102360002146E860384601F02FFD044658463146C4
:1023700001F02AFD214601F0E9FBA86040464946EC
:1023800001F076FE04462B98514601F0DFFB0E9FCC
:1023900080464146384601F017FD0C9D0646214611
:1023A000284601F011FD0146304601F061FE2C9EE9
:1023B0002146F060384601F007FD044628464146B4
:1023C00001F002FD214601F0C1FBB060DDE93501FD
:1023D00001F04EFE8046DDE9330101F049FE8346FF
:1023E0004046594601F044FE40F2F34AC3F6357ABE
:1023F000514601F0E9FC36900446DDE92F1001F06A
:1024000037FE0646DDE92D1001F032FE0746304664
:10241000394601F09BFB514601F0D6FC359005464C
:10242000DDE9370101F024FE2146389001F08EFBF2
:1024300030900446DDE9311001F01AFE294637904C
:1024400001F084FB01463290204601F07FFB81467B
:102450004046594601F07AFB514601F0B5FC04466E
:1024600034903046394601F003FE514601F0ACFC91
:1024700033900546DDE93B1001F0FAFD21463C9022
:1024800001F064FB0646DDE9391001F0F1FD294653
:102490003B9001F05BFB3146074601F0E9FD179DDB
:1024A00082465146284601F08FFCDDF83CB00446D8
:1024B0004946584601F088FC0146204601F0D8FD07
:1024C000DDF804814946C8F80C00284601F07CFC80
:1024D00004465846514601F077FC0146204601F07B
:1024E00035FBC8F808003098329901F0C1FD044668
:1024F0003046394601F02AFB169D80464146284663
:1025000001F062FC0D9E07462146304601F05CFC5E
:102510000146384601F0ACFD3D9F2146F860284653
:1025200001F052FC04463046414601F04DFC0146A4
:10253000204601F00BFBB8603898369901F098FD01
:10254000044641903798359901F092FD01463D903F
:10255000204601F0FBFA07463C98349901F088FDCB
:1025600082463B98339901F083FD5146834601F042
:102570007FFD159D06463146284601F025FCDDF815
:102580002C8004463946404601F01EFC0146204698
:1025900001F06EFDDDF8F8903946C9F80C002846C8
:1025A00001F012FC04464046314601F00DFC0146A4
:1025B000204601F0CBFAC9F8080041983D99DDF8B2
:1025C000248001F055FD04465046594601F0BEFAFC
:1025D000139F83465946384601F0F6FB0A9D06468E
:1025E0002146284601F0F0FB0146304601F040FD4F
:1025F0003F9E2146F060384601F0E6FB044628463F
:10260000594601F0E1FB0146204601F09FFADDF852
:1026100000B1429FDDE91F351B9AB0601A981899E6
:10262000934407448B45FFF4B7ADDDF81CB0DDF8EB
:1026300018C00598089C0BF1010B0CF1080C8345A0
:10264000FFF46AAD0298059C3F2A4FEAC000029051
:102650003FF6C8AB43B0BDE8F08F5FEA400C08BF5F
:1026600091F0000F4FEA8C234FEAC12243EA515107
:102670004FEA1C5018BF00F5F0404FEA300018BF79
:1026800041F000415FEA6C5C00F02980BCF1FF3F43
:1026900008BF40F080407047130C06BF12044FF093
:1026A000100C4FF0000C130E04BF12020CF1080CBA
:1026B000130F04BF12010CF1040C930F04BF92001E
:1026C0000CF1020CD30F04BF52000CF1010C1146A7
:1026D0004FF00002A0F11F00A0EB0C00704711F0BA
:1026E000004F08BF704731F000413FF4D5AF0B0CED
:1026F00006BF09044FF0100C4FF0000C0B0E04BF86
:1027000009020CF1080C0B0F04BF09010CF1040CB9
:102710008B0F04BF89000CF1020CCB0F04BF4900E2
:102720000CF1010CCCF12003A0EB0C0022FA03F316
:1027300002FA0CF241EA030100F10100704720F0B7
:102740007F4C80EA030023F07F47ACEB070303F5DF
:102750007C5300F0004003F1FF032DE980494FEA6C
:10276000154B09B44FEA144325EA0B4E24EA0348FB
:102770000FF2042606EB132749083E785FEA32027F
:1027800003FB0667C7F5000707FB06F64FEA543759
:102790004FEAD64606F1020607FB066CCCF1005C58
:1027A0004FEA1C472CEA074C07FB06F40CFB06F526
:1027B00004EB15464FEA961634BF00204FF0004058
:1027C0004FEAD13706FB07FC4FEA1C4C0CFB0BF71A
:1027D000D21B03FB0CF761EB07010CFB0EF7B0EB10
:1027E000074072EB17420CFB08F734BFA2EB07421D
:1027F000B2EB074261EB17414FEA0C444FEA9107F5
:1028000006FB07FC4FEA1C4C0CFB0BF7B0EBC74078
:1028100072EB573203FB0CF734BFA2EBC742B2EBAB
:10282000C74261EB57310CFB0EF7B0EBC70072EB00
:1028300057720CFB08F734BFA2EBC702B2EBC7021A
:1028400061EB5771039F4FEA816141EA921104EBFA
:10285000CC044FEAD1374FEA826206FB07FC42EA1A
:1028600090124FEA80604FEA1C4C0CFB0BF7D21B16
:1028700003FB0CF761EB07010CFB0EF7B0EB074015
:1028800072EB17420CFB08F734BFA2EB0742B2EB26
:10289000074261EB17414FEA8C554FEA910704EB71
:1028A0009C2406FB07FC4FEA1C4C0CFB0BF7B0EB1F
:1028B000C74072EB573203FB0CF734BFA2EBC742A1
:1028C000B2EBC74261EB57310CFB0EF7B0EBC70020
:1028D00072EB57720CFB08F734BFA2EBC702B2EBE6
:1028E000C70261EB577115EB4C254FEA816141EA54
:1028F00092114FEA82624FEAD13742EA901206FB08
:1029000007FC44F100044FEA80604FEA1C4C0CFBCA
:102910000BF7D21B03FB0CF761EB07010CFB0EF767
:10292000B0EB074072EB17420CFB08F734BFA2EB89
:102930000742B2EB074261EB174115EB1C154FEA5A
:10294000813141EA92414FEA823242EA90424FEAB3
:1029500080304FEA0C7644F1000448EA03434EEA23
:102960000B484FF0000EB2EB080C71EB030724BFCD
:10297000624639464EEB0E0E4FF0000B00185241E6
:1029800049414BEB0B0BB2EB080C71EB03077BF1EE
:10299000000B24BF624639464EEB0E0E4FF0000B83
:1029A0000018524149414BEB0B0BB2EB080C71EB99
:1029B00003077BF1000B24BF624639464EEB0E0E37
:1029C00051EA020718BF46F0010616EB0E7655F1E4
:1029D000000254F1000103D5BDE88901BDE800887B
:1029E000BDE88901BDE80048B619524141EB01013B
:1029F000A3F10103704780807F7E7D7C7B7A7978AC
:102A0000777676757473727171706F6E6E6D6C6CB3
:102A10006B6A6A6968686766666564646363626155
:102A20006160605F5F5E5E5D5D5C5C5B5B5A5A59D6
:102A30005958585757565655555554545353525242
:102A40005251515050504F4F4F4E4E4D4D4D4C4C9A
:102A50004C4B4B4B4A4A4A494949484848474747E3
:102A60004746464645454544444444434343434220
:102A7000424242414141002B9C4630D477002BD04A
:102A80001CB54FEA370703B44FF010004FF01001A8
:102A9000BAF1000F06D0BCF1000FDCBF40F0080017
:102AA00040F008014FF000000FBCBDE810400BF1F2
:102AB000010BBBF1010F08BF5FEA170722BF12F13C
:102AC000010211F101014FF0004143F1000300F058
:102AD000004043EA00007047F9D35708D0E746EAC0
:102AE000064613F1400F4FEA16461FDD13F1200F83
:102AF000DFBF16430A46002120335B42BED0C3F13C
:102B0000200746EA064602FA07F74FEA164646EA63
:102B10000706C3F1200722FA03F201FA07F721FAA8
:102B200003F14FF0000342EA0702A7E746EA020674
:102B300046EA06464FEA164646EA0106BCBF46EAA2
:102B40000646360C4FF000034FF000024FF0000134
:102B500094E72DE9804C9A46934670B491E838008A
:102B600007C831EA400C48BF34EA430C03D5FFF7ED
:102B7000E6FDFFF780FFF0BCBDE8008C2DE9804C3E
:102B80009A46934670B491E8380007C810F0804F19
:102B900008BF13F0804F03D100F005F8FFF76BFF7B
:102BA000F0BCBDE8008C20F07F4780EA030023F0F2
:102BB0007F4C07EB0C03A3F57C5300F00040A3F11E
:102BC000FE0392F0000F00F0B38095F0000F00F0CC
:102BD00077802DE901494FEA11404FEA144621EA76
:102BE000004800FB06FC24EA064708FB06F607FB44
:102BF00008F800FB07F718EB06484CEB164C4FEAB9
:102C0000124B18EB07484FEA15464CEB174022EAE7
:102C10000B4E0BFB06FC25EA06470EFB06F607FBF0
:102C20000EFE0BFB07F71EEB064E4CEB164C4FF05F
:102C300000061EEB074E4CEB174B18EB0B0840F150
:102C4000000018EB0E0B58EB000840F100008F1A43
:102C50004FF000013CBFC943661B14BFB5EB040C29
:102C600000213CBFC943F61B4FEA17444EEA8E0EC3
:102C700027EA04454FEA1C4704FB07622CEA074C8D
:102C800005FB07F70CFB05F604FB0CFC16EB0746EF
:102C900042EB174216EB0C4642EB1C421BEB0606BE
:102CA00058EB0202414146EA9E0601D5BDE8018982
:102CB000B619524141EB0101A3F10103BDE80189BD
:102CC0004FEA14454FEA114724EA054621EA074C2A
:102CD00005FB07F406FB07F70CFB06F105FB0CFCF4
:102CE00011EB074144EB17444FEA124711EB0C413B
:102CF00044EB1C4422EA074C05FB07F206FB07F7EE
:102D00000CFB06F605FB0CFC16EB074642EB1742E4
:102D100016EB0C4642EB1C456A1854F1000148BF03
:102D20007047B619524141EB0101A3F1010370470D
:102D300095F0000F37D04FEA11424FEA144721EACD
:102D4000024624EA074C02FB07F106FB07F70CFBDF
:102D500006F402FB0CFC14EB074441EB17414FEA6D
:102D6000154714EB0C4441EB1C4125EA074C02FBD0
:102D700007F506FB07F70CFB06F602FB0CFC16EB4F
:102D8000074645EB174516EB0C4645EB1C4212195E
:102D900051F1000148BF7047B619524141EB0101A2
:102DA000A3F1010370474FEA14454FEA114724EAA3
:102DB000054621EA074C05FB07F106FB07F70CFB6C
:102DC00006F24FF0000605FB0CFC12EB074241EB4C
:102DD000174112EB0C4251EB1C4148BF704792184F
:102DE00041EB0101A3F101037047FEE7704772B6A2
:102DF000FEE7000070B5044600F0FEF80546601CD2
:102E000002D004480078044400F0F6F8401BA042C9
:102E1000FAD370BD080400202DE9F84FDFF8B8910F
:102E20000024A9F1040B23460F2709F1040AABF192
:102E3000040EC9E00125A5402A40AA427DD1674E73
:102E4000D1F804C0ACEB0608B44532D014DCBCF1B8
:102E5000030F3AD009DCBCF1000F2AD0BCF1010FFE
:102E60001CD0BCF1020F31D11DE0BCF1110F17D005
:102E7000BCF1120F2AD119E0B8F5881F19D006DC71
:102E8000B8F5803F15D0B8F5801F1FD111E0B8F517
:102E9000001F0ED0B8F5041F18D10AE0CB6815E06A
:102EA000CB681B1D12E0CB6808330FE0CB680C33F6
:102EB0000CE08B682BB1012B4FF0080303D0456168
:102EC00004E0042302E0056100E00023FF2A01D8AA
:102ED000064601E000F104064FEA840501D9A5F198
:102EE0002005D6F8008007FA05FC28EA0C0803FA4A
:102EF00005F548EA0508C6F800804D68ED0062D582
:102F0000374DAE6946F00106AE61AD6924F00306A7
:102F100005F001050095334D06EB050CDCF8085073
:102F2000A607360F07FA06F825EA0805DFF8B88085
:102F3000404503D14FF0000817E044E0DFF8AC80D3
:102F4000404502D14FF001080FE0DFF8A480404572
:102F500002D14FF0020808E0DFF89880404502D126
:102F60004FF0030801E04FF0040808FA06F848EAB9
:102F70000508CCF808804D68D9F80060ED024D4690
:102F800001D5164300E096432E604D68DAF80060E4
:102F9000AD02554601D5164300E096432E604D68BC
:102FA000DBF80060AD035D4601D5164300E09643B3
:102FB0002E604D68DEF80060ED03754601D51643BE
:102FC00000E096432E60641C0D682A46E5407FF4BD
:102FD00031AFBDE8F88F0000080401400000111077
:102FE000001002400000014000080140000C0140B8
:102FF0000010014000140140014880687047000043
:1030000008040020024881680278114481607047FA
:1030100008040020074810B5016841F01001016064
:10302000032000F05FF80F2000F006F800F024F80D
:10303000002010BD0020024070B50D4D04464FF435
:103040007A712878B1FBF0F00A490968B1FBF0F019
:1030500000F0C6FA48B9102C07D200222146501EB3
:1030600000F020F800206C6070BD012070BD0000F1
:103070000804002014040020094808B5816941F0C3
:1030800001018161816901F001010091C16941F093
:103090008051C161C06900F08050009008BD0000FF
:1030A00000100240F0B40E4B1B680C46C3F3022321
:1030B000C3F10705042D00D90425191D072901D2E4
:1030C000002300E0DB1E012606FA05F1491E21401F
:1030D00099409E40761E16403143F0BC00F069BC1A
:1030E0000CED00E0064900F0070208684FF6FF0308
:1030F000184040EA0220034A10430860704700006D
:103100000CED00E00000FA052DE9F0470F46050040
:1031100061D0434E306800F00700B84209D23068F1
:1031200020F0070038433060306800F00700B842F4
:1031300051D128683B4C810712D5400703D5606800
:1031400040F4E06060602878000703D5606840F4D0
:10315000605060606068A96820F0F000084360601B
:103160002878C00728D06868012810D02168022874
:1031700010D0890700292EDA616821F0030101438C
:103180006160FFF739FF804641F288390DE0216820
:103190008903EFE78901EDE7FFF72EFFA0EB0801B8
:1031A000494502D90320BDE8F0876068696800F0EE
:1031B0000C00B0EB810FEFD1306800F00700B8428F
:1031C0000BD9306820F0070038433060306800F0D9
:1031D0000700B84201D00120E5E72878400705D56F
:1031E0006068E96820F4E0600843606028780007C0
:1031F00006D56068296920F4605040EAC10060602B
:1032000000F038F86168084AC1F30311515CC84006
:103210000649086006480068FFF70EFF0020C2E775
:103220000020024000100240504200081404002018
:103230000C0400200448054900684968044AC1F3A9
:103240000221515CC8407047140400200010024065
:10325000604200080448054900684968044AC1F30F
:10326000C221515CC8407047140400200010024085
:10327000604200080E4A51680E4801F00C03042B0E
:1032800011D0082B0FD10C48C1F38343C903C05C94
:103290000AD55168084AC1F34041921E515C054A63
:1032A0005043B0FBF1F070470449484370470000B9
:1032B0000010024000127A004042000800093D0060
:1032C0002DE9F84F040070D02078C04DC00749D0D8
:1032D0006868C0F38100012807D06868C0F38100E6
:1032E000022809D16868C00306D52868800339D54B
:1032F00060680028E7D035E06068B0F5803F0BD00B
:1033000010B1B0F5A02F11D0286820F480302860CB
:10331000286820F4802002E0286840F4803028608B
:10332000606890B1FFF768FE06460AE0286840F43E
:1033300080202860F0E700BFFFF75EFE801B642856
:1033400073D828688003F7D50CE0FFF755FE0646D2
:1033500005E000BFFFF750FE801B6428F0D8286806
:103360008003F7D420789A4E80074FF001094FF080
:10337000000839D5686810F00C0F07D06868C0F3F2
:103380008100022809D16868C00306D42868800734
:1033900014D52069012808D110E02069B0B1C6F821
:1033A0000090FFF729FE074605E00AE1FFF724FE3B
:1033B000C01B0228C4D828688007F7D5286861692F
:1033C00020F0F80040EAC10028600DE0C6F8008057
:1033D000FFF712FE074604E0FFF70EFEC01B0228AF
:1033E00023D828688007F7D4207800072CD579489F
:1033F000A169D9B1C0F80090FFF7FEFD074604E0CF
:10340000FFF7FAFDC01B02280FD8686A8007F7D5BE
:1034100071484FF4FA510068B0FBF1F0009000BF22
:103420000098411E0091FAD20EE080E0C0F80080C2
:10343000FFF7E2FD074604E0FFF7DEFDC01B0228B0
:1034400075D8686A8007F7D42078400760D5E869A6
:103450000027C00008D4E86940F08050E861E869BE
:10346000012700F0805000905C480168C90513D422
:103470000168834641F480710160FFF7BDFD82461B
:1034800006E000BFFFF7B8FDA0EB0A0064284ED8A5
:10349000DBF80000C005F5D5E06801280AD008B1C6
:1034A000052813D0286A20F001002862286A20F03D
:1034B000040002E0286A40F001002862E06841F25E
:1034C000883B98B1FFF798FD82460BE0286A40F0F0
:1034D00004002862EEE700BFFFF78EFDA0EB0A01B3
:1034E00059455AD8286A8007F6D50CE0FFF784FDC5
:1034F000824605E0FFF780FDA0EB0A0159454CD854
:10350000286A8007F6D41FB1E86920F08050E8618E
:10351000E06988B36968C1F38101022944D00228B7
:10352000C6F8608004D0FFF767FD044638E034E059
:10353000FFF762FD074604E0FFF75EFDC01B0228AF
:103540002BD828688001F7D4206AB0F5803F05D1D8
:103550006868A16820F4003008436860D4E9080175
:103560000843696821F4741108436860C6F86090E4
:10357000FFF742FD044606E025E000BFFFF73CFDF3
:10358000001B022809D828688001F7D51BE000BF7E
:10359000FFF732FD001B022802D90320BDE8F88F97
:1035A00028688001F4D40EE00128F7D06868226A08
:1035B00000F48031914204D1616A00F470108842B5
:1035C00001D00120EAE70020E8E7000000100240F7
:1035D0000000424280044242140400200070004077
:1035E00010B5401EB0F1807F01D3012010BD4FF017
:1035F000E02460610F21601700F0DBF90020A0617A
:1036000007202061002010BD70B5040004D094F89C
:103610004100002510B106E0012070BD84F8405043
:10362000204600F023F8242084F841002068C16877
:1036300021F40051C160204600F00EF920680169B4
:1036400021F4904101612068416921F02A01416122
:103650002068C16841F40051C1606564202084F88D
:10366000410084F842006563002070BD30B585B02C
:103670000024009401940294039400681449884241
:1036800024D11448816941F480418161816901F448
:1036900080410491816941F00401816180690E4D8E
:1036A00000F0040004904FF400700090022001909C
:1036B0000320039069462846FFF7AEFB2815CDE9A5
:1036C0000004694628460294FFF7A6FB05B030BD0A
:1036D0000038014000100240000801402DE9F84385
:1036E000044690F841001F4616460D46202802D099
:1036F0000220BDE8F8837DB176B10020606421200E
:1037000084F84100FFF778FCA6848046E684A06830
:10371000B0F5805F02D003E00120EAE7206910B134
:103720002E4600250EE000260CE08021204600F009
:10373000EFF8A0B9AEB116F8010B21684860E08C33
:10374000401EE084E08C43464FF0000200970028C2
:10375000EBD14FF04001204600F0DAF830B1032001
:10376000C7E735F8020BC0F30800E6E7202084F82D
:1037700041000020BDE7FEE70D4808B5816941F032
:1037800010018161816901F010010091816941F0AE
:1037900020018161816901F020010091816941F07E
:1037A00004018161806900F00400009008BD000000
:1037B000001002400C4810B50A4901604FF4E13195
:1037C0004160002181600C22C160C0E90412816166
:1037D000C161FFF719FF002803D0BDE81040FFF7D3
:1037E00006BB10BD00380140240E0020FEE7FEE7B6
:1037F00070477047FFF706BC30B58FB02821684688
:10380000FCF75AFD14210AA8FCF756FD0121080413
:10381000CDE900100024029402250491CDE907505F
:103820004FF4E01009906846FFF74AFD08B172B600
:10383000FEE70F20CDE90A054FF48060CDE90C408A
:1038400002210AA80E94FFF75FFC002801D072B68F
:10385000FEE70FB030BD704770B5044600680169DF
:10386000E26821F44051114301612169A0680843D5
:10387000616908432168CA6841F20C639A430243B4
:10388000CA6020684169A26921F440711143416115
:103890001E492068884202D1FFF7DCFC01E0FFF7F7
:1038A000C9FC00EBC00101EB0012606864218000DC
:1038B000B2FBF0F3B3FBF1F36FF018067343B2FB06
:1038C000F0F5B2FBF0F605EB8305322303EB0515AB
:1038D000B5FBF1F5B6FBF1F605F0F00505EB0615C5
:1038E000B2FBF0F6B2FBF0F0B0FBF1F06FF01802B3
:1038F000504306EB800003EB0010B0FBF1F02168B1
:1039000000F00F002844886070BD000000380140BE
:103910002DE9F041984617460E460446069D27E0DD
:10392000681C25D02DB1FFF767FBA0EB0800A8426B
:103930001ED920680C3050E8001F21F4D07140E8F7
:103940000012002AF5D12068143050E8001F21F041
:10395000010140E80012002AF5D1202084F841003E
:1039600084F84200002084F840000320BDE8F08184
:103970002068006836EA000004D00020B842CFD0AA
:103980000020F3E70120F9E7FEE7490050EAC120F3
:1039900018BF04204A0D18BF40F0010040F2FF722A
:1039A000B2EB515F08BF40F00200012808BF0520BC
:1039B00070470907090E002804DB00F1E02080F8B9
:1039C0000014704700F00F0000F1E02080F8141D93
:1039D0007047000013B54FF47A730122694602481C
:1039E000FFF77CFE01201CBD240E0020FFF712FB18
:1039F000FFF702FFFFF7C0FEFFF7DCFEDFF878906D
:103A0000DFF878800024A9F108052646494640469B
:103A1000C5F8004051F8262040F8362000EBC602D9
:103A2000761C5460FF2EF5DD012300221349144853
:103A30002E60FDF74BFC802212491048FEF756F924
:103A4000104E6FF006076C606868394656F8200023
:103A500000F0B7FB00F04EF802460B460AA0FCF758
:103A6000EBFB6868401C68608028EDDB4FF47A70DF
:103A7000FFF7C0F9C9E70000080000202404002077
:103A800078460008240C002025660D0A000000007E
:103A900070B5054600F064FA044620F00040C0F11D
:103AA000FF40C00F08D025F00040C0F1FF40C00F1C
:103AB00004BF0120FCF72FFC204670BD10B5002983
:103AC0000AD00878002807D005487844FDF756F951
:103AD000002801D0002010BD0248784410BD00002D
:103AE000DE130000D61300000808A0F500114FEA0D
:103AF0003101704743004FEAD30C4FEA3C0C43407E
:103B00001FBF40070CF1605113F0FE4F70471CF0CF
:103B1000006F03D100200CF0004170470CF000430F
:103B200043EA507010B540EACC0000F0CEF900BF77
:103B3000000000924FEA0001FFF7D6BF4FF00041AE
:103B40004FF00000A1F500217047000090EA010F3E
:103B500048BF81F0004100F19282421A3CBF801AB6
:103B600089184FEAD0524FF07F4C1CEA410FA2EB6C
:103B7000D15318BF9CEA026F00F03B804FF0004C1D
:103B80004CEA00204CEA012121FA03FC10EB0C0C5A
:103B90001ED202F1FF325FEA1C2040EBC25038BF58
:103BA00070471CF07F0F4FEA400C18BFBCF17F4FED
:103BB00038BF7047C3F12003994008BF20F00100CF
:103BC000BCF17F4F38BF7047A0F1C04000F0C3B9CF
:103BD0004FEA3C00000A40EBC25028BF1CF0FF0F28
:103BE0004FEA400CE6D018BFBCF17F4F38BF70479A
:103BF000EAE79CEA026F05D010EA5C0F08BF00F00C
:103C00000040704710B500F060F900BF64FBBE3E95
:103C1000014800F0A4BA00BF0000C07F4FF47F0C41
:103C20001CEAD0121EBF1CEAD11392EA0C0F93EAD1
:103C30000C0F00F0858090EA010F48BF42F48072BB
:103C400040F4000C41F400002CF07F4120F07F4054
:103C500000B58142A2EB03020FF2081CACEB504E00
:103C6000C0F100009EF800E04FEA4E0E00FB0EFC93
:103C700038BF49004FEA2C1C02F5FA020CFB0EF388
:103C80004FEACE1E4FEA112C4FEAC1210EEB635EC4
:103C900042EB22420EFB0CFC4FEA1C5300FB0311CB
:103CA0004FEA112C4FEA01310EFB0CFC4FEADC4CC1
:103CB00000FB0C11C14228BF09184CEB03335DF81F
:103CC00004EB10EB410143EBC250B2F57C0F38BF5F
:103CD000704729D512F0F00F1CBF00F1C04000F072
:103CE00000407047008182838485868788898B8C19
:103CF0008D8E8F919293959697999A9C9D9FA0A255
:103D0000A3A5A7A8AAACAEB0B2B3B5B7B9BCBEC0A4
:103D1000C2C5C7C9CCCED1D4D7D9DCDFE2E6E9EC45
:103D2000F0F3F7FAFE0000004FEA400C0CF1807C43
:103D3000BCF17E4F28BF7047B0F1C04000F00BB916
:103D400090EA010F0CEAD11348BF42F48072624539
:103D500038BF634507D213F47F0F16D080EA010005
:103D600000F00040704710B500F0AFF8097EFC3E4F
:103D700000F005B880EA010000F00040704780EADA
:103D8000010000F0004000F0E6B812F47F0F04BF1D
:103D90000248704780EA010000F0DDB80000C07FF3
:103DA000B0FA80F310FA03F2C3F19D030AD0D905EB
:103DB00001EB1220530638BF704700F1010008BF25
:103DC00020F00100704700004FF47F0C1CEAD01275
:103DD0001EBF1CEAD11392EA0C0F93EA0C0F00F0FD
:103DE000478090EA010F48BF42F480724FF0004CC8
:103DF0004CEA00204CEA012102EB0302A0FB011374
:103E0000A2F50002002918BF43F001035B0028BFA0
:103E10004FEA330342EB22425FEA132C4CEBC250D1
:103E20002EBFBCEB436FB2F57C0F70474FEA036CBB
:103E3000BCF1004F08BF20F00100B2F57C0F38BF85
:103E400070470BD582F0FF0212F5803FC8BF704764
:103E500000F1C040D8BF00F00040704700F5000CF2
:103E60005FEA4C0C48BF7047B0F1C04000F073B837
:103E700090EA010F0CEAD11348BF42F48072624508
:103E800038BF634504D280EA010000F0004070476B
:103E900010B500F01AF800BF8900013E00F007B825
:103EA00000F009B85FEA410C5FEA1C6C08D080EAB8
:103EB000010000F050B85FEA400C5FEA1C6CF6D1DC
:103EC0004FF00040A0F5800070470EF1020E2EF07A
:103ED000030E5EF8044B244204D44FEA4102B2F1CF
:103EE0007F4F11D84FEA4003B3F17F4F0CD80ED16A
:103EF0004FEAD07CB2F17F4F0CEB4C0C0CF1020C72
:103F000008BF4CEBD17C04E04FF0080C01E04FEA15
:103F1000D17C0CEB4C0324FA03F404F00704B4F155
:103F2000040C06D20EEB840CBDE810404CF0010CE2
:103F30006047DFE80CF0070802024FF00040A0F5F0
:103F4000800010BD0846420018BFD2F1807288BFC1
:103F500000F0004010BDFF2141EAD050C00570477D
:103F60004FEAD051002988BFD1F1FF0240F275809D
:103F700001F17D014FEA002070B5490840F0004092
:103F800038BF40080EA2430E040CD25C02FB02F3C1
:103F900004FB03F3C3F14043A3FB0254ED0D45EAD8
:103FA000442202FB02F3A0FB03546D42C4F14044DF
:103FB00038BF641EA2FB05350023E2FB0453EA0B65
:103FC00042EA4342A0FB023212F14004A2F1210373
:103FD000E40903F07F031F2B32D904EBC15070BDFD
:103FE000FEFAF7F3F0ECE9E6E4E1DEDCD9D7D4D26F
:103FF000D0CECCCAC8C6C4C2C1BFBDBCBAB9B7B6A0
:10400000B4B3B2B0AFAEACABAAA9A8A7A6A4A3A202
:10401000A1A09F9E9E9D9C9B9A99989797969594F8
:104020009393929190908F8E8E8D8C8C8B8A8A89AF
:10403000898887878686858484838382828181803C
:1040400004FB04F6B6EB004603D5E64248BF641C09
:10405000C3E7A64258BF641CBFE711F0FF0F02D1AF
:1040600000F00040704710B5FFF72FFF7FDBFFBE69
:1040700090EA010F48BF81F000413FF56EAD421A52
:1040800004D882F00042A0EB020011444FEAD05263
:104090004FF07F4C1CEA410FA2EBD15318BF9CEAB2
:1040A000026F4AD04FF0004C4CEA00204CEA01214C
:1040B00021FA03FCB0EB0C0C0FD412F0FE0F36D03B
:1040C0005FEA4C001DD5001240EBC25038BF70476C
:1040D0001CF03F0F18BF70470BE0A2F101025FEA2E
:1040E0001C2040EBC25038BF70471CF07F0F18BF38
:1040F0007047C3F12003994014BF401E20F0010017
:10410000704780084FEA122308BF7047B0FA80FC5E
:10411000A2EB0C02CCF1280C60FA0CF093EA122FFF
:1041200004BF00EBC25070474FEAC3707047130AD8
:104130005FEADC1008BF7047F6E79CEA026F04D024
:1041400010EA5C0F08BF0020704710B5FFF7BDFEF6
:1041500040DFF63E81F000407047FCF7BBB90CF041
:104160000F03092B08BF082000F051800A2B0BD049
:10417000082B18BF704708BF1CF0400F0AD04FF043
:1041800000004FF0000170471CF0400F18BF4FF0C7
:10419000004070471CF0100F08D020F0704300F072
:1041A0007F4242EAD3014FEA4370704700F060401B
:1041B00021F07F4242EA000201F07F4040EA727043
:1041C00070474FF0FF0212EAD0521CBF92F0FF037B
:1041D0008B42C2BFD14200EBC1507047002A0AD0C7
:1041E000002B0BD0002900F00040A4BF40F0FE409F
:1041F00040F40000704700F00040704743024FF069
:104200000B0C18BF4CF0806C7FF402AD70471CF4AF
:10421000801F11D01CF4E02F03D06FEACC3149008D
:1042200070474FF04050EFF3008222F0704242EAB4
:10423000000282F3008870474FF0000070470102CF
:1042400002030405060708090A0B0C0D0E0F1010D7
:104250000000000000000000010203040607080936
:10426000000000000102030402400000000000A062
:104270000000000005400000000000C80000000031
:104280000C4000000000409C0000000019400000AD
:104290000020BCBE0000000034400000BFC91B8EDF
:1042A00000000004B5400000504BCFD06607E2CFBD
:1042B000010000006C4100003E8251AADFEEA734ED
:1042C00001000000D9420000DCB5A0E23A301F979F
:1042D000FFFFFFFFB4450000FD25A0C8E9A3C14FC3
:1042E000FFFFFFFFFF3F0000000000800000000014
:1042F000FF3F000000000080000000003A747400DE
:104300003A7474003A74740008000002100000044B
:104310001800000620004000280040023000400441
:1043200038004006400080004800800250008004B1
:10433000580080066000C0006800C0027000C00421
:104340007800C0068000000188000003900000058E
:1043500098000007A0004001A8004003B0004005FD
:10436000B8004007C0008001C8008003D00080056D
:10437000D8008007E000C001E800C003F000C005DD
:10438000F800C0070001000208010802100108043B
:104390001801080620018002280148023001480463
:1043A0003801480640010003480188025001880492
:1043B00058018806600180036801C8027001C804C2
:1043C0007801C806800108028801080390010805E9
:1043D00098010807A0018802A8014803B001480518
:1043E000B8014807C0010803C8018803D001880547
:1043F000D8018807E0018803E801C803F001C80577
:10440000F801C8070802100200020004100210049C
:1044100018021006200280042802500230025004C4
:1044200038025006400200054802900250029004F3
:1044300058029006600280056802D0027002D00423
:104440007802D0068002080488021003900210054A
:1044500098021007A0028804A8025003B002500579
:10446000B8025007C0020805C8029003D0029005A8
:10447000D8029007E0028805E802D003F002D005D8
:10448000F802D00700030006080310061003180402
:1044900018031806200380062803900630035804EA
:1044A00038035806400300074803100750039804D8
:1044B0005803980660038007680390077003D804C8
:1044C0007803D806800308068803180690031805A9
:1044D00098031807A0038806A8039806B003580598
:1044E000B8035807C0030807C8031807D003980586
:1044F000D8039807E0038807E8039807F003D80576
:10450000F803D807080480041004200418042006C7
:104510002804800530046004380460064004000666
:10452000480488045004A0045804A006600410063F
:10453000680488057004E0047804E00688048006B6
:104540009004200598042007A0040806A80480070A
:10455000B0046005B8046007C0042006C8048806DB
:10456000D004A005D804A007E0041806E8048807D2
:10457000F004E005F804E0070805200510058005B3
:1045800018052806280590053005880538056806B1
:104590004005000748052007500580075805A80674
:1045A0006005080768059805700588077805E8061E
:1045B0008805900698052807A0052806A8059007F5
:1045C000B0052807B8056807C0051007C805980694
:1045D000D0059007D805A807E0051807E805980753
:1045E000F0059807F805E807180630063806700643
:1045F0004006000748068007500608075806B00620
:104600006006100768069007700618077806F0061F
:104610008806A00698063007A806A007B0068807F7
:10462000B8067007C0062007C806A007D0062807EE
:10463000D806B007E0063007E806A807F006980796
:10464000F806F00748075007380798075007600733
:10465000580770076007C0076807D0077807F0079A
:104660007007E007B807F007A807B007D807F007FA
:10467000C807E007E807F0070001000088460008C7
:1046800008430008B80100000000803F000000005F
:1046900043EC7F3FB00AC93C0FB17F3F2FFB483D41
:1046A0006D4E7F3F05A9963D6DC47E3F36BDC83D2A
:1046B00024137E3F73B2FA3DAC3A7D3F8340163EF1
:1046C000283B7C3FA2102F3EBE147B3FC2C5473E15
:1046D0009DC7793F135C603EF853783FCCCF783E5E
:1046E00007BA763F938E883E0BFA743F31A0943E12
:1046F0004714733FE59AA03E0809713FD47CAC3E55
:104700009ED86E3F2A44B83E5E836C3F15EFC33E91
:10471000A7096A3FCA7BCF3ED86B673F80E8DA3E85
:1047200059AA643F7533E63E98C5613FEA5AF13EA7
:1047300005BE5E3F275DFC3E1A945B3F3D9C033FF8
:104740005348583F9BF5083F31DB543FDA390E3F61
:104750003D4D513F2A68133F029F4D3FC07F183F98
:1047600012D1493FD17F1D3F03E4453F9967223F66
:1047700070D8413F5636273FF9AE3D3F4AEB2B3FBD
:104780004268393FBB85303FF304353FF304353F82
:10479000BB85303F4268393F4AEB2B3FF9AE3D3F86
:1047A0005636273F70D8413F9967223F03E4453F83
:1047B000D17F1D3F12D1493FC07F183F029F4D3F1F
:1047C0002A68133F3D4D513FDA390E3F31DB543FEC
:1047D0009BF5083F5348583F3D9C033F1A945B3F6D
:1047E000275DFC3E05BE5E3FEA5AF13E98C5613F3B
:1047F0007533E63E59AA643F80E8DA3ED86B673FDE
:10480000CA7BCF3EA7096A3F15EFC33E5E836C3F6C
:104810002A44B83E9ED86E3FD47CAC3E0809713F16
:10482000E59AA03E4714733F31A0943E0BFA743FC3
:10483000938E883E07BA763FCCCF783EF853783FC8
:10484000135C603E9DC7793FC2C5473EBE147B3FA7
:10485000A2102F3E283B7C3F8340163EAC3A7D3F62
:1048600073B2FA3D24137E3F36BDC83D6DC47E3F12
:1048700005A9963D6D4E7F3F2FFB483D0FB17F3F11
:10488000B00AC93C43EC7F3F000000000000803FBD
:10489000B00AC9BC43EC7F3F2FFB48BD0FB17F3F3F
:1048A00005A996BD6D4E7F3F36BDC8BD6DC47E3F28
:1048B00073B2FABD24137E3F834016BEAC3A7D3FEF
:1048C000A2102FBE283B7C3FC2C547BEBE147B3F13
:1048D000135C60BE9DC7793FCCCF78BEF853783F5C
:1048E000938E88BE07BA763F31A094BE0BFA743F10
:1048F000E59AA0BE4714733FD47CACBE0809713F53
:104900002A44B8BE9ED86E3F15EFC3BE5E836C3F8F
:10491000CA7BCFBEA7096A3F80E8DABED86B673F83
:104920007533E6BE59AA643FEA5AF1BE98C5613FA5
:10493000275DFCBE05BE5E3F3D9C03BF1A945B3FF6
:104940009BF508BF5348583FDA390EBF31DB543F5F
:104950002A6813BF3D4D513FC07F18BF029F4D3F96
:10496000D17F1DBF12D1493F996722BF03E4453F64
:10497000563627BF70D8413F4AEB2BBFF9AE3D3FBB
:10498000BB8530BF4268393FF30435BFF304353F80
:10499000426839BFBB85303FF9AE3DBF4AEB2B3F84
:1049A00070D841BF5636273F03E445BF9967223F81
:1049B00012D149BFD17F1D3F029F4DBFC07F183F1D
:1049C0003D4D51BF2A68133F31DB54BFDA390E3FEA
:1049D000534858BF9BF5083F1A945BBF3D9C033F6B
:1049E00005BE5EBF275DFC3E98C561BFEA5AF13E39
:1049F00059AA64BF7533E63ED86B67BF80E8DA3EDC
:104A0000A7096ABFCA7BCF3E5E836CBF15EFC33E6A
:104A10009ED86EBF2A44B83E080971BFD47CAC3E14
:104A2000471473BFE59AA03E0BFA74BF31A0943EC1
:104A300007BA76BF938E883EF85378BFCCCF783EC6
:104A40009DC779BF135C603EBE147BBFC2C5473EA5
:104A5000283B7CBFA2102F3EAC3A7DBF8340163E60
:104A600024137EBF73B2FA3D6DC47EBF36BDC83D10
:104A70006D4E7FBF05A9963D0FB17FBF2FFB483D0F
:104A800043EC7FBFB00AC93C000080BF00000000BB
:104A900043EC7FBFB00AC9BC0FB17FBF2FFB48BD3D
:104AA0006D4E7FBF05A996BD6DC47EBF36BDC8BD26
:104AB00024137EBF73B2FABDAC3A7DBF834016BEED
:104AC000283B7CBFA2102FBEBE147BBFC2C547BE11
:104AD0009DC779BF135C60BEF85378BFCCCF78BE5A
:104AE00007BA76BF938E88BE0BFA74BF31A094BE0E
:104AF000471473BFE59AA0BE080971BFD47CACBE51
:104B00009ED86EBF2A44B8BE5E836CBF15EFC3BE8D
:104B1000A7096ABFCA7BCFBED86B67BF80E8DABE81
:104B200059AA64BF7533E6BE98C561BFEA5AF1BEA3
:104B300005BE5EBF275DFCBE1A945BBF3D9C03BFF4
:104B4000534858BF9BF508BF31DB54BFDA390EBF5D
:104B50003D4D51BF2A6813BF029F4DBFC07F18BF94
:104B600012D149BFD17F1DBF03E445BF996722BF62
:104B700070D841BF563627BFF9AE3DBF4AEB2BBFB9
:104B8000426839BFBB8530BFF30435BFF30435BF7E
:104B9000BB8530BF426839BF4AEB2BBFF9AE3DBF82
:104BA000563627BF70D841BF996722BF03E445BF7F
:104BB000D17F1DBF12D149BFC07F18BF029F4DBF1B
:104BC0002A6813BF3D4D51BFDA390EBF31DB54BFE8
:104BD0009BF508BF534858BF3D9C03BF1A945BBF69
:104BE000275DFCBE05BE5EBFEA5AF1BE98C561BF37
:104BF0007533E6BE59AA64BF80E8DABED86B67BFDA
:104C0000CA7BCFBEA7096ABF15EFC3BE5E836CBF68
:104C10002A44B8BE9ED86EBFD47CACBE080971BF12
:104C2000E59AA0BE471473BF31A094BE0BFA74BFBF
:104C3000938E88BE07BA76BFCCCF78BEF85378BFC4
:104C4000135C60BE9DC779BFC2C547BEBE147BBFA3
:104C5000A2102FBE283B7CBF834016BEAC3A7DBF5E
:104C600073B2FABD24137EBF36BDC8BD6DC47EBF0E
:104C700005A996BD6D4E7FBF2FFB48BD0FB17FBF0D
:104C8000B00AC9BC43EC7FBF00000080000080BFB9
:104C9000B00AC93C43EC7FBF2FFB483D0FB17FBF3B
:104CA00005A9963D6D4E7FBF36BDC83D6DC47EBF24
:104CB00073B2FA3D24137EBF8340163EAC3A7DBFEB
:104CC000A2102F3E283B7CBFC2C5473EBE147BBF0F
:104CD000135C603E9DC779BFCCCF783EF85378BF58
:104CE000938E883E07BA76BF31A0943E0BFA74BF0C
:104CF000E59AA03E471473BFD47CAC3E080971BF4F
:104D00002A44B83E9ED86EBF15EFC33E5E836CBF8B
:104D1000CA7BCF3EA7096ABF80E8DA3ED86B67BF7F
:104D20007533E63E59AA64BFEA5AF13E98C561BFA1
:104D3000275DFC3E05BE5EBF3D9C033F1A945BBFF2
:104D40009BF5083F534858BFDA390E3F31DB54BF5B
:104D50002A68133F3D4D51BFC07F183F029F4DBF92
:104D6000D17F1D3F12D149BF9967223F03E445BF60
:104D70005636273F70D841BF4AEB2B3FF9AE3DBFB7
:104D8000BB85303F426839BFF304353FF30435BF7C
:104D90004268393FBB8530BFF9AE3D3F4AEB2BBF80
:104DA00070D8413F563627BF03E4453F996722BF7D
:104DB00012D1493FD17F1DBF029F4D3FC07F18BF19
:104DC0003D4D513F2A6813BF31DB543FDA390EBFE6
:104DD0005348583F9BF508BF1A945B3F3D9C03BF67
:104DE00005BE5E3F275DFCBE98C5613FEA5AF1BE35
:104DF00059AA643F7533E6BED86B673F80E8DABED8
:104E0000A7096A3FCA7BCFBE5E836C3F15EFC3BE66
:104E10009ED86E3F2A44B8BE0809713FD47CACBE10
:104E20004714733FE59AA0BE0BFA743F31A094BEBD
:104E300007BA763F938E88BEF853783FCCCF78BEC2
:104E40009DC7793F135C60BEBE147B3FC2C547BEA1
:104E5000283B7C3FA2102FBEAC3A7D3F834016BE5C
:104E600024137E3F73B2FABD6DC47E3F36BDC8BD0C
:104E70006D4E7F3F05A996BD0FB17F3F2FFB48BD0B
:104E800043EC7F3FB00AC9BCC44E000800000020BC
:104E90002404000028010008B05100082404002068
:104EA000A41100008C0100081C0000004300000059
:104EB000F8FFFFFF0C0000000E0000000F000000D4
:104EC0002E0000006200011013C03A440080DD4350
:104ED00000801D4400C029440040390812370C10DE
:104EE0000A17440000EE4300009504100EBE420075
:104EF000007CC2000076C30000B004100AECC300BE
:104F00008003C400000904100619C40040160810EC
:104F10000A12C400C00CC40080EB1C12BF2812612E
:104F20002812FE34127C3C1285601006D64300C065
:104F3000136C12315811641340330C121B7C12E4B1
:104F40001C12976412E02812986412634012AC4459
:104F500012D94412045C21581217645218601114BB
:104F60001380DB8412C12812870812BC3410061883
:104F7000420080926412DAC8121460122CC4123CEF
:104F8000D81234D41164130001CC12916412D4C825
:104F90001278641262A412AE6412E0041006FBC31D
:104FA00000400FC8121568421908130007D812F8FC
:104FB0008412CB8C128CF012C63412543C12624410
:104FC00013CC43941528163528216011C8174021A9
:104FD0002C12F3E4129FC812F6C8128A64165A2CD7
:104FE00016AD2C26E20832C3BC21CC2240641170DD
:104FF00016403C1780F02C12B364568B2C1286A0FE
:105000004263C817401024162A9C123D04259412AE
:105010001C6416F78C16A194161298124C94163232
:105020009052AFC816F9745218C021081594138015
:10503000066412EFC016C22C16855016029826245C
:1050400004159012CF4446132C1680F01280C8131A
:10505000001F6412FA6412A0641607F81406B8C19F
:105060000000529012ABC815901380FF48160D80B7
:1050700012136425941A11043308C47C5780C52C7C
:10508000220888452C1380CBAC160E2411C847404B
:1050900040901240641380FE5C12A81C120DC816CA
:1050A000182C12596416A72C12DA605A08481614E4
:1050B00084161BFC51644300F464130090601A10C2
:1050C0006016289016579016CA2C120CC8162B285A
:1050D0004638F426802C12F98012A564160C2C1682
:1050E0002CC012476416A59016DC8C1200BC2164FB
:1050F000420FC829BC170001F416F5F416C9B812FE
:1051000091C81A05C4122C6412536412C764160B9A
:10511000EC1E322003552C1E4030035380FDC81670
:1051200030941210641242645AA4BC252C120A64F2
:1051300025E86164295816F64C12CC285291C814FF
:105140000690410000502C1EC820031209C81628E2
:105150002C15F42A005C1E2088031E08880312AB5D
:10516000C4121A8816C0901A355816A19016D6F493
:105170001AF2581E0B8003152C26C0F84E13940308
:1051800026802C12CD282A941411641270641243C4
:105190006442BF6413C026602D88031C043544019B
:1051A00003046E100C04A00424F4000100000000AD
:04000005080000ED02
:00000001FF
