:020000040800F2
:10000000280E0020E106000821130008191300083B
:100010001D130008ED0E00085F1D00080000000021
:10002000000000000000000000000000C9160008E9
:100030001B11000800000000B1150008DD170008C2
:10004000FB060008FB060008FB060008FB0600088C
:10005000FB060008FB060008FB060008FB0600087C
:10006000FB060008FB060008FB060008F10E00086E
:10007000FB060008FB060008FB060008FB0600085C
:10008000FB060008FB060008FB060008FB0600084C
:10009000FB060008FB060008FB060008FB0600083C
:1000A000FB060008FB060008FB060008FB0600082C
:1000B000FB060008FB060008FB060008FB0600081C
:1000C000FB060008FB060008FB060008FB0600080C
:1000D000FB0600089D1A0008FB060008FB06000846
:1000E000FB060008FB060008FB060008DFF80CD042
:1000F00000F070FD004800478D1D0008280E00200C
:100100002DE9F04F4FF0000C4FF0000301EB1C6E97
:10011000BEF90250BEF900400EF5807EBEF9029095
:10012000BEF900800EF5807EBEF90270BEF9006057
:100130000EF5807EBEF902B0BEF900A00EF5807EFD
:10014000D044D944A8EB4A0AA9EB4B0B4FEAA404CC
:100150004FEAA50504EBA60405EBA705A4EB66068C
:10016000A5EB670704EBA80405EBA905A4EB680859
:10017000A5EB690906EBAB06A7EBAA07A6EB6B0B91
:1001800007EB6A0A458020F8044B478020F8046B8F
:10019000A0F8029020F8048BA0F802A020F804BB7D
:1001A00003F1010393FAA3FC402BAFD1A0EB820132
:1001B0004FF0100312090FF2361000F1000006B4E0
:1001C00003EB430C6144A2F5803202EB8332B1F9B8
:1001D0000250B1F90040A1EB0301B0F902B0B0F94F
:1001E00000A000F10400A5EB040E0EFB0BFC0AEBD3
:1001F0004B0E05FB0ACB04FB0ECAB1F90250B1F954
:100200000040A1EB0301B0F90290B0F9008000F1C9
:100210000400A5EB040E0EFB09FC08EB490E05FBE0
:1002200008C904FB0EC8B1F90250B1F90040A1EBB6
:100230000301B0F90270B0F9006000F10400A5EB11
:10024000040E0EFB07FC06EB470E05FB06C704FB7E
:100250000EC6B1F90250B1F9004001F10001D044DD
:10026000D944A8EB4A0AA9EB4B0B4FEAA4044FEA86
:10027000A50504EB264405EB2745A4EBE636A5EBE4
:10028000E73704EB284405EB2945A4EBE838A5EB58
:10029000E93906EB2B46A7EB2A47A6EBEB3B07EB2E
:1002A000EA3A4D800C8019444F800E801944A1F821
:1002B0000290A1F800801944A1F802A021F804BB23
:1002C000B2F5803283DA03EB430C6144A2F1010200
:1002D0005FEA024E18BFA0EB0C007FF476AF06BCBD
:1002E0004FEA830392087FF46AAFBDE8F08F0040C5
:1002F000000000400000004000005DDD213BA32223
:100300007E180000412D7EA5412D0000412D00C02A
:1003100000405DDD82E75DDD213B7EA5412D004093
:1003200000000040000000400000AA2A94126B392F
:10033000460649327C0CA8118E2349327C0CA3223C
:100340007E1821F77931AA2A9412A8118E235DDD37
:10035000213BA3227E180000412D95C6B13F461ACD
:100360002B1E58EE3735BEB4C53EA8118E235DDD79
:10037000213B63A97138DF089A28B7CDC53E7EA519
:10038000412D0000412D00C0004063A92B1E21F724
:100390007931BEB4C53EBEB47C0C58EE373561AC85
:1003A000213B95C6BAF9BAE571383BA737355DDD13
:1003B00082E75DDD213B7EA5412D21F766D756D52D
:1003C0003F3D3BA78E23A811C9CAB7CDC53E61AC3E
:1003D0007E18AA2AC1C295C6B13FBEB47C0C0040AB
:1003E000000000400000004000001E3BB504693ED4
:1003F0009201C83C2403EB356409C83C24036B39E3
:1004000046066C30060E1E3BB504EB356409AA2A7D
:1004100094126B39460649327C0CAE240917AF376B
:10042000D607882E8D0F7E1E5D1BEB356409AA2A28
:10043000941224188C1F1E34F10AB3269015A811AB
:100440008E2349327C0CA3227E18140B60276C305B
:10045000060E7E1E5D1B7104FB2A882E8D0F461A28
:100460002B1EC7FD5A2E9D2C1211FE15E72021F7D9
:100470007931AA2A9412A8118E2387F05334B22816
:100480001314480D202602EAE536B3269015DF083E
:100490009A289CE32B39AE2409177104FB2A5DDDF1
:1004A000213BA3227E180000412D4ED7C53C93204E
:1004B000EF198FFB6C2F78D1153E7E1E5D1B21F747
:1004C0007931E2CB0F3F641CC61CB8F2683395C685
:1004D000B13F461A2B1E58EE373597C1FB3F241803
:1004E0008C1F02EAE536F0BCEC3FFE15E720BAE5CA
:1004F0007138A6B8853FD5133D2282E1DB39BEB401
:10050000C53EA8118E235DDD213B40B1AF3D790F83
:10051000DA244DD9423C2EAE423C480D202656D519
:100520003F3D8EAB823A140B602778D1153E63A90C
:100530007138DF089A28B7CDC53EB1A71236A90693
:10054000CE2915CA4F3F78A668337104FB2A95C699
:10055000B13FBCA576303902212C38C3EC3F7EA5D3
:10056000412D0000412D00C00040BCA5CE29C7FD93
:100570005A2EF0BCEC3F78A620268FFB6C2F09BAD0
:10058000B13FB1A73D2257F976304DB74F3F63A930
:100590002B1E21F77931BEB4C53E8EABEF19ECF4BA
:1005A00074325EB2153E2EAE9015B8F268332DB09F
:1005B0003F3D40B1121187F053342EAE423CBEB4E1
:1005C0007C0C58EE373561AC213BA6B8D6072BEC36
:1005D0001236C8AADB39F0BC240302EAE53663A967
:1005E000713897C16EFEDCE7B03734A8E53695C6A2
:1005F000BAF9BAE571383BA73735E2CB0FF59CE382
:100600002B3978A6683378D173F082E1DB39EDA518
:1006100079314ED7EDEB6DDF823A99A56C2F5DDD18
:1006200082E75DDD213B7EA5412D9CE33AE352DB71
:10063000B63B99A5FB2A02EA19DF4DD9423CEDA54C
:100640009A2887F026DB4ED7C53C78A6202621F7CE
:1006500066D756D53F3D3BA78E23C7FDDFD363D377
:10066000AF3D34A8E720710494D078D1153E63A93A
:100670002B1E140B8CCD94CF723EC8AA5D1BA81103
:10068000C9CAB7CDC53E61AC7E18241850C8E2CBAC
:100690000F3F2EAE90157E1E25C615CA4F3F2DB0BA
:1006A0009412AE244AC451C8853F5EB28D0FAA2A67
:1006B000C1C295C6B13FBEB47C0C6C308EC1E2C4E1
:1006C000D43F4DB76409EB35B1C038C3EC3F09BA2C
:1006D00046061E3B2CC097C1FB3FF0BC2403000024
:1006E0000648804706480047FEE7FEE7FEE7FEE7CC
:1006F000FEE7FEE7FEE7FEE7FEE7FEE71D1800085F
:10070000ED000008F0B480EA0102D40F4200B2EB21
:10071000410F02D20246084611464A0042D0C30D9C
:10072000DDB2C1F3C752AD1A202D35DAC1F316017F
:1007300041F4000204B15242C5F1200602FA06F16A
:100740002A411044B3EBD05F23D0C4B1012DA0EBFC
:10075000C35009DCF0BC4FF0004202EAC352DBB2E6
:1007600000F5000000F05AB9400000F1807000EB85
:10077000C350A0F1807040EAD170490009E04908F7
:1007800041EAC071A0EBC35000F50000400800EB47
:10079000C350F0BC00F039B96142012202EB4101C3
:1007A000001BF6E7F0BC704781F00041AAE780F03B
:1007B0000040A7E780EA010210B502F000434000C4
:1007C00022D04A001FD0010E01EB1261C0F3560087
:1007D000C2F3560240F4000042F40002A0FB0220E3
:1007E00000047F39140400D0401C50EA124001D4A8
:1007F0004000491EC2B20C0604EBD010401C400859
:10080000802A02D003E0002010BD20F00100002962
:1008100000DA0020184310BD30B480EA010202F073
:10082000004530F0004221F0004013D090B1C30DDC
:10083000D40DC2F31601C0F31600E41A41F400010E
:1008400040F400027D34914201D3641C00E0490071
:10085000002C02DA30BC002070474FF40000002367
:10086000914201D3891A034340084FEA4101F7D16D
:1008700051B1914202D14FF0004105E002D24FF058
:10088000010101E06FF0010103EBC450284430BCCA
:1008900000F0BBB82DE9F04D81EA030404F0004BF1
:1008A00021F0004514464FF0000A23F0004150EAC1
:1008B000050220D054EA01021DD0C5F30A570246B2
:1008C000C5F31303C1F31300C1F30A5640F48015B6
:1008D00043F48013A7EB0608101BD64608F2FD3838
:1008E00073EB050002D308F1010801E092185B41A7
:1008F000B8F1000F03DA00200146BDE8F08D0020BA
:100900004FF48011064684460EE0171B73EB050773
:1009100005D3121B63EB050306434CEA010C49089F
:100920004FEA300092185B4150EA0107EDD152EADC
:10093000030012D082EA040083EA0501084305D0CF
:10094000101BAB4106D20122002306E000224FF02B
:10095000004302E06FF0010253101AEB06004CEB6B
:10096000085110EB0A0041EB0B01BDE8F04D00F01F
:1009700083B8C10F80EAE0700844CA0796230021BB
:1009800000F04CB820F00040C10DC0F3160040F458
:1009900000007F2901DA00207047962903DCC1F1AD
:1009A0009601C840704796398840704700F0004271
:1009B00030F000400AD0C10D01F56071C0F316009F
:1009C00042EA0151C2084007114370470020014626
:1009D000704701F0004330B421F0004150EA0102B9
:1009E00006D00A0DA2F56072C1F31301002A02DCE1
:1009F00030BC00207047440F44EAC104C100E01835
:100A000030BC00EBC250AFF300800029A8BF704794
:100A1000401C490008BF20F00100704710B4B0FA34
:100A200080FC00FA0CF050EA010404BF10BC7047CF
:100A300049B1CCF1200421FA04F411FA0CF118BFE9
:100A4000012121430843A3EB0C01CB1D4FEA0061B8
:100A50004FEA102042BF002010BC704700EBC3508B
:100A600010440029A4BF10BC7047401C490008BFB7
:100A700020F0010010BC704710B5141E73F1000483
:100A800008DA401C41F1000192185B411A4301D180
:100A900020F0010010BD2DE9F04D92469B4611B1AA
:100AA000B1FA81F202E0B0FA80F22032904600F012
:100AB000A3F804460F4640EA0A0041EA0B015346F8
:100AC0005A46084313D0114653EA010019D0C8F121
:100AD0004002504600F09FF805460E4650465946E3
:100AE000424600F089F8084305D0012004E0204682
:100AF0003946BDE8F08D0020054346EAE0762C43F8
:100B000037430A986305E40AA0EB08000022FD0AB7
:100B100044EA47540A3002D500200146E9E70105BE
:100B200010196941DDE9084500196941BDE8F04D3A
:100B3000A2E72DE9F04D00231A461B1A8A4103DB78
:100B400000200146BDE8F08DC1F30A52C1F3130144
:100B500041F480154FF0000BD10702D100186D4110
:100B6000521E0027044640F2FF11384601EB620A8C
:100B70003E468046024600204FF4801100F04BF8BC
:100B8000C2197141BB1846EB0100B4EB030C75EBC5
:100B9000000C04D3E41A65EB000517460E46241931
:100BA00008F101006D4180463428E3DDF91946EB78
:100BB0000600091BA84103D24FF0FF32134601E0A3
:100BC000002213461BEB070046EB0A51BDE8F04D2F
:100BD000FFF752BF064C074D06E0E06840F0010306
:100BE00094E8070098471034AC42F6D3FFF782FA36
:100BF000A0240008C0240008202A04DB203A00FAC0
:100C000002F1002070479140C2F1200320FA03F363
:100C1000194390407047202A04DB203A21FA02F061
:100C20000021704721FA02F3D040C2F12002914026
:100C3000084319467047000000B58DB001210846F1
:100C400000F0B8FC4FF4C06000F0A4FB0B208DF85E
:100C5000040000208DF805008DF8060001208DF8B5
:100C6000070001A800F05EFB144800F089F9144861
:100C7000029014480390002004904FF48070059077
:100C80000020069080200790400008908000099086
:100C900020200A9000020B9000200C9002A9074827
:100CA00000F01DFA01220621044800F00FFA01218C
:100CB000024800F059F90DB000BD000008000240E4
:100CC0004C2401402408002000B587B001214802CF
:100CD00000F080FC0121102000F07CFC0220ADF827
:100CE000040000208DF8070001A91C4800F016FA46
:100CF000002002908DF80C008DF80D0004900590F6
:100D000001208DF8180002A9154800F061F80023B1
:100D100001220B21124800F083F80121104800F055
:100D200021F801210E4800F033F801210C4800F0B1
:100D300024F80B4800F0D0F800BF094800F03DF857
:100D40000028FAD1064800F0CCF800BF044800F0B3
:100D50002AF80028FAD107B000BD000000100140B9
:100D60000024014021B1826842F00102826003E068
:100D7000826822F001028260704721B1826842F4E9
:100D80008072826003E0826822F480728260704721
:100D900021B1826842F48012826003E0826822F40A
:100DA000801282607047014600208A6802F00402C7
:100DB0000AB1012000E000207047014600208A6847
:100DC00002F008020AB1012000E000207047000094
:100DD00030B502460020002350680F4C20400D79AA
:100DE0000C6844EA05242043506090680B4C204076
:100DF000D1E902542C434D7944EA450420439060E4
:100E0000D06A20F470000C7C641EE4B2234340EAF4
:100E10000350D06230BD0000FFFEF0FFFDF7F1FF90
:100E2000F0B504460D4600200021092D11DDE068D3
:100E3000A5F10A0606EB4607072606FA07F18843DE
:100E4000A5F10A0606EB460603FA06F10843E06040
:100E50000CE0206905EB4507072606FA07F18843F1
:100E600005EB450603FA06F108432061072A0FDA6D
:100E7000606B561E06EB86071F2606FA07F18843AD
:100E8000561E06EB860605FA06F10843606322E06B
:100E90000D2A0FDA206BD61F06EB86071F2606FAEF
:100EA00007F18843D61F06EB860605FA06F10843CC
:100EB000206310E0E06AA2F10D0606EB86071F260C
:100EC00006FA07F18843A2F10D0606EB860605FA3D
:100ED00006F10843E062F0BD816841F008018160DD
:100EE0007047816841F004018160704700BFFEE7F0
:100EF00010B500240021114800F036F8042000F05D
:100F000025F8022000F022F800BF08E00C4830F875
:100F1000140000040B4941F82400601C84B2FF2C2B
:100F2000F4DD4FF4807207490748FFF7E9F800F055
:100F300085F90121014800F017F810BD08000240B2
:100F400024080020240000202404002000F0805108
:100F500011B10349086001E0024948607047000090
:100F6000040402400000024021B1026842F0010284
:100F7000026004E002684FF6FE731A400260704798
:100F800001684FF6FE72114001600021016041606E
:100F90008160C1604B49884208D14A490839496893
:100FA00041F00F01474A083A51608AE0454914313F
:100FB000884208D143490839496841F0F001414A63
:100FC000083A51607DE03F492831884208D13D49C7
:100FD0000839496841F470613A4A083A516070E052
:100FE00038493C31884208D136490839496841F4CA
:100FF0007041344A083A516063E0324950318842C6
:1010000008D130490839496841F470212D4A083A1D
:10101000516056E02B496431884208D1294908398A
:10102000496841F47001274A083A516049E025496E
:101030007831884208D123490839496841F0706104
:10104000204A083A51603CE01F49884206D1011FFE
:10105000096841F00F01021F116032E01A49143192
:10106000884208D11849091F096841F0F001164A61
:10107000121F116025E014492831884208D1124915
:10108000091F096841F470610F4A121F116018E0CE
:101090000D493C31884208D10B49091F096841F4C8
:1010A0007041094A121F11600BE007495031884214
:1010B00007D10549091F096841F47021024A121F2E
:1010C0001160704708000240080402401AB103682A
:1010D0000B43036002E003688B430360704710B565
:1010E0000022026847F6F0739A430C6A8B68234328
:1010F0000C6923434C6923438C692343CC69234304
:101100004C6A23438C6A23431A430260CB684360D2
:101110000B6883604B68C36010BD70472DE9F041D8
:10112000024600250026002000230024002791F815
:1011300003C00CF00F0591F803C00CF0100CBCF1CB
:10114000000F03D091F802C04CEA050591F800C0E9
:10115000BCF1000F31D0146800202BE04FF0010CDF
:101160000CFA00F3B1F800C00CEA03069E4220D14D
:1011700083004FF00F0C0CFA03F7BC4305FA03FC95
:101180004CEA040491F803C0BCF1280F06D14FF0DB
:10119000010C0CFA00FCC2F814C00AE091F803C07C
:1011A000BCF1480F05D14FF0010C0CFA00FCC2F85D
:1011B00010C0401C0828D1D31460B1F800C0BCF1A5
:1011C000FF0F34DD546800202EE000F1080C4FF0D2
:1011D000010808FA0CF3B1F800C00CEA03069E42BD
:1011E00021D183004FF00F0C0CFA03F7BC4305FA32
:1011F00003FC4CEA040491F803C0BCF1280F05D1AC
:1012000000F1080C08FA0CF8C2F8148091F803C039
:10121000BCF1480F07D100F1080C4FF0010808FAA3
:101220000CF8C2F81080401C0828CED35460BDE8EA
:10123000F0810AB1016100E0416170472DE9F04F92
:1012400089B000245DE0314830F824000FFA80F9BD
:101250002E4850F824004FEA204A4846FFF789FB01
:1012600080464FF08741FFF7A5FA07464FF08E41C1
:10127000FFF7D2FA05465046FFF77BFB80464FF05A
:101280008741FFF797FA07464FF08E41FFF7C4FA00
:10129000064631463046FFF78DFA29460290284629
:1012A000FFF788FA01900299FFF72CFA0390FFF7F5
:1012B0007DFBCDE9040100F0D5FD0022144BCDE902
:1012C0000601FFF7E7FA0746FFF783FB83465CB9A1
:1012D0004FF08E415846FFF76DFA0746FFF752FB75
:1012E0000C4941F824000AE04FF08F415846FFF7BF
:1012F00061FA0746FFF746FB064941F82400601CE7
:1013000084B2802C9FDB09B0BDE8F08F240400205C
:10131000000070402406002000BFFEE700BFFEE78B
:101320007047000070B5002100230F22C47804B379
:10133000154C246804F4E064C4F5E064210AC1F1AA
:101340000403CA40447804FA03F18478144021432A
:1013500009010E4C0678A155047804F01F050124FC
:10136000AC4005786D11AD0005F1E025C5F80041F0
:1013700009E0047804F01F050124AC40044D067810
:10138000761145F8264070BD0CED00E000E400E069
:1013900080E100E002490143024A11607047000009
:1013A0000000FA050CED00E070B50546002415E0DC
:1013B0008020204100EA05024FF400710E48FFF73B
:1013C00038FF012211020C48FFF733FF00224FF4CF
:1013D00080710948FFF72DFF601CC4B2082CE7DBC1
:1013E000012211020448FFF724FF00224FF480710C
:1013F0000148FFF71EFF70BD000C014010B501222F
:1014000051020A48FFF715FF012211020748FFF7B2
:1014100010FF00224FF400710448FFF70AFF00227A
:101420004FF480710148FFF704FF10BD000C01402C
:1014300010B500224FF400710648FFF7FAFE0122B2
:1014400011020448FFF7F5FE012251020148FFF79F
:10145000F0FE10BD000C014010B50246012000E076
:1014600050430B1EA1F10101FAD110BD70B5054624
:101470000C4645F0B00000F07BF8102141EA141052
:1014800000F076F804F00F0000F072F870BD000074
:101490002DE9F04105460E461746721ED206110E82
:1014A0006A1E5206100EFFF7E1FF002409E0A7F1C3
:1014B0002001134A02EB0111085D00F069F8601C7D
:1014C000C4B2082CF3DB721ED206110E6A1E012371
:1014D00003EB4202D0B2FFF7C9FF00240BE0A7F1F3
:1014E0002001074A02EB011204F10801505C00F0F0
:1014F0004FF8601CC4B2082CF1DBBDE8F08100009D
:10150000B01E00082DE9F04780460E4617461D46DE
:10151000002415E0281B411E0A20FFF79DFFB7FBA2
:10152000F0F00A21B0FBF1F201FB120000F13009EA
:101530003019C1B24A464046FFF7AAFF601CC4B248
:10154000AC42E7DBBDE8F0872DE9F04107460E46E7
:101550001546002407E02A5D3019C1B23846FFF76E
:1015600097FF601CC4B2285D0028F4D1BDE8F0816B
:1015700010B50446FFF742FF7820FFF715FF002063
:10158000FFF712FF2046FFF70FFFFFF751FF10BDD7
:1015900010B50446FFF732FF7820FFF705FF402023
:1015A000FFF702FF2046FFF7FFFEFFF741FF10BDE8
:1015B0007047000029B1064A52690243044B5A6140
:1015C00004E0034A52698243014B5A6170470000AC
:1015D0000010024029B1064A92690243044B9A6105
:1015E00004E0034A92698243014B9A61704700000C
:1015F0000010024030B500210022002400232D4DB0
:101600006D6805F00C0121B1042905D0082923D10A
:1016100005E0294D056022E0274D05601FE0254DBE
:101620006D6805F47012234D6D6805F48034022551
:1016300005EB92421CB9214D554305600BE01D4D51
:101640006D6805F400351DB11C4D5543056002E081
:10165000194D5543056002E0174D056000BF00BFFE
:10166000144D6D6805F0F0010909154D6B5C0568B6
:10167000DD4045600F4D6D6805F4E061090A104DCD
:101680006B5C4568DD4085600A4D6D6805F460510E
:10169000C90A0B4D6B5C4568DD40C560054D6D6842
:1016A00005F44041890B074D6B5CC568B5FBF3F54C
:1016B000056130BD0010024000127A0000093D00B3
:1016C0000400002014000020704710B500F002F85C
:1016D00010BD00000CB50020019000903348006858
:1016E00040F480303149086000BF3048006800F4A1
:1016F000003000900198401C0190009818B90198A2
:10170000B0F5A06FF1D12948006800F4003010B1A5
:101710000120009001E0002000900098012843D1B2
:101720002348006840F0100021490860084600681E
:1017300020F0030008600846006840F002000860DE
:101740001A48406819494860084640684860084699
:10175000406840F4806048600846406820F47C108F
:1017600048600846406840F4E81048600846006851
:1017700040F08070086000BF0C48006800F0007006
:101780000028F9D00948406820F003000749486064
:101790000846406840F00200486000BF03484068C7
:1017A00000F00C000828F9D10CBD00000010024028
:1017B00000200240042808D14FF0E021096941F0DF
:1017C00004014FF0E022116107E04FF0E0210969C8
:1017D00021F004014FF0E0221161704770470000D2
:1017E00010B504466FF00400FFF7E4FFE11704EBC7
:1017F0005171C1F3C701074A11701046007800EB20
:101800004001C1EBC0104FF6FF7101EAC000024970
:10181000088010BD000000200200002010B5134811
:10182000006840F00100114908600846406810490E
:1018300008400E494860084600680E4908400B49B8
:1018400008600846006820F4802008600846406868
:1018500020F4FE0048604FF41F008860FFF735FF5A
:101860004FF000600449086010BD00000010024005
:101870000000FFF8FFFFF6FE08ED00E000B589B0BC
:101880000121C802FFF7A6FE01210420FFF7A2FEF6
:101890004FF48070ADF8040003208DF80600182086
:1018A0008DF8070001A91948FFF738FC06A800F0D9
:1018B000EBF842F20F70ADF81C0040F2CF20ADF80B
:1018C00018000020ADF81E00ADF81A0006A9104857
:1018D00000F088F86020ADF808000120ADF80A009B
:1018E0004FF4FA50ADF80E000220ADF8100002A936
:1018F000074800F02BF80121054800F017F80021F7
:10190000034800F007F809B000BD000000080140DE
:10191000002C014021B1028842F00102028004E063
:1019200002884FF6FE731A400280704731B1B0F85A
:10193000442042F40042A0F8442005E0B0F84420DE
:10194000C2F30E02A0F844207047000070B50024D6
:1019500000220023058C4FF6FE7635400584028C6C
:101960008388048B4FF68F752C40B51E2C400D8854
:101970002C43751E2A400D892A434D882A43144D55
:10198000A8420BD0134DA84208D0134DA84205D051
:10199000124DA84202D0124DA84213D14FF6F7754E
:1019A0002A404D892A434FF6FB752A408D882A43E9
:1019B0004FF6FF652B404FF6FF552B408D892B438B
:1019C000CD892B4383800483CD888586028470BDB6
:1019D000002C01400034014000400140004401401F
:1019E00000480140002202881D4B98420ED01D4B3A
:1019F00098420BD0B0F1804F08D01B4B984205D0D5
:101A00001A4B984202D01A4B984204D14FF68F736A
:101A10001A404B881A43174B984207D0164B9842EE
:101A200004D04FF6FF431A40CB881A4302808B88BC
:101A300083850B8803850A4B98420BD0094B98424B
:101A400008D00E4B984205D00D4B984202D00D4B5A
:101A5000984201D10B7A03860123838270470000EC
:101A6000002C014000340140000400400008004008
:101A7000000C0040001000400014004000400140F5
:101A800000440140004801404FF6FF718180002171
:101A90000180C180418001727047000010B540F2A2
:101AA00025510C4800F096F870B10A4800F04EF944
:101AB000C4B22146074800F04EF900BF4021054856
:101AC00000F07BF80128F9D14021024800F060F8CD
:101AD00010BD00000038014010B586B00446012159
:101AE0000420FFF777FD01218803FFF773FD012133
:101AF0000846FFF76FFD4FF40070ADF814000320A7
:101B00008DF8160018208DF8170005A91E48FFF75C
:101B100005FB4FF48060ADF8140004208DF8170029
:101B200005A91948FFF7FAFA01940020ADF808005A
:101B3000ADF80A00ADF80C00ADF810000C20ADF8BF
:101B40000E0001A9114800F095F801210F4800F09E
:101B500028F840210D4800F01BF8012240F22551E1
:101B60000A4800F061F825208DF8000003208DF868
:101B700001008DF8020001208DF803006846FFF790
:101B8000D1FB06B010BD0000000801400038014044
:101B900001F40072B2F5007F00D100BFCA43028099
:101BA000704721B1828942F40052828104E0828927
:101BB0004DF6FF731A408281704702460020B1F54E
:101BC000007F00D100BF13880B400BB1012000E063
:101BD0000020704770B50246002400230025002035
:101BE00040F66A16B14200D100BFC1F3421501F0C0
:101BF0001F03012606FA03F3012D02D19689334013
:101C000006E0022D02D1168A334001E0968A334065
:101C10000C12012606FA04F41688344013B10CB1F4
:101C2000012000E0002070BDF0B50346002400262E
:101C30000025002040F66A17B94200D100BF1846BF
:101C4000C1F3421401F01F06012707FA06F5012C23
:101C500001D10C3004E0022C01D1103000E014302E
:101C60001AB107682F43076002E00768AF430760B7
:101C7000F0BD00002DE9F04786B005460E46002471
:101C8000A24600BFA1460027B08900B100BF2F4681
:101C90002C8A4CF6FF700440F08804432C82AC89F7
:101CA0004EF6F3100440B088318908437189084327
:101CB0000443AC81AC8A4FF6FF400440B089044332
:101CC000AC8201A8FFF796FC1F48874202D1DDF8DD
:101CD00010A001E0DDF80CA0A88900F4004040B19C
:101CE0000AEBCA0000EB0A1031684900B0FBF1F8BA
:101CF00007E00AEBCA0000EB0A1031688900B0FB6C
:101D0000F1F86420B8FBF0F004012009642101FB24
:101D10001089A88900F4004040B1322000EBC900CE
:101D2000B0FBF1F000F00700044308E0322000EBC4
:101D300009106421B0FBF1F000F00F0004432C8186
:101D400006B0BDE8F08700000038014001468888F1
:101D5000C0F308007047C1F308028280704700BFDB
:101D6000FEE702E008C8121F08C1002AFAD1704736
:101D70007047002001E001C1121F002AFBD170470B
:101D80000149086070470000200000204820FFF74C
:101D900027FD4FF4A060FFF7FDFA4FF41650FFF750
:101DA0009BFEFFF76BFDFEF747FFFEF78DFF01215E
:101DB0001E48FFF7AFFD37E002240FE01C4850F843
:101DC00024001C490988884206DD194830F824009F
:101DD0001849088018480480601C84B2802CEDDB10
:101DE00015480088154991FBF0F0154991FBF0F07A
:101DF0001449086014A201210846FFF7A5FB15A2AB
:101E000001210220FFF7A0FB05230B4802880621D1
:101E10000120FFF777FB07480088A0F11402052393
:101E200006210220FFF76EFBC6E70000002C0140F0
:101E3000240600201E0000201C0000200000DD6D94
:101E400000A24A0418000020526F773A3030303038
:101E500030000000467265713A3030303030487AD8
:101E6000000000002DE9F04106460F46FEF761FE36
:101E7000041E0D4618BF0120284320F00040C0F189
:101E80007F6000F1E040C00F0ED0301C18BF012071
:101E9000384320F00040C0F17F6000F1E040C00F07
:101EA00004BF0120FFF76CFF20462946BDE8F08102
:101EB0000000000000000000000000000000000022
:101EC000000000F8000000000000003330000000B7
:101ED00000100C06100C06000000000000000000BE
:101EE00040C07840C0784000043F04043F04040030
:101EF000007088FC08300000001820FF211E000040
:101F0000F008F000E018000000211C031E211E0054
:101F100000F00888700000001E21232419272110DA
:101F200010160E000000000000000000000000007D
:101F3000000000E018040200000000071820400024
:101F400000020418E0000000004020180700000014
:101F5000404080F0804040000202010F0102020078
:101F6000000000F0000000000101011F010101005C
:101F7000000000000000000080B0700000000000C1
:101F8000000000000000000000010101010101014A
:101F900000000000000000000030300000000000E1
:101FA00000000000806018040060180601000000B6
:101FB00000E010080810E000000F102020100F00B3
:101FC000001010F8000000000020203F202000003A
:101FD0000070080808887000003028242221300092
:101FE00000300888884830000018202020110E009A
:101FF0000000C02010F8000000070424243F240043
:1020000000F80888880808000019212020110E0017
:1020100000E0108888180000000F112020110E0029
:1020200000380808C83808000000003F0000000021
:102030000070880808887000001C222121221C00E2
:1020400000E010080810E0000000312222110F000B
:10205000000000C0C00000000000003030000000A0
:102060000000008000000000000080600000000010
:102070000000804020100800000102040810200029
:102080004040404040404000040404040404040074
:102090000008102040800000002010080402010009
:1020A000007048080808F000000000303601000009
:1020B000C030C828E810E0000718272423140B00BC
:1020C0000000C038E0000000203C23020227382036
:1020D00008F8888888700000203F202020110E001A
:1020E000C030080808083800071820202010080011
:1020F00008F808080810E000203F202020100F00FA
:1021000008F88888E8081000203F202023201800C5
:1021100008F88888E8081000203F2000030000002D
:10212000C03008080838000007182020221E0200CE
:1021300008F808000008F808203F210101213F208D
:10214000000808F8080800000020203F20200000B8
:1021500000000808F8080800C08080807F000000A8
:1021600008F888C028180800203F200126382000E1
:1021700008F8080000000000203F20202020300048
:1021800008F8F800F8F80800203F003F003F200062
:1021900008F830C00008F808203F200007183F006A
:1021A000E01008080810E0000F10202020100F0099
:1021B00008F808080808F000203F2101010100008C
:1021C000E01008080810E0000F18242438504F00D1
:1021D00008F8888888887000203F2000030C302091
:1021E00000708808080838000038202121221C00CF
:1021F000180808F8080818000000203F2000000018
:1022000008F808000008F808001F202020201F0000
:102210000878880000C83808000007380E01000060
:10222000F80800F80008F800033C0700073C03002A
:10223000081868808068180820302C03032C302090
:102240000838C800C83808000000203F20000000FF
:1022500010080808C8380800203826212020180057
:10226000000000FE020202000000007F404040002B
:10227000000C30C000000000000000010638C00063
:1022800000020202FE000000004040407F0000000B
:102290000000040202020400000000000000000030
:1022A000000000000000000080808080808080802E
:1022B0000002020400000000000000000000000016
:1022C00000008080808000000019242222223F200C
:1022D00008F8008080000000003F112020110E004F
:1022E0000000008080800000000E112020201100DE
:1022F000000000808088F800000E112020103F2090
:102300000000808080800000001F22222222130013
:10231000008080F0888888180020203F202000005E
:102320000000808080808000006B94949493600013
:1023300008F8008080800000203F210000203F201E
:1023400000809898000000000020203F202000001E
:10235000000000809898000000C08080807F00000E
:1023600008F8000080808000203F24022D302000EB
:10237000000808F8000000000020203F2020000096
:102380008080808080808000203F20003F20003FB0
:102390008080008080800000203F210000203F20BE
:1023A0000000808080800000001F202020201F006F
:1023B000808000808000000080FFA12020110E009E
:1023C0000000008080808000000E112020A0FF808F
:1023D000808080008080800020203F21200001003C
:1023E0000000808080808000003324242424190091
:1023F000008080E0808000000000001F202000009E
:102400008080000000808000001F202020103F20DE
:10241000808080000080808000010E30080601006E
:1024200080800080008080800F300C030C300F0013
:1024300000808000808080000020312E0E3120003E
:10244000808080000080808080818E70180601006E
:1024500000808080808080000021302C222130008C
:1024600000000000807C020200000000003F4040AD
:1024700000000000FF00000000000000FF0000005E
:102480000002027C800000000040403F000000008D
:102490000006010102020404000000000000000028
:1024A000C02400080000002024000000621D000875
:1024B000E424000824000020040E0000721D00081F
:1024C00000000000000000000102030401020304F8
:1024D00006070809020406080000000000000000CA
:0424E00000000000F8
:04000005080000ED02
:00000001FF
