:020000040800F2
:10000000F80400204501000807150008DF13000868
:1000100005150008DD010008A91600080000000011
:100020000000000000000000000000000B150008A8
:100030001702000800000000091500080D1500084F
:100040005F0100085F0100085F0100085F01000810
:100050005F0100085F0100085F0100085F01000800
:100060005F0100085F0100085F0100085F010008F0
:100070005F0100085F010008E10100085F0100085E
:100080005F0100085F0100085F0100085F010008D0
:100090005F0100085F0100085F0100085F010008C0
:1000A0005F0100085F0100085F0100085F010008B0
:1000B0005F0100085F0100085F0100085F010008A0
:1000C0005F0100085F0100085F0100085F01000890
:1000D0005F0100085F0100085F0100085F01000880
:1000E0005F0100085F0100085F0100085F01000870
:1000F0005F0100085F0100085F0100085F01000860
:100100005F0100085F0100085F0100085F0100084F
:100110005F0100085F0100085F0100085F0100083F
:100120005F0100085F0100085F0100085F0100082F
:10013000DFF80CD000F040F80048004779180008BC
:10014000F80400200648804706480047FEE7FEE71F
:10015000FEE7FEE7FEE7FEE7FEE7FEE7FEE7FEE777
:100160008915000831010008D2B201E000F8012B26
:10017000491EFBD270470022F6E710B513460A4627
:1001800004461946FFF7F0FF204610BD30B50B4678
:10019000014600202022012409E021FA02F59D42B7
:1001A00005D303FA02F5491B04FA02F52844151E8B
:1001B000A2F10102F1DC30BD064C074D06E0E0681B
:1001C00040F0010394E8070098471034AC42F6D39E
:1001D000FFF7B2FFC4180008E4180008FEE70000AB
:1001E000014800F01BB800006C00002030B590F80A
:1001F00040500124AC40C56B6C6004686360436888
:10020000102B036803D099600068C26030BD9A600B
:100210000068C16030BD704772B6FEE72DE9F05F3F
:10022000C16B0A6801680B68046C4FF0040808FA97
:1002300004F8844D844E854FDFF814C2DFF8149221
:10024000DFF814A2DFF814B2DFF814E218EA020FA4
:1002500065D05FEA437862D50A68920603D40A68DB
:1002600022F004020A60DFF8F0814FF48062016836
:1002700008F1140813011402414524D9A9420DD0F4
:10028000B1420FD0B9421AD0614515D0494515D0B9
:10029000514501D1120312E0594501D104220EE06B
:1002A000714501D140220AE06D4D1435A94206D0B6
:1002B0006B4A2832914201D11A4600E02246674932
:1002C000091F0A6029E0A94213D0B14215D0B942F2
:1002D00020D061451BD049451BD0514502D14FF478
:1002E000800217E0414502D14FF0806212E059458B
:1002F00001D104220EE0714501D140220AE0584D9F
:100300001435A94206D0564A2832914201D11A46E4
:1003100000E022464B4908394A60C16A71E04FF05B
:10032000020808FA04F818EA020F70D05FEA83782E
:100330006DD50A68920606D40A6822F00A020A609D
:10034000012180F82110DFF810814FF4007201685C
:1003500008F1140813011402414524D9A9420DD013
:10036000B1420FD0B9421AD0614515D0494515D0D8
:10037000514501D1120312E0594501D102220EE08C
:10038000714501D120220AE0354D1435A94206D02D
:10039000334A2832914201D11A4600E022462F49C1
:1003A000091F0A6029E0A94213D0B14215D0B94211
:1003B00020D061451BD049451BD0514502D14FF497
:1003C000001217E0414502D14FF0007212E059458A
:1003D00001D102220EE0714501D120220AE0204D18
:1003E0001435A94206D01E4A2832914201D11A463C
:1003F00000E02246134908394A60002180F82010A5
:10040000816A00291CD0BDE8F05F0847FFE7082596
:10041000A540154214D01A0712D50A6822F00E0220
:100420000A6090F84020C36B012101FA02F25A6081
:10043000816380F82110002180F82010016BE0E733
:10044000BDE8F09F080002401C000240300002405E
:1004500044000240580002406C0002400804024080
:100460001C04024030B560B11A4B026814219A4254
:1004700009D2194B1344B3FBF1F189000164174908
:100480000AE0012030BD134B5B421344B3FBF1F192
:10049000890001640F490839C163022180F82110E5
:1004A000136843F6F0718B43F0E901142143D0E95E
:1004B00002452C4321430469214344692143846953
:1004C00021431943116000214163012242770177E2
:1004D000084630BD08040240F8FFFDBF000002409E
:1004E00070B5044690F82000002501280CD00120AA
:1004F00084F8200094F821600020012E06D084F8B2
:1005000020000225284670BD022070BD022684F816
:100510002160A0632068066826F001060660204678
:10052000FFF764FEE06A00282068016802D041F00D
:100530000E0106E021F0040101602068016841F02D
:100540000A0101602068016841F001010160D9E7FA
:1005500070B5044600F00AF90546601C02D0044854
:100560000078044400F002F9401BA042FAD370BDA9
:100570000C0000202DE9F84FDFF8C891002409F1A4
:10058000040A0AF1040B23460F270BF1040ED1E0F5
:100590000125A54006EA0502AA4276D1DFF8A8C1E6
:1005A0004E68A6EB0C0866452BD00DDC032E34D02C
:1005B00005DC36B3012E19D0022E2FD11BE0112EEF
:1005C00016D0122E2AD119E0B8F5881F19D006DCF2
:1005D000B8F5803F15D0B8F5801F1FD111E0B8F5F0
:1005E000001F0ED0B8F5041F18D10AE0CB6815E043
:1005F000CB681B1D12E0CB6808330FE0CB680C33CF
:100600000CE08B682BB1012B4FF0080303D0456140
:1006100004E0042302E0056100E00023FF2A01D882
:10062000064601E000F104064FEA840501D9A5F170
:100630002005D6F8008007FA05FC28EA0C0803FA22
:1006400005F548EA0508C6F800804D68ED0070D54C
:100650003E4DAE6946F00106AE61AD6924F0030679
:1006600005F0010500953A4D06EB050CDCF8085045
:10067000A607360F07FA06F825EA0805DFF8D48042
:10068000404503D14FF0000825E052E0DFF8C88074
:10069000404502D14FF001081DE0DFF8C080404521
:1006A00002D14FF0020816E0DFF8B480404502D1D5
:1006B0004FF003080FE0DFF8AC80404502D14FF067
:1006C000040808E0DFF8A080404502D14FF005089B
:1006D00001E04FF0060808FA06F848EA0508CCF8E9
:1006E00008804D68D9F80060ED034D4601D51643EA
:1006F00000E096432E604D68DAF80060AD03554681
:1007000001D5164300E096432E604D68DBF800608B
:10071000ED025D4601D5164300E096432E604D681C
:10072000DEF80060AD02754601D5164300E0964341
:100730002E60641C0A681646E2407FF429AFBDE8CB
:10074000F88F00000004014000001110001002406A
:100750000000014000080140000C01400010014071
:100760000014014000180140001C0140014880684D
:10077000704700000C000020704700002DE9F04198
:10078000040004D094F83500002618B107E00120D9
:10079000BDE8F08184F83460204600F06BF8022058
:1007A00084F835002168CA6940F6BF77BA43CA6148
:1007B00021680862606902283CD0E06850B12025B9
:1007C000A068202800D86D0028492068884203D1FD
:1007D000042005E01025F3E72549884203D10820CD
:1007E00000F0CAF901E000F05DFB2169B1F5007F7E
:1007F00002D0B0FBF5F006E0E16809B1A90000E025
:10080000E900B0FBF1F000EB800061694000B0FB53
:10081000F1F0401D0A21B0FBF1F000F00101401A97
:1008200040080902821EFE2A06D3A06B40F0100089
:10083000A063ACE70220002122690843024320683C
:100840000262D4E901010843A269E1681143084347
:100850002168CA69BA43104340F40060C861A663C6
:10086000012084F83500002092E7000000380040A5
:10087000003C004070B586B0002506460095019505
:10088000029503950068204988423BD11F49C869F9
:1008900040F48040C861C86900F4804004908869D1
:1008A00040F0080088618869194C00F00800049045
:1008B0004FF440500090022001900390694620467A
:1008C000FFF758FE4FF40040CDE900056946204689
:1008D0000295FFF74FFE104C0E48C4E9000580203A
:1008E000C4E9025080002061800060612020A06186
:1008F0000002E0612046FFF7B5FD08B1FFF78CFC70
:100900003463666206B070BD0038004000100240DB
:10091000000C0140440002406C000020F8B5044681
:1009200081B17AB194F83400012809D0012684F805
:10093000346094F835000025012805D084F834503F
:100940000220F8BD0120F8BD042084F83500A5631D
:1009500061622068C06900F00700032813D00528F1
:1009600011D022856285216B1E48C862216B1E480A
:100970008862216B1D4808632168C869C0F30120A3
:10098000032807D009E04FF6FF7000EA42002085F7
:100990006085E8E7C86888680090238D0C31626A3A
:1009A000206BFFF79DFD40B154F8380F40F0080070
:1009B00044F8040966702570C4E72068C1694905D8
:1009C00003D4C16941F48061C16120684168C907ED
:1009D00003D1416841F00101416084F834500020A6
:1009E000F8BD00002D14000809140008E1130008E8
:1009F0000F4988421AD10F480F490268521C026001
:100A00000B6849681B0203EB112141600B0201D501
:100A100041F07F4181600A2192FBF1F301FB132138
:100A2000002903D1816805A000F040BE7047000096
:100A300030000020000000202000002025640D0A66
:100A400000000000704700000248816802781144ED
:100A5000816070470C000020074810B5016841F024
:100A600010010160032000F075F80F2000F006F877
:100A700000F024F8002010BD0020024070B50D4D9C
:100A800004464FF47A712878B1FBF0F00A490968FE
:100A9000B1FBF0F000F0CCFB48B9102C07D20022DB
:100AA0002146501E00F036F800206C6070BD012019
:100AB00070BD00000C000020180000200C4808B594
:100AC000816941F001018161816901F001010091B9
:100AD000C16941F08051C161C06900F0805000904F
:100AE0000448416821F0E06141F00071416008BDB7
:100AF0000010024000000140002809DB00F01F0246
:100B0000012191404009800000F1E020C0F800116F
:100B100070470000F0B40E4B1B680C46C3F3022371
:100B2000C3F10705042D00D90425191D072901D299
:100B3000002300E0DB1E012606FA05F1491E2140D4
:100B400099409E40761E16403143F0BC00F0BEBD79
:100B50000CED00E0064900F0070208684FF6FF03BD
:100B6000184040EA0220034A104308607047000022
:100B70000CED00E00000FA0510B52CA401461DCCD8
:100B800086B08DE81D002DA02D4C0068049000203B
:100B900004292FD00BDC01292FD0022928D100F005
:100BA00071F96168C1F38131491C49001EE00829CF
:100BB00020D010291CD161682268D20118D5C1F358
:100BC0008342C9031DF8020009D5616804AAC1F374
:100BD0004041515C1B4AB2FBF1F1484301E01A4924
:100BE00048436168490203D440000321B0FBF1F09F
:100BF00006B010BD00F056F9FAE7226AC2F30121EF
:100C0000012903D1920701D5C803F1E7022905D1D3
:100C1000626A920702D549F64040E9E70329E7D125
:100C200021688903E4D54FF22440E1E7020304057B
:100C3000060708090A0B0C0D0E0F10100102000028
:100C40000010024000127A0000093D002DE9F8432F
:100C500005460078354CC00754D0E0690026C00036
:100C600008D4E06940F08050E061E069012600F0BE
:100C7000805000902E480168C90512D40168804652
:100C800041F480710160FFF771FD074605E000BF88
:100C9000FFF76CFDC01B642823D8D8F80000C005FE
:100CA000F6D5206A10F4407021D0A98801F4407173
:100CB00081421CD0206A1F49012220F440700A6042
:100CC00000220A602062C00711D0FFF74FFD0746DF
:100CD00041F2883808E000BFFFF748FDC11B4145DD
:100CE00002D90320BDE8F883206A8007F4D5206A82
:100CF000696820F44070084320621EB1E06920F06A
:100D00008050E0612878800705D56068A96820F4E4
:100D10004040084360602878C00605D5606869696E
:100D200020F48000084360600020DBE700100240F0
:100D300000700040400442422DE9F0470F46050094
:100D400061D0434E306800F00700B84209D23068E5
:100D500020F0070038433060306800F00700B842E8
:100D600051D128683B4C810712D5400703D56068F4
:100D700040F4E06060602878000703D5606840F4C4
:100D8000605060606068A96820F0F000084360600F
:100D90002878C00728D06868012810D02168022868
:100DA00010D0890700292EDA616821F00301014380
:100DB0006160FFF7DBFC804641F288390DE0216875
:100DC0008903EFE78901EDE7FFF7D0FCA0EB08010D
:100DD000494502D90320BDE8F0876068696800F0E2
:100DE0000C00B0EB810FEFD1306800F00700B84283
:100DF0000BD9306820F0070038433060306800F0CD
:100E00000700B84201D00120E5E72878400705D562
:100E10006068E96820F4E0600843606028780007B3
:100E200006D56068296920F4605040EAC10060601E
:100E300000F038F86168084AC1F30311515CC840FA
:100E40000649086006480068FFF718FE0020C2E760
:100E50000020024000100240AC18000818000020DA
:100E6000100000200448054900684968044AC1F39D
:100E70000221515CC8407047180000200010024059
:100E8000BC1800080448054900684968044AC1F3D1
:100E9000C221515CC8407047180000200010024079
:100EA000BC18000812A185B00FC98DE80F0014A06E
:100EB000144A006804905168134801F00C03042B95
:100EC00010D0082B0ED1C1F38343C9031DF80300D2
:100ED0000AD5516804AAC1F34041515C0A4A504303
:100EE000B0FBF1F005B0704708494843FAE700004D
:100EF00002030405060708090A0B0C0D0E0F10105B
:100F0000010200000010024000127A0000093D00BA
:100F10002DE9F84F040070D02078C04DC00749D0AB
:100F20006868C0F38100012807D06868C0F38100B9
:100F3000022809D16868C00306D52868800339D51E
:100F400060680028E7D035E06068B0F5803F0BD0DE
:100F500010B1B0F5A02F11D0286820F4803028609F
:100F6000286820F4802002E0286840F4803028605F
:100F7000606890B1FFF7FAFB06460AE0286840F483
:100F800080202860F0E700BFFFF7F0FB801B64289B
:100F900073D828688003F7D50CE0FFF7E7FB064617
:100FA00005E000BFFFF7E2FB801B6428F0D828684B
:100FB0008003F7D420789A4E80074FF001094FF054
:100FC000000839D5686810F00C0F07D06868C0F3C6
:100FD0008100022809D16868C00306D42868800708
:100FE00014D52069012808D110E02069B0B1C6F8F5
:100FF0000090FFF7BBFB074605E00AE1FFF7B6FBF1
:10100000C01B0228C4D828688007F7D52868616902
:1010100020F0F80040EAC10028600DE0C6F800802A
:10102000FFF7A4FB074604E0FFF7A0FBC01B022864
:1010300023D828688007F7D4207800072CD5794872
:10104000A169D9B1C0F80090FFF790FB074604E012
:10105000FFF78CFBC01B02280FD8686A8007F7D502
:1010600071484FF4FA510068B0FBF1F0009000BFF6
:101070000098411E0091FAD20EE080E0C0F8008096
:10108000FFF774FB074604E0FFF770FBC01B022864
:1010900075D8686A8007F7D42078400760D5E8697A
:1010A0000027C00008D4E86940F08050E861E86992
:1010B000012700F0805000905C480168C90513D4F6
:1010C0000168834641F480710160FFF74FFB82465F
:1010D00006E000BFFFF74AFBA0EB0A0064284ED8E9
:1010E000DBF80000C005F5D5E06801280AD008B19A
:1010F000052813D0286A20F001002862286A20F011
:10110000040002E0286A40F001002862E06841F231
:10111000883B98B1FFF72AFB82460BE0286A40F033
:1011200004002862EEE700BFFFF720FBA0EB0A01F6
:1011300059455AD8286A8007F6D50CE0FFF716FB08
:10114000824605E0FFF712FBA0EB0A0159454CD897
:10115000286A8007F6D41FB1E86920F08050E86162
:10116000E06988B36968C1F38101022944D002288B
:10117000C6F8608004D0FFF7F9FA044638E034E09E
:10118000FFF7F4FA074604E0FFF7F0FAC01B022865
:101190002BD828688001F7D4206AB0F5803F05D1AC
:1011A0006868A16820F4003008436860D4E9080149
:1011B0000843696821F4741108436860C6F86090B8
:1011C000FFF7D4FA044606E025E000BFFFF7CEFAA9
:1011D000001B022809D828688001F7D51BE000BF52
:1011E000FFF7C4FA001B022802D90320BDE8F88FDC
:1011F00028688001F4D40EE00128F7D06868226ADC
:1012000000F48031914204D1616A00F47010884288
:1012100001D00120EAE70020E8E7000000100240CA
:10122000000042428004424218000020007000404A
:1012300010B5401EB0F1807F01D3012010BD4FF0EA
:10124000E02460610F21601700F040FA0020A061E7
:1012500007202061002010BD70B5040004D094F870
:101260003D00002510B106E0012070BD84F83C501F
:10127000204600F023F8242084F83D002068C1684F
:1012800021F40051C160204600F080F92068016916
:1012900021F4904101612068416921F02A014161F6
:1012A0002068C16841F40051C1602564202084F8A1
:1012B0003D0084F83E00002070BD000030B585B0D0
:1012C0000024009401940294039400681449884215
:1012D00024D11448816941F480418161816901F41C
:1012E00080410491816941F00401816180690E4D62
:1012F00000F0040004904FF4007000900220019070
:101300000320039069462846FFF734F92815CDE9F4
:101310000004694628460294FFF72CF905B030BD59
:101320000038014000100240000801402DE9F84358
:10133000044690F83D001F4616460D4620284CD125
:10134000C5B1BEB194F83C00012846D0012084F814
:101350003C004FF00008C4F84080212084F83D0094
:10136000FFF704FAA6848146E684A068B0F5805FA2
:1013700003D004E00120BDE8F883206928B12E469F
:101380005FF0000584F83C800EE00026FAE780213B
:10139000204600F057F9A0B9AEB116F8010B21684C
:1013A0004860E08C401EE084E08C4B464FF0000229
:1013B00000970028EBD14FF04001204600F042F9A1
:1013C00030B10320D7E735F8020BC0F30800E6E799
:1013D000202084F83D000020CDE70220CBE7FEE787
:1013E00010B5406A01684A6822F003024A60002191
:1013F00041844185012180F83510816B41F008015D
:101400008163FFF7B9F910BD10B50146406A8969DB
:1014100049B901684A6822F001024A600021418509
:10142000012180F83510FFF7E3FA10BD10B5406ACE
:10143000FFF708FB10BD0000094808B5416941F0FD
:10144000010141614069002200F001000090114655
:101450000E20FFF75FFBBDE808400E20FFF74CBBF6
:1014600000100240094808B5816941F00801816116
:10147000816901F008010091816941F004018161F5
:10148000806900F00400009008BD000000100240D8
:101490000D4810B50B4901604FF4407141600021C7
:1014A0000322C0E902124FF4FA52C0E9041281612A
:1014B000FFF764F9002803D0BDE81040FEF7ACBE8A
:1014C00010BD000000380040300000200C4810B56E
:1014D0000A4901604FF4E1314160002181600C2232
:1014E000C160C0E904128161C161FFF7B5FE002847
:1014F00003D0BDE81040FEF78FBE10BD003801409C
:10150000B0000020FEE7FEE770477047FFF79CBA87
:1015100030B595B028216846FEF72DFE14210AA8A3
:10152000FEF729FE18210FA8FEF725FE0121080469
:10153000CDE900100024029402250491CDE9075062
:101540004FF4E01009906846FFF7E2FC08B172B66C
:10155000FEE70F20CDE90A054FF48060CDE90C408D
:1015600002210AA80E94FFF7E7FB08B172B6FEE766
:1015700004200F9012940FA8FFF768FB002801D0F9
:1015800072B6FEE715B030BD7047000070B5044676
:1015900000680169E26821F4405111430161216949
:1015A000A0680843616908432168CA6841F20C6376
:1015B0009A430243CA6020684169A26921F44071DC
:1015C000114341611E492068884202D1FFF75AFC4D
:1015D00001E0FFF747FC00EBC00101EB001260687F
:1015E00064218000B2FBF0F3B3FBF1F36FF0180657
:1015F0007343B2FBF0F5B2FBF0F605EB8305322343
:1016000003EB0515B5FBF1F5B6FBF1F605F0F005BA
:1016100005EB0615B2FBF0F6B2FBF0F0B0FBF1F013
:101620006FF01802504306EB800003EB0010B0FB94
:10163000F1F0216800F00F002844886070BD0000C0
:10164000003801402DE9F041984617460E46044601
:10165000069D1DE0681C1BD02DB1FFF787F8A0EB9D
:101660000800A84214D92068C16821F4D071C16073
:101670002068416921F001014161202084F83D008A
:1016800084F83E00002084F83C000320BDE8F0818F
:101690002068006836EA000004D00020B842D9D0A3
:1016A0000020F3E70120F9E7FEE700000FB4054B47
:1016B00010B503A9044A029800F028F810BC5DF8A0
:1016C00014FB0000611800081C0000200907090E27
:1016D000002804DB00F1E02080F80014704700F0DF
:1016E0000F0000F1E02080F8141D704702E008C8E8
:1016F000121F08C1002AFAD170477047002001E08C
:1017000001C1121F002AFBD1704700002DE9FF4FD5
:1017100089B09B460446002506E025280BD05A4692
:101720000B999047641C6D1C20780028F5D10DB0F2
:101730002846BDE8F08F0027B8460122474900E05F
:10174000074314F8013F203B02FA03F00842F7D1A7
:1017500020782E2819D114F8010F47F004072A2801
:101760000ED06FF02F022078A0F1300109290CD89B
:1017700008EB880102EB410100EB0108641CF2E771
:101780000A98641C50F8048B0A9020780028CED068
:10179000642808D0692806D075281ED05A460B99AF
:1017A00090476D1C58E00A994FF00A0901C90A9147
:1017B000002802DA40422D2102E0390504D52B2110
:1017C0008DF82010012103E0F90704D02021F7E76C
:1017D0008A4608AE0DE00021FAE70A994FF00A099F
:1017E00001C90A91F7E74946FEF7D0FC303106F807
:1017F000011D0028F7D1ADEB060000F120097807A4
:1018000001D44FF00108C84502DDA8EB090000E053
:1018100000208046002706E008A85A46C05D0B99C4
:1018200090476D1C7F1C5745F6DB04E030205A467C
:101830000B9990476D1CB8F10001A8F10108F5DC87
:1018400005E016F8010B5A460B9990476D1CB9F14B
:101850000001A9F10109F4DC641C65E70928010015
:1018600013B54FF6FF73012269460248FFF75EFD8C
:1018700000981CBDB0000020FFF7EEF8FFF748FE0F
:10188000FFF7F0FDFFF7D8FDFFF702FEFFF71EFEA2
:10189000042204490448FFF741F86420FEF758FE8B
:1018A000FBE70000200000203000002000000000C6
:1018B0000000000001020304060708090000000000
:1018C00001020304E41800080000002020000000CA
:1018D000EC1600080419000820000020D8040000BD
:1018E000FC160008000000000000000000000000DE
:1018F0000100000010000000000000000024F400BF
:0419000000000000E3
:0400000508000131BD
:00000001FF
