:020000040800F2
:100000007006002029020008010B0008FD0A000804
:10001000FF0A000883040008AD0B00080000000080
:10002000000000000000000000000000050B0008B8
:100030008504000800000000030B0008070B0008FF
:10004000430200084302000843020008430200087C
:10005000430200084302000843020008430200086C
:10006000430200084302000843020008430200085C
:10007000430200084302000843020008430200084C
:10008000430200084302000843020008430200083C
:10009000430200084302000843020008430200082C
:1000A000430200084302000843020008430200081C
:1000B000430200084302000843020008430200080C
:1000C00043020008430200084302000843020008FC
:1000D00043020008430200084302000843020008EC
:1000E00043020008430200084302000843020008DC
:1000F00043020008430200084302000843020008CC
:1001000043020008430200084302000843020008BB
:1001100043020008430200084302000843020008AB
:10012000430200084302000843020008430200089B
:10013000430200084302000843020008430200088B
:10014000430200084302000843020008430200087B
:10015000430200084302000843020008430200086B
:10016000430200084302000843020008430200085B
:100170004302000843020008430200080000000098
:10018000430200084302000800F002F800F03CF8C7
:100190000AA090E8000C82448344AAF10107DA45E2
:1001A00001D100F031F8AFF2090EBAE80F0013F0F8
:1001B000010F18BFFB1A43F0010318478C0A000017
:1001C000AC0A0000103A24BF78C878C1FAD85207A8
:1001D00024BF30C830C144BF04680C6070470000C1
:1001E0000023002400250026103A28BF78C1FBD840
:1001F000520728BF30C148BF0B6070471FB500F0E1
:1002000016FD1FBD10B510BD00F001F91146FFF736
:10021000F5FF00F0DCFC00F01FF903B4FFF7F2FF7C
:1002200003BC00F027F9000009488047094800474F
:10023000FEE7FEE7FEE7FEE7FEE7FEE7FEE7FEE796
:10024000FEE7FEE704480549054A064B70470000F3
:100250009D0B000889010008700000207006002036
:1002600070020020700200201548016B41F002016D
:100270000163144801684FF055320260704711481D
:1002800081694FF0010202FA01F2826170470D4864
:1002900081694FF0000202FA01F2826170470A4858
:1002A00081694FF0010202FA01F28261704706484B
:1002B00081694FF0000202FA01F28261704700008A
:1002C00000380240000402400000024053EA020CE1
:1002D00000F069802DE9F04B4FF00006002B1FBFA6
:1002E000B3FA83F503FA05F424FA05F65E4012BF6B
:1002F0001643B2FA82F502FA05F4C5F120051EBFD5
:1003000022FA05FC44EA0C04203556EA044C4FEA74
:10031000144418BF641C4FF000084FF000099042CD
:1003200071EB030C39D3002919BFB1FA81F701FA37
:1003300007F6B0FA80F700FA07F6C7F120071EBFEC
:1003400020FA07FC46EA0C062037B6FBF4FCA7EBC4
:100350000507103F07F01F0BCBF120060CFA0BFB33
:100360002CFA06F644BFB3460026202FA4BF5E46F3
:100370004FF0000B5BEA060C08BF4FF0010B19EBC6
:100380000B09ABFB027C48EB0608C01B06FB02CC4A
:100390000BFB03CC71EB0C01C1E70B460246414657
:1003A0004846BDE8F08B13B54FF000004FF0000158
:1003B000AFF30080BDE81C4070474FF0000200B56D
:1003C000134694469646203922BFA0E80C50A0E878
:1003D0000C50B1F12001BFF4F7AF090728BFA0E826
:1003E0000C5048BF0CC05DF804EB890028BF40F8F2
:1003F000042B08BF704748BF20F8022B11F0804F34
:1004000018BF00F8012B704770477047704775465A
:1004100000F02CF8AE4605006946534620F0070070
:10042000854618B020B5FFF70DFFBDE820404FF01E
:1004300000064FF000074FF000084FF0000B21F0CE
:100440000701AC46ACE8C009ACE8C009ACE8C0099B
:10045000ACE8C0098D46704710B50446AFF3008084
:100460002046BDE81040FFF7D8BE000000487047A6
:100470001000002001491820ABBEFEE72600020054
:100480007047FEE77047000070B5044600F00EF8B4
:100490000546601C02D004480078044400F006F8C9
:1004A000401BA042FAD370BD0000002001488068C4
:1004B0007047000000000020024881680278114463
:1004C00081607047000000200B4810B5016841F4BE
:1004D00000710160016841F480610160016841F4CC
:1004E00080710160032000F061F80F2000F006F831
:1004F00000F024F8002010BD003C024070B50D4D06
:1005000004464FF47A712878B1FBF0F00A49096883
:10051000B1FBF0F000F0DEFA48B9102C07D200224F
:100520002146501E00F022F800206C6070BD0120B2
:1005300070BD0000000000200C0000200A4808B533
:10054000016841F480410160006800F4804000903F
:100550000548001F016841F080510160006800F00B
:100560008050009008BD000044380240F0B40E4BAB
:100570001B680C46C3F30223C3F10705042D00D901
:100580000425191D072901D2002300E0DB1E0126E6
:1005900006FA05F1491E214099409E40761E1640FC
:1005A0003143F0BC00F003BB0CED00E0064900F065
:1005B000070208684FF6FF03184040EA0220034A8A
:1005C00010430860704700000CED00E00000FA05E1
:1005D0002DE9F0470E46050065D0DFF81481D8F804
:1005E0000000F7B200F00700B04207D288F80070B0
:1005F000D8F8000000F00700B04254D128683D4C04
:10060000810712D5400703D5206840F4E0502060F0
:100610002878000703D5206840F4604020602068F7
:10062000A96820F0F000084320602878C0072DD08A
:10063000304968680839012812D0022813D00328ED
:1006400011D00968890700292DDA216821F00301FA
:1006500001432160FFF72AFF814641F2883A0EE00C
:1006600009688903EFE709688901ECE7FFF71EFFD6
:10067000A0EB0901514502D90320BDE8F0872068AD
:10068000696800F00C00B0EB810FEFD1D8F80010D2
:10069000404601F00701B14207D90770006800F039
:1006A0000700B04201D00120E7E72878400705D5D0
:1006B0002068E96820F4E0500843206028780007AB
:1006C00006D52068296920F4604040EAC100206016
:1006D00000F018F82168084AC1F30311515CC840C2
:1006E0000649086006480068FFF708FF0020C4E7D5
:1006F000003C024008380240380C00080C00002082
:1007000004000020154810B5006810F00C021448D1
:1007100013D01449042A0FD0082A0ED10F4C241FDD
:100720002268236802F03F025B0207D52068C0F30D
:100730008810A0FB010106E0084610BD2168C1F346
:100740008811A1FB00010023FFF7C0FD2168C1F360
:100750000141491C4900B0FBF1F010BD08380240CE
:100760000024F40040787D012DE9F84F04006ED09C
:100770002078DFF84C93C007A9F104054AD009F1AD
:1007800004000168C1F38101012908D00068C0F3A9
:10079000810002280AD1D9F80000400206D5286855
:1007A000800337D560680028E1D033E06068B0F599
:1007B000803F10D0B0F5A02F286810D020F48030F2
:1007C0002860286820F4802028606068A8B1FFF7BE
:1007D0006DFE06460DE0286840F48030F4E740F4F2
:1007E00080202860F7E700BFFFF760FE801B6428C9
:1007F00073D828688003F7D50CE0FFF757FE06464C
:1008000005E000BFFFF752FE801B6428F0D828687F
:100810008003F7D42078DFF8AC8280074FF0000A1D
:100820003ED5A748001D016811F00C0F08D00068E4
:10083000C0F3810002280BD1D9F80000400207D490
:100840002868800716D5E068012800D112E033E15E
:10085000E068B8B10120C8F80000FFF727FE06469F
:1008600005E000BFFFF722FE801B0228C0D82868E1
:100870008007F7D52868216920F0F80040EAC10018
:1008800028600DE0C8F800A0FFF710FE064604E05F
:10089000FFF70CFE801B02281FD828688007F7D4BA
:1008A0002078000722D5864F87486169703771B17B
:1008B00001210160FFF7FAFD064604E0FFF7F6FDAF
:1008C000801B022809D838688007F7D50EE0C0F8E9
:1008D00000A0FFF7EBFD064605E082E0FFF7E6FD2E
:1008E000801B02287DD838688007F7D4207840071D
:1008F00068D5DFF8CCB100270BF13C0BDBF800002A
:10090000C0000BD4DBF8001041F08051CBF8001090
:10091000DBF80000012700F0805000906B4E30683B
:10092000C00510D4306840F480703060FFF7BEFD21
:10093000009005E0FFF7BAFD0099401A022850D850
:100940003068C005F6D55E4EA0686C3601280FD021
:100950000528306810D020F001003060306820F0A9
:1009600004003060A068B8B1FFF7A0FD00900FE070
:10097000306840F00100F4E740F004003060F7E731
:10098000FFF794FD0099411A41F28830814266D800
:1009900030688007F4D50EE0FFF788FD009007E08F
:1009A000FFF784FD0099411A41F28830814256D800
:1009B00030688007F4D42FB1DBF8001021F08051AB
:1009C000CBF80010A069C8B33D49091D0968C1F3FF
:1009D000810102294AD00228504607D0C8F8600099
:1009E00000E03CE0FFF762FD04463BE04746C8F804
:1009F0006000FFF75BFD064605E000BFFFF756FD10
:100A0000801B02282BD828688001F7D4D4E907017D
:100A10000843A16A2E4A490802EB0141626A41EA91
:100A20008211084394F82C1040EA0161C9F80010C3
:100A300001203866FFF73AFD044606E03EE000BFBD
:100A4000FFF734FD001B022809D828688001F7D57C
:100A500034E000BFFFF72AFD001B022802D9032063
:100A6000BDE8F88F28688001F4D427E00128F7D08A
:100A7000D9F80000E26900F4800191421CD1226A99
:100A800000F03F01914217D147F6C071626A014000
:100A9000B1EB821F10D1A26A4FF0FF3300F4403156
:100AA00003EB5202B1EB024F06D194F82C1000F088
:100AB0007060B0EB016F01D00120D1E70020CFE7DB
:100AC0000438024000004742800E47420070004058
:100AD0000000FFFF10B5401EB0F1807F01D3012060
:100AE00010BD4FF0E02460610F21601700F05FF847
:100AF0000020A06107202061002010BDFEE7FEE776
:100B0000FEE770477047FFF7D7BC000030B593B0E1
:100B100030216846FFF751FC14210CA8FFF74DFC6B
:100B20001C480024016841F080510160006800F019
:100B3000805011901848016841F4804101600068BC
:100B4000022500F4804011900120039010200490B1
:100B5000009506950820CDE907403220CDE909052A
:100B600004200B906846FFF7FFFD08B172B6FEE760
:100B70000F20CDE90C054FF48050CDE90E40012146
:100B80000CA81094FFF724FD002801D072B6FEE7F0
:100B900013B030BD40380240007000400248016888
:100BA00041F470010160704788ED00E0FEE709073D
:100BB000090E002804DB00F1E02080F800147047E3
:100BC00000F00F0000F1E02080F8141D7047FFF7DF
:100BD0007BFCFFF79BFFFFF747FB0420FFF75FFB62
:100BE0004FF47A742046FFF74FFC0420FFF75FFBB9
:100BF0000420FFF744FB2046FFF746FC0420FFF7E4
:100C000046FB0520FFF73BFB2046FFF73DFC052098
:100C1000FFF73DFB0620FFF732FB2046FFF734FCD1
:100C20000620FFF734FB2046FFF72EFCE0E74FF0ED
:100C30004070E1EE100A7047000000000000000064
:100C40000102030406070809680C000800000020E0
:100C500010000000C4010008780C000810000020FB
:100C600060060000E0010008010000001000000024
:080C7000000000000024F40064
:040000050800018965
:00000001FF
