:020000040800F2
:100000003838002049020008AB380008A33800083F
:10001000A7380008CF210008353E00080000000086
:10002000000000000000000000000000AF380008E1
:10003000D321000800000000AD380008B1380008E6
:1000400063020008630200086302000863020008FC
:1000500063020008630200086302000863020008EC
:1000600063020008630200086302000863020008DC
:1000700063020008630200086302000863020008CC
:1000800063020008630200086302000863020008BC
:1000900063020008630200086302000863020008AC
:1000A000630200086302000863020008630200089C
:1000B000630200086302000863020008630200088C
:1000C000630200086302000863020008630200087C
:1000D00063020008253E000863020008630200086E
:1000E000630200086302000863020008630200085C
:1000F000630200086302000863020008630200084C
:10010000630200086302000863020008630200083B
:100110006302000863020008CD380008630200088B
:10012000630200086302000863020008630200081B
:10013000630200086302000863020008630200080B
:1001400063020008630200086302000863020008FB
:1001500063020008630200086302000863020008EB
:1001600063020008630200086302000863020008DB
:100170006302000863020008630200080000000038
:10018000630200086302000800F002F800F04CF877
:100190000AA090E8000C82448344AAF10107DA45E2
:1001A00001D100F041F8AFF2090EBAE80F0013F0E8
:1001B000010F18BFFB1A43F00103184788550100CF
:1001C000A8550100103A24BF78C878C1FAD8520760
:1001D00024BF30C830C144BF04680C6070470000C1
:1001E0000023002400250026103A28BF78C1FBD840
:1001F000520728BF30C148BF0B607047662907F01F
:100200000586642900F07886002070471FB507F046
:1002100049FD01F00DFA04000020002107F096F8D6
:10022000E0601FBD10B510BD01F006FB1146FFF7E1
:10023000EDFF06F055FE01F03DFB03B4FFF7F2FFC2
:1002400003BC03F034FE000009488047094800471A
:10025000FEE7FEE7FEE7FEE7FEE7FEE7FEE7FEE776
:10026000FEE7FEE704480549054A064B70470000D3
:10027000B9380008890100083832002038380020D9
:1002800038340020383400209FED1A1AF5EE000AA9
:1002900040EE010ABDEEE00AF5EEC00A10EE100ACB
:1002A000F1EE10FA38BF401E00EE100A1349F7EEC7
:1002B000001AB8EEC00A30EEC00ADFED0F0A20EED9
:1002C000200AFCEEC00A10EE900AC0F3080000EE0F
:1002D000900A01EB8000F8EE600A90ED011A70EED2
:1002E000600A90ED000A71EEE01A21EE800A00EE3D
:1002F000810A704783F9223E00000044984E0108AD
:10030000B5EEC00AF1EE10FA07D2DFED1E0AB4EE28
:10031000E00AF1EE10FAA8BF7047DFED1B0AB5EE58
:10032000C00A60EE200ABDEEE01A11EE100AF1EEEE
:1003300010FA38BF401E00EE100A1549F7EE001AF9
:10034000B8EEC00A30EEC00ADFED100A60EE200AF7
:10035000BCEEE00A10EE100AC0F3080000EE100A2E
:1003600001EB8000B8EE400A90ED011A70EEC00A71
:1003700090ED000A71EEE01A21EE800A00EE810A8B
:1003800070470000CD024CB483F9223E00000044C7
:10039000984E01089FED3D0A5FEA920C57D000BFCE
:1003A000D0ED000A90ED011A0B1D60EEA00A083096
:1003B00041EE010AF5EEC00AF1EE10FAA6BFB1EE69
:1003C000E01A81ED001A81ED000AD0ED000A90EDEF
:1003D000011A191D60EEA00A083041EE010AF5EE7F
:1003E000C00AF1EE10FAA6BFB1EEE01A83ED001AD2
:1003F00083ED000AD0ED000A90ED011A0B1D60EEAE
:10040000A00A083041EE010AF5EEC00AF1EE10FA3A
:10041000A6BFB1EEE01A81ED001A81ED000A90ED61
:10042000001AD0ED010A191D21EE011A083000EE64
:10043000A01AB5EEC01AF1EE10FAA6BFF1EEC10A8D
:10044000C3ED000A83ED000ABCF1010CA8D112F043
:10045000030208BF704700BFD0ED000A90ED011AFB
:100460000B4660EEA00A091D083041EE010AF5EEC8
:10047000C00AF1EE10FAA6BFB1EEE01A83ED001A41
:1004800083ED000A521EE7D1704700000000000013
:100490002DE9F04F8D082DED048B82B00026AC467F
:1004A0003446019506EB0C0909EB0C0A0AEB0C0823
:1004B00000EBC60700EBC90900EBCA0A00EBC8084D
:1004C00097ED003AD9ED003ADAED006A98ED006A4E
:1004D00097ED010ADAED014A33EE265A73EE860AE9
:1004E00099ED014AD8ED015A30EE241A4FEA440B37
:1004F00002EBCB0E70EE644A74EE251A35EE200A3C
:100500009EED002ADEED012A87ED000A31EE210A78
:1005100073EEC63A34EE656A87ED010A35EE600A7D
:1005200033EE663A71EE610A02EBC40774EEE35AE9
:1005300033EE064A97ED005A73EEA41AD7ED014A3E
:1005400033EE461A24EE056A0BEB040725EE855AB6
:1005500002EBC70760EE026A65EEA45A24EE244A55
:1005600097ED003AD7ED013A60EEA24A20EE822ADA
:1005700021EE037A20EE220A61EEA30A21EE833AED
:1005800061EE231A76EEA42A32EE400A36EE251AE0
:1005900075EE443AC9ED002A77EE200A89ED010A8A
:1005A00073EE611A8AED001ACAED013AC8ED000A2D
:1005B000C8ED011A1C446D1E06F101067FF472AFEE
:1005C0004FF6FF7404EA830B019B0093042B7CD944
:1005D00066464FEA9C0C4FF00008C146ACF1010E94
:1005E0004FEA480303EB080402EBC30302EBC80520
:1005F00093ED003AD3ED014A02EBC40395ED005AA6
:10060000D5ED015A93ED006A93ED014AD8444B466B
:1006100003EB0C0404EB0C0707EB0C0A00EBC3051F
:1006200000EBC70700EBC40400EBCA0AD5ED003AA3
:1006300097ED007AD4ED008A9AED008A95ED010AD3
:10064000D4ED010AD7ED017ADAED011A33EEC72AAB
:1006500070EE676A70EEE12A33EE877A78EE883AB8
:1006600030EE270A38EEC81A70EEA11A72EE227A1E
:1006700032EE622A77EE232A70EE618A36EEC18A64
:1006800030EE210A77EE630A31EE261AC5ED002A14
:1006900085ED010A28EE050A67EE856A28EE258AAF
:1006A00020EE837A20EEA49A68EE831A62EE062A80
:1006B00061EE063A62EE040A67EEA57A68EEA48A55
:1006C00021EE041A36EE882A00E027E077EE286A49
:1006D00071EEC91A30EE670AC4ED006A32EE811A73
:1006E000C4ED011A73EEE00A87ED002A87ED010AD6
:1006F0008AED001A3344CAED010A8B4288D309F10E
:100700000109F1457FF66CAF4FF6FF7303EA8B0BDF
:10071000009B9B080093042B3FF65AAFDDF80410B2
:1007200090ED000AD0ED042A90ED025A90ED031AE4
:10073000D0ED064A90ED073A30EE222AD0ED011AAC
:10074000D0ED050A75EE243A31EE034A30EE620A26
:1007500071EEA02A31EE431A32EE233A71EEE00A2E
:1007600075EE641A72EE844A32EE632A72EEC43A6F
:1007700080ED003A70EE012AC0ED014A30EEE14A08
:1007800080ED022A30EE410AC0ED033A71EEA00A74
:10079000C0ED042A80ED054A80ED060AC0ED070A87
:1007A0002030491EBCD102B0BDEC048BBDE8F08FF7
:1007B0002DE9F04F4FEA910A2DED048B82B0002411
:1007C000D446A046CDF804A004EB0C0505EB0C06BE
:1007D00006EB0C0900EBC40700EBC60600EBC505F1
:1007E00000EBC909D7ED011AD6ED012A95ED006A93
:1007F000D9ED006AD7ED005A96ED007AD5ED010AE1
:1008000099ED011A36EE262A71EEA23A35EE873AB4
:1008100071EEE21A30EE815A70EEC12A4FEA480BAF
:1008200002EBCB0E73EE020A9EED004ADEED014AAA
:10083000C7ED000A73EE850A36EE666A75EEC75A92
:10084000C7ED010A33EE422A02EBC80731EE861AE1
:1008500033EEC53A71EEC61A97ED006A97ED015A6C
:1008600075EEE20A0BEB080702EBC70775EEA22A4A
:10087000D7ED005AD7ED013A60EE866A22EE047A8F
:1008800062EEA57A23EE044A21EE066A61EEA55ACD
:1008900060EE850A23EE243A22EE242A21EE051A80
:1008A00061EEA31A62EEA32A76EE203A37EE433ABF
:1008B00074EE020A36EEC11A85ED003A77EEE11ABF
:1008C000C5ED010A35EEA22A86ED001AC6ED013A01
:1008D000C9ED001A641C89ED012A9844BAF1010A95
:1008E0007FF472AF4FF6FF7404EA830B019B009311
:1008F000042B7CD966464FEA9C0C4FF00008C14699
:10090000ACF1010E4FEA480303EB080402EBC3030A
:1009100002EBC805D3ED003A93ED017A02EBC40374
:10092000D5ED006AD5ED015AD3ED004A93ED013AB9
:10093000D8444B4603EB0C0404EB0C0707EB0C0A02
:1009400000EBC30500EBC70700EBC40400EBCA0AC9
:1009500095ED012A97ED018A95ED001AD4ED008AF4
:10096000D4ED017A97ED009ADAED001ADAED010A7A
:1009700032EE485A71EE492A38EEE14A32EE082A40
:1009800037EEA08A37EEE06A78EEA11A31EE091A46
:1009900075EE048A72EEC67A72EE862A71EE610AEC
:1009A00031EE211A35EE444A32EE489A85ED001AAE
:1009B00032EE081A28EEA66A27EEA65A68EEA58A35
:1009C00085ED011A20EEA31A69EE231A22EEA42A5D
:1009D00024EE248A67EEA57A29EE079A60EE870A4C
:1009E00024EE034A62EE832A35EE685A00E027E0DF
:1009F00036EE276A71EE497A31EEA01A72EE440A99
:100A0000C4ED007A84ED011A78EE221A87ED005ABF
:100A100087ED016ACAED000A3344CAED011A8B4220
:100A200088D309F10109F1457FF66CAF4FF6FF73EA
:100A300003EA8B0B009B9B080093042B3FF65AAFF5
:100A4000DDF8041090ED003AD0ED044AD0ED032A11
:100A500090ED071A90ED024AD0ED061AD0ED013A5A
:100A6000D0ED050A33EE242A72EE815A33EE643A51
:100A700034EE215A73EEA04A73EEE03A32EEC11A18
:100A800074EE610A32EE454A72EE052A74EEA51A3A
:100A900034EEE55A73EE414A33EEA02A33EE011AE2
:100AA00033EEE03A62EE805A61EE800A64EE003A7C
:100AB00065EE002AC0ED005A64EE801AC0ED010A0E
:100AC00022EE002AC0ED023A21EE004AC0ED032AD0
:100AD00023EE001AC0ED041A80ED052A80ED064AC7
:100AE00080ED071A2030491EACD102B0BDEC048B5A
:100AF000BDE8F08F70B504460D4680782188A38943
:100B0000626801280ED02846FFF7C2FCE078012871
:100B100018BF70BDE28921882846A368BDE87040EF
:100B200000F066B894ED040A2846FFF741FEEDE7B1
:100B300010B40180234C446082704FF0000CC370ED
:100B4000B1F5807F20D004DC10292FD0402923D09C
:100B500005E0B1F5806F0FD0B1F5805F04D04FF0A4
:100B6000FF3C10BC6046704701218181C18116495C
:100B70009FED160A816016E004218181C18114492C
:100B80009FED140A81600EE010218181C18112491C
:100B90009FED120A816006E040218181C1811049E8
:100BA0009FED100A816080ED040ADAE74FF480714E
:100BB0008181C1810C499FED0D0A816080ED040A9D
:100BC000CFE7000098CE000898C6000800008039E2
:100BD0009EC600080000803AB6C600080000803BB0
:100BE00016C700080000803C96C800080000803D41
:100BF0002DE9F0014E0801244FF0000C04EB5107E1
:100C00006146A6F102082CE061452AD200EBCC0532
:100C100000EBC104D5ED000A94ED000AC4ED000A12
:100C200085ED000AD5ED010A94ED010AC4ED010A33
:100C300085ED010ACC1900EBC4050CEB070400EBB1
:100C4000C40495ED000AD4ED000AC5ED000A84ED58
:100C5000000AD4ED010A95ED010AC5ED010A84ED03
:100C6000010A00EBC104B44400EBCC0C94ED020A81
:100C7000DCED000A891CC4ED020A8CED000ADCEDF3
:100C8000010A94ED030AC4ED030A8CED010AB3F8DE
:100C900000C089B203EB42034145B5D9BDE8F0017C
:100CA00070472DE9F0074D0801244FF0000C04EBCC
:100CB00051066146A5F102082BE0614529D250F8A2
:100CC000314050F83C7040F8317040F83C4000EB47
:100CD000C10900EBCC04D9F80470D4F804A0C9F819
:100CE00004A067608C190CEB060750F8349050F89C
:100CF00037A040F834A040F8379000EBC40400EB74
:100D0000C707D4F80490D7F804A0C4F804A0C7F823
:100D1000049000EBC104AC44A76850F83C90C4F8C0
:100D2000089040F83C7000EBCC0CE768DCF80490CD
:100D3000C4F80C90CCF80470B3F800C0891C03EB25
:100D400042034145B9D9BDE8F00770472DE9F00FDE
:100D500001244F0804EB51084FF0000C7C0804BF3D
:100D6000BDE8F00F7047014600EB8805002614E04F
:100D7000BCEB460F11D950F82CA0D1F80090C1F867
:100D800000A040F82C900CEB0809D5F800A050F812
:100D900029B0C5F800B040F829A0BC4451F8049F20
:100DA00050F82CA041F804AB40F82C90B3F800C0E8
:100DB00003EB4203641E05F1080506F10106D7D1D5
:100DC000BDE8F00F7047704753EA020C00F06980ED
:100DD0002DE9F04B4FF00006002B1FBFB3FA83F54F
:100DE00003FA05F424FA05F65E4012BF1643B2FA80
:100DF00082F502FA05F4C5F120051EBF22FA05FCB2
:100E000044EA0C04203556EA044C4FEA144418BF57
:100E1000641C4FF000084FF00009904271EB030C86
:100E200039D3002919BFB1FA81F701FA07F6B0FAF0
:100E300080F700FA07F6C7F120071EBF20FA07FC6B
:100E400046EA0C062037B6FBF4FCA7EB0507103F7B
:100E500007F01F0BCBF120060CFA0BFB2CFA06F661
:100E600044BFB3460026202FA4BF5E464FF0000BC0
:100E70005BEA060C08BF4FF0010B19EB0B09ABFB4B
:100E8000027C48EB0608C01B06FB02CC0BFB03CC24
:100E900071EB0C01C1E70B46024641464846BDE8EE
:100EA000F08B13B54FF000004FF00001AFF300805E
:100EB000BDE81C40704700000FB4044910B503AAF8
:100EC000029800F0A3FB10BC5DF814FB0C0000209E
:100ED0000FB41CB5074B06AA7B44694600900598E1
:100EE00000F07BFB0020694600F08AFB1CBC5DF82B
:100EF00014FB0000250700002DE9F0410646002400
:100F000010687529314616A510D0AFF3008000286F
:100F100002DA404213A507E031688A0701D512A51D
:100F200002E0490704D511A5012401E0AFF30080D8
:100F300000210A2206F1240709E0B0FBF2FCB0FB15
:100F4000F2F302FB1C00303078541846491C00288C
:100F5000F3D123462A463046BDE8F04100F0CFB831
:100F6000000000002D0000002B0000002000000009
:100F70002DE9F05F894604464FF0000ADFF824B1FE
:100F8000FB44C0F820A02046E168884700287DD0B7
:100F9000252806D0D4E901219047206A401C206210
:100FA000F1E700255F462046E1688847202806468D
:100FB00007DB312E05D2B81910F8200C08B1054313
:100FC000F1E7A80701D525F00405C4F81CA0002707
:100FD000C4F818A02A2E09D0304602F061FF38B3B9
:100FE00004EB8708303EC8F8186019E059F8041B74
:100FF000204604EB87029161E1688847012F06468D
:1010000018D1E069002820DA25F020051DE0D8F885
:10101000180000EB800006EB40003038C8F81800DC
:101020002046E1688847064602F03AFF0028EED1E4
:10103000012F0AD02E2E08D12046E16888477F1C58
:101040000646022F45F02005C4DBA069002803DA1C
:10105000404245F00105A061E80701D025F01005E8
:10106000A6B1A6F14100192802D8203645F4006542
:101070004A463146204625604D46FFF7BFF860B12D
:10108000012807D0ED1D25F0070000E007E000F182
:10109000080978E705F1040975E730467AE7206A20
:1010A000BDE8F09F184701004FF0000200B513465D
:1010B00094469646203922BFA0E80C50A0E80C5078
:1010C000B1F12001BFF4F7AF090728BFA0E80C5029
:1010D00048BF0CC05DF804EB890028BF40F8042B22
:1010E00008BF704748BF20F8022B11F0804F18BF8F
:1010F00000F8012B704770477047704770472DE923
:10110000F0470D4699469246044600F124080168CE
:10111000880604D5E06921F01001216000E001207B
:10112000A84201DD471B00E00027A1697A1902EB04
:101130000900081AA0612078C00602D42046AFF347
:101140000080002608E0D4E901211AF80600904743
:10115000206A401C761C20624E45F4DB2078C006D5
:101160000AD52046AFF3008006E0D4E90121302003
:101170009047206A401C2062381EA7F10107F4DC6A
:1011800007E0D4E9012118F805009047206A401CC7
:101190002062281EA5F10105F3DC2046AFF3008094
:1011A0002078000602D50220BDE8F0870120FBE789
:1011B00070472DE9FF4F0C461E464FF0FF378BB0AE
:1011C000D2E90001DDF860800A908A46C1F30A5531
:1011D00005B93D460021084606F008FEBAF1000FA9
:1011E00000F4400005DA00EB80004FF4400101EA12
:1011F00050004FEA9059B9F1010F00DDB9460A9845
:1012000050EA4A000ED044F61050A5F2FF3545438F
:101210002F14B8F1000F1ED07542291E1EDDC9F132
:1012200000021CE0B8F1010F4FF0000001D03021A6
:1012300003E0F24305E02154401CB042FBDB3046A2
:101240000022002121540B99C1F80880C1E9002037
:101250000FB0BDE8F08FBD1B6D1CDEE74A4600DA1B
:10126000694206A800F06EFA06AB93E8070003ABEC
:1012700083E8070050460A9900F0E1FB8DE807007B
:10128000A0F500501F3800900398002D0ADD42F2AF
:101290001F014A460844002303A90390684600F052
:1012A0004AFE09E0A0F500504A461F38002303A972
:1012B0000390684600F054FE8DE807000004000C1F
:1012C00003D04FF0FF30410800E01046B8F1000FA6
:1012D00003D00022009215461EE0751E05D400F0D2
:1012E000ABF9303262556D1EF9D5B3460122084381
:1012F00002D000227F1C04E02078302801D1002297
:101300007F1E002A099784D01DE0112D07DA00F016
:1013100093F9303262556D1C50EA0102F5D1084351
:1013200002D00098C8B10EE00021681E05E0235CE1
:10133000625C63542254401E491C8142F7DBAB4679
:10134000A81B401E0990002004F80B000B98099A76
:10135000C0F80880C0E9002B7AE711264FF000089A
:1013600057E72DE9F04F88460446D21D22F00701C9
:1013700091B0D1E90001CDE90A0102F05DFD02461C
:101380000B98C00F01D02D2007E02068810701D500
:101390002B2002E0202101EAC000032A099001D09D
:1013A000072A05DB03464146204600F08BF90BE196
:1013B0002078800601D5E06900E00620B8F1650FCD
:1013C000814606D0B8F1660F18D0B8F1670F70D11A
:1013D00031E00020B9F1110F009001DB112301E091
:1013E00009F101030AAA01A90CA8FFF7E2FEDDE951
:1013F0000C70002609F10105834647E001204B46A9
:1014000000904FF000470AAA01A90CA8FFF7D1FEEF
:10141000DDE90DB00C995D46002610B909F1010017
:101420000D18B9EB050003D4C0F1FF3609F1010531
:10143000A5EB09002BE0B9F1010F01DA4FF001092A
:101440000020B9F1110F0090484601DD112300E0A2
:1014500003460AAA01A90CA8FFF7ABFEDDE90C7050
:101460004D4600268346207800070AD4AB4500DAB3
:101470005D4601A8012D04DD411911F8011C302938
:1014800007D04F4502DA17F1040F04DA0120824633
:101490000FE06D1EEEE7002F02DCED1B3E4403E083
:1014A000781CA84200DD7D1CB81B00F1010A4FF03A
:1014B00000472078000703D4AA4501DB4FF0FF3A2C
:1014C0000021B7F1004F0DF143088DF8431024D0EF
:1014D00002202B23002F01DA7F422D230A21021E36
:1014E000A0F1010000DC5FB197FBF1FC97FBF1F28A
:1014F00001FB1C7C17460CF1300C08F801CDEEE71F
:10150000A8F1010003702188090501D5452100E0FB
:101510006521A0F1010800F8011C09980FA9A1EBB1
:101520000807FF1D00B10120411901EBEA70A16914
:101530003844081A401EA0612078C00602D4204614
:10154000AFF30080099828B1D4E901219047206ABF
:10155000401C20622078C00622D52046AFF30080D0
:101560001EE0002E04DBB34502DD01A8805D00E033
:101570003020D4E901219047206A401C2062761C6B
:10158000AAF101005FEA000A0AD100F051F8C06830
:101590000168405CD4E901219047206A401C206228
:1015A000281EA5F10105DCDC07E0D4E9012118F8CB
:1015B000010B9047206A401C2062381EA7F10107EA
:1015C000F3DC2046AFF30080032011B041E60000B9
:1015D00001694A1C02610878704700B58FB0CDE9F7
:1015E00001310021059105497944CDE903101146E7
:1015F0006846FFF7BDFC0FB000BD0000E5FFFFFF30
:101600000A6802F8010B0A6070470000074B70B5CA
:101610000D467B44FFF7E1FF0446284600F004F93D
:1016200010B14FF0FF3070BD204670BD332900006F
:1016300000487047F831002030B5B0F10A024FEA97
:10164000900E71F100034EEA817EB0EB0E0061EB6B
:1016500091014FEA101E4EEA017E10EB0E0041EBA5
:1016600011114FEA102E4EEA016E10EB0E0041EB05
:1016700011214FEA104E4EEA014E10EB0E0041EBE5
:101680001141401841F100014FEAD00040EA417099
:101690004FEAD10110EB80054FEA810444EA9074CF
:1016A00044EB01046D1944EB0404521BA3414FF0B9
:1016B000000348BF0A3200D530BD401C41F1000193
:1016C00030BD00002DE9F0411F46044603260168A5
:1016D000072A01F4006004DB08B116A505E016A591
:1016E00003E008B115A500E015A521F01000206069
:1016F000A069C01EA0610FB1401EA0612046AFF3DB
:1017000000804FB1D4E9012138469047206A401C3F
:101710002062C01C206206E0206AFAE7D4E90121B9
:1017200015F8010B9047761EF8D22046AFF30080E3
:10173000BDE8F0814E414E006E616E00494E46009C
:10174000696E66002DE9F047814616468AB0354835
:1017500078440DC88DE80D0032487844801C03ACF5
:101760000DC884E80D0041F69B300844372190FBFA
:10177000F1F290FBF1F5A5F1800501FB12041B3C91
:1017800002D56442012000E00020DFF898A08046E6
:101790000027FA44AAF1BE0A0EE0E0070AD032465A
:1017A000684607EB470101230AEB810100F0D8FBF3
:1017B0008DE8070064107F1C002CEED1194F7F4488
:1017C000AE3F19E0E80715D007EB04100DF1180A39
:1017D00090E80E008AE80E00C068F04201D1981926
:1017E00008903246012306A903A800F0B9FB03AB19
:1017F00083E807006D10641C002DE3D14FF0010356
:1018000032466946B8F1000F03A802D000F093FBFE
:1018100001E000F0A5FBC9E90001C9F808200AB001
:10182000BDE8F087D83F0100007B00F080007047E2
:1018300000487047D83100207546FFF7F9FFAE46E3
:1018400005006946534620F00700854618B020B5CC
:10185000FEF708FDBDE820404FF000064FF00007FE
:101860004FF000084FF0000B21F00701AC46ACE848
:10187000C009ACE8C009ACE8C009ACE8C0098D46B5
:10188000704700001FB584B000200A9C06AB04AA74
:1018900002A90094AFF3008018B1DDE9020108B09D
:1018A00010BD0348204000F00EF800200146F6E786
:1018B0000000207C10B50446AFF300802046BDE850
:1018C0001040FEF7BABC10B500F04AF8BDE8104071
:1018D00000F040B84FF0013C50F8042B51F8043BA5
:1018E0009A4221D1A2EB0C03934313EACC1317D1F4
:1018F00050F8042B51F8043B9A4215D1A2EB0C038B
:10190000934313EACC130BD150F8042B51F8043B4A
:101910009A4209D1A2EB0C03934313EACC13DBD018
:101920004FF00000704700BFD01A01BAB1FA81F140
:1019300001F0180122FA01F0CB40C1F12001DBB225
:10194000C0B2C01A2CFA01F3D11A914311EAC311A3
:10195000E6D17047002801D002F0A9BA7047000014
:1019600010B5022803D0410103D50DA112E00020DB
:1019700010BD010101D50FA10CE0C10001D511A1DD
:1019800008E0810001D512A104E0400001D513A1B7
:1019900000E0002115A000F039F8012010BD000082
:1019A000496E76616C6964204F7065726174696F0D
:1019B0006E000000446976696465204279205A65AA
:1019C000726F00004F766572666C6F7700000000E2
:1019D000556E646572666C6F77000000496E6578BD
:1019E00061637420526573756C74000053494746F7
:1019F00050453A2041726974686D65746963206569
:101A00007863657074696F6E3A20000070B50546A2
:101A10000C460A2000E06D1C02F04BFA35B1287824
:101A20000028F8D102E0641C02F043FA14B12078D7
:101A30000028F8D1BDE870400A2002F03ABA5FEA07
:101A4000400C08BF91F0000F4FEA8C234FEAC122EF
:101A500043EA51514FEA1C5018BF00F5F0404FEADD
:101A6000300018BF41F000415FEA6C5C00F0298053
:101A7000BCF1FF3F08BF40F080407047130C06BF29
:101A800012044FF0100C4FF0000C130E04BF1202A2
:101A90000CF1080C130F04BF12010CF1040C930F8E
:101AA00004BF92000CF1020CD30F04BF52000CF1E2
:101AB000010C11464FF00002A0F11F00A0EB0C003A
:101AC000704711F0004F08BF704731F000413FF4FC
:101AD000D5AF0B0C06BF09044FF0100C4FF0000CF3
:101AE0000B0E04BF09020CF1080C0B0F04BF090117
:101AF0000CF1040C8B0F04BF89000CF1020CCB0F0E
:101B000004BF49000CF1010CCCF12003A0EB0C0048
:101B100022FA03F302FA0CF241EA030100F1010098
:101B2000704720F07F4C80EA030023F07F47ACEB46
:101B3000070303F57C5300F0004003F1FF032DE998
:101B400080494FEA154B09B44FEA144325EA0B4E7E
:101B500024EA03480FF2042606EB132749083E78CF
:101B60005FEA320203FB0667C7F5000707FB06F6CC
:101B70004FEA54374FEAD64606F1020607FB066CD9
:101B8000CCF1005C4FEA1C472CEA074C07FB06F43B
:101B90000CFB06F504EB15464FEA961634BF002001
:101BA0004FF000404FEAD13706FB07FC4FEA1C4CD0
:101BB0000CFB0BF7D21B03FB0CF761EB07010CFBD3
:101BC0000EF7B0EB074072EB17420CFB08F734BF7F
:101BD000A2EB0742B2EB074261EB17414FEA0C441C
:101BE0004FEA910706FB07FC4FEA1C4C0CFB0BF776
:101BF000B0EBC74072EB573203FB0CF734BFA2EBDC
:101C0000C742B2EBC74261EB57310CFB0EF7B0EBAA
:101C1000C70072EB57720CFB08F734BFA2EBC70288
:101C2000B2EBC70261EB5771039F4FEA816141EA52
:101C3000921104EBCC044FEAD1374FEA826206FBE3
:101C400007FC42EA90124FEA80604FEA1C4C0CFB02
:101C50000BF7D21B03FB0CF761EB07010CFB0EF734
:101C6000B0EB074072EB17420CFB08F734BFA2EB56
:101C70000742B2EB074261EB17414FEA8C554FEA3E
:101C8000910704EB9C2406FB07FC4FEA1C4C0CFB61
:101C90000BF7B0EBC74072EB573203FB0CF734BFC6
:101CA000A2EBC742B2EBC74261EB57310CFB0EF718
:101CB000B0EBC70072EB57720CFB08F734BFA2EB16
:101CC000C702B2EBC70261EB577115EB4C254FEA27
:101CD000816141EA92114FEA82624FEAD13742EACA
:101CE000901206FB07FC44F100044FEA80604FEAC3
:101CF0001C4C0CFB0BF7D21B03FB0CF761EB070131
:101D00000CFB0EF7B0EB074072EB17420CFB08F729
:101D100034BFA2EB0742B2EB074261EB174115EB70
:101D20001C154FEA813141EA92414FEA823242EA80
:101D300090424FEA80304FEA0C7644F1000448EAC2
:101D400003434EEA0B484FF0000EB2EB080C71EB68
:101D5000030724BF624639464EEB0E0E4FF0000BD0
:101D60000018524149414BEB0B0BB2EB080C71EBE5
:101D700003077BF1000B24BF624639464EEB0E0E83
:101D80004FF0000B0018524149414BEB0B0BB2EBEB
:101D9000080C71EB03077BF1000B24BF6246394648
:101DA0004EEB0E0E51EA020718BF46F0010616EB85
:101DB0000E7655F1000254F1000103D5BDE889010A
:101DC000BDE80088BDE88901BDE80048B619524168
:101DD00041EB0101A3F10103704780807F7E7D7C90
:101DE0007B7A7978777676757473727171706F6EAD
:101DF0006E6D6C6C6B6A6A69686867666665646458
:101E0000636362616160605F5F5E5E5D5D5C5C5BE1
:101E10005B5A5A5959585857575656555555545450
:101E2000535352525251515050504F4F4F4E4E4DAE
:101E30004D4D4C4C4C4B4B4B4A4A4A4949494848FA
:101E4000484747474746464645454544444444433A
:101E500043434342424242414141002B9C4630D4DD
:101E600077002BD01CB54FEA370703B44FF01000B2
:101E70004FF01001BAF1000F06D0BCF1000FDCBF2B
:101E800040F0080040F0080105F0B0FF0FBCBDE8CD
:101E900010400BF1010BBBF1010F08BF5FEA170700
:101EA00022BF12F1010211F101014FF0004143F193
:101EB000000300F0004043EA00007047F9D35708E0
:101EC000D0E746EA064613F1400F4FEA16461FDDFB
:101ED00013F1200FDFBF16430A46002120335B4277
:101EE000BED0C3F1200746EA064602FA07F74FEADA
:101EF000164646EA0706C3F1200722FA03F201FA62
:101F000007F721FA03F14FF0000342EA0702A7E7BF
:101F100046EA020646EA06464FEA164646EA010641
:101F2000BCBF46EA0646360C4FF000034FF00002F5
:101F30004FF0000194E72DE9804C9A46934670B427
:101F400091E8380007C831EA400C48BF34EA430C36
:101F500003D5FFF7E6FDFFF780FFF0BCBDE8008C7E
:101F60002DE9804C9A46934670B491E8380007C832
:101F700010F0804F08BF13F0804F03D100F005F838
:101F8000FFF76BFFF0BCBDE8008C20F07F4780EAD4
:101F9000030023F07F4C07EB0C03A3F57C5300F008
:101FA0000040A3F1FE0392F0000F00F0B38095F023
:101FB000000F00F077802DE901494FEA11404FEA08
:101FC000144621EA004800FB06FC24EA064708FB09
:101FD00006F607FB08F800FB07F718EB06484CEB82
:101FE000164C4FEA124B18EB07484FEA15464CEBDC
:101FF000174022EA0B4E0BFB06FC25EA06470EFBB8
:1020000006F607FB0EFE0BFB07F71EEB064E4CEB2E
:10201000164C4FF000061EEB074E4CEB174B18EB1F
:102020000B0840F1000018EB0E0B58EB000840F1D4
:1020300000008F1A4FF000013CBFC943661B14BF5C
:10204000B5EB040C00213CBFC943F61B4FEA174413
:102050004EEA8E0E27EA04454FEA1C4704FB07624E
:102060002CEA074C05FB07F70CFB05F604FB0CFC00
:1020700016EB074642EB174216EB0C4642EB1C42AE
:102080001BEB060658EB0202414146EA9E0601D5CB
:10209000BDE80189B619524141EB0101A3F10103E9
:1020A000BDE801894FEA14454FEA114724EA054685
:1020B00021EA074C05FB07F406FB07F70CFB06F1CA
:1020C00005FB0CFC11EB074144EB17444FEA1247A8
:1020D00011EB0C4144EB1C4422EA074C05FB07F2D0
:1020E00006FB07F70CFB06F605FB0CFC16EB074698
:1020F00042EB174216EB0C4642EB1C456A1854F1B2
:10210000000148BF7047B619524141EB0101A3F1EC
:102110000103704795F0000F37D04FEA11424FEAA4
:10212000144721EA024624EA074C02FB07F106FBAA
:1021300007F70CFB06F402FB0CFC14EB074441EB25
:1021400017414FEA154714EB0C4441EB1C4125EABB
:10215000074C02FB07F506FB07F70CFB06F602FB34
:102160000CFC16EB074645EB174516EB0C4645EB0A
:102170001C42121951F1000148BF7047B619524173
:1021800041EB0101A3F1010370474FEA14454FEA07
:10219000114724EA054621EA074C05FB07F106FB37
:1021A00007F70CFB06F24FF0000605FB0CFC12EBE8
:1021B000074241EB174112EB0C4251EB1C4148BF67
:1021C0007047921841EB0101A3F10103704700BF72
:1021D000FEE7704770B50446B3F5804F13D1D1E9DF
:1021E000000540EA05108D6840EA05208D69284306
:1021F0008D8940EA054054F82250064E3540284368
:1022000044F8220003E06FF0704044F82200002000
:1022100070BD00000000F0CF70B50246086852F8AB
:10222000200020F001000E6842F826008868082887
:1022300001D1402300E00023486818438E683043F2
:10224000CE6830430E6930434E693043CE69304327
:102250000E6A30434E6A30438E6A3043CE6A304352
:102260000E6B40EA060488690443C86B0443074DBB
:1022700045F4806545F4E025086852F82000A8433D
:1022800020430E6842F82600002070BD7FFB080046
:1022900010B50346D1E9000440EA04108C6840EA16
:1022A00004208C8940EA0444088A401E44EA005411
:1022B000087D801E44EA00608C692043541C53F85A
:1022C000244004F040442043541C43F824000020E0
:1022D00010BD70B50446A56D00F07EF9064694F871
:1022E0003500022808D08020606500BF002084F8F7
:1022F000340000BF012070BD2068006820F0160087
:10230000216808602068406920F0800021684861E9
:10231000206C08B9A06C28B12068006820F0080083
:10232000216808602068006820F0010021680860CA
:1023300010E000F051F9801B05280BD920206065C2
:10234000032084F8350000BF002084F8340000BF6B
:102350000320D0E72068006800F001000028E8D1E1
:1023600094F85C103F208840A860012084F8350074
:1023700000BF002084F8340000BF00BFBBE7014667
:1023800091F83500022803D080204865012070476D
:10239000052081F835000868006820F001000A680F
:1023A00010600020F3E70000F8B502460B46002558
:1023B000002400200021D6E0012606FA01F51E685F
:1023C00006EA0504AC4274D11E7906F00306012E1C
:1023D00004D01E7906F00306022E13D190684F0038
:1023E0000326BE40B0434F00DE68BE4030439060DD
:1023F000506801268E40B0431E79C6F300168E4009
:10240000304350601E7906F00306032E09D0D068D1
:102410004F000326BE40B0434F009E68BE4030438D
:10242000D0601E7906F00306022E13D1CF0802F108
:10243000200656F827004E07F70E0F26BE40B04381
:102440004F07FF0E1E69BE403043CF0802F1200641
:1024500046F8270010684F000326BE40B0431E799F
:1024600006F003064F00BE40304310605E6806F47D
:102470004036002E76D000BF002600963C4E3668CF
:1024800046F480463A4F3E603E46366806F4804643
:10249000009600BF00BF374E8F0856F827008E0702
:1024A000370F0F26BE40B043334EB24202D1002652
:1024B00024E057E0314EB24201D101261EE0304EF9
:1024C000B24201D1022619E02E4EB24201D10326BA
:1024D00014E02D4EB24201D104260FE02B4EB24241
:1024E00001D105260AE02A4EB24201D1062605E0B6
:1024F000284EB24201D1072600E008268F073F0F81
:10250000BE4030431B4E8F0846F82700224E3068ED
:10251000A0435E6806F4801606B120431E4E30606C
:10252000361D3068A0435E6806F4001606B12043ED
:10253000194E361D3060184E361F3068A0435E6855
:1025400006F4003606B12043134E361F3060361FA6
:102550003068A0435E6806F4803606B120430E4E14
:10256000083E3060491C1029FFF426AFF8BD00007A
:102570004438024008380140000002400004024094
:1025800000080240000C024000100240001402400B
:1025900000180240001C0240083C0140024613693A
:1025A0000B400BB1012000E00020704710B54269DC
:1025B00021EA020302EA010443EA0443836110BDF5
:1025C0000AB1816101E00B04836170470148006832
:1025D000000C7047002004E00148006870470000CC
:1025E00014000020034800680349097808440149A1
:1025F00008607047140000201C00002010B50D4832
:10260000006840F400700B4908600846006840F418
:10261000806008600846006840F48070086003200D
:1026200000F080F80F2000F007F800F02BF80020F1
:1026300010BD0000003C024070B504460E48007812
:102640004FF47A71B1FBF0F00C490968B1FBF0F579
:10265000284600F0FBFC08B1012070BD102C07D209
:1026600000222146501E00F01EF80548046001E0DB
:102670000120F2E70020F0E71C0000200400002009
:1026800018000020704701460846002809DB00F0CA
:102690001F0301229A4043099B0003F1E023C3F882
:1026A000002100BF70472DE9F05F80460D461646B9
:1026B000002701F0D9FB074639462A46334601F088
:1026C0000700C0F1070ABAF1040F02D94FF0040A5B
:1026D00001E0C0F1070AD14600F1040ABAF1070F80
:1026E00002D24FF0000A01E0A0F1030AD4464FF0F5
:1026F000010A0AFA09FAAAF1010A0AEA020A0AFA1E
:102700000CFA4FF0010B0BFA0CFBABF1010B0BEACF
:10271000030B4AEA0B042146404601F0ADFBBDE83D
:10272000F09F000000BF00F00702064B19684FF64B
:10273000FF031940044B0B4343EA0221014B19608C
:1027400000BF70470CED00E00000FA0570B50446CC
:102750000D460CB9012070BD5848006800F0070014
:10276000A84209D255490D700846006800F00700DC
:10277000A84201D00120EEE7207800F002000228F4
:102780001DD1207800F00400042805D14C480068D1
:1027900040F4E0504A490860207800F0080008281A
:1027A00005D14748006840F4604045490860444806
:1027B000006820F0F000A1680843414908602078D3
:1027C00000F00100A8B36068012807D13C48083830
:1027D0000068C0F34040B8B90120BCE76068022837
:1027E00002D06068032807D1354808380068C0F374
:1027F000406048B90120AEE7314808380068C0F3AE
:10280000400008B90120A6E72D48006820F0030029
:10281000616808432A490860FFF7DEFE064609E0C2
:10282000FFF7DAFE801B41F28831884202D903208B
:1028300091E707E02248006800F00C006168B0EB07
:10284000810FEDD11D48006800F00700A84209D9AA
:102850001A490D700846006800F00700A84201D030
:10286000012078E7207800F00400042807D11448FC
:10287000006820F4E050E1680843114908602078BE
:1028800000F00800082808D10D48006820F46040D6
:10289000216940EAC1000A49086000F03FF8084990
:1028A0000968C1F30311074A515CC8400649086032
:1028B00006480068FFF7C0FE00204CE7003C0240DD
:1028C00008380240407F0008040000201800002063
:1028D00001480068704700000400002000B5FFF7C1
:1028E000F7FF04490968C1F38221034A515CC840DB
:1028F00000BD000008380240507F000800B5FFF717
:10290000E7FF04490968C1F34231034A515CC840FA
:1029100000BD000008380240507F00082DE9F04754
:10292000002400250026A1462548006800F00C0080
:1029300020B1042805D008283AD105E0DFF88490BA
:1029400039E0DFF8849036E01D48001F006800F091
:102950003F041B48001F006800F4800078B11A484B
:102960001749091F0968C1F38811A0FB01700146CE
:10297000224600233846FEF727FA05460EE01148A6
:102980000F49091F0968C1F38811A0FB01700146B6
:10299000224600233846FEF717FA05460848001F6E
:1029A0000068C0F30140401C4600B5FBF6F902E0A8
:1029B000DFF8109000BF00BF4846BDE8F087000078
:1029C000083802400024F40000127A00F8B50446EA
:1029D0000CB90120F8BD207800F00100002874D067
:1029E000F948006800F00C0004280DD0F648006893
:1029F00000F00C00082813D1F348001F006800F411
:102A00008000B0F5800F0BD1EF4808380068C0F3A4
:102A10004040002859D06068002856D10120D9E7ED
:102A200000BF6068B0F5803F08D1E748083800680B
:102A300040F48030E449083908601EE06068B0F571
:102A4000A02F0DD1E0480838006840F48020DE490E
:102A5000083908600846006840F4803008600CE0DF
:102A6000D9480838006820F48030D7490839086010
:102A70000846006820F48020086000BF606890B1BC
:102A8000FFF7AAFD054606E0FFF7A6FD401B6428F8
:102A900001D903209EE7CC4808380068C0F34040C5
:102AA0000028F1D011E0FFF797FD054606E0FFF79B
:102AB00093FD401B642801D903208BE7C2480838E6
:102AC0000068C0F340400028F1D1207800F00200F7
:102AD00002285FD1BC48006800F00C0058B1BA4829
:102AE000006800F00C0008281CD1B748001F0068DF
:102AF00000F48000B0B9B44808380068C0F3400062
:102B000020B1E068012801D0012063E7AE48083811
:102B1000006820F0F800216940EAC100AA4908399C
:102B2000086037E0E06800B30120A8490860FFF7BB
:102B300053FD054606E0FFF74FFD401B022801D973
:102B4000032047E7A04808380068C0F34000002889
:102B5000F1D09D480838006820F0F800216940EA6B
:102B6000C10099490839086014E0002097490860BD
:102B7000FFF732FD054606E0FFF72EFD401B022859
:102B800001D9032026E7904808380068C0F34000C8
:102B90000028F1D1207800F0080008282CD16069C5
:102BA000A8B101208A490860FFF716FD054606E036
:102BB000FFF712FD401B022801D903200AE78248D3
:102BC0006C300068C0F340000028F1D014E0002011
:102BD0007F490860FFF700FD054606E0FFF7FCFCB3
:102BE000401B022801D90320F4E677486C300068C6
:102BF000C0F340000028F1D1207800F00400042840
:102C000070D1002770483830006800F0805090B9CB
:102C100000BF002000906C483830006840F08050C1
:102C20006949383108600846006800F0805000901B
:102C300000BF00BF01276748006800F48070B0B98A
:102C40006448006840F4807062490860FFF7C4FC83
:102C5000054606E0FFF7C0FC401B022801D903200F
:102C6000B8E65C48006800F480700028F2D000BF2D
:102C7000A068012808D154486830006840F001007D
:102C80005149683108601DE0A06805280DD14E4803
:102C90006830006840F004004B496831086008461D
:102CA000006840F0010008600CE0474868300068A8
:102CB00020F001004449683108600846006820F0AF
:102CC0000400086000BFA068A8B1FFF785FC0546B6
:102CD00009E0FFF781FC401B41F28831884202D9AC
:102CE000032077E626E0384868300068C0F34000EB
:102CF0000028EED013E0FFF76FFC054608E0FFF771
:102D00006BFC401B41F28831884201D9032061E607
:102D10002D4868300068C0F340000028EFD1012F33
:102D200007D129483830006820F0805026493831D2
:102D3000086000BFA069002845D02348006800F063
:102D40000C0008285DD0A069022845D100201F4949
:102D50000866FFF741FC054606E0FFF73DFC401B17
:102D6000022801D9032035E6174808380068C0F367
:102D700040600028F1D1D4E907010843616A40EAC4
:102D800081110122A06AC2EB500041EA00412C20CF
:102D9000005D41EA00600C49091F086001200B49F1
:102DA0000866FFF719FC054606E0FFF715FC401B17
:102DB000022801D903200DE6034808380068C0F353
:102DC00040600028F1D049E0083802400000474246
:102DD000800E474200700040002021490866FFF73E
:102DE000FBFB054606E0FFF7F7FB401B022801D975
:102DF0000320EFE51B480068C0F340600028F2D1D3
:102E00002CE0A069012800D1E4E51648001D066801
:102E1000A069012820D006F48001E06981421BD11D
:102E200006F03F01206A814216D147F6C07030405B
:102E3000616AB0EB811F0FD106F440310122A06A14
:102E4000C2EB5000B1EB004F06D106F070612C20B0
:102E5000005DB1EB006F01D00120BBE50020B9E5BA
:102E6000000047420038024070B504460E46154641
:102E70000CB9012070BD94F8490028B9002084F8ED
:102E80004800204600F020F804F108012068FFF710
:102E9000C3F93146A2682068FFF7FAF92946236B87
:102EA000D4E90102FFF796F9A168206850F82100E3
:102EB00040F00100A268216841F82200012084F856
:102EC00049000020D6E7000010B586B0044620680F
:102ED000B0F1204F7ED100BF00200090564800681E
:102EE00040F00100544908600846006800F0010005
:102EF000009000BF00BF00BF002000904E4808387F
:102F0000006840F008004C4908390860084600682D
:102F100000F00800009000BF00BF00BF002000903C
:102F20000846006840F0100008600846006800F09D
:102F30001000009000BF00BF00BF00BF0020009045
:102F40000846006840F0080008600846006800F085
:102F50000800009000BF00BF00BF00BF00BF0020FE
:102F600000900846006840F00800086008460068C5
:102F700000F00800009000BF00BF00BF00BF00BF0E
:102F8000002000900846006840F0400008600846B5
:102F9000006800F04000009000BF00BF00BF00BF0D
:102FA00000BF002000900846006840F02000086044
:102FB0000846006800F02000009000BF00BF00BF7E
:102FC0004CF2037001900220029001200390022035
:102FD000049000E02EE00C20059001A91748FFF7AF
:102FE000E3F94FF68070019001A91548FFF7DCF96D
:102FF000202001900C20059001A91048FFF7D4F97A
:10300000102001900C20059001A90C48FFF7CCF985
:103010004FF4805001900C20059001A90948FFF75A
:10302000C3F94FF4805001900C20059001A9064887
:10303000FFF7BAF906B010BD38380240000C024064
:1030400000100240001802400014024070B504460F
:103050002546681EB0F1807F01D301200FE0681E75
:103060004FF0E02148610F214FF0FF3000F004FFE6
:1030700000204FF0E021886107200861002070BD2A
:103080007047704710B504460CB9012010BD94F884
:103090003D0028B9002084F83C00204600F026F8C6
:1030A000022084F83D00211D206800F017FC01205B
:1030B00084F8460000BF84F83E0001213F200155FE
:1030C000402001554120015500BF00BF012084F878
:1030D000420043200155442001554520015500BFC1
:1030E000012084F83D000020D0E7000038B50446F8
:1030F0000F492068884219D100BF00BF002000900E
:103100000C48006840F010000A4908600846006852
:1031100000F01000009000BF00BF00BF0022114669
:103120003620FFF7C0FA3620FFF7ADFA38BD0000B1
:103130000010004040380240014691F83D0001284F
:1031400001D001207047022081F83D000868C06866
:1031500040F001000B68D8601A4B086898421BD0F9
:103160000868B0F1804F17D0174B0868984213D009
:10317000164B086898420FD0154B086898420BD040
:10318000144B0868984207D0134B0868984203D044
:10319000124B086898420CD10868806800F007025A
:1031A000062A0CD00868006840F001000B6818601F
:1031B00005E00868006840F001000B681860002016
:1031C000C0E700000000014000040040000800408B
:1031D000000C004000040140004001400018004085
:1031E000704710B5044620680069C0F34000D8B1AC
:1031F0002068C068C0F34000B0B16FF002002168E1
:103200000861012020772068806900F0030018B170
:103210002046FFF7E5FF05E0204600F0ADF8204628
:1032200000F0ABF80020207720680069C0F3800030
:10323000D8B12068C068C0F38000B0B16FF004005E
:1032400021680861022020772068806900F44070BE
:1032500018B12046FFF7C4FF05E0204600F08CF8C7
:10326000204600F08AF80020207720680069C0F32B
:10327000C000D8B12068C068C0F3C000B0B16FF022
:10328000080021680861042020772068C06900F0E8
:10329000030018B12046FFF7A3FF05E0204600F029
:1032A0006BF8204600F069F800202077206800695C
:1032B000C0F30010D8B12068C068C0F30010B0B1EE
:1032C0006FF0100021680861082020772068C0692D
:1032D00000F4407018B12046FFF782FF05E0204659
:1032E00000F04AF8204600F048F8002020772068D7
:1032F000006900F0010058B12068C06800F00100CA
:1033000030B16FF0010021680861204600F036F806
:1033100020680069C0F3C01058B12068C068C0F3CD
:10332000C01030B16FF08000216808612046FFF7BF
:10333000A7FE20680069C0F3801058B12068C068FB
:10334000C0F3801030B16FF0400021680861204662
:1033500000F022F820680069C0F3401058B12068DE
:10336000C068C0F3401030B16FF0200021680861E0
:103370002046FFF786FE10BD70477047044A01687B
:10338000914204D103490978491C024A11707047DF
:103390000010004000000020704770477047000098
:1033A0002DE9F84F0446206805682068C668206843
:1033B00047694FF00009CA4605F00F09B9F1000F3F
:1033C0000AD105F0200038B106F0200020B12046D7
:1033D00000F040FBBDE8F88FB9F1000F7CD007F09A
:1033E000010018B906F49070002875D005F00100AE
:1033F00030B106F4807018B1206C40F001002064F8
:1034000005F0040030B107F0010018B1206C40F065
:103410000200206405F0020030B107F0010018B18D
:10342000206C40F00400206405F0080048B106F06C
:10343000200010B907F0010018B1206C40F008001E
:103440002064206C002846D005F0200028B106F04A
:10345000200010B1204600F0FDFA20684069C0F35A
:10346000801A206C00F0080010B9BAF1000F2DD0BE
:10347000204600F0A9FA2068406900F0400040288A
:1034800020D100BF00BF2168143151E8001F21F096
:1034900040002168143141E80002002AF3D100BF46
:1034A000A06B50B17548A16B0865A06BFEF767FF74
:1034B00088B1A06B016D88470DE02046FFF76EFFD5
:1034C00009E009E02046FFF769FF04E02046FFF726
:1034D00065FF002020647DE7206B012876D105F090
:1034E0001000002872D006F010000028FAD000BFAB
:1034F00000200090206800680090206840680090DC
:1035000000BF00BF2068406900F0400040285ED145
:10351000A06B006840681FFA80F8B8F1000F54D023
:10352000A08D404551DDA4F82E80A06BC069B0F598
:10353000807F43D000BF00BF21680C3151E8001FDD
:1035400021F4807021680C3141E80002002AF3D197
:1035500000BF00BF00BF2168143151E8001F21F0F7
:1035600001002168143141E80002002AF3D100BFB4
:1035700000BF00BF2168143151E8001F21F0400056
:103580002168143141E80002002AF3D100BF202055
:1035900084F83E000020206300BF00BF21680C318A
:1035A00051E8001F21F0100021680C3141E80002B1
:1035B000002AF3D100BFA06BFEF78BFEA08DE28D39
:1035C000801A81B22046FFF7E8FE03E740E0A08DB5
:1035D000E18D401A1FFA80F8E08DC0B3B8F1000FFA
:1035E00035D000BF00BF21680C3151E8001F21F425
:1035F000907021680C3141E80002002AF3D100BF2D
:1036000000BF00BF2168143151E8001F21F0010004
:103610002168143141E80002002AF3D100BF2020C4
:1036200084F83E000020206300BF00BF21680C31F9
:1036300051E8001F21F0100021680C3141E8000220
:10364000002AF3D100BF41462046FFF7A6FEC1E69F
:1036500005F0800030B106F0800018B1204600F07F
:10366000B0FBB7E605F0400030B106F0400018B1FD
:10367000204600F0DFF9ADE600BFABE6B539000843
:1036800010B504460CB9012010BDA06900B100E0DE
:1036900000BF94F83D0028B9002084F83C00204683
:1036A00000F028F8242084F83D002068C06820F449
:1036B00000502168C860204600F048FA2068006980
:1036C00020F49040216808612068406920F02A00B9
:1036D000216848612068C06840F400502168C860D3
:1036E00000202064202084F83D0084F83E00002063
:1036F000CAE7000010B586B004462E49206888420B
:1037000055D100BF00BF002000902B48006840F05A
:103710001000294908600846006800F01000009079
:1037200000BF00BF00BF00BF00BF002000902248C4
:103730001438006840F001001F4914390860084639
:10374000006800F00100009000BF00BF00BF00BF94
:1037500000BF002000900846006840F001000860AB
:103760000846006800F00100009000BF00BF00BFE5
:10377000481501900220029001200390022004903D
:103780000720059001A90D48FEF70EFE4FF480605A
:1037900001900720059001A90848FEF705FE2520A5
:1037A000FEF771FF032211462520FEF77CFF06B0CD
:1037B00010BD0000001001404438024000000240EB
:1037C00070B504460D46164694F83E00202816D1E2
:1037D00005B10EB9012070BD00BF94F83C0001286E
:1037E00001D10220F7E7012084F83C0000BF00204F
:1037F000206332462946204600F0BEFAEBE702205D
:10380000E9E7000010B504462049206888423BD112
:103810001F48008800F4004088BB1D48008800F461
:10382000804070B11B4800780A2803D00020184956
:10383000088024E01648008840F4004014490880BD
:103840001DE0144800780D2806D11148008840F486
:1038500080400F49088012E00E4800780C49098822
:10386000C1F30D010C4A505409480088401C084916
:10387000088008460088C72801DD00200880012252
:1038800004490648FFF79CFF10BD000000100140EE
:10389000100000201200002024300020EC30002016
:1038A000704700BFFEE700BFFEE7704770477047F4
:1038B00010B5FEF797FE10BD0348006840F4700095
:1038C000014908607047000088ED00E010B502482B
:1038D000FFF787FC10BD00009031002010B5026892
:1038E000294B98420ED0B0F1804F0BD0274B984215
:1038F00008D0274B984205D0264B984202D0264B41
:10390000984203D122F070024B681A431E4B984232
:1039100020D0B0F1804F1DD01C4B98421AD01C4BC8
:10392000984217D01B4B984214D01B4B984211D091
:103930001A4B98420ED01A4B98420BD0194B984212
:1039400008D0194B984205D0184B984202D0184B1A
:10395000984203D122F44072CB681A4322F08003CC
:103960004C6943EA040202608B68C3620B6883629D
:10397000054B984202D0084B984201D10B69036372
:103980000123436110BD000000000140000400401D
:1039900000080040000C00400004014000400140CD
:1039A000004401400048014000180040001C004055
:1039B0000020004070B50546AC6B0020E085E08437
:1039C0002046FFF7EBFC70BD00BF00BF02680C3261
:1039D00052E8002F22F4907102680C3242E8001382
:1039E000002BF3D100BF00BF00BF0268143252E8C1
:1039F000002F22F001010268143242E80013002B6C
:103A0000F3D100BF016B01290ED100BF00BF0268D6
:103A10000C3252E8002F22F0100102680C3242E80A
:103A20000013002BF3D100BF202180F83E100021AD
:103A30000163704710B504462068C06820F040005C
:103A40002168C860202084F83D002046FFF728FF49
:103A5000002010BDF8B5044694F83E00222873D12A
:103A6000A068B0F5805F0CD1206950B90025A66A26
:103A700020684068C0F308003080A06A801CA06203
:103A800015E0A56A0026A068B0F5805F03D0A068A5
:103A900028B9206918B920684068287004E02068B7
:103AA000406800F07F002870A06A401CA062E08D92
:103AB000401E80B2E085002844D12068C06820F014
:103AC00020002168C8602068C06820F480702168E8
:103AD000C8602068406920F001002168486120200A
:103AE00084F83E00206B012826D10020206300BF0F
:103AF00000BF21680C3151E8001F21F0100021683F
:103B00000C3141E80002002AF3D100BF20680068B0
:103B100000F0100010280AD100BF0020009020689B
:103B20000068009020684068009000BF00BFA18D31
:103B30002046FFF732FC02E02046FFF763FE00203C
:103B4000F8BD01E00020FBE70220F9E72DE9F84F7E
:103B500004462068006920F44050E1680843216869
:103B600008612169A068084361690843E169084365
:103B700000902068C06849F20C61884300990843AE
:103B80002168C8602068406920F44070A16908433A
:103B90002168486176492068884203D075492068C9
:103BA000884203D1FEF7AAFE814602E0FEF796FEA8
:103BB0008146E069B0F5004F6CD102206168A0FB3E
:103BC000015003461920A9FB007001462A463846D9
:103BD000FDF7FAF86421B0FBF1F04FEA001A022079
:103BE0006168A0FB01510B461920A9FB00712A4610
:103BF0003846FDF7E9F8834602206168A0FB0150D2
:103C000003461920A9FB00712A463846FDF7DCF867
:103C10006421B0FBF1F000EBC00101EB0010ABEB55
:103C20008000322101EBC0006421B0FBF1F000F014
:103C3000F8000AEB400A02206168A0FB015003462D
:103C40001920A9FB007001462A463846FDF7BCF84A
:103C5000834602206168A0FB015003461920A9FB9E
:103C600000712A463846FDF7AFF86421B0FBF1F049
:103C700000EBC00101EB0010ABEB8000322101EB47
:103C8000C0006421B0FBF1F000F00700504421684F
:103C900088606AE004206168A0FB01500346192097
:103CA000A9FB007001462A463846FDF78DF882468A
:103CB00004206168A0FB015003461920A9FB007095
:103CC00001462A463846FDF77FF86421B0FBF1F043
:103CD00000EBC00101EB0010AAEB8000322101EBE8
:103CE00000106421B0FBF1F000F0F00A04206168DC
:103CF000A0FB017003461920A9FB00513A46284653
:103D0000FDF762F86421B0FBF1F00AEB001A042021
:103D10006168A0FB01510B461920A9FB00712A46DE
:103D20003846FDF751F8834604206168A0FB015036
:103D300003461920A9FB007001462A463846FDF7C4
:103D400043F86421B0FBF1F000EBC00101EB00107F
:103D5000ABEB8000322101EB00106421B0FBF1F0ED
:103D600000F00F00504421688860BDE8F88F000023
:103D7000001001400014014010B5034699629A8575
:103D8000DA8500201864222083F83E0000BF00205E
:103D900083F83C0000BF186928B11868C06840F477
:103DA00080701C68E0601868406940F001001C6881
:103DB00060611868C06840F020001C68E060002066
:103DC00010BD014691F83D00212828D18868B0F542
:103DD000805F0BD1086948B90A6A1088C0F30800EF
:103DE0000B685860086A801C086205E00B6A581C62
:103DF000086218780B685860C88C401E80B2C8846E
:103E000058B90868C06820F080000B68D86008685E
:103E1000C06840F040000B68D86000207047022066
:103E2000FCE7000010B50248FFF7BAFA10BD000029
:103E3000EC30002000BFFEE703B401984100009879
:103E400050EAC12018BF04204A0D18BF40F00100FD
:103E500040F2FF72B2EB515F08BF40F00200012850
:103E600008BF052002B0704702480068C0F3022076
:103E7000704700000CED00E010B5002804DB0A07D5
:103E8000130E054A135406E00A07140E034A00F005
:103E90000F031B1FD45410BD00E400E018ED00E038
:103EA00030380A2801D2012070470020704700BF37
:103EB000704700BF7047000070B505460C460648C5
:103EC0000649086008464460C560FFF7DBF8034810
:103ED000FFF732F970BD0000001000409031002063
:103EE00001490860704700000800002010B5044632
:103EF0004FF47A7104FB01F000F002F810BD0000ED
:103F000070B5034600224FF0E02675690D4E366805
:103F100003FB06F44FF0E026B16910E04FF0E02615
:103F2000B06988420BD0884202D20E1A324402E0B5
:103F30002E1A0E4432440146A24200D300E0EDE7BF
:103F400000BF70BD0800002000BF054A126802F0E3
:103F50004002002AF9D0C2B2014B5A6070470000FB
:103F60000010014000B587B0142102A8FDF79CF8AD
:103F700000BF00BF002001901C48006840F0010015
:103F80001A4908600846006800F00100019000BF6F
:103F900000BF00BF00BF00BF0020019008460068BE
:103FA00040F0100008600846006800F01000019022
:103FB00000BF00BF00BF012002900020039002203C
:103FC00004900020059002A90948FEF7EDF91020A1
:103FD000029000200390022004900020059002A986
:103FE0000448FEF7E1F907B000BD00003038024098
:103FF000000002400010024070B50446002514B1D4
:1040000001202749087026480078012830D1012175
:104010002448FEF7C3FA08B1012000E0002001287F
:1040200009D010212048FEF7B9FA08B1012000E0BC
:10403000002001281CD10A20FFF758FF0020184952
:10404000087010211848FEF7A9FA08B1012000E015
:104050000020012800D1022501211248FEF79EFA16
:1040600008B1012000E00020012816D1012514E04C
:1040700001210C48FEF792FA08B1012000E000206F
:1040800058B910210848FEF789FA08B1012000E06C
:10409000002010B9012002490870284670BD0000B8
:1040A0001D000020000002400010024070B50446D0
:1040B000094800880849498800FB01F600210846A4
:1040C00002F012FD02F0A2FE002502E00348048087
:1040D0006D1CB542FAD370BD803100208000006CA9
:1040E00010B5044649488471002C45D1F020474959
:1040F00008804FF4A07048800846808845F210512F
:10410000884210D14FF43050404908814FF4285074
:1041100048814FF42C5088814FF4F07008804FF4A0
:10412000487048806DE03948808841F663118842C4
:104130000DD12C20354908812B2048812A208881E7
:104140004FF4F07008804FF44870488059E02C20FC
:104150002E4908812A2048812B20888108468088A2
:1041600045F2103188424CD14FF4A07027490880A5
:104170004FF4F070488044E04FF4A0702349088069
:10418000F02048800846808845F21051884210D1BE
:104190004FF430501D4908814FF4285048814FF4A6
:1041A0002C5088814FF4487008804FF4F07048809C
:1041B00027E01648808841F6631188420DD12C20F3
:1041C000124908812A2048812B2088814FF44870A9
:1041D00008804FF4F070488013E02C200B490881D0
:1041E0002A2048812B2088810846808845F210319A
:1041F000884206D14FF4F070044908804FF4A07053
:104200004880002002F056FB10BD000080310020E5
:1042100070B505460E4614463146284602F064FC49
:1042200002F0F4FD01490C8070BD00008000006CBC
:1042300010B5CF2002F0DEFD002002F0CFFDC1203E
:1042400002F0CCFD302002F0C9FDED2002F0D2FDDD
:10425000642002F0C3FD032002F0C0FD122002F032
:10426000BDFD812002F0BAFDE82002F0C3FD8520EB
:1042700002F0B4FD102002F0B1FD7A2002F0AEFD94
:10428000CB2002F0B7FD392002F0A8FD2C2002F06F
:10429000A5FD002002F0A2FD342002F09FFD0220C7
:1042A00002F09CFDF72002F0A5FD202002F096FD13
:1042B000EA2002F09FFD002002F090FD002002F0B5
:1042C0008DFDC02002F096FD1B2002F087FDC1206D
:1042D00002F090FD012002F081FDC52002F08AFD70
:1042E000302002F07BFD302002F078FDC72002F084
:1042F00081FDB72002F072FD362002F07BFD4820E0
:1043000002F06CFD3A2002F075FD552002F066FDCA
:10431000B12002F06FFD002002F060FD1A2002F0D3
:104320005DFDB62002F066FD0A2002F057FDA220D6
:1043300002F054FDF22002F05DFD002002F04EFD7F
:10434000262002F057FD012002F048FDE02002F097
:1043500051FD0F2002F042FD2A2002F03FFD2820EF
:1043600002F03CFD082002F039FD0E2002F036FD7F
:10437000082002F033FD542002F030FDA92002F0A5
:104380002DFD432002F02AFD0A2002F027FD0F2018
:1043900002F024FD002002F021FD002002F01EFDAD
:1043A000002002F01BFD002002F018FDE12002F0C9
:1043B00021FD002002F012FD152002F00FFD172054
:1043C00002F00CFD072002F009FD112002F006FDAD
:1043D000062002F003FD2B2002F000FD562002F023
:1043E000FDFC3C2002F0FAFC052002F0F7FC102056
:1043F00002F0F4FC0F2002F0F1FC3F2002F0EEFC92
:104400003F2002F0EBFC0F2002F0E8FC2B2002F032
:10441000F1FC002002F0E2FC002002F0DFFC0120B1
:1044200002F0DCFC3F2002F0D9FC2A2002F0E2FC82
:10443000002002F0D3FC002002F0D0FC002002F0AB
:10444000CDFCEF2002F0CAFC112002F0D3FC782052
:10445000FFF74CFD292002F0CDFC10BD10B5ED207A
:1044600002F0C8FC012002F0B9FCFE2002F0B6FC0C
:10447000EE2002F0BFFCDE2002F0B0FC212002F0B2
:10448000ADFCF12002F0B6FC012002F0A7FCDF2019
:1044900002F0B0FC102002F0A1FCC42002F0AAFC43
:1044A0008F2002F09BFCC62002F0A4FC002002F04A
:1044B00095FCE22002F092FCE22002F08FFCE22068
:1044C00002F08CFCBF2002F095FCAA2002F086FCD2
:1044D000B02002F08FFC0D2002F080FC002002F0E2
:1044E0007DFC0D2002F07AFC002002F077FC112008
:1044F00002F074FC002002F071FC192002F06EFC46
:10450000002002F06BFC212002F068FC002002F089
:1045100065FC2D2002F062FC002002F05FFC3D20D3
:1045200002F05CFC002002F059FC5D2002F056FC19
:10453000002002F053FC5D2002F050FC002002F04D
:104540004DFCB12002F056FC802002F047FC002018
:1045500002F044FC8B2002F041FC002002F03EFC03
:10456000962002F03BFC002002F038FCB22002F062
:1045700041FC002002F032FC002002F02FFC02205F
:1045800002F02CFC002002F029FC032002F026FCA3
:10459000002002F023FCB32002F02CFC002002F0EB
:1045A0001DFC002002F01AFC002002F017FC002085
:1045B00002F014FC002002F011FC002002F00EFCBE
:1045C000002002F00BFC002002F008FC002002F0AA
:1045D00005FC002002F002FC002002F0FFFB00209E
:1045E00002F0FCFB002002F0F9FB002002F0F6FBD9
:1045F000002002F0F3FB002002F0F0FB002002F0AC
:10460000EDFB002002F0EAFB002002F0E7FB0020B7
:1046100002F0E4FB002002F0E1FB002002F0DEFBF0
:10462000002002F0DBFB002002F0D8FBB42002F0F7
:10463000E1FB8B2002F0D2FB002002F0CFFB9620A2
:1046400002F0CCFB002002F0C9FBA12002F0C6FB67
:10465000002002F0C3FBB52002F0CCFB022002F0E8
:10466000BDFB002002F0BAFB032002F0B7FB0020E4
:1046700002F0B4FB042002F0B1FB002002F0AEFB1C
:10468000B62002F0B7FB002002F0A8FB002002F0E9
:10469000A5FBB72002F0AEFB002002F09FFB00203C
:1046A00002F09CFB3F2002F099FB002002F096FBF9
:1046B0005E2002F093FB002002F090FB642002F0E9
:1046C0008DFB002002F08AFB8C2002F087FB00208B
:1046D00002F084FBAC2002F081FB002002F07EFBA4
:1046E000DC2002F07BFB002002F078FB702002F05F
:1046F00075FB002002F072FB902002F06FFB00209F
:1047000002F06CFBEB2002F069FB002002F066FB7C
:10471000DC2002F063FB002002F060FBB82002F016
:1047200069FB002002F05AFB002002F057FB00203A
:1047300002F054FB002002F051FB002002F04EFB7F
:10474000002002F04BFB002002F048FB002002F0AA
:1047500045FBBA2002F04EFB242002F03FFB002074
:1047600002F03CFB002002F039FB002002F036FB97
:10477000C12002F03FFB202002F030FB002002F0BD
:104780002DFB542002F02AFB002002F027FBFF2023
:1047900002F024FB002002F021FBC22002F02AFBE1
:1047A0000A2002F01BFB002002F018FB042002F09C
:1047B00015FB002002F012FBC32002F01BFB3C2083
:1047C00002F00CFB002002F009FB3A2002F006FB8D
:1047D000002002F003FB392002F000FB002002F071
:1047E000FDFA372002F0FAFA002002F0F7FA3C2036
:1047F00002F0F4FA002002F0F1FA362002F0EEFAAC
:10480000002002F0EBFA322002F0E8FA002002F079
:10481000E5FA2F2002F0E2FA002002F0DFFA2C2065
:1048200002F0DCFA002002F0D9FA292002F0D6FAD0
:10483000002002F0D3FA262002F0D0FA002002F085
:10484000CDFA242002F0CAFA002002F0C7FA242090
:1048500002F0C4FA002002F0C1FA232002F0BEFAEE
:10486000002002F0BBFA3C2002F0B8FA002002F06F
:10487000B5FA362002F0B2FA002002F0AFFA322088
:1048800002F0ACFA002002F0A9FA2F2002F0A6FAFA
:10489000002002F0A3FA2C2002F0A0FA002002F07F
:1048A0009DFA292002F09AFA002002F097FA2620B9
:1048B00002F094FA002002F091FA242002F08EFA1D
:1048C000002002F08BFA242002F088FA002002F087
:1048D00085FA232002F082FA002002F07FFAC42039
:1048E00002F088FA622002F079FA002002F076FAEB
:1048F000052002F073FA002002F070FA842002F022
:104900006DFA002002F06AFAF02002F067FA002047
:1049100002F064FA182002F061FA002002F05EFA58
:10492000A42002F05BFA002002F058FA182002F0EE
:1049300055FA002002F052FA502002F04FFA0020FF
:1049400002F04CFA0C2002F049FA002002F046FA7C
:10495000172002F043FA002002F040FA952002F0FE
:104960003DFA002002F03AFAF32002F037FA002074
:1049700002F034FAE62002F031FA002002F02EFABA
:10498000C52002F037FA322002F028FA002002F0A7
:1049900025FA442002F022FA002002F01FFA6520D6
:1049A00002F01CFA002002F019FA762002F016FA42
:1049B000002002F013FA882002F010FA002002F022
:1049C0000DFAC62002F016FA202002F007FA0020A5
:1049D00002F004FA172002F001FA002002F0FEF9BA
:1049E000012002F0FBF9002002F0F8F9C72002F0E4
:1049F00001FA002002F0F2F9002002F0EFF90020A5
:104A000002F0ECF9002002F0E9F9C82002F0F2F916
:104A1000002002F0E3F9002002F0E0F9002002F0AB
:104A2000DDF9002002F0DAF9C92002F0E3F90020F4
:104A300002F0D4F9002002F0D1F9002002F0CEF902
:104A4000002002F0CBF9002002F0C8F9002002F0AB
:104A5000C5F9002002F0C2F9002002F0BFF90020E1
:104A600002F0BCF9002002F0B9F9002002F0B6F91A
:104A7000002002F0B3F9002002F0B0F9002002F0AB
:104A8000ADF9002002F0AAF9002002F0A7F9E02019
:104A900002F0B0F9162002F0A1F9002002F09EF910
:104AA0001C2002F09BF9002002F098F9212002F06E
:104AB00095F9002002F092F9362002F08FF90020DB
:104AC00002F08CF9462002F089F9002002F086F904
:104AD000522002F083F9002002F080F9642002F0F5
:104AE0007DF9002002F07AF97A2002F077F90020AF
:104AF00002F074F98B2002F071F9002002F06EF9D7
:104B0000992002F06BF9002002F068F9A82002F069
:104B100065F9002002F062F9B92002F05FF9002087
:104B200002F05CF9C42002F059F9002002F056F9B5
:104B3000CA2002F053F9002002F050F9D22002F00E
:104B40004DF9002002F04AF9D92002F047F900207F
:104B500002F044F9E02002F041F9002002F03EF9B1
:104B6000F32002F03BF9002002F038F9E12002F0D6
:104B700041F9162002F032F9002002F02FF91C2032
:104B800002F02CF9002002F029F9222002F026F987
:104B9000002002F023F9362002F020F9002002F074
:104BA0001DF9452002F01AF9002002F017F95220F1
:104BB00002F014F9002002F011F9642002F00EF95D
:104BC000002002F00BF97A2002F008F9002002F030
:104BD00005F98B2002F002F9002002F0FFF899207D
:104BE00002F0FCF8002002F0F9F8A82002F0F6F834
:104BF000002002F0F3F8B92002F0F0F8002002F0F3
:104C0000EDF8C42002F0EAF8002002F0E7F8CA202C
:104C100002F0E4F8002002F0E1F8D22002F0DEF821
:104C2000002002F0DBF8D82002F0D8F8002002F0D3
:104C3000D5F8E02002F0D2F8002002F0CFF8F320FF
:104C400002F0CCF8002002F0C9F8E22002F0D2F81D
:104C5000052002F0C3F8002002F0C0F80B2002F09B
:104C6000BDF8002002F0BAF81B2002F0B7F80020CF
:104C700002F0B4F8342002F0B1F8002002F0AEF8EF
:104C8000442002F0ABF8002002F0A8F84F2002F018
:104C9000A5F8002002F0A2F8612002F09FF80020A1
:104CA00002F09CF8792002F099F8002002F096F8C2
:104CB000882002F093F8002002F090F8972002F08C
:104CC0008DF8002002F08AF8A62002F087F8002074
:104CD00002F084F8B72002F081F8002002F07EF89C
:104CE000C22002F07BF8002002F078F8C72002F022
:104CF00075F8002002F072F8D12002F06FF8002061
:104D000002F06CF8D62002F069F8002002F066F894
:104D1000DD2002F063F8002002F060F8F32002F0DA
:104D20005DF8002002F05AF8E32002F063F8052055
:104D300002F054F8002002F051F80A2002F04EF878
:104D4000002002F04BF81C2002F048F8002002F08E
:104D500045F8332002F042F8002002F03FF84420EA
:104D600002F03CF8002002F039F8502002F036F84A
:104D7000002002F033F8622002F030F8002002F048
:104D80002DF8782002F02AF8002002F027F8882079
:104D900002F024F8002002F021F8972002F01EF81B
:104DA000002002F01BF8A62002F018F8002002F004
:104DB00015F8B72002F012F8002002F00FF8C22018
:104DC00002F00CF8002002F009F8C72002F006F803
:104DD000002002F003F8D12002F000F8002001F0DA
:104DE000FDFFD52001F0FAFF002001F0F7FFDD20E4
:104DF00001F0F4FF002001F0F1FFF32001F0EEFFDD
:104E0000002001F0EBFFE42001F0F4FF012001F0AD
:104E1000E5FF002001F0E2FF012001F0DFFF0020AC
:104E200001F0DCFF022001F0D9FF002001F0D6FFE5
:104E30002A2001F0D3FF002001F0D0FF3C2001F038
:104E4000CDFF002001F0CAFF4B2001F0C7FF00207A
:104E500001F0C4FF5D2001F0C1FF002001F0BEFFA2
:104E6000742001F0BBFF002001F0B8FF842001F0A6
:104E7000B5FF002001F0B2FF932001F0AFFF00204A
:104E800001F0ACFFA22001F0A9FF002001F0A6FF75
:104E9000B32001F0A3FF002001F0A0FFBE2001F02D
:104EA0009DFF002001F09AFFC42001F097FF002031
:104EB00001F094FFCD2001F091FF002001F08EFF62
:104EC000D32001F08BFF002001F088FFDD2001F0EE
:104ED00085FF002001F082FFF32001F07FFF00201A
:104EE00001F07CFFE52001F085FF002001F076FF56
:104EF000002001F073FF002001F070FF002001F09E
:104F00006DFF022001F06AFF002001F067FF2920F9
:104F100001F064FF002001F061FF3C2001F05EFF22
:104F2000002001F05BFF4B2001F058FF002001F052
:104F300055FF5D2001F052FF002001F04FFF74206B
:104F400001F04CFF002001F049FF842001F046FFF2
:104F5000002001F043FF932001F040FF002001F00A
:104F60003DFFA22001F03AFF002001F037FFB320FF
:104F700001F034FF002001F031FFBE2001F02EFFD0
:104F8000002001F02BFFC42001F028FF002001F0D9
:104F900025FFCD2001F022FF002001F01FFFD320CC
:104FA00001F01CFF002001F019FFDC2001F016FFCA
:104FB000002001F013FFF32001F010FF002001F0AA
:104FC0000DFFE62001F016FF112001F007FF002081
:104FD00001F004FF342001F001FF002001F0FEFE8B
:104FE000562001F0FBFE002001F0F8FE762001F0D3
:104FF000F5FE002001F0F2FE772001F0EFFE002028
:1050000001F0ECFE662001F0E9FE002001F0E6FE72
:10501000882001F0E3FE002001F0E0FE992001F07D
:10502000DDFE002001F0DAFEBB2001F0D7FE0020FB
:1050300001F0D4FE992001F0D1FE002001F0CEFE57
:10504000662001F0CBFE002001F0C8FE552001F0E3
:10505000C5FE002001F0C2FE552001F0BFFE002079
:1050600001F0BCFE452001F0B9FE002001F0B6FEC3
:10507000432001F0B3FE002001F0B0FE442001F017
:10508000ADFE002001F0AAFEE72001F0B3FE3220C1
:1050900001F0A4FE002001F0A1FE552001F09EFECB
:1050A000002001F09BFE762001F098FE002001F028
:1050B00095FE662001F092FE002001F08FFE672031
:1050C00001F08CFE002001F089FE672001F086FED1
:1050D000002001F083FE872001F080FE002001F017
:1050E0007DFE992001F07AFE002001F077FEBB20C2
:1050F00001F074FE002001F071FE992001F06EFEB7
:10510000002001F06BFE772001F068FE002001F026
:1051100065FE442001F062FE002001F05FFE562093
:1051200001F05CFE002001F059FE232001F056FE44
:10513000002001F053FE332001F050FE002001F06A
:105140004DFE452001F04AFE002001F047FEE82018
:1051500001F050FE002001F041FE002001F03EFE73
:10516000992001F03BFE002001F038FE872001F07D
:1051700035FE002001F032FE882001F02FFE0020D5
:1051800001F02CFE772001F029FE002001F026FE20
:10519000662001F023FE002001F020FE882001F0AF
:1051A0001DFE002001F01AFEAA2001F017FE0020CB
:1051B00001F014FEBB2001F011FE002001F00EFEF4
:1051C000992001F00BFE002001F008FE662001F09E
:1051D00005FE002001F002FE552001F0FFFD002039
:1051E00001F0FCFD552001F0F9FD002001F0F6FD75
:1051F000442001F0F3FD002001F0F0FD442001F017
:10520000EDFD002001F0EAFD552001F0E7FD002052
:1052100001F0E4FDE92001F0EDFDAA2001F0DEFD42
:10522000002001F0DBFD002001F0D8FD002001F09E
:10523000D5FD002001F0DEFDAA2001F0CFFDCF203A
:1052400001F0D8FD002001F0C9FD002001F0C6FDED
:10525000002001F0C3FD002001F0C0FD002001F09E
:10526000BDFD002001F0BAFD002001F0B7FD0020D7
:1052700001F0B4FD002001F0B1FD002001F0AEFD11
:10528000002001F0ABFD002001F0A8FD002001F09E
:10529000A5FD002001F0A2FD002001F09FFD0020EF
:1052A00001F09CFD002001F099FDF02001F0A2FD2D
:1052B000002001F093FD502001F090FD002001F04E
:1052C0008DFD002001F08AFD002001F087FDF32014
:1052D00001F090FD002001F081FDF92001F08AFD30
:1052E000062001F07BFD102001F078FD292001F05F
:1052F00075FD002001F072FD3A2001F07BFD552084
:1053000001F06CFD112001F075FD6420FEF7EEFD4B
:10531000292001F06FFD352001F06CFD002001F027
:105320005DFD512001F066FDFF2001F057FD532087
:1053300001F060FD2C2001F051FD552001F05AFDD7
:10534000822001F04BFD2C2001F054FD10BD10B562
:1053500055214FF4704001F063FDAA214FF2010086
:1053600001F05EFD52214FF2020001F059FD0821CB
:105370004FF2030001F054FD01214FF2040001F04F
:105380004FFD0D214FF4304001F04AFD0D214BF24D
:10539000010001F045FD0D214BF2020001F040FD3E
:1053A00034214FF4364001F03BFD34214BF20160D3
:1053B00001F036FD34214BF2026001F031FD0D2188
:1053C0004FF4314001F02CFD0D214BF2011001F0A2
:1053D00027FD0D214BF2021001F022FD34214FF484
:1053E000374001F01DFD34214BF2017001F018FD32
:1053F00034214BF2027001F013FD00214FF43240D2
:1054000001F00EFD00214BF2012001F009FD002109
:105410004BF2022001F004FD24214FF4384001F04A
:10542000FFFC24214BF6010001F0FAFC24214BF68D
:10543000020001F0F5FC01214FF43F4001F0F0FCC7
:105440000F214FF4334001F0EBFC0F214BF2013000
:1054500001F0E6FC0F214BF2023001F0E1FC3421B7
:105460004FF4394001F0DCFC34214BF6011001F01F
:10547000D7FC34214BF6021001F0D2FC08214FF486
:10548000354001F0CDFC08214BF2015001F0C8FC81
:1054900008214BF2025001F0C3FC03214FF44240BB
:1054A00001F0BEFC24214FF43A4001F0B9FC242164
:1054B0004BF6012001F0B4FC24214BF6022001F050
:1054C000AFFC00214FF43C4001F0AAFC78214BF6E0
:1054D000014001F0A5FC00214BF6024001F0A0FCC8
:1054E00000214FF43D4001F09BFC78214BF6015028
:1054F00001F096FC00214BF6025001F091FC0021D6
:105500004FF43E4001F08CFC64214BF6016001F049
:1055100087FC00214FF4514001F082FC33214DF211
:10552000011001F07DFC00214DF2021001F078FC29
:1055300034214DF2031001F073FC00214DF20410F0
:1055400001F06EFC3A214DF2051001F069FC0021DA
:105550004DF2061001F064FC4A214DF2071001F0F3
:105560005FFC00214DF2081001F05AFC5C214DF265
:10557000091001F055FC00214DF20A1001F050FC19
:1055800081214DF20B1001F04BFC00214DF20C106B
:1055900001F046FCA6214DF20D1001F041FC002166
:1055A0004DF20E1001F03CFCE5214DF20F1001F020
:1055B00037FC01214DF2101001F032FC13214DF2A5
:1055C000111001F02DFC01214DF2121001F028FC08
:1055D00054214DF2131001F023FC01214DF214105F
:1055E00001F01EFC82214DF2151001F019FC012181
:1055F0004DF2161001F014FCCA214DF2171001F003
:105600000FFC02214DF2181001F00AFC00214DF2AE
:10561000191001F005FC02214DF21A1001F000FCF6
:1056200001214DF21B1001F0FBFB02214DF21C1079
:1056300001F0F6FB34214DF21D1001F0F1FB0221C7
:105640004DF21E1001F0ECFB67214DF21F1001F02E
:10565000E7FB02214DF2201001F0E2FB84214DF224
:10566000211001F0DDFB02214DF2221001F0D8FBE8
:10567000A4214DF2231001F0D3FB02214DF224109E
:1056800001F0CEFBB7214DF2251001F0C9FB02213C
:105690004DF2261001F0C4FBCF214DF2271001F08E
:1056A000BFFB02214DF2281001F0BAFBDE214DF2C2
:1056B000291001F0B5FB02214DF22A1001F0B0FBD8
:1056C000F2214DF22B1001F0ABFB02214DF22C1018
:1056D00001F0A6FBFE214DF22D1001F0A1FB0321EC
:1056E0004DF22E1001F09CFB10214DF22F1001F015
:1056F00097FB03214DF2301001F092FB33214DF264
:10570000311001F08DFB03214DF2321001F088FBC6
:105710006D214DF2331001F083FB00214FF4524014
:1057200001F07EFB33214DF2012001F079FB0021D5
:105730004DF2022001F074FB34214DF2032001F000
:105740006FFB00214DF2042001F06AFB3A214DF27B
:10575000052001F065FB00214DF2062001F060FB01
:105760004A214DF2072001F05BFB00214DF2082099
:1057700001F056FB5C214DF2092001F051FB0021A4
:105780004DF20A2001F04CFB81214DF20B2001F07B
:1057900047FB00214DF20C2001F042FBA6214DF207
:1057A0000D2001F03DFB00214DF20E2001F038FBF1
:1057B000E5214DF20F2001F033FB01214DF21020C5
:1057C00001F02EFB13214DF2112001F029FB0121E4
:1057D0004DF2122001F024FB54214DF2132001F070
:1057E0001FFB01214DF2142001F01AFB82214DF222
:1057F000152001F015FB01214DF2162001F010FBE0
:10580000CA214DF2172001F00BFB02214DF21820A6
:1058100001F006FB00214DF2192001F001FB0221ED
:105820004DF21A2001F0FCFA01214DF21B2001F08B
:10583000F7FA02214DF21C2001F0F2FA34214DF268
:105840001D2001F0EDFA02214DF21E2001F0E8FAD0
:1058500067214DF21F2001F0E3FA02214DF22020D2
:1058600001F0DEFA84214DF2212001F0D9FA022163
:105870004DF2222001F0D4FAA4214DF2232001F0B0
:10588000CFFA02214DF2242001F0CAFAB7214DF2DD
:10589000252001F0C5FA02214DF2262001F0C0FAC0
:1058A000CF214DF2272001F0BBFA02214DF2282032
:1058B00001F0B6FADE214DF2292001F0B1FA022101
:1058C0004DF22A2001F0ACFAF2214DF22B2001F02A
:1058D000A7FA02214DF22C2001F0A2FAFE214DF28E
:1058E0002D2001F09DFA03214DF22E2001F098FAAF
:1058F00010214DF22F2001F093FA03214DF23020B8
:1059000001F08EFA33214DF2312001F089FA0321A2
:105910004DF2322001F084FA6D214DF2332001F076
:105920007FFA00214FF4534001F07AFA33214DF20F
:10593000013001F075FA00214DF2023001F070FAE9
:1059400034214DF2033001F06BFA00214DF20430A6
:1059500001F066FA3A214DF2053001F061FA0021BA
:105960004DF2063001F05CFA4A214DF2073001F0A9
:1059700057FA00214DF2083001F052FA5C214DF245
:10598000093001F04DFA00214DF20A3001F048FAD9
:1059900081214DF20B3001F043FA00214DF20C3021
:1059A00001F03EFAA6214DF20D3001F039FA002146
:1059B0004DF20E3001F034FAE5214DF20F3001F0D6
:1059C0002FFA01214DF2103001F02AFA13214DF285
:1059D000113001F025FA01214DF2123001F020FAC8
:1059E00054214DF2133001F01BFA01214DF2143015
:1059F00001F016FA82214DF2153001F011FA012161
:105A00004DF2163001F00CFACA214DF2173001F0B8
:105A100007FA02214DF2183001F002FA00214DF28E
:105A2000193001F0FDF902214DF21A3001F0F8F9B8
:105A300001214DF21B3001F0F3F902214DF21C302F
:105A400001F0EEF934214DF21D3001F0E9F90221A7
:105A50004DF21E3001F0E4F967214DF21F3001F0E4
:105A6000DFF902214DF2203001F0DAF984214DF204
:105A7000213001F0D5F902214DF2223001F0D0F9A8
:105A8000A4214DF2233001F0CBF902214DF2243054
:105A900001F0C6F9B7214DF2253001F0C1F902211C
:105AA0004DF2263001F0BCF9CF214DF2273001F044
:105AB000B7F902214DF2283001F0B2F9DE214DF2A2
:105AC000293001F0ADF902214DF22A3001F0A8F998
:105AD000F2214DF22B3001F0A3F902214DF22C30CE
