:020000040800F2
:1000000038380020F1010008633400085B34000830
:100010005F340008551E0008A937000800000000E2
:100020000000000000000000000000009134000803
:10003000591E0008000000006534000893340008D1
:100040000B0200080B0200080B0200080B0200085C
:100050000B0200080B0200080B0200080B0200084C
:100060000B0200080B0200080B0200080B0200083C
:100070000B0200080B0200080B0200080B0200082C
:100080000B0200080B0200080B0200080B0200081C
:100090000B0200080B0200080B0200080B0200080C
:1000A0000B0200080B0200080B0200080B020008FC
:1000B0000B0200080B0200080B0200080B020008EC
:1000C0000B0200080B0200080B0200080B020008DC
:1000D0000B020008993700080B0200080B02000809
:1000E0000B0200080B0200080B0200080B020008BC
:1000F0000B0200080B0200080B0200080B020008AC
:100100000B0200080B0200080B0200080B0200089B
:100110000B0200080B0200089D3400080B020008C7
:100120000B0200080B0200080B0200080B0200087B
:1001300000F002F800F04DF80AA090E8000C8244AC
:100140008344AAF10107DA4501D100F042F8AFF289
:10015000090EBAE80F0013F0010F18BFFB1A43F0A5
:1001600001031847A83C0100C83C0100103A24BF15
:1001700078C878C1FAD8520724BF30C830C144BF0C
:1001800004680C607047000000230024002500264E
:10019000103A28BF78C1FBD8520728BF30C148BFEA
:1001A0000B607047662907F08885642900F0428556
:1001B000782900F07B85002070471FB501F00CF90D
:1001C00004000020002107F093F8E0601FBD10B587
:1001D00010BD01F009FA1146FFF7EFFF06F086FEA9
:1001E00001F027FA03B4FFF7F2FF03BC03F015FB9D
:1001F0000948804709480047FEE7FEE7FEE7FEE7BB
:10020000FEE7FEE7FEE7FEE7FEE7FEE704480549F6
:10021000054A064B704700009B3400083101000876
:10022000383200203838002038340020383400209C
:1002300070B51C4907F06EFB4FF07A5107F0D8F902
:10024000044607F0FFFA14F1FF4F28BF401E07F0E5
:1002500035FB214607F02AFC092107F062FD05461F
:1002600007F00CFBC0F30804204607F03FFB2946CB
:1002700007F01CFC05460C4850F8246000EB840095
:100280004168284607F046FB044629464FF07E5059
:1002900007F09EFC314607F03DFB2146BDE870406B
:1002A00007F0A6B983F9223E3835010870B5044637
:1002B0001E4900F1FF4088429CBF204670BD1C498A
:1002C000204607F027FB054607F0BCFA14F1FF4F64
:1002D00028BF401E07F0F2FA294607F0E7FB092184
:1002E00007F01FFD054607F0C9FAC0F308042046D1
:1002F00007F0FCFA294607F0D9FB05460D4850F8EF
:10030000246000EB84004168284607F003FB0446A4
:1003100029464FF07E5007F05BFC314607F0FAFAB1
:100320002146BDE8704007F063B90000CD02CC3330
:1003300083F9223E38350108002A08BF70472DE9AD
:10034000F04715460E4604464FF0000854F8047B6B
:1003500054F8040B014607F0DDFA81463946084699
:1003600007F0D8FA494607F043F93746361D10F131
:10037000FF4F28BFC7F8008002D206F053FF386055
:100380006D1EE3D1BDE8F0872DE9FF4F9BB0044619
:100390001C9D1695012D9CBF1FB0BDE8F08F1295D6
:1003A0000020AD080E900F90681E13900E9B1D9AB2
:1003B0000E980E9952F8332009921D9A400002EBD4
:1003C000C3020144526807921D9A52F830200C92E1
:1003D0001D9A02EBC00040680D9052F831000B905E
:1003E00002EBC10040680A901E990F9E58180E90AB
:1003F000771907EB050954F836A054F839B009EB22
:1004000005085946504607F0F3F801905946504602
:1004100007F0DEFB049004EBC9001990D0F804B09B
:1004200004EBC6001490D0F804A05946504607F0DB
:10043000DFF800905946504607F0CAFB039054F885
:10044000381054F8370007F0D3F882460146019877
:1004500007F0CEF844F836005146019807F0B8FB93
:1004600004EBC80B019004EBC70ADBF80410DAF8C0
:10047000040007F0BDF801460690009807F0B8F8B0
:100480000146149841600699009807F0A1FB00907E
:10049000DBF80410DAF8040007F09AFB089054F82F
:1004A000381054F8370007F093FB06900D99009828
:1004B00007F030FA15900C99019807F02BFA15996E
:1004C00007F096F844F837000D99019807F022FAE2
:1004D00007460C99009807F01DFA394607F078FB9B
:1004E000CAF804000899049807F082F807460899AA
:1004F000049807F06DFB04900699039807F068FBD9
:1005000000900699039807F073F8039007990098F4
:1005100007F000FA82463846099907F0FBF9514680
:1005200007F066F844F839003846079907F0F2F901
:1005300007460999009807F0EDF9394607F048FB9E
:100540000146199841600A99039807F0E3F90746B4
:100550000B99049807F0DEF9394607F049F844F89A
:1005600038000A99049807F0D5F907460B990398C3
:1005700007F0D0F9394607F02BFBCBF804001298AE
:1005800006441C988642FFF433AF0F981399401C21
:100590000F9088427FF60AAF1E984FF6FF7101EA6E
:1005A00080001E9016988008169001283FF6F7AE3E
:1005B0001FB0BDE8F08F2DE9FF4F9BB004461C9D96
:1005C0001795042D40F20A8100200E95AD08129077
:1005D0000F90681E1490129B1D9A1298129952F84F
:1005E00033200B921D9A400002EBC3020144526873
:1005F00006921D9A0F9E52F8302007921D9A02EB28
:10060000C0004068109052F831000C9002EBC1001D
:1006100040680D901E9818441290771907EB050852
:1006200054F836A054F838B008EB0509594650463E
:1006300006F0DEFF01905946504607F0C9FA0590D2
:1006400004EBC8001990D0F804B004EBC600159074
:10065000D0F804A05946504606F0CAFF009059460B
:10066000504607F0B5FA049054F8391054F83700A2
:1006700006F0BEFF82460146019806F0B9FF44F835
:1006800036005146019807F0A3FA04EBC90B01901C
:1006900004EBC70ADBF80410DAF8040006F0A8FF40
:1006A00001460890009806F0A3FF014615984160A6
:1006B0000899009807F08CFA0090DBF80410DAF83B
:1006C000040007F085FA099054F8391054F83700FF
:1006D00007F07EFA08901099009807F01BF9169021
:1006E0000799019807F016F9169907F071FA44F87E
:1006F00037001099019807F00DF9074607990098FF
:1007000007F008F9394606F073FFCAF804000999A2
:10071000059807F05DFA07460999059806F068FF05
:1007200005900899049806F063FF009008990498D2
:1007300007F04EFA04900699009807F0EBF882460D
:1007400038460B9907F0E6F8514607F041FA44F8AD
:1007500038003846069907F0DDF807460B990098EF
:1007600007F0D8F8394606F043FF01461998416072
:100770000D99049807F0CEF807460C99059807F0F4
:10078000C9F8394607F024FA44F839000D9905985C
:1007900007F0C0F807460C99049807F0BBF83946F3
:1007A00006F026FFCBF804000E9806441C988642FB
:1007B000FFF433AF0F98401C0F90149988427FF6D6
:1007C0000AAF1E984FF6FF7101EA80001E9017983D
:1007D0008008179004283FF6F7AE00BF1C9800264B
:1007E000401B4FEA95090E95CDF81C0006EB090554
:1007F00005EB090754F836A054F837B007EB0908A1
:100800005946504606F0F4FE01905946504607F00E
:10081000DFF9059004EBC7000B90D0F804B004EBAF
:10082000C6000C90D0F804A05946504606F0E0FEF1
:1008300000905946504607F0CBF9049054F8381010
:1008400054F8350006F0D4FE82460146019806F0C1
:10085000CFFE289907F05EF844F83600514601981B
:1008600007F0B6F904EBC80B019004EBC50ADBF8FE
:100870000410DAF8040006F0BBFE01460890009868
:1008800006F0B6FE289907F045F801460C9841603D
:100890000899009807F09CF90090DBF80410DAF84A
:1008A000040007F095F9099054F8381054F8350011
:1008B00007F08EF908902899019807F02BF844F872
:1008C00035002899009807F025F8CAF8040009991E
:1008D000059807F07DF982460999059806F088FE8B
:1008E00005900899049806F083FE009008990498F2
:1008F00007F06EF905465046289907F00BF844F8C2
:1009000037002899009807F005F801460B984160D8
:100910002899059806F0FEFF44F8380028462899E3
:1009200006F0F8FFCBF804000E9806440798B04292
:10093000BFF45CAF1FB0BDE8F08F38B504460D467C
:1009400080782188A389626801280FD02846FFF7A4
:100950001BFDE078012818BF38BDE2892188A36813
:1009600001B02846BDE8304000F05AB82069009038
:100970002846FFF720FEECE710B40180224C4460CB
:1009800082704FF0000CC370B1F5807F20D004DC82
:1009900010292ED0402923D005E0B1F5806F0FD06B
:1009A000B1F5805F04D04FF0FF3C10BC604670474B
:1009B00001218181C181154981604FF0665116E0A6
:1009C00004218181C181124981604FF06A510EE09A
:1009D00010218181C1810F4981604FF06E5106E085
:1009E00040218181C1810C4981604FF072510161C8
:1009F000DBE74FF480718181C181084981604FF04C
:100A000076510161D1E7000038B5000836AD000825
:100A10003CAD000854AD0008B4AD000834AF000888
:100A20002DE9F0074D0801244FF0000C04EB5106AE
:100A30006146A5F102082CE061452AD250F8314008
:100A400050F83C7040F8317040F83C4000EBC10475
:100A500000EBCC07D4F80490D7F804A0C4F804A0A5
:100A6000C7F804908F190CEB060450F8379050F833
:100A700034A040F837A040F8349000EBC70700EBF3
:100A8000C404D7F80490D4F804A0C7F804A0C4F8AC
:100A9000049000EBC104AC44A76850F83C90C4F843
:100AA000089040F83C7000EBCC0CE768DCF8049050
:100AB000C4F80C90CCF80470891CB3F800C089B25B
:100AC00003EB42034145B7D9BDE8F00770472DE974
:100AD000F0074D0801244FF0000C04EB510661466D
:100AE000A5F102082BE0614529D250F8314050F8B9
:100AF0003C7040F8317040F83C4000EBC10900EB1D
:100B0000CC04D9F80470D4F804A0C9F804A0676034
:100B10008C190CEB060750F8349050F837A040F8C9
:100B200034A040F8379000EBC40400EBC707D4F8BA
:100B30000490D7F804A0C4F804A0C7F8049000EB10
:100B4000C104AC44A76850F83C90C4F8089040F841
:100B50003C7000EBCC0CE768DCF80490C4F80C9017
:100B6000CCF80470B3F800C0891C03EB4203414584
:100B7000B9D9BDE8F00770472DE9F00F01244F08FF
:100B800004EB51084FF0000C7C0804BFBDE8F00FE7
:100B90007047014600EB8805002614E0BCEB460FC9
:100BA00011D950F82CA0D1F80090C1F800A040F85D
:100BB0002C900CEB0809D5F800A050F829B0C5F826
:100BC00000B040F829A0BC4451F8049F50F82CA074
:100BD00041F804AB40F82C90B3F800C003EB42039B
:100BE000641E05F1080506F10106D7D1BDE8F00F36
:100BF000704770470FB4044910B503AA029800F07B
:100C0000D9FB10BC5DF814FB0C0000200FB41CB520
:100C1000074B06AA7B4469460090059800F0B1FB9B
:100C20000020694600F0C0FB1CBC5DF814FB00000E
:100C3000910700002DE9F04106460024106875294F
:100C4000314616A510D0AFF30080002802DA4042EA
:100C500013A507E031688A0701D512A502E049070C
:100C600004D511A5012401E0AFF3008000210A2280
:100C700006F1240709E0B0FBF2FCB0FBF2F302FB43
:100C80001C00303078541846491C0028F3D1234604
:100C90002A463046BDE8F04100F006B900000000E9
:100CA0002D0000002B0000002000000070B504465D
:100CB0000D4621461068AFF300802188090502D552
:100CC0000F4A7A4402E00E4A7A440E32002104F1BF
:100CD000240305E000F00F060009965D5E54491CF0
:100CE0000028F7D120780023000704D5702D02D00A
:100CF00009B1022311322046BDE8704000F0D4B89B
:100D0000763001002DE9F05F894604464FF0000A75
:100D1000DFF824B1FB44C0F820A02046E1688847F2
:100D200000287DD0252806D0D4E901219047206AEB
:100D3000401C2062F1E700255F462046E1688847B5
:100D40002028064607DB312E05D2B81910F8200CF2
:100D500008B10543F1E7A80701D525F00405C4F85B
:100D60001CA00027C4F818A02A2E09D0304602F093
:100D70004DFD38B304EB8708303EC8F8186019E021
:100D800059F8041B204604EB87029161E16888470B
:100D9000012F064618D1E069002820DA25F0200549
:100DA0001DE0D8F8180000EB800006EB400030385A
:100DB000C8F818002046E1688847064602F026FD7C
:100DC0000028EED1012F0AD02E2E08D12046E1684E
:100DD00088477F1C0646022F45F02005C4DBA0692A
:100DE000002803DA404245F00105A061E80701D080
:100DF00025F01005A6B1A6F14100192802D8203629
:100E000045F400654A463146204625604D46FFF7C9
:100E1000C9F960B1012807D0ED1D25F0070000E0F9
:100E200007E000F1080978E705F1040975E73046A5
:100E30007AE7206ABDE8F09F4C3001004FF00002D5
:100E400000B5134694469646203922BFA0E80C50C0
:100E5000A0E80C50B1F12001BFF4F7AF090728BF9B
:100E6000A0E80C5048BF0CC05DF804EB890028BF17
:100E700040F8042B08BF704748BF20F8022B11F040
:100E8000804F18BF00F8012B7047704770477047BC
:100E9000704710B500F0A4FA006810BD10B5044604
:100EA00000F09EFA046010BD2DE9F0470D4699460A
:100EB0009246044600F124080168880604D5E069DA
:100EC00021F01001216000E00120A84201DD471B54
:100ED00000E00027A1697A1902EB0900081AA06155
:100EE0002078C00602D42046AFF30080002608E038
:100EF000D4E901211AF806009047206A401C761CAC
:100F000020624E45F4DB2078C0060AD52046AFF3B8
:100F1000008006E0D4E9012130209047206A401C7F
:100F20002062381EA7F10107F4DC07E0D4E90121B3
:100F300018F805009047206A401C2062281EA5F181
:100F40000105F3DC2046AFF300802078000602D5CF
:100F50000220BDE8F0870120FBE770472DE9FF4F35
:100F60000C461E464FF0FF378BB0D2E90001DDF88A
:100F700060800A908A46C1F30A5505B93D460021B2
:100F800008464FF00000BAF1000F00F4400005DA07
:100F900000EB80004FF4400101EA50004FEA905905
:100FA000B9F1010F00DDB9460A9850EA4A000ED0A7
:100FB00044F61050A5F2FF3545432F14B8F1000F49
:100FC0001ED07542291E1EDDC9F100021CE0B8F1D9
:100FD000010F4FF0000001D0302103E0F24305E0A3
:100FE0002154401CB042FBDB30460022002121543A
:100FF0000B99C1F80880C1E900200FB0BDE8F08F5F
:10100000BD1B6D1CDEE74A4600DA694206A800F007
:1010100071FA06AB93E8070003AB83E8070050467C
:101020000A9900F04FFB8DE80700A0F500501F382B
:1010300000900398002D0ADD42F21F014A46084441
:10104000002303A90390684600F0B8FD09E0A0F56D
:1010500000504A461F38002303A90390684600F059
:10106000C2FD8DE807000004000C03D04FF0FF30F4
:10107000410800E01046B8F1000F03D000220092B2
:1010800015461EE0751E05D400F0AEF930326255EB
:101090006D1EF9D5B3460122084302D000227F1C01
:1010A00004E02078302801D100227F1E002A099711
:1010B00084D01DE0112D07DA00F096F93032625528
:1010C0006D1C50EA0102F5D1084302D00098C8B166
:1010D0000EE00021681E05E0235C625C635422542C
:1010E000401E491C8142F7DBAB46A81B401E0990FD
:1010F000002004F80B000B98099AC0F80880C0E99A
:10110000002B7AE711264FF0000857E72DE9F04F42
:1011100088460446D21D22F0070191B0D1E90001B2
:10112000CDE90A0102F042FB02460B98C00F01D044
:101130002D2007E02068810701D52B2002E0202127
:1011400001EAC000032A099001D0072A05DB034603
:101150004146204600F08EF90BE12078800601D54B
:10116000E06900E00620B8F1650F814606D0B8F1CD
:10117000660F18D0B8F1670F70D131E00020B9F1D7
:10118000110F009001DB112301E009F101030AAA0C
:1011900001A90CA8FFF7E2FEDDE90C70002609F1B9
:1011A0000105834647E001204B4600904FF0004781
:1011B0000AAA01A90CA8FFF7D1FEDDE90DB00C9930
:1011C0005D46002610B909F101000D18B9EB0500C4
:1011D00003D4C0F1FF3609F10105A5EB09002BE0AE
:1011E000B9F1010F01DA4FF001090020B9F1110F37
:1011F0000090484601DD112300E003460AAA01A938
:101200000CA8FFF7ABFEDDE90C704D4600268346C7
:10121000207800070AD4AB4500DA5D4601A8012D0D
:1012200004DD411911F8011C302907D04F4502DABD
:1012300017F1040F04DA012082460FE06D1EEEE77D
:10124000002F02DCED1B3E4403E0781CA84200DDC9
:101250007D1CB81B00F1010A4FF000472078000701
:1012600003D4AA4501DB4FF0FF3A0021B7F1004F4C
:101270000DF143088DF8431024D002202B23002FBA
:1012800001DA7F422D230A21021EA0F1010000DCB9
:101290005FB197FBF1FC97FBF1F201FB1C7C174659
:1012A0000CF1300C08F801CDEEE7A8F10100037055
:1012B0002188090501D5452100E06521A0F101083B
:1012C00000F8011C09980FA9A1EB0807FF1D00B148
:1012D0000120411901EBEA70A1693844081A401E47
:1012E000A0612078C00602D42046AFF300800998A0
:1012F00028B1D4E901219047206A401C206220785F
:10130000C00622D52046AFF300801EE0002E04DB8D
:10131000B34502DD01A8805D00E03020D4E9012161
:101320009047206A401C2062761CAAF101005FEA07
:10133000000A0AD100F050F8C0680168405CD4E9A6
:1013400001219047206A401C2062281EA5F101055A
:10135000DCDC07E0D4E9012118F8010B9047206A92
:10136000401C2062381EA7F10107F3DC2046AFF3D2
:101370000080032011B041E601694A1C026108782F
:10138000704700B58FB0CDE90131002105910549C5
:101390007944CDE9031011466846FFF7B3FC0FB05E
:1013A00000BD0000E5FFFFFF0A6802F8010B0A60BC
:1013B00070470000074B70B50D467B44FFF7E1FF17
:1013C0000446284600F008F910B14FF0FF3070BD18
:1013D000204670BDF724000000487047F43100201B
:1013E00000487047D431002030B5B0F10A024FEA0E
:1013F000900E71F100034EEA817EB0EB0E0061EBBE
:1014000091014FEA101E4EEA017E10EB0E0041EBF7
:1014100011114FEA102E4EEA016E10EB0E0041EB57
:1014200011214FEA104E4EEA014E10EB0E0041EB37
:101430001141401841F100014FEAD00040EA4170EB
:101440004FEAD10110EB80054FEA810444EA907421
:1014500044EB01046D1944EB0404521BA3414FF00B
:10146000000348BF0A3200D530BD401C41F10001E5
:1014700030BD00002DE9F0411F46044603260168F7
:10148000072A01F4006004DB08B116A505E016A5E3
:1014900003E008B115A500E015A521F010002060BB
:1014A000A069C01EA0610FB1401EA0612046AFF32D
:1014B00000804FB1D4E9012138469047206A401C92
:1014C0002062C01C206206E0206AFAE7D4E901210C
:1014D00015F8010B9047761EF8D22046AFF3008036
:1014E000BDE8F0814E414E006E616E00494E4600EF
:1014F000696E66002DE9F047814616468AB0354888
:1015000078440DC88DE80D0032487844801C03AC47
:101510000DC884E80D0041F69B300844372190FB4C
:10152000F1F290FBF1F5A5F1800501FB12041B3CE3
:1015300002D56442012000E00020DFF898A0804638
:101540000027FA44AAF1BE0A0EE0E0070AD03246AC
:10155000684607EB470101230AEB810100F043FBDA
:101560008DE8070064107F1C002CEED1194F7F44DA
:10157000AE3F19E0E80715D007EB04100DF1180A8B
:1015800090E80E008AE80E00C068F04201D1981978
:1015900008903246012306A903A800F024FB03AB00
:1015A00083E807006D10641C002DE3D14FF00103A8
:1015B00032466946B8F1000F03A802D000F0FEFAE7
:1015C00001E000F010FBC9E90001C9F808200AB0E9
:1015D000BDE8F087F0280100007B00F08000704734
:1015E00000487047D43100207546FFF7F9FFAE463A
:1015F00005006946534620F00700854618B020B51F
:10160000FEF704FEBDE820404FF000064FF0000753
:101610004FF000084FF0000B21F00701AC46ACE89A
:10162000C009ACE8C009ACE8C009ACE8C0098D4607
:10163000704710B50446AFF300802046BDE8104067
:10164000FEF7D0BD4FF0013C50F8042B51F8043B9D
:101650009A4221D1A2EB0C03934313EACC1317D186
:1016600050F8042B51F8043B9A4215D1A2EB0C031D
:10167000934313EACC130BD150F8042B51F8043BDD
:101680009A4209D1A2EB0C03934313EACC13DBD0AB
:101690004FF00000704700BFD01A01BAB1FA81F1D3
:1016A00001F0180122FA01F0CB40C1F12001DBB2B8
:1016B000C0B2C01A2CFA01F3D11A914311EAC31136
:1016C000E6D170475FEA400C08BF91F0000F4FEA87
:1016D0008C234FEAC12243EA51514FEA1C5018BFF4
:1016E00000F5F0404FEA300018BF41F000415FEADA
:1016F0006C5C00F02980BCF1FF3F08BF40F08040E7
:101700007047130C06BF12044FF0100C4FF0000C82
:10171000130E04BF12020CF1080C130F04BF1201C8
:101720000CF1040C930F04BF92000CF1020CD30FC8
:1017300004BF52000CF1010C11464FF00002A0F161
:101740001F00A0EB0C00704711F0004F08BF70475E
:1017500031F000413FF4D5AF0B0C06BF09044FF048
:10176000100C4FF0000C0B0E04BF09020CF1080C1A
:101770000B0F04BF09010CF1040C8B0F04BF89008F
:101780000CF1020CCB0F04BF49000CF1010CCCF1A1
:101790002003A0EB0C0022FA03F302FA0CF241EA58
:1017A000030100F10100704720F07F4C80EA030044
:1017B00023F07F47ACEB070303F57C5300F00040B8
:1017C00003F1FF032DE980494FEA154B09B44FEAB5
:1017D000144325EA0B4E24EA03480FF2042606EBD5
:1017E000132749083E785FEA320203FB0667C7F514
:1017F000000707FB06F64FEA54374FEAD64606F1D4
:10180000020607FB066CCCF1005C4FEA1C472CEA91
:10181000074C07FB06F40CFB06F504EB15464FEAF4
:10182000961634BF00204FF000404FEAD13706FB38
:1018300007FC4FEA1C4C0CFB0BF7D21B03FB0CF70D
:1018400061EB07010CFB0EF7B0EB074072EB1742A0
:101850000CFB08F734BFA2EB0742B2EB074261EB87
:1018600017414FEA0C444FEA910706FB07FC4FEA89
:101870001C4C0CFB0BF7B0EBC74072EB573203FB71
:101880000CF734BFA2EBC742B2EBC74261EB573152
:101890000CFB0EF7B0EBC70072EB57720CFB08F7AE
:1018A00034BFA2EBC702B2EBC70261EB5771039FD3
:1018B0004FEA816141EA921104EBCC044FEAD1373F
:1018C0004FEA826206FB07FC42EA90124FEA806010
:1018D0004FEA1C4C0CFB0BF7D21B03FB0CF761EB24
:1018E00007010CFB0EF7B0EB074072EB17420CFB45
:1018F00008F734BFA2EB0742B2EB074261EB174196
:101900004FEA8C554FEA910704EB9C2406FB07FC39
:101910004FEA1C4C0CFB0BF7B0EBC74072EB573295
:1019200003FB0CF734BFA2EBC742B2EBC74261EB3B
:1019300057310CFB0EF7B0EBC70072EB57720CFB84
:1019400008F734BFA2EBC702B2EBC70261EB5771D5
:1019500015EB4C254FEA816141EA92114FEA826210
:101960004FEAD13742EA901206FB07FC44F100042B
:101970004FEA80604FEA1C4C0CFB0BF7D21B03FBB9
:101980000CF761EB07010CFB0EF7B0EB074072EBB5
:1019900017420CFB08F734BFA2EB0742B2EB074239
:1019A00061EB174115EB1C154FEA813141EA924179
:1019B0004FEA823242EA90424FEA80304FEA0C7698
:1019C00044F1000448EA03434EEA0B484FF0000E8E
:1019D000B2EB080C71EB030724BF624639464EEBAD
:1019E0000E0E4FF0000B0018524149414BEB0B0B10
:1019F000B2EB080C71EB03077BF1000B24BF6246CE
:101A000039464EEB0E0E4FF0000B00185241494183
:101A10004BEB0B0BB2EB080C71EB03077BF1000BEC
:101A200024BF624639464EEB0E0E51EA020718BF3C
:101A300046F0010616EB0E7655F1000254F1000156
:101A400003D5BDE88901BDE80088BDE88901BDE88E
:101A50000048B619524141EB0101A3F1010370475F
:101A600080807F7E7D7C7B7A7978777676757473DB
:101A7000727171706F6E6E6D6C6C6B6A6A6968689A
:101A8000676666656464636362616160605F5F5E30
:101A90005E5D5D5C5C5B5B5A5A59595858575756A6
:101AA000565555555454535352525251515050500B
:101AB0004F4F4F4E4E4D4D4D4C4C4C4B4B4B4A4A5D
:101AC0004A494949484848474747474646464545A1
:101AD00045444444444343434342424242414141DA
:101AE000002B9C4630D477002BD01CB54FEA37072B
:101AF00003B44FF010004FF01001BAF1000F06D000
:101B0000BCF1000FDCBF40F0080040F008014FF0CE
:101B100000000FBCBDE810400BF1010BBBF1010F41
:101B200008BF5FEA170722BF12F1010211F101019C
:101B30004FF0004143F1000300F0004043EA000091
:101B40007047F9D35708D0E746EA064613F1400F2D
:101B50004FEA16461FDD13F1200FDFBF16430A467A
:101B6000002120335B42BED0C3F1200746EA06467F
:101B700002FA07F74FEA164646EA0706C3F12007BE
:101B800022FA03F201FA07F721FA03F14FF00003FA
:101B900042EA0702A7E746EA020646EA06464FEA95
:101BA000164646EA0106BCBF46EA0646360C4FF02A
:101BB00000034FF000024FF0000194E72DE9804C44
:101BC0009A46934670B491E8380007C831EA400C51
:101BD00048BF34EA430C03D5FFF7E6FDFFF780FF6B
:101BE000F0BCBDE8008C2DE9804C9A46934670B459
:101BF00091E8380007C810F0804F08BF13F0804FFD
:101C000003D100F005F8FFF76BFFF0BCBDE8008CD6
:101C100020F07F4780EA030023F07F4C07EB0C03A2
:101C2000A3F57C5300F00040A3F1FE0392F0000FF7
:101C300000F0B38095F0000F00F077802DE90149A6
:101C40004FEA11404FEA144621EA004800FB06FC27
:101C500024EA064708FB06F607FB08F800FB07F72F
:101C600018EB06484CEB164C4FEA124B18EB0748A2
:101C70004FEA15464CEB174022EA0B4E0BFB06FCD5
:101C800025EA06470EFB06F607FB0EFE0BFB07F7E1
:101C90001EEB064E4CEB164C4FF000061EEB074EAB
:101CA0004CEB174B18EB0B0840F1000018EB0E0B38
:101CB00058EB000840F100008F1A4FF000013CBFC4
:101CC000C943661B14BFB5EB040C00213CBFC943DC
:101CD000F61B4FEA17444EEA8E0E27EA04454FEAF8
:101CE0001C4704FB07622CEA074C05FB07F70CFBBB
:101CF00005F604FB0CFC16EB074642EB174216EB0D
:101D00000C4642EB1C421BEB060658EB020241411B
:101D100046EA9E0601D5BDE80189B619524141EB5C
:101D20000101A3F10103BDE801894FEA14454FEA1F
:101D3000114724EA054621EA074C05FB07F406FB98
:101D400007F70CFB06F105FB0CFC11EB074144EB1C
:101D500017444FEA124711EB0C4144EB1C4422EAB2
:101D6000074C05FB07F206FB07F70CFB06F605FB25
:101D70000CFC16EB074642EB174216EB0C4642EB07
:101D80001C456A1854F1000148BF7047B61952410A
:101D900041EB0101A3F10103704795F0000F37D02B
:101DA0004FEA11424FEA144721EA024624EA074C5F
:101DB00002FB07F106FB07F70CFB06F402FB0CFC29
:101DC00014EB074441EB17414FEA154714EB0C4461
:101DD00041EB1C4125EA074C02FB07F506FB07F720
:101DE0000CFB06F602FB0CFC16EB074645EB174511
:101DF00016EB0C4645EB1C42121951F1000148BF8D
:101E00007047B619524141EB0101A3F1010370473C
:101E10004FEA14454FEA114724EA054621EA074CE8
:101E200005FB07F106FB07F70CFB06F24FF0000677
:101E300005FB0CFC12EB074241EB174112EB0C4285
:101E400051EB1C4148BF7047921841EB0101A3F1CF
:101E50000103704700BFFEE77047000070B50446FD
:101E6000B3F5804F13D1D1E9000540EA05108D6824
:101E700040EA05208D6928438D8940EA054054F8E1
:101E80002250064E3540284344F8220003E06FF00C
:101E9000704044F82200002070BD00000000F0CF28
:101EA00070B50246086852F8200020F001000E6864
:101EB00042F826008868082801D1402300E000236A
:101EC000486818438E683043CE6830430E6930430B
:101ED0004E693043CE6930430E6A30434E6A304318
:101EE0008E6A3043CE6A30430E6B40EA060488693E
:101EF0000443486B0443074D45F4806545F4E025F1
:101F0000086852F82000A84320430E6842F82600D3
:101F1000002070BD7FFB080010B50346D1E9000426
:101F200040EA04108C6840EA04208C8940EA0444AA
:101F3000088A401E44EA0054087D801E44EA00607E
:101F40008C692043541C53F8244004F0404420433F
:101F5000541C43F82400002010BD000070B5044656
:101F6000002594F82100022803D00420A063012555
:101F7000C1E02068006820F00E0021680860206839
:101F8000006820F00100216808605C4920688842F0
:101F900052D95A4978392068884201D1012047E056
:101FA000564964392068884201D1102040E05349E5
:101FB00050392068884201D1801539E04F493C39B9
:101FC0002068884201D1801432E04C4928392068C9
:101FD000884202D14FF480302AE048491439206801
:101FE000884202D14FF4801022E0444920688842A0
:101FF00001D140041CE042492068884201D10120FF
:1020000016E03F4914312068884201D110200FE0CA
:102010003B4928312068884201D1801508E03849C1
:102020003C312068884201D1801401E04FF48030B7
:102030003349091F086051E03049783920688842E7
:1020400001D1012047E02D4964392068884201D13F
:10205000102040E0294950392068884201D180157C
:1020600039E026493C392068884201D1801432E0A9
:10207000224928392068884202D14FF480302AE072
:102080001E4914392068884202D14FF4801022E0A2
:102090001A492068884201D140041CE01849206890
:1020A000884201D1012016E0154914312068884288
:1020B00001D110200FE0124928312068884201D157
:1020C000801508E00E493C312068884201D1801417
:1020D00001E04FF48030094980394860012084F8DC
:1020E000210000BF002084F8200000BF606B10B109
:1020F0002046616B8847284670BD00008000024082
:10210000080402402DE9F847024600239C467BE183
:102110004FF0010808FA03F4D1F8008008EA04003F
:10212000A0427DD1DFF8F4A2D1F80480A8EB0A091F
:10213000D0453AD014DCB8F1030F50D009DCB8F127
:10214000000F31D0B8F1010F1CD0B8F1020F49D106
:1021500020E0B8F1110F18D0B8F1120F42D11EE0F3
:10216000B9F5881F25D006DCB9F5803F20D0B9F538
:10217000801F37D11AE0B9F5001F18D0B9F5041F38
:1021800030D117E0D1F80CC02DE0D1F80C8008F167
:10219000040C28E0D1F80C8008F1080C23E0D1F8F9
:1021A0000C8008F10C0C1EE000BF00BF00BF00BF98
:1021B00000BF00BFD1F80880B8F1000F02D14FF086
:1021C000040C0BE0D1F80880B8F1010F03D14FF0F7
:1021D000080C146102E04FF0080C546103E04FF06A
:1021E000000C00E000BF00BFFF2801D8904601E0CE
:1021F00002F104084646FF2802D84FEA830803E0AC
:10220000A3F108084FEA88084746D6F800804FF047
:102210000F0909FA07F928EA09080CFA07F900E09A
:102220007AE048EA0908C6F80080D1F8048008F08E
:102230008058B8F1805F6FD100BFDFF8E481D8F833
:10224000188048F00108DFF8D891C9F81880C8460E
:10225000D8F8188008F00108CDF8008000BF00BF52
:102260004FEAB9384FEA930958F829504FEA837872
:102270004FEA18794FF00F0808FA09F825EA08051F
:10228000DFF8A081424502D14FF0000824E0DFF8DA
:102290009881424502D14FF001081DE0DFF88C81A2
:1022A000424502D14FF0020816E0DFF88481424532
:1022B00002D14FF003080FE0DFF87881424502D1E8
:1022C0004FF0040808E0DFF87081424502D14FF07A
:1022D000050801E04FF006084FEA83794FEA1979C3
:1022E00008FA09F848EA0505DFF850814FEA930932
:1022F00048F82950D1F8048008F48038B8F5803FB8
:102300000BD1DFF83C81D8F8008048EA0008DFF8FC
:102310003091C9F800800AE075E0DFF82481D8F830
:10232000008028EA0008DFF81891C9F80080D1F889
:10233000048008F40038B8F5003F0ED1DFF80081C2
:1023400008F10408D8F8008048EA0008DFF8F090A7
:1023500009F10409C9F800800DE0DFF8E48008F114
:102360000408D8F8008028EA0008DFF8D49009F1C2
:102370000409C9F80080D1F8048008F48018B8F581
:10238000801F0ED1DFF8B88008F10808D8F8008067
:1023900048EA0008DFF8A89009F10809C9F80080A8
:1023A0000DE0DFF89C8008F10808D8F8008028EAE2
:1023B0000008DFF88C9009F10809C9F80080D1F80D
:1023C000048008F40018B8F5001F0ED1DFF8708003
:1023D00008F10C08D8F8008048EA0008DFF860909F
:1023E00009F10C09C9F800800DE0DFF8548008F10C
:1023F0000C08D8F8008028EA0008DFF8449009F1BA
:102400000C09C9F800805B1CD1F8008028FA03F899
:10241000B8F1000F7FF47CAEBDE8F8870000111022
:102420000010024000080140000C01400010014073
:102430000014014000180140001C01400800014048
:1024400000040140024693680B400BB1012000E0FC
:102450000020704710B5C26821EA020302EA0104B5
:1024600043EA0443036110BD0AB1016101E00B04BA
:1024700003617047014800687047000014000020A5
:102480000348006803490978084401490860704717
:10249000140000201C00002010B50848006840F01F
:1024A000100006490860052000F080F80F2000F0B9
:1024B00007F800F02BF8002010BD000000200240BB
:1024C00070B504460E4800784FF47A71B1FBF0F015
:1024D0000C490968B1FBF0F5284600F05FFC08B133
:1024E000012070BD102C07D200222146501E00F0A2
:1024F0001EF80548046001E00120F2E70020F0E743
:102500001C00002004000020180000207047014635
:102510000846002809DB00F01F0301229A40430906
:102520009B0003F1E023C3F8002100BF70472DE9B1
:10253000F05F80460D461646002701F04BF907462E
:1025400039462A46334601F00700C0F1070ABAF1BE
:10255000040F02D94FF0040A01E0C0F1070AD14686
:1025600000F1040ABAF1070F02D24FF0000A01E0AD
:10257000A0F1030AD4464FF0010A0AFA09FAAAF1B7
:10258000010A0AEA020A0AFA0CFA4FF0010B0BFAE6
:102590000CFBABF1010B0BEA030B4AEA0B042146DF
:1025A000404601F01FF9BDE8F09F000000BF00F0B9
:1025B0000702064B19684FF6FF031940044B0B4303
:1025C00043EA0221014B196000BF70470CED00E0A7
:1025D0000000FA0570B504460D460CB9012070BD27
:1025E0005A48006800F00700A8420ED25748006819
:1025F00020F007002843554908600846006800F0AD
:102600000700A84201D00120E9E7207800F002008D
:1026100002281DD1207800F00400042805D14C4880
:10262000406840F4E0604A494860207800F00800C3
:10263000082805D14648406840F460504449486045
:102640004348406820F0F000A168084340494860D2
:10265000207800F0010078B36068012806D13C487A
:10266000006800F4003090B90120B8E760680228E3
:1026700006D13748006800F0007040B90120AEE78D
:102680003348006800F0020008B90120A7E730488D
:10269000406820F00300616808432D494860FFF757
:1026A000E9FE064609E0FFF7E5FE801B41F28831AE
:1026B000884202D9032092E707E02548406800F0ED
:1026C0000C006168B0EB810FEDD12048006800F08C
:1026D0000700A8420ED91D48006820F007002843D3
:1026E0001A4908600846006800F00700A84201D0B7
:1026F000012074E7207800F00400042807D1144872
:10270000406820F4E060E16808431149486020789F
:1027100000F00800082808D10D48406820F46050F7
:10272000216940EAC1000A49486000F03FF80849C1
:102730004968C1F30311074A515CC8400649086063
:1027400006480068FFF7BCFE002048E70020024072
:10275000001002409E7D00080400002018000020A8
:1027600001480068704700000400002000B5FFF732
:10277000F7FF04494968C1F30221034A515CC8408C
:1027800000BD000000100240AE7D000800B5FFF75C
:10279000E7FF04494968C1F3C221034A515CC840BC
:1027A00000BD000000100240AE7D0008F0B585B00D
:1027B0000FF26C0C9CE8E01001A8A0E8E0101CA54A
:1027C0002D68009500210022002300240020194DCF
:1027D000696801F00C05F5B1042D02D0082D19D15E
:1027E00001E0154819E001ADC1F38346AC5D01F489
:1027F000803555B10F4D6D68C5F340451DF8052076
:102800000D4D6543B5FBF2F302E00C4D04FB05F3FF
:10281000184602E000BF084800BF00BF05B0F0BD89
:1028200002030405060708090A0B0C0D0E0F101011
:10283000010200000010024000127A0000093D0071
:10284000F8B504460CB90120F8BD207800F001006D
:10285000002878D0F848406800F00C0004280CD01C
:10286000F548406800F00C00082811D1F248406893
:1028700000F48030B0F5803F0AD1EF48006800F4E2
:10288000003000285FD0606800285CD10120DBE7C1
:1028900000BF6068B0F5803F06D1E748006840F4AB
:1028A0008030E549086028E0606858B9E24800686F
:1028B00020F48030E04908600846006820F4802059
:1028C00008601AE06068B0F5A02F0BD1DA48006804
:1028D00040F48020D84908600846006840F4803001
:1028E00008600AE0D448006820F48030D2490860CB
:1028F0000846006820F48020086000BF606888B146
:10290000FFF7B8FD054606E0FFF7B4FD401B64285D
:1029100001D9032098E7C848006800F40030002877
:10292000F2D010E0FFF7A6FD054606E0FFF7A2FD96
:10293000401B642801D9032086E7BF48006800F4E3
:1029400000300028F2D1207800F00200022857D190
:10295000B948406800F00C0050B1B748406800F03A
:102960000C00082818D1B448406800F4803098B9A9
:10297000B148006800F0020020B12069012801D0B0
:10298000012061E7AC48006820F0F800616940EA86
:10299000C100A949086033E02069E8B10120A749D6
:1029A0000860FFF767FD054606E0FFF763FD401B83
:1029B000022801D9032047E79F48006800F0020081
:1029C0000028F2D09C48006820F0F800616940EAD5
:1029D000C1009949086013E0002098490860FFF79A
:1029E00049FD054606E0FFF745FD401B022801D9D9
:1029F000032029E79048006800F002000028F2D187
:102A0000207800F0080008282DD1A069B8B1012075
:102A10008B490860FFF72EFD054606E0FFF72AFD0B
:102A2000401B022801D903200EE78348406A00F0CA
:102A300002000028F2D0012000F016FD13E0002073
:102A40007F490860FFF716FD054606E0FFF712FD17
:102A5000401B022801D90320F6E67748406A00F0BF
:102A600002000028F2D1207800F00400042873D17D
:102A700000277148C06900F0805070B900BF6E48EF
:102A8000C06940F080506C49C8610846C06900F0D8
:102A90008050009000BF00BF01276A48006800F422
:102AA0008070B0B96748006840F48070654908607C
:102AB000FFF7E0FC054606E0FFF7DCFC401B64285E
:102AC00001D90320C0E65F48006800F48070002848
:102AD000F2D000BFE068012806D15748006A40F0F4
:102AE00001005549086227E0E06858B95248006A79
:102AF00020F00100504908620846006A20F00400F6
:102B0000086219E0E06805280BD14B48006A40F0E4
:102B10000400494908620846006A40F00100086262
:102B20000AE04548006A20F001004349086208466F
:102B3000006A20F00400086200BFE068A0B1FFF75F
:102B400099FC054609E0FFF795FC401B41F28831EE
:102B5000884202D9032077E622E03748006A00F075
:102B600002000028EFD012E0FFF784FC054608E0E1
:102B7000FFF780FC401B41F28831884201D90320D5
:102B800062E62D48006A00F002000028F0D1012F13
:102B900005D12948C06920F080502749C86100BF8D
:102BA000E069C8B32448406800F00C00082860D0F1
:102BB000E069022848D1002020490866FFF75AFC46
:102BC000054606E0FFF756FC401B022801D903200A
:102BD0003AE61948006800F000700028F2D1206A37
:102BE000B0F5803F07D11448406820F40030A16858
:102BF000084311494860D4E9080108430E4949686F
:102C000021F4741108430C49486001200B490866FF
:102C1000FFF730FC054607E03DE0FFF72BFC401BCB
:102C2000022801D903200FE60348006800F0007075
:102C30000028F2D02FE000000010024000004242C5
:102C40008004424200700040002014490866FFF7EB
:102C500011FC054606E0FFF70DFC401B022801D9D8
:102C60000320F1E50E48006800F000700028F2D162
:102C700011E0E069012800D1E6E50948466806F45C
:102C80008031206A814204D106F47011606A814269
:102C900001D00120D8E50020D6E500000000424226
:102CA0000010024070B504460E4615461CB1A069DE
:102CB000B0F5807F01D1012070BD94F8410028B9A2
:102CC000002084F84000204600F020F804F10801BC
:102CD0002068FFF7E5F83146A2682068FFF71CF985
:102CE0002946236BD4E90102FFF7B8F8A1682068F0
:102CF00050F8210040F00100A268216841F822004C
:102D0000012084F841000020D6E7000010B586B00D
:102D1000044600BF1E48406940F480701C49486169
:102D20000846406900F48070019000BF00BF00BFFA
:102D30000846806940F0200088610846806900F0FC
:102D40002000019000BF00BF00BF0846806940F02E
:102D5000400088610846806900F04000019000BF93
:102D600000BF4CF2037002900220039001200490F7
:102D70000320059002A90748FFF7C4F94FF68070B9
:102D8000029002A90448FFF7BDF906B010BD00008B
:102D900000100240001401400018014070B50446C4
:102DA0002546681EB0F1807F01D301200FE0681E28
:102DB0004FF0E02148610F214FF0FF3000F012FD8D
:102DC00000204FF0E021886107200861002070BDDD
:102DD0007047704710B504460CB9012010BD94F837
:102DE0003D0028B9002084F83C00204600F026F879
:102DF000022084F83D00211D206800F057FB0120CF
:102E000084F8460000BF84F83E0001213F200155B0
:102E1000402001554120015500BF00BF012084F82A
:102E2000420043200155442001554520015500BF73
:102E3000012084F83D000020D0E7000038B50446AA
:102E40000E492068884217D100BF00BF0C48C069F6
:102E500040F010000A49C8610846C06900F010003F
:102E6000009000BF00BF00BF032201213620FFF702
:102E70005EFB3620FFF74BFB38BD00000010004022
:102E800000100240014691F83D00012801D00120C8
:102E90007047022081F83D000868C06840F00100DA
:102EA0000B68D860164B0868984213D0154B086819
:102EB00098420FD00868B0F1804F0BD0124B0868D1
:102EC000984207D0114B0868984203D0104B08680D
:102ED00098420CD10868806800F00702062A0CD0DE
:102EE0000868006840F001000B68186005E0086899
:102EF000006840F001000B6818600020C8E700007F
:102F0000002C014000340140000400400008004053
:102F1000000C0040704710B5044620680069C0F3FB
:102F20004000D8B12068C068C0F34000B0B16FF075
:102F3000020021680861012020772068806900F084
:102F4000030018B12046FFF7E5FF05E0204600F03A
:102F5000ADF8204600F0ABF800202077206800692B
:102F6000C0F38000D8B12068C068C0F38000B0B161
:102F70006FF00400216808610220207720688069D2
:102F800000F4407018B12046FFF7C4FF05E020466A
:102F900000F08CF8204600F08AF8002020772068A6
:102FA0000069C0F3C000D8B12068C068C0F3C00099
:102FB000B0B16FF008002168086104202077206814
:102FC000C06900F0030018B12046FFF7A3FF05E039
:102FD000204600F06BF8204600F069F800202077CA
:102FE00020680069C0F30010D8B12068C068C0F341
:102FF0000010B0B16FF01000216808610820207740
:103000002068C06900F4407018B12046FFF782FFC5
:1030100005E0204600F04AF8204600F048F800207D
:1030200020772068006900F0010058B12068C0686E
:1030300000F0010030B16FF0010021680861204606
:1030400000F036F820680069C0F3C01058B120685D
:10305000C068C0F3C01030B16FF080002168086113
:103060002046FFF7B5FE20680069C0F3801058B114
:103070002068C068C0F3801030B16FF04000216854
:103080000861204600F022F820680069C0F3401073
:1030900058B12068C068C0F3401030B16FF0200014
:1030A000216808612046FFF794FE10BD7047704705
:1030B0000449884204D104490978491C024A117024
:1030C000704700008C3100200000002070477047DE
:1030D0002DE9F0470446206805682068C668206826
:1030E00047694FF00008C14605F00F08B8F1000F1E
:1030F0000AD105F0200038B106F0200020B12046AA
:1031000000F04CFABDE8F087B8F1000F71D007F07D
:10311000010018B906F4907000286AD005F001008B
:1031200030B106F4807018B1E06B40F00100E0634C
:1031300005F0040030B107F0010018B1E06B40F079
:103140000200E06305F0020030B107F0010018B1A1
:10315000E06B40F00400E06305F0080048B106F0C1
:10316000200010B907F0010018B1E06B40F0080032
:10317000E063E06B68B305F0200028B106F02000A2
:1031800010B1204600F00AFA20684069C0F38019A7
:10319000E06B00F0080010B9B9F1000F22D0204612
:1031A00000F0DCF92068406900F04000B0B1206810
:1031B000406920F0400021684861606B50B11848B8
:1031C000616B4863606BFEF7C9FE10B1606B416BC9
:1031D00088470CE02046FFF77AFF08E02046FFF71B
:1031E00076FF04E02046FFF772FF0020E06389E7E6
:1031F000FFE705F0800030B106F0800018B12046EE
:1032000000F09AFA7EE705F0400030B106F0400089
:1032100018B1204600F0B2F974E700BF72E7000071
:103220004935000810B504460CB9012010BDA0694D
:1032300000B100E000BF94F8390028B9002084F8FC
:103240003800204600F028F8242084F8390020684F
:10325000C06820F400502168C860204600F0EEF9F4
:103260002068006920F49040216808612068406966
:1032700020F02A00216848612068C06840F40050AE
:103280002168C8600020E063202084F8390084F8B9
:103290003A000020CAE7000010B586B0044628496D
:1032A000206888424AD100BF00BF2648806940F0AC
:1032B0000400244988610846806900F004000190F8
:1032C00000BF00BF00BF00BF00BF0846806940F0DC
:1032D000040088610846806900F00400019000BF86
:1032E00000BF00BF00BF00BF0846806940F48040B7
:1032F00088610846806900F48040019000BF00BFEB
:1033000000BF481502900220039001200490032082
:10331000059002A90C48FEF7F5FE4FF4806002907C
:103320000020039002A90848FEF7ECFE2520FFF7D5
:10333000EEF8032211462520FFF7F9F806B010BD7C
:1033400000380140001002400008014010B503465B
:1033500093F83A0020282FD101B10AB9012010BDFD
:1033600000BF93F83800012801D10220F7E70120BF
:1033700083F8380000BF99629A85DA850020D86307
:10338000222083F83A0000BF002083F8380000BFF5
:103390001868C06840F480701C68E0601868406974
:1033A00040F001001C6860611868C06840F02000AF
:1033B0001C68E0600020D2E70220D0E710B5044688
:1033C0002049206888423BD11F48008800F4004013
:1033D00088BB1D48008800F4804070B11B4800780D
:1033E0000A2803D000201849088024E016480088E5
:1033F00040F40040144908801DE0144800780D286E
:1034000006D11148008840F480400F49088012E03E
:103410000E4800780C490988C1F30D010C4A50543C
:1034200009480088401C0849088008460088C728C9
:1034300001DD00200880012204490648FFF786FFCD
:1034400010BD0000003801401000002012000020D4
:103450002C300020F4300020704700BFFEE700BF92
:10346000FEE770477047000008B508490968C908B9
:103470004FF47A72B1FBF2F14143009100BF00BFFB
:1034800000994A1E00920029F9D108BD04000020CD
:10349000704710B5FEF7F4FF10BD704710B5024835
:1034A000FFF739FD10BD00008C31002010B5026817
:1034B000204B98420ED0204B98420BD0B0F1804F59
:1034C00008D01E4B984205D01D4B984202D01D4B90
:1034D000984203D122F070024B681A43154B984270
:1034E0000ED0154B98420BD0B0F1804F08D0134B43
:1034F000984205D0124B984202D0124B984203D109
:1035000022F44072CB681A4322F080034C6943EAEC
:10351000040202608B68C3620B688362054B9842A9
:1035200002D0054B984201D10B690363012343612B
:1035300010BD0000002C0140003401400004004098
:1035400000080040000C004070B505466C6A002081
:10355000E085E0842046FFF7BAFD70BD0168C968C8
:1035600021F490710268D1600168496921F001017C
:1035700002685161202180F83A10704710B5044666
:103580002068C06820F040002168C860202084F8CE
:1035900039002046FFF760FF002010BD70B50446DB
:1035A00094F83A00222847D1A068B0F5805F0CD18A
:1035B000206950B90025A66A20684068C0F3080059
:1035C0003080A06A801CA06215E0A56A0026A06871
:1035D000B0F5805F03D0A06828B9206918B92068C9
:1035E0004068287004E02068406800F07F00287080
:1035F000A06A401CA062E08D401E80B2E085C8B980
:103600002068C06820F020002168C8602068C06879
:1036100020F480702168C8602068406920F00100B3
:1036200021684861202084F83A002046FFF7C6FE52
:10363000002070BD0020FCE70220FAE770B50446C8
:103640002168096921F44051E2681143226811613F
:103650002269A1681143626941EA02052168C968CB
:1036600041F20C62914329432268D1602168496983
:1036700021F44071A2691143226851612D4A2168E9
:10368000914202D1FFF782F801E0FFF76FF800EBFB
:10369000C00101EB001162689200B1FBF2F100EB96
:1036A000C00202EB001263689B00B2FBF3F26423DA
:1036B000B2FBF3F202EBC20303EB0212A1EB8201B5
:1036C000322202EB01116422B1FBF2F101F0F001B0
:1036D00000EBC00202EB001263689B00B2FBF3F246
:1036E0006423B2FBF3F201EB021200EBC00101EB29
:1036F000001163689B00B1FBF3F100EBC00303EB27
:1037000000136668B600B3FBF6F36426B3FBF6F36A
:1037100003EBC30606EB0313A1EB8301322303EB98
:1037200001116423B1FBF3F101F00F011144226890
:10373000916070BD00380140014691F839002128A0
:1037400028D18868B0F5805F0BD1086948B90A6A4A
:103750001088C0F308000B685860086A801C086273
:1037600005E00B6A581C086218780B685860C88C12
:10377000401E80B2C88458B90868C06820F0800034
:103780000B68D8600868C06840F040000B68D860DB
:10379000002070470220FCE710B50248FFF798FCB4
:1037A00010BD0000F430002000BFFEE7490050EAE1
:1037B000C12018BF04204A0D18BF40F0010040F29C
:1037C000FF72B2EB515F08BF40F00200012808BF52
:1037D0000520704702480068C0F3022070470000CF
:1037E0000CED00E010B5002804DB0A07130E054AB3
:1037F000135406E00A07140E034A00F00F031B1FC0
:10380000D45410BD00E400E018ED00E030380A2880
:1038100001D2012070470020704700BF70470000B0
:1038200070B505460C4607480749086008464460DD
:1038300000218160C5600161FFF7CCFA0248FFF703
:1038400021FB70BD001000408C3100200149086050
:10385000704700000800002010B504464FF47A714C
:1038600004FB01F000F002F810BD000070B5034643
:1038700000224FF0E02675690D4E366803FB06F412
:103880004FF0E026B16910E04FF0E026B0698842C1
:103890000BD0884202D20E1A324402E02E1A0E4495
:1038A00032440146A24200D300E0EDE700BF70BD04
:1038B0000800002000BF054A126802F04002002AFA
:1038C000F9D0C2B2014B1B1D1A607047003801408D
:1038D00000B585B000BF00BF2848806940F04000B7
:1038E000264988610846806900F04000009000BFCA
:1038F00000BF00BF00BF00BF0846806940F0400025
:1039000088610846806900F04000009000BF00BF59
:1039100000BF00BF00BF0846806940F00400886116
:103920000846806900F00400009000BF00BF00BF9F
:1039300010200190002002900120039003200490A9
:1039400001A90F48FEF7DEFB08200190002002903D
:10395000012003900320049001A90948FEF7D2FB3F
:103960000120019000200290022003900320049087
:1039700001A90448FEF7C6FB05B000BD00100240D7
:10398000001801400008014070B50446002514B13C
:103990000120224908702148007848B310212048AE
:1039A000FEF750FD50B108211D48FEF74BFD28B130
:1039B00001211C48FEF746FD012819D10A20FFF716
:1039C0004BFF00201549087010211548FEF73AFDFD
:1039D00000B9012508211248FEF734FD00B902257F
:1039E00001211048FEF72EFD012815D1032513E013
:1039F00010210B48FEF726FD01280DD108210848AB
:103A0000FEF720FD012807D101210648FEF71AFD27
:103A100010B9012001490870284670BD2800002017
:103A2000001801400008014070B50446002609480E
:103A30000588408845430021084603F055F803F007
:103A4000FBF900BF02E004480480761CAE42FAD3C2
:103A500070BD00007C3100200008006C10B50446E9
:103A600058488471002C58D1F020564908804FF4F2
:103A7000A07048800846808845F21051884210D1D5
:103A80004FF430504F4908814FF4285048814FF48B
:103A90002C5088814FF4F07008804FF448704880B3
:103AA0001AE04848808841F6631188420DD12C20E5
:103AB000444908812B2048812A2088814FF4F070E6
:103AC00008804FF44870488006E02C203D4908816A
:103AD0002A2048812B2088813A48808845F210317D
:103AE000884205D03748808847F29671884206D1CF
:103AF0004FF4A070334908804FF4F070488031488B
:103B0000808849F60601884258D14FF4F0702D495B
:103B100008804FF44870488050E04FF4A070294965
:103B20000880F02048800846808845F2105188427D
:103B300010D14FF43050234908814FF42850488168
:103B40004FF42C5088814FF4487008804FF4F07087
:103B5000488020E01B48808841F66311884205D0E8
:103B60001848808849F6060188420DD12C20154955
:103B700008812A2048812B2088814FF448700880D2
:103B80004FF4F070488006E02C200E4908812A206E
:103B900048812B2088810B48808845F2103188426B
:103BA00005D00848808847F29671884206D14FF4C4
:103BB000F070044908804FF4A0704880002002F0A3
:103BC00075FE10BD7C31002070B505460E461446CA
:103BD0003146284602F088FF03F02EF901490C8097
:103BE00070BD00000008006C10B5CF2003F018F97C
:103BF000002003F009F9C12003F006F9302003F09A
:103C000003F9ED2003F00CF9642003F0FDF8032024
:103C100003F0FAF8122003F0F7F8812003F0F4F82B
:103C2000E82003F0FDF8852003F0EEF8102003F003
:103C3000EBF87A2003F0E8F8CB2003F0F1F8392014
:103C400003F0E2F82C2003F0DFF8002003F0DCF8AA
:103C5000342003F0D9F8022003F0D6F8F72003F05F
:103C6000DFF8202003F0D0F8EA2003F0D9F8002094
:103C700003F0CAF8002003F0C7F8C02003F0D0F822
:103C80001B2003F0C1F8C12003F0CAF8012003F0A3
:103C9000BBF8C52003F0C4F8302003F0B5F830209D
:103CA00003F0B2F8C72003F0BBF8B72003F0ACF87C
:103CB000362003F0B5F8482003F0A6F83A2003F0C8
:103CC000AFF8552003F0A0F8B12003F0A9F80020C8
:103CD00003F09AF81A2003F097F8B62003F0A0F842
:103CE0000A2003F091F8A22003F08EF8F22003F0EE
:103CF00097F8002003F088F8262003F091F80120BF
:103D000003F082F8E02003F08BF80F2003F07CF83A
:103D10002A2003F079F8282003F076F8082003F031
:103D200073F80E2003F070F8082003F06DF85420AB
:103D300003F06AF8A92003F067F8432003F064F861
:103D40000A2003F061F80F2003F05EF8002003F072
:103D50005BF8002003F058F8002003F055F800202D
:103D600003F052F8E12003F05BF8002003F04CF878
:103D7000152003F049F8172003F046F8072003F058
:103D800043F8112003F040F8062003F03DF82B2003
:103D900003F03AF8562003F037F83C2003F034F8EB
:103DA000052003F031F8102003F02EF80F2003F067
:103DB0002BF83F2003F028F83F2003F025F80F20D0
:103DC00003F022F82B2003F02BF8002003F01CF85E
:103DD000002003F019F8012003F016F83F2003F04B
:103DE00013F82A2003F01CF8002003F00DF800203F
:103DF00003F00AF8002003F007F8EF2003F004F8BE
:103E0000112003F00DF87820FFF726FD292003F09C
:103E100007F810BD10B5FF2003F002F8FF2002F0F4
:103E2000F3FF982002F0F0FF062002F0EDFFBC2027
:103E300002F0F6FF012002F0E7FF0F2002F0E4FF9E
:103E4000612002F0E1FFFF2002F0DEFF012002F01E
:103E5000DBFF012002F0D8FF0B2002F0D5FF10207D
:103E600002F0D2FF372002F0CFFF632002F0CCFF38
:103E7000FF2002F0C9FFFF2002F0C6FF012002F080
:103E8000C3FF012002F0C0FF002002F0BDFF0020B0
:103E900002F0BAFFFF2002F0B7FF522002F0B4FF99
:103EA000012002F0B1FF002002F0AEFF402002F03E
:103EB000ABFFBD2002F0B4FF012002F0A5FF2320DC
:103EC00002F0A2FF452002F09FFF672002F09CFF56
:103ED000012002F099FF232002F096FF452002F016
:103EE00093FF672002F090FFBE2002F099FF0020B0
:103EF00002F08AFF012002F087FFAB2002F084FF6E
:103F0000602002F081FF222002F07EFF222002F0DA
:103F10007BFF222002F078FF222002F075FF222092
:103F200002F072FFC72002F07BFF362002F06CFF28
:103F3000ED2002F075FF7F2002F066FF0F2002F0F7
:103F400063FFC02002F06CFF0F2002F05DFF0B202A
:103F500002F05AFF0A2002F057FFFC2002F060FF37
:103F6000082002F051FFDF2002F05AFF002002F08B
:103F70004BFF002002F048FF002002F045FF002028
:103F800002F042FF002002F03FFF202002F03CFF41
:103F9000F32002F045FF742002F036FFB42002F057
:103FA0003FFF002002F030FF002002F02DFF002034
:103FB00002F02AFFF72002F033FF822002F024FFF4
:103FC000B12002F02DFF002002F01EFF132002F0AE
:103FD0001BFF132002F018FFF22002F021FF8020C7
:103FE00002F012FF042002F00FFF402002F00CFF4D
:103FF000282002F009FFC12002F012FF172002F072
:1040000003FF882002F000FF882002F0FDFE202040
:1040100002F0FAFEE02002F003FF002002F0F4FEBE
:104020000A2002F0F1FE122002F0EEFE102002F053
:10403000EBFE0E2002F0E8FE202002F0E5FECC2090
:1040400002F0E2FE072002F0DFFE062002F0DCFEB6
:104050000B2002F0D9FE0E2002F0D6FE0F2002F057
:10406000D3FE0D2002F0D0FE152002F0CDFE102070
:1040700002F0CAFE002002F0C7FEE12002F0D0FEEE
:10408000002002F0C1FE0B2002F0BEFE132002F061
:10409000BBFE0D2002F0B8FE0E2002F0B5FE1B2084
:1040A00002F0B2FE712002F0AFFE062002F0ACFE7C
:1040B000062002F0A9FE0A2002F0A6FE0F2002F060
:1040C000A3FE0E2002F0A0FE0F2002F09DFE1520A0
:1040D00002F09AFE0C2002F097FE002002F094FEFF
:1040E0002A2002F09DFE002002F08EFE002002F049
:1040F0008BFE012002F088FEDF2002F085FE2B20DF
:1041000002F08EFE002002F07FFE002002F07CFE16
:10411000032002F079FE1F2002F076FE3A2002F022
:104120007FFE552002F070FE362002F079FE00205E
:1041300002F06AFE112002F073FE7820FFF78CFB7C
:10414000292002F06DFE1420FFF786FB2C2002F0E0
:1041500067FE10BD10B5ED2002F062FE012002F0F6
:1041600053FEFE2002F050FEEE2002F059FEDE204B
:1041700002F04AFE212002F047FEF12002F050FE3C
:10418000012002F041FEDF2002F04AFE102002F082
:104190003BFEC42002F044FE8F2002F035FEC62014
:1041A00002F03EFE002002F02FFEE22002F02CFE84
:1041B000E22002F029FEE22002F026FEBF2002F0FB
:1041C0002FFEAA2002F020FEB02002F029FE0D20D2
:1041D00002F01AFE002002F017FE0D2002F014FE7D
:1041E000002002F011FE112002F00EFE002002F06D
:1041F0000BFE192002F008FE002002F005FE21202F
:1042000002F002FE002002F0FFFD2D2002F0FCFD76
:10421000002002F0F9FD3D2002F0F6FD002002F042
:10422000F3FD5D2002F0F0FD002002F0EDFD5D20C9
:1042300002F0EAFD002002F0E7FDB12002F0F0FDFF
:10424000802002F0E1FD002002F0DEFD8B2002F074
:10425000DBFD002002F0D8FD962002F0D5FD002005
:1042600002F0D2FDB22002F0DBFD002002F0CCFD16
:10427000002002F0C9FD022002F0C6FD002002F07D
:10428000C3FD032002F0C0FD002002F0BDFDB320FD
:1042900002F0C6FD002002F0B7FD002002F0B4FDE0
:1042A000002002F0B1FD002002F0AEFD002002F07F
:1042B000ABFD002002F0A8FD002002F0A5FD0020CB
:1042C00002F0A2FD002002F09FFD002002F09CFD04
:1042D000002002F099FD002002F096FD002002F07F
:1042E00093FD002002F090FD002002F08DFD0020E3
:1042F00002F08AFD002002F087FD002002F084FD1C
:10430000002002F081FD002002F07EFD002002F07E
:104310007BFD002002F078FD002002F075FD0020FA
:1043200002F072FDB42002F07BFD8B2002F06CFDE8
:10433000002002F069FD962002F066FD002002F0E8
:1043400063FDA12002F060FD002002F05DFDB520BC
:1043500002F066FD022002F057FD002002F054FD3D
:10436000032002F051FD002002F04EFD042002F077
:104370004BFD002002F048FDB62002F051FD002068
:1043800002F042FD002002F03FFDB72002F048FDA0
:10439000002002F039FD002002F036FD3F2002F03F
:1043A00033FD002002F030FD5E2002F02DFD0020E4
:1043B00002F02AFD642002F027FD002002F024FD17
:1043C0008C2002F021FD002002F01EFDAC2002F046
:1043D0001BFD002002F018FDDC2002F015FD00207E
:1043E00002F012FD702002F00FFD002002F00CFD23
:1043F000902002F009FD002002F006FDEB2002F003
:1044000003FD002002F000FDDC2002F0FDFC002096
:1044100002F0FAFCB82002F003FD002002F0F4FCE8
:10442000002002F0F1FC002002F0EEFC002002F07F
:10443000EBFC002002F0E8FC002002F0E5FC00208C
:1044400002F0E2FC002002F0DFFCBA2002F0E8FCFF
:10445000242002F0D9FC002002F0D6FC002002F05B
:10446000D3FC002002F0D0FCC12002F0D9FC2020B7
:1044700002F0CAFC002002F0C7FC542002F0C4FC89
:10448000002002F0C1FCFF2002F0BEFC002002F080
:10449000BBFCC22002F0C4FC0A2002F0B5FC0020E4
:1044A00002F0B2FC042002F0AFFC002002F0ACFCF1
:1044B000C32002F0B5FC3C2002F0A6FC002002F074
:1044C000A3FC3A2002F0A0FC002002F09DFC392061
:1044D00002F09AFC002002F097FC372002F094FCD6
:1044E000002002F091FC3C2002F08EFC002002F043
:1044F0008BFC362002F088FC002002F085FC322084
:1045000002F082FC002002F07FFC2F2002F07CFCF5
:10451000002002F079FC2C2002F076FC002002F052
:1045200073FC292002F070FC002002F06DFC2620B4
:1045300002F06AFC002002F067FC242002F064FC18
:10454000002002F061FC242002F05EFC002002F05A
:104550005BFC232002F058FC002002F055FC3C20BC
:1045600002F052FC002002F04FFC362002F04CFC1E
:10457000002002F049FC322002F046FC002002F04C
:1045800043FC2F2002F040FC002002F03DFC2C20D8
:1045900002F03AFC002002F037FC292002F034FC43
:1045A000002002F031FC262002F02EFC002002F058
:1045B0002BFC242002F028FC002002F025FC242003
:1045C00002F022FC002002F01FFC232002F01CFC61
:1045D000002002F019FCC42002F022FC622002F04C
:1045E00013FC002002F010FC052002F00DFC00205E
:1045F00002F00AFC842002F007FC002002F004FC18
:10460000F02002F001FC002002F0FEFB182002F076
:10461000FBFB002002F0F8FBA42002F0F5FB0020D9
:1046200002F0F2FB182002F0EFFB002002F0ECFB9E
:10463000502002F0E9FB002002F0E6FB0C2002F023
:10464000E3FB002002F0E0FB172002F0DDFB00207E
:1046500002F0DAFB952002F0D7FB002002F0D4FB39
:10466000F32002F0D1FB002002F0CEFBE62002F0A6
:10467000CBFB002002F0C8FBC52002F0D1FB3220AA
:1046800002F0C2FB002002F0BFFB442002F0BCFBA2
:10469000002002F0B9FB652002F0B6FB002002F01A
:1046A000B3FB762002F0B0FB002002F0ADFB8820C7
:1046B00002F0AAFB002002F0A7FBC62002F0B0FB2C
:1046C000202002F0A1FB002002F09EFB172002F048
:1046D0009BFB002002F098FB012002F095FB0020DC
:1046E00002F092FBC72002F09BFB002002F08CFB43
:1046F000002002F089FB002002F086FB002002F07F
:1047000083FBC82002F08CFB002002F07DFB002020
:1047100002F07AFB002002F077FB002002F074FB2D
:10472000C92002F07DFB002002F06EFB002002F0A9
:104730006BFB002002F068FB002002F065FB00200C
:1047400002F062FB002002F05FFB002002F05CFB45
:10475000002002F059FB002002F056FB002002F07E
:1047600053FB002002F050FB002002F04DFB002024
:1047700002F04AFB002002F047FB002002F044FB5D
:10478000002002F041FBE02002F04AFB162002F07C
:104790003BFB002002F038FB1C2002F035FB002020
:1047A00002F032FB212002F02FFB002002F02CFB54
:1047B000362002F029FB002002F026FB462002F002
:1047C00023FB002002F020FB522002F01DFB002002
:1047D00002F01AFB642002F017FB002002F014FB29
:1047E0007A2002F011FB002002F00EFB8B2002F079
:1047F0000BFB002002F008FB992002F005FB0020D3
:1048000002F002FBA82002F0FFFA002002F0FCFAFE
:10481000B92002F0F9FA002002F0F6FAC42002F002
:10482000F3FA002002F0F0FACA2002F0EDFA0020BC
:1048300002F0EAFAD22002F0E7FA002002F0E4FAED
:10484000D92002F0E1FA002002F0DEFAE02002F0C6
:10485000DBFA002002F0D8FAF32002F0D5FA0020AB
:1048600002F0D2FAE12002F0DBFA162002F0CCFAD4
:10487000002002F0C9FA1C2002F0C6FA002002F063
:10488000C3FA222002F0C0FA002002F0BDFA36205E
:1048900002F0BAFA002002F0B7FA452002F0B4FAAA
:1048A000002002F0B1FA522002F0AEFA002002F02D
:1048B000ABFA642002F0A8FA002002F0A5FA7A20F0
:1048C00002F0A2FA002002F09FFA8B2002F09CFA7C
:1048D000002002F099FA992002F096FA002002F0E6
:1048E00093FAA82002F090FA002002F08DFAB92085
:1048F00002F08AFA002002F087FAC42002F084FA5B
:10490000002002F081FACA2002F07EFA002002F0B4
:104910007BFAD22002F078FA002002F075FAD82053
:1049200002F072FA002002F06FFAE02002F06CFA56
:10493000002002F069FAF32002F066FA002002F08B
:1049400063FAE22002F06CFA052002F05DFA002022
:1049500002F05AFA0B2002F057FA002002F054FA43
:104960001B2002F051FA002002F04EFA342002F02F
:104970004BFA002002F048FA442002F045FA0020E9
:1049800002F042FA4F2002F03FFA002002F03CFA17
:10499000612002F039FA002002F036FA792002F0A4
:1049A00033FA002002F030FA882002F02DFA0020BD
:1049B00002F02AFA972002F027FA002002F024FAE7
:1049C000A62002F021FA002002F01EFAB72002F021
:1049D0001BFA002002F018FAC22002F015FA00209B
:1049E00002F012FAC72002F00FFA002002F00CFACF
:1049F000D12002F009FA002002F006FAD62002F0D7
:104A000003FA002002F000FADD2002F0FDF9002098
:104A100002F0FAF9F32002F0F7F9002002F0F4F9BD
:104A2000E32002F0FDF9052002F0EEF9002002F08B
:104A3000EBF90A2002F0E8F9002002F0E5F91C2069
:104A400002F0E2F9002002F0DFF9332002F0DCF995
:104A5000002002F0D9F9442002F0D6F9002002F03B
:104A6000D3F9502002F0D0F9002002F0CDF96220F5
:104A700002F0CAF9002002F0C7F9782002F0C4F968
:104A8000002002F0C1F9882002F0BEF9002002F0F7
:104A9000BBF9972002F0B8F9002002F0B5F9A62082
:104AA00002F0B2F9002002F0AFF9B72002F0ACF941
:104AB000002002F0A9F9C22002F0A6F9002002F0BD
:104AC000A3F9C72002F0A0F9002002F09DF9D1203F
:104AD00002F09AF9002002F097F9D52002F094F93B
:104AE000002002F091F9DD2002F08EF9002002F0A2
:104AF0008BF9F32002F088F9002002F085F9E42018
:104B000002F08EF9012002F07FF9002002F07CF91A
:104B1000012002F079F9002002F076F9022002F07B
:104B200073F9002002F070F92A2002F06DF90020DC
:104B300002F06AF93C2002F067F9002002F064F903
:104B40004B2002F061F9002002F05EF95D2002F0D6
:104B50005BF9002002F058F9742002F055F90020AA
:104B600002F052F9842002F04FF9002002F04CF9D3
:104B7000932002F049F9002002F046F9A22002F049
:104B800043F9002002F040F9B32002F03DF9002083
:104B900002F03AF9BE2002F037F9002002F034F9B1
:104BA000C42002F031F9002002F02EF9CD2002F0ED
:104BB0002BF9002002F028F9D32002F025F900207B
:104BC00002F022F9DD2002F01FF9002002F01CF9AA
:104BD000F32002F019F9002002F016F9E52002F0A6
:104BE0001FF9002002F010F9002002F00DF900205A
:104BF00002F00AF9002002F007F9022002F004F99D
:104C0000002002F001F9292002F0FEF8002002F055
:104C1000FBF83C2002F0F8F8002002F0F5F84B20F9
:104C200002F0F2F8002002F0EFF85D2002F0ECF85C
:104C3000002002F0E9F8742002F0E6F8002002F00B
:104C4000E3F8842002F0E0F8002002F0DDF8932081
:104C500002F0DAF8002002F0D7F8A22002F0D4F82F
:104C6000002002F0D1F8B32002F0CEF8002002F0CC
:104C7000CBF8BE2002F0C8F8002002F0C5F8C4202E
:104C800002F0C2F8002002F0BFF8CD2002F0BCF81C
:104C9000002002F0B9F8D32002F0B6F8002002F0AC
:104CA000B3F8DC2002F0B0F8002002F0ADF8F320F9
:104CB00002F0AAF8002002F0A7F8E62002F0B0F80F
:104CC000112002F0A1F8002002F09EF8342002F03A
:104CD0009BF8002002F098F8562002F095F800208A
:104CE00002F092F8762002F08FF8002002F08CF8A3
:104CF000772002F089F8002002F086F8662002F0A2
:104D000083F8002002F080F8882002F07DF800206F
:104D100002F07AF8992002F077F8002002F074F897
:104D2000BB2002F071F8002002F06EF8992002F02A
:104D30006BF8002002F068F8662002F065F80020A9
:104D400002F062F8552002F05FF8002002F05CF8F3
:104D5000552002F059F8002002F056F8452002F0E4
:104D600053F8002002F050F8432002F04DF80020E4
:104D700002F04AF8442002F047F8002002F044F81C
:104D8000E72002F04DF8322002F03EF8002002F059
:104D90003BF8552002F038F8002002F035F8762074
:104DA00002F032F8002002F02FF8662002F02CF812
:104DB000002002F029F8672002F026F8002002F017
:104DC00023F8672002F020F8002002F01DF8872069
:104DD00002F01AF8002002F017F8992002F014F8F7
:104DE000002002F011F8BB2002F00EF8002002F0C3
:104DF0000BF8992002F008F8002002F005F877205F
:104E000002F002F8002001F0FFFF442001F0FCFF57
:104E1000002001F0F9FF562001F0F6FF002001F01C
:104E2000F3FF232001F0F0FF002001F0EDFF33201D
:104E300001F0EAFF002001F0E7FF452001F0E4FF68
:104E4000002001F0E1FFE82001F0EAFF002001F07E
:104E5000DBFF002001F0D8FF992001F0D5FF0020F2
:104E600001F0D2FF872001F0CFFF002001F0CCFF3E
:104E7000882001F0C9FF002001F0C6FF772001F073
:104E8000C3FF002001F0C0FF662001F0BDFF00203D
:104E900001F0BAFF882001F0B7FF002001F0B4FF55
:104EA000AA2001F0B1FF002001F0AEFFBB2001F00D
:104EB000ABFF002001F0A8FF992001F0A5FF002022
:104EC00001F0A2FF662001F09FFF002001F09CFF8F
:104ED000552001F099FF002001F096FF552001F0C8
:104EE00093FF002001F090FF442001F08DFF00208F
:104EF00001F08AFF442001F087FF002001F084FFC9
:104F0000552001F081FF002001F07EFFE92001F033
:104F100087FFAA2001F078FF002001F075FF002034
:104F200001F072FF002001F06FFF002001F078FF18
:104F3000AA2001F069FFCF2001F072FF002001F0EC
:104F400063FF002001F060FF002001F05DFF002002
:104F500001F05AFF002001F057FF002001F054FF3C
:104F6000002001F051FF002001F04EFF002001F071
:104F70004BFF002001F048FF002001F045FF00201A
:104F800001F042FF002001F03FFF002001F03CFF54
:104F9000002001F039FF002001F036FF002001F071
:104FA00033FFF02001F03CFF002001F02DFF5020E6
:104FB00001F02AFF002001F027FF002001F024FF6C
:104FC000002001F021FFF32001F02AFF002001F072
:104FD0001BFFF92001F024FF062001F015FF10202F
:104FE00001F012FF292001F00FFF002001F00CFF5B
:104FF0003A2001F015FF552001F006FF112001F0C5
:105000000FFF6420FEF728FC292001F009FF35205E
:1050100001F006FF002001F0F7FE512001F000FF33
:10502000FF2001F0F1FE532001F0FAFE2C2001F0E8
:10503000EBFE552001F0F4FE822001F0E5FE2C206D
:1050400001F0EEFE10BD10B555214FF4704001F097
:10505000FDFEAA214FF2010001F0F8FE52214FF2AD
:10506000020001F0F3FE08214FF2030001F0EEFE12
:1050700001214FF2040001F0E9FE0D214FF4304010
:1050800001F0E4FE0D214BF2010001F0DFFE0D21E5
:105090004BF2020001F0DAFE34214FF4364001F009
:1050A000D5FE34214BF2016001F0D0FE34214BF2E9
:1050B000026001F0CBFE0D214FF4314001F0C6FE3D
:1050C0000D214BF2011001F0C1FE0D214BF2021037
:1050D00001F0BCFE34214FF4374001F0B7FE34211B
:1050E0004BF2017001F0B2FE34214BF2027001F07C
:1050F000ADFE00214FF4324001F0A8FE00214BF23A
:10510000012001F0A3FE00214BF2022001F09EFEDF
:1051100024214FF4384001F099FE24214BF6010080
:1051200001F094FE24214BF6020001F08FFE0121D4
:105130004FF43F4001F08AFE0F214FF4334001F05D
:1051400085FE0F214BF2013001F080FE0F214BF262
:10515000023001F07BFE34214FF4394001F076FE3D
:1051600034214BF6011001F071FE34214BF6021090
:1051700001F06CFE08214FF4354001F067FE082174
:105180004BF2015001F062FE08214BF2025001F097
:105190005DFE03214FF4424001F058FE24214FF4FC
:1051A0003A4001F053FE24214BF6012001F04EFE5F
:1051B00024214BF6022001F049FE00214FF43C402F
:1051C00001F044FE78214BF6014001F03FFE002142
:1051D0004BF6024001F03AFE00214FF43D4001F051
:1051E00035FE78214BF6015001F030FE00214BF6E0
:1051F000025001F02BFE00214FF43E4001F026FE4C
:1052000064214BF6016001F021FE00214FF4514072
:1052100001F01CFE33214DF2011001F017FE0021B8
:105220004DF2021001F012FE34214DF2031001F094
:105230000DFE00214DF2041001F008FE3A214DF25E
:10524000051001F003FE00214DF2061001F0FEFDF5
:105250004A214DF2071001F0F9FD00214DF208102E
:1052600001F0F4FD5C214DF2091001F0EFFD002189
:105270004DF20A1001F0EAFD81214DF20B1001F010
:10528000E5FD00214DF20C1001F0E0FDA6214DF2EC
:105290000D1001F0DBFD00214DF20E1001F0D6FDE6
:1052A000E5214DF20F1001F0D1FD01214DF210105A
:1052B00001F0CCFD13214DF2111001F0C7FD0121C9
:1052C0004DF2121001F0C2FD54214DF2131001F005
:1052D000BDFD01214DF2141001F0B8FD82214DF207
:1052E000151001F0B3FD01214DF2161001F0AEFDD5
:1052F000CA214DF2171001F0A9FD02214DF218103C
:1053000001F0A4FD00214DF2191001F09FFD0221D2
:105310004DF21A1001F09AFD01214DF21B1001F01F
:1053200095FD02214DF21C1001F090FD34214DF24B
:105330001D1001F08BFD02214DF21E1001F086FDC3
:1053400067214DF21F1001F081FD02214DF2201066
:1053500001F07CFD84214DF2211001F077FD022146
:105360004DF2221001F072FDA4214DF2231001F044
:105370006DFD02214DF2241001F068FDB7214DF2C0
:10538000251001F063FD02214DF2261001F05EFDB3
:10539000CF214DF2271001F059FD02214DF22810C6
:1053A00001F054FDDE214DF2291001F04FFD0221E4
:1053B0004DF22A1001F04AFDF2214DF22B1001F0BE
:1053C00045FD02214DF22C1001F040FDFE214DF271
:1053D0002D1001F03BFD03214DF22E1001F036FDA2
:1053E00010214DF22F1001F031FD03214DF230104C
:1053F00001F02CFD33214DF2311001F027FD032186
:105400004DF2321001F022FD6D214DF2331001F00A
:105410001DFD00214FF4524001F018FD33214DF2E3
:10542000012001F013FD00214DF2022001F00EFDDC
:1054300034214DF2032001F009FD00214DF204203A
:1054400001F004FD3A214DF2052001F0FFFC00219E
:105450004DF2062001F0FAFC4A214DF2072001F03E
:10546000F5FC00214DF2082001F0F0FC5C214DF22A
:10547000092001F0EBFC00214DF20A2001F0E6FCCE
:1054800081214DF20B2001F0E1FC00214DF20C20B6
:1054900001F0DCFCA6214DF20D2001F0D7FC00212B
:1054A0004DF20E2001F0D2FCE5214DF20F2001F06B
:1054B000CDFC01214DF2102001F0C8FC13214DF26A
:1054C000112001F0C3FC01214DF2122001F0BEFCBD
:1054D00054214DF2132001F0B9FC01214DF21420AA
:1054E00001F0B4FC82214DF2152001F0AFFC012146
:1054F0004DF2162001F0AAFCCA214DF2172001F04E
:10550000A5FC02214DF2182001F0A0FC00214DF273
:10551000192001F09BFC02214DF21A2001F096FCAB
:1055200001214DF21B2001F091FC02214DF21C20C3
:1055300001F08CFC34214DF21D2001F087FC02218A
:105540004DF21E2001F082FC67214DF21F2001F078
:105550007DFC02214DF2202001F078FC84214DF2E7
:10556000212001F073FC02214DF2222001F06EFC9B
:10557000A4214DF2232001F069FC02214DF22420E8
:1055800001F064FCB7214DF2252001F05FFC0221FF
:105590004DF2262001F05AFCCF214DF2272001F0D8
:1055A00055FC02214DF2282001F050FCDE214DF285
:1055B000292001F04BFC02214DF22A2001F046FC8B
:1055C000F2214DF22B2001F041FC02214DF22C2062
:1055D00001F03CFCFE214DF22D2001F037FC0321AF
:1055E0004DF22E2001F032FC10214DF22F2001F05F
:1055F0002DFC03214DF2302001F028FC33214DF227
:10560000312001F023FC03214DF2322001F01EFC79
:105610006D214DF2332001F019FC00214FF453406D
:1056200001F014FC33214DF2013001F00FFC002198
:105630004DF2023001F00AFC34214DF2033001F04A
:1056400005FC00214DF2043001F000FC3A214DF23E
:10565000053001F0FBFB00214DF2063001F0F6FBB6
:105660004A214DF2073001F0F1FB00214DF20830E4
:1056700001F0ECFB5C214DF2093001F0E7FB002169
:105680004DF20A3001F0E2FB81214DF20B3001F0C6
:10569000DDFB00214DF20C3001F0D8FBA6214DF2CC
:1056A0000D3001F0D3FB00214DF20E3001F0CEFBA6
:1056B000E5214DF20F3001F0C9FB01214DF2103010
:1056C00001F0C4FB13214DF2113001F0BFFB0121A9
:1056D0004DF2123001F0BAFB54214DF2133001F0BB
:1056E000B5FB01214DF2143001F0B0FB82214DF2E7
:1056F000153001F0ABFB01214DF2163001F0A6FB95
:10570000CA214DF2173001F0A1FB02214DF21830F1
:1057100001F09CFB00214DF2193001F097FB0221B2
:105720004DF21A3001F092FB01214DF21B3001F0D5
:105730008DFB02214DF21C3001F088FB34214DF22B
:105740001D3001F083FB02214DF21E3001F07EFB83
:1057500067214DF21F3001F079FB02214DF220301C
:1057600001F074FB84214DF2213001F06FFB022126
:105770004DF2223001F06AFBA4214DF2233001F0FA
:1057800065FB02214DF2243001F060FBB7214DF2A0
:10579000253001F05BFB02214DF2263001F056FB73
:1057A000CF214DF2273001F051FB02214DF228307C
:1057B00001F04CFBDE214DF2293001F047FB0221C4
:1057C0004DF22A3001F042FBF2214DF22B3001F074
:1057D0003DFB02214DF22C3001F038FBFE214DF251
:1057E0002D3001F033FB03214DF22E3001F02EFB62
:1057F00010214DF22F3001F029FB03214DF2303002
:1058000001F024FB33214DF2313001F01FFB032165
:105810004DF2323001F01AFB6D214DF2333001F0C0
:1058200015FB00214FF4544001F010FB33214DF2E1
:10583000014001F00BFB00214DF2024001F006FB9C
:1058400034214DF2034001F001FB00214DF20440F0
:1058500001F0FCFA3A214DF2054001F0F7FA00217F
:105860004DF2064001F0F2FA4A214DF2074001F0F4
:10587000EDFA00214DF2084001F0E8FA5C214DF20A
:10588000094001F0E3FA00214DF20A4001F0DEFA8E
:1058900081214DF20B4001F0D9FA00214DF20C406C
:1058A00001F0D4FAA6214DF20D4001F0CFFA00210B
:1058B0004DF20E4001F0CAFAE5214DF20F4001F021
:1058C000C5FA01214DF2104001F0C0FA13214DF24A
:1058D000114001F0BBFA01214DF2124001F0B6FA7D
:1058E00054214DF2134001F0B1FA01214DF2144060
:1058F00001F0ACFA82214DF2154001F0A7FA012126
:105900004DF2164001F0A2FACA214DF2174001F003
:105910009DFA02214DF2184001F098FA00214DF253
:10592000194001F093FA02214DF21A4001F08EFA6B
:1059300001214DF21B4001F089FA02214DF21C4079
:1059400001F084FA34214DF21D4001F07FFA02216A
:105950004DF21E4001F07AFA67214DF21F4001F02E
:1059600075FA02214DF2204001F070FA84214DF2C7
:10597000214001F06BFA02214DF2224001F066FA5B
:10598000A4214DF2234001F061FA02214DF224409E
:1059900001F05CFAB7214DF2254001F057FA0221DF
:1059A0004DF2264001F052FACF214DF2274001F08E
:1059B0004DFA02214DF2284001F048FADE214DF265
:1059C000294001F043FA02214DF22A4001F03EFA4B
:1059D000F2214DF22B4001F039FA02214DF22C4018
:1059E00001F034FAFE214DF22D4001F02FFA03218F
:1059F0004DF22E4001F02AFA10214DF22F4001F015
:105A000025FA03214DF2304001F020FA33214DF206
:105A1000314001F01BFA03214DF2324001F016FA39
:105A20006D214DF2334001F011FA00214FF4554041
:105A300001F00CFA33214DF2015001F007FA002178
:105A40004DF2025001F002FA34214DF2035001F000
:105A5000FDF900214DF2045001F0F8F93A214DF220
:105A6000055001F0F3F900214DF2065001F0EEF976
:105A70004A214DF2075001F0E9F900214DF208509A
:105A800001F0E4F95C214DF2095001F0DFF9002149
:105A90004DF20A5001F0DAF981214DF20B5001F07C
:105AA000D5F900214DF20C5001F0D0F9A6214DF2AC
:105AB0000D5001F0CBF900214DF20E5001F0C6F966
:105AC000E5214DF20F5001F0C1F901214DF21050C6
:105AD00001F0BCF913214DF2115001F0B7F9012189
