:020000040800F2
:10000000F0220020610F0008990300089B030008FC
:100010009F030008A3030008A703000800000000D6
:10002000000000000000000000000000AB0300081A
:10003000AD03000800000000AF030008B103000892
:100040007B0F00087B0F00087B0F00087B0F000868
:100050007B0F00087B0F00087B0F00087B0F000858
:100060007B0F00087B0F00087B0F00087B0F000848
:100070007B0F00087B0F00087B0F00087B0F000838
:100080007B0F00087B0F00087B0F00087B0F000828
:100090007B0F00087B0F00087B0F00087B0F000818
:1000A0007B0F00087B0F00087B0F00087B0F000808
:1000B0007B0F00087B0F00087B0F00087B0F0008F8
:1000C0007B0F00087B0F00087B0F00087B0F0008E8
:1000D0007B0F0008D70E00087B0F00087B0F00087D
:1000E0007B0F00087B0F00087B0F00087B0F0008C8
:1000F0007B0F00087B0F00087B0F00087B0F0008B8
:100100007B0F00087B0F00087B0F00087B0F0008A7
:100110007B0F00087B0F00087B0F00087B0F000897
:100120007B0F00087B0F00087B0F00087B0F000887
:100130007B0F00087B0F00087B0F00087B0F000877
:100140007B0F00087B0F00087B0F00087B0F000867
:100150007B0F00087B0F00087B0F00087B0F000857
:100160007B0F00087B0F00087B0F00087B0F000847
:100170007B0F00087B0F00087B0F00087B0F000837
:100180007B0F00087B0F0008DFF80CD003F028FA83
:10019000004800476B020008F022002070B52DEDEA
:1001A0000A8B00245CE06B4830F8240005B26A48F2
:1001B00050F82400061400EE105AB8EEC00ADFED25
:1001C000670A20EE200ADFED660A80EE209A00EE34
:1001D000106AB8EEC00ADFED610A20EE200ADFEDFA
:1001E000600AC0EE208A29EE090A08EEA80A10EE7D
:1001F000101A084603F09FF841EC1C0BB0EE4C0AB5
:10020000F0EE6C0A03F04CFAB0EE40BAF0EE60BAD1
:100210009FED540B53EC102B51EC1B0B03F01CF80F
:1002200041EC1A0B03F09AF808EE100A5CB99FED46
:100230004C0A28EE000ABCEEC00A10EE100A4B4928
:1002400041F824000AE09FED4A0A28EE000ABCEEBD
:10025000C00A10EE100A454941F82400601C84B21F
:10026000802CA0DBBDEC0A8B70BDA82000F052FDF5
:100270004FF4E13000F0DDFD3EA003F001FA4FF451
:100280000371042000F09EF900F0BEF90A2000F08E
:10029000A3FD5DE000F030FA00203949088019E044
:1002A00038483749098830F81100A0F5006000048B
:1002B0002849334A128841F822003248304A1288CD
:1002C00030F8121030A003F0DBF92D480088401CF4
:1002D0002B4908802A480088FF28E1DD4FF480720E
:1002E0001C491D4800F026FA0020254908800EE030
:1002F00019482349098850F821202148018824A061
:1003000003F0BEF91E480088401C1D4908801C48A7
:1003100000888028ECDBFFF741FF002018490880A7
:100320000EE012481649098850F821201448018827
:1003300017A003F0A5F912480088401C1049088056
:100340000F4800888028ECDB41F2883000F044FD43
:10035000A0E700002810002028140020000080439F
:10036000000000470000000000007040281A002034
:1003700000008047537461727420210D0A00000050
:10038000F00F0020281C002025640D0A000000004A
:1003900025643A25640D0A00704700BFFEE700BFE0
:1003A000FEE700BFFEE700BFFEE7704770477047FB
:1003B000704700000CB5002001900090764800685E
:1003C00040F480307449086000BF7348006800F44E
:1003D000003000900198401C0190009818B90198D5
:1003E000B0F5A04FF1D16C48006800F4003010B1B6
:1003F0000120009001E0002000900098012846D1E3
:1004000065484030006840F08050634940310860E2
:100410006248006840F44040604908605E48083027
:1004200000685D49083108600846006840F40040F3
:1004300008600846006840F4A05008605848091F4A
:100440000860081F006840F08070091F086000BF46
:100450005148006800F000700028F9D040F20570A3
:10046000504908604C480830006820F003004A49B1
:10047000083108600846006840F00200086000BFCC
:1004800045480830006800F00C000828F8D10CBD81
:1004900010B54548006840F47000434908603E4884
:1004A000006840F001003C49086000203A490831EA
:1004B0000860394800683D490840374908603C48B1
:1004C000091D0860081F006820F48020091F0860CB
:1004D000002031490C310860FFF76CFF4FF00060DD
:1004E00031498039086010BD70B500200022022318
:1004F00000240221284D08352D6805F00C0020B19C
:10050000042806D0082834D107E02A4D2A4E356049
:1005100033E02A4D284E35602FE01F4D2D1D2D68EC
:10052000C5F380541C4D2D1D2D6805F03F0154B1BD
:10053000224DB5FBF1F5184E361D3668C6F3881608
:1005400005FB06F209E01B4DB5FBF1F5124E361D19
:100550003668C6F3881605FB06F20F4D2D1D2D6873
:10056000C5F301456D1C6B00B2FBF3F5124E35600F
:1005700003E0104D104E356000BF00BF064D08353A
:100580002D68C5F303150E4E705D0B4D2D68C540EB
:10059000094E356070BD0000003802400070004018
:1005A00008544007003C024088ED00E0FFFFF6FEE3
:1005B000103000240024F400F40F002000127A0010
:1005C000F80F00203EB505460C460121084601F013
:1005D000E8FA4FF0804002F0ACFB0195ADF8004026
:1005E0000020ADF80800ADF802002021480602F016
:1005F00013FC69464FF0804001F0B5FE01218807E9
:1006000001F03AFF3EBD000000B59BB00121202063
:1006100001F07EFA0121880501F07AFA01218802B1
:1006200001F0D0FA0820199003208DF868008DF8A9
:10063000690000208DF86B0019A9394800F0CAFF45
:100640000020069008904FF4803007900020099019
:1006500006A800F041FD00208DF8050004904FF041
:10066000C0600390C000029000208DF8140000903C
:100670008DF8040069462B4800F0FFFC042301229A
:100680000921284800F07FFD4FF080600A9000208B
:1006900013900D904FF480700E9000021490002083
:1006A00015900120169020480C90002017904FF4D0
:1006B00000501290C01010901A484C300B9000203F
:1006C00018904FF40060119000200F900AA917486D
:1006D00002F090FC0121154802F0C6FC01211148EE
:1006E00000F0FCFD01210F4800F0EDFD01210D4857
:1006F00000F009FD1BB000BD10B500210B4802F051
:10070000B3FC0B49094802F083FD42F21A01054887
:1007100000F0D5FE0121054802F0A6FC10BD000046
:100720000014024000220140281C002010640240F6
:10073000208000102DE9F04F4FF0000C4FF0000327
:1007400001EB1C6EBEF90250BEF900400EF5807E32
:10075000BEF90290BEF900800EF5807EBEF90270EF
:10076000BEF900600EF5807EBEF902B0BEF900A0B1
:100770000EF5807ED044D944A8EB4A0AA9EB4B0B76
:100780004FEAA4044FEAA50504EBA60405EBA70570
:10079000A4EB6606A5EB670704EBA80405EBA90527
:1007A000A4EB6808A5EB690906EBAB06A7EBAA0763
:1007B000A6EB6B0B07EB6A0A458020F8044B4780D9
:1007C00020F8046BA0F8029020F8048BA0F802A097
:1007D00020F804BB03F1010393FAA3FC402BAFD133
:1007E000A0EB82014FF0100312090FF2361000F156
:1007F000000006B403EB430C6144A2F5803202EB27
:100800008332B1F90250B1F90040A1EB0301B0F914
:1008100002B0B0F900A000F10400A5EB040E0EFB3D
:100820000BFC0AEB4B0E05FB0ACB04FB0ECAB1F91D
:100830000250B1F90040A1EB0301B0F90290B0F908
:10084000008000F10400A5EB040E0EFB09FC08EB90
:10085000490E05FB08C904FB0EC8B1F90250B1F9F5
:100860000040A1EB0301B0F90270B0F9006000F1A3
:100870000400A5EB040E0EFB07FC06EB470E05FB80
:1008800006C704FB0EC6B1F90250B1F9004001F1F0
:100890000001D044D944A8EB4A0AA9EB4B0B4FEA1C
:1008A000A4044FEAA50504EB264405EB2745A4EB79
:1008B000E636A5EBE73704EB284405EB2945A4EB26
:1008C000E838A5EBE93906EB2B46A7EB2A47A6EB60
:1008D000EB3B07EBEA3A4D800C8019444F800E80C9
:1008E0001944A1F80290A1F800801944A1F802A0CF
:1008F00021F804BBB2F5803283DA03EB430C614488
:10090000A2F101025FEA024E18BFA0EB0C007FF4D7
:1009100076AF06BC4FEA830392087FF46AAFBDE866
:10092000F08F0040000000400000004000005DDD4E
:10093000213BA3227E180000412D7EA5412D000001
:10094000412D00C000405DDD82E75DDD213B7EA5DD
:10095000412D004000000040000000400000AA2A95
:1009600094126B39460649327C0CA8118E23493209
:100970007C0CA3227E1821F77931AA2A9412A8119F
:100980008E235DDD213BA3227E180000412D95C6FC
:10099000B13F461A2B1E58EE3735BEB4C53EA811DE
:1009A0008E235DDD213B63A97138DF089A28B7CD1E
:1009B000C53E7EA5412D0000412D00C0004063A929
:1009C0002B1E21F77931BEB4C53EBEB47C0C58EE67
:1009D000373561AC213B95C6BAF9BAE571383BA70A
:1009E00037355DDD82E75DDD213B7EA5412D21F7B9
:1009F00066D756D53F3D3BA78E23A811C9CAB7CDB0
:100A0000C53E61AC7E18AA2AC1C295C6B13FBEB42C
:100A10007C0C0040000000400000004000001E3B35
:100A2000B504693E9201C83C2403EB356409C83C17
:100A300024036B3946066C30060E1E3BB504EB35BD
:100A40006409AA2A94126B39460649327C0CAE24FA
:100A50000917AF37D607882E8D0F7E1E5D1BEB352D
:100A60006409AA2A941224188C1F1E34F10AB32692
:100A70009015A8118E2349327C0CA3227E18140BEA
:100A800060276C30060E7E1E5D1B7104FB2A882ECB
:100A90008D0F461A2B1EC7FD5A2E9D2C1211FE15C6
:100AA000E72021F77931AA2A9412A8118E2387F022
:100AB0005334B2281314480D202602EAE536B32633
:100AC0009015DF089A289CE32B39AE24091771048E
:100AD000FB2A5DDD213BA3227E180000412D4ED76D
:100AE000C53C9320EF198FFB6C2F78D1153E7E1EED
:100AF0005D1B21F77931E2CB0F3F641CC61CB8F2B5
:100B0000683395C6B13F461A2B1E58EE373597C14C
:100B1000FB3F24188C1F02EAE536F0BCEC3FFE15C3
:100B2000E720BAE57138A6B8853FD5133D2282E1AA
:100B3000DB39BEB4C53EA8118E235DDD213B40B13B
:100B4000AF3D790FDA244DD9423C2EAE423C480DE0
:100B5000202656D53F3D8EAB823A140B602778D1C4
:100B6000153E63A97138DF089A28B7CDC53EB1A7F5
:100B70001236A906CE2915CA4F3F78A668337104EC
:100B8000FB2A95C6B13FBCA576303902212C38C36B
:100B9000EC3F7EA5412D0000412D00C00040BCA5CA
:100BA000CE29C7FD5A2EF0BCEC3F78A620268FFB3D
:100BB0006C2F09BAB13FB1A73D2257F976304DB736
:100BC0004F3F63A92B1E21F77931BEB4C53E8EABD2
:100BD000EF19ECF474325EB2153E2EAE9015B8F2F9
:100BE00068332DB03F3D40B1121187F053342EAE23
:100BF000423CBEB47C0C58EE373561AC213BA6B804
:100C0000D6072BEC1236C8AADB39F0BC240302EA63
:100C1000E53663A9713897C16EFEDCE7B03734A8BA
:100C2000E53695C6BAF9BAE571383BA73735E2CB58
:100C30000FF59CE32B3978A6683378D173F082E105
:100C4000DB39EDA579314ED7EDEB6DDF823A99A511
:100C50006C2F5DDD82E75DDD213B7EA5412D9CE3B0
:100C60003AE352DBB63B99A5FB2A02EA19DF4DD9DC
:100C7000423CEDA59A2887F026DB4ED7C53C78A6E6
:100C8000202621F766D756D53F3D3BA78E23C7FDCB
:100C9000DFD363D3AF3D34A8E720710494D078D17B
:100CA000153E63A92B1E140B8CCD94CF723EC8AA9F
:100CB0005D1BA811C9CAB7CDC53E61AC7E1824180A
:100CC00050C8E2CB0F3F2EAE90157E1E25C615CA2A
:100CD0004F3F2DB09412AE244AC451C8853F5EB236
:100CE0008D0FAA2AC1C295C6B13FBEB47C0C6C3030
:100CF0008EC1E2C4D43F4DB76409EB35B1C038C3EF
:100D0000EC3F09BA46061E3B2CC097C1FB3FF0BC26
:100D10002403000010B504466FF0040000F084F9CD
:100D2000E11704EB5171C1F3C701394A1170104644
:100D3000007800EB4001C1EBC0104FF6FF7101EAF3
:100D4000C0003449088010BD0146314A12784A4338
:100D50004FF0E0235A6100229A611A46126942F06C
:100D600001021A6100BF4FF0E022106900F0010299
:100D70001AB100F48032002AF5D04FF0E022126957
:100D800022F001024FF0E0231A6100229A617047BD
:100D90000146204A12884A434FF0E0235A6100225C
:100DA0009A611A46126942F001021A6100BF4FF0BF
:100DB000E022106900F001021AB100F48032002A2A
:100DC000F5D04FF0E022126922F001024FF0E0234B
:100DD0001A6100229A61704770B504464FF407709B
:100DE00094FBF0F0C6B24FF4077094FBF0F100FBF7
:100DF000114085B205E04FF40770FFF7C9FF701E80
:100E0000C6B2002EF7D115B12846FFF7C1FF70BD5D
:100E1000081000200A10002000BF704700BF4C4A95
:100E2000128802F04002002AF9D0C2B2484B9A80E0
:100E3000704710B588B004460121084600F068FEEE
:100E40000121102000F0BEFE07220921414800F0D8
:100E50004CFC07220A213F4800F047FC4FF4C060D9
:100E6000069002208DF81C008DF81D0000208DF8E2
:100E70001E0001208DF81F0006A9364800F0AAFBCD
:100E800002940020ADF80C00ADF80E00ADF8100093
:100E9000ADF814000C20ADF8120002A92C4800F0A7
:100EA000F2FF01212A4801F076F8012240F2255193
:100EB000274801F026F925208DF8040003208DF83D
:100EC00005008DF8060001208DF8070001A800F04C
:100ED0005EF808B010BD10B540F225511C4801F075
:100EE0004BF910B31A4801F085F8C4B21A480088CB
:100EF00000F40040C8B91848008800F4804060B190
:100F00000A2C03D000201449088020E012480088F1
:100F100040F400401049088019E00D2C06D10E481D
:100F2000008840F480400C49088010E00A4800889E
:100F3000C0F30D0009490C5407480088401C0649BD
:100F4000088008460088C72801DD0020088010BD01
:100F5000001001400000024010100020281E002058
:100F60000648804706480047FEE7FEE7FEE7FEE743
:100F7000FEE7FEE7FEE7FEE7FEE7FEE79104000876
:100F80008901000832490143324A1160704770B547
:100F9000002100230F22C4781CB32E4C246804F4D3
:100FA000E064C4F5E064C4F30721C1F10404E3B2D2
:100FB0000A4144789C40E1B28478144021430C07F4
:100FC000210E254C05786155047804F01F05012495
:100FD000AC4005786D11AD0005F1E025C5F8004184
:100FE00009E0047804F01F050124AC401B4D06788D
:100FF000761145F8264070BD194A0A400243154B48
:101000001B1F1A60704739B1124A121D1268024341
:10101000104B1B1D1A6006E00E4A121D1268824317
:101020000C4B1B1D1A607047042808D14FF0E021BB
:10103000096941F004014FF0E022116107E04FF02F
:10104000E021096921F004014FF0E02211617047AD
:101050000000FA050CED00E000E400E080E100E0B3
:1010600080FFFF1F10B50121080200F000FE0021E3
:101070004FF4807000F0FBFD10BD30B5024600203B
:1010800000235068F84C20400D790C6844EA052490
:10109000204350609068F54C2040D1E903542C4324
:1010A0008D682C434D7944EA450420439060D06A12
:1010B00020F470000C7D641EE4B2234340EA035028
:1010C000D06230BD00210160017141718160C16059
:1010D00001610121017570470021E54A1168E54A67
:1010E0001140D0E900231A4383681A43C3681A43A6
:1010F0001143E14AC2F804137047002101604160C6
:101100008160C160704721B1826842F00102826053
:1011100003E0826822F00102826070470A460021E3
:101120004168D64B19401143416070474162826269
:1011300070470A460021416821F01F0111434160B8
:10114000704738B1CA49096841F40001CA4AC2F877
:10115000041306E0C649096821F40001C64AC2F832
:101160000413704738B1C249096841F48001C24A8A
:10117000C2F8041306E0BE49096821F48001BE4AA2
:10118000C2F804137047F0B504460D460020002154
:10119000092D11DDE068A5F10A0606EB46070726D2
:1011A00006FA07F18843A5F10A0606EB460603FA9C
:1011B00006F10843E0600CE0206905EB45070726CF
:1011C00006FA07F1884305EB450603FA06F10843E2
:1011D0002061072A0FDA606B561E06EB86071F2672
:1011E00006FA07F18843561E06EB860605FA06F155
:1011F0000843606322E00D2A0FDA206BD61F06EB4E
:1012000086071F2606FA07F18843D61F06EB8606D7
:1012100005FA06F10843206310E0E06AA2F10D062A
:1012200006EB86071F2606FA07F18843A2F10D0692
:1012300006EB860605FA06F10843E062F0BD816818
:1012400041F0804181607047014600208A6802F0C9
:1012500080420AB1012000E00020704721B182687D
:1012600042F48062826003E0826822F480628260DD
:10127000704721B1826842F00202826003E0826816
:1012800022F002028260704710B50A460021002356
:10129000416821F46041531E41EA4331416010BD71
:1012A00021B1426842F40062426003E0426822F4E5
:1012B0000062426070470146C86C80B270476C485B
:1012C000001D0068704721B1826842F4807282601C
:1012D00003E0826822F480728260704721B18268E4
:1012E00042F40072826003E0826822F4007282603D
:1012F000704738B15E49096841F400515E4AC2F84E
:10130000041306E05A49096821F400515A4AC2F808
:1013100004137047F0B5044615460020002200264D
:10132000092911DDE068A1F10A0707EB470C07273F
:1013300007FA0CF29043A1F10A0707EB470703FAFB
:1013400007F21043E0600CE0206901EB410C072735
:1013500007FA0CF2904301EB410703FA07F210433E
:101360002061A06BC0F30156EF1C06F1010CA7EB46
:101370000C0707EB870C1F2707FA0CF29043EF1CB2
:1013800006F1010CA7EB0C0707EB870701FA07F240
:101390001043A063F0BD10B50A4600210023816B05
:1013A00021F44011531E41EA0351816310BD08B579
:1013B000002300930090009B0B440093009B1A6055
:1013C00008BD0A460021816821F470211143816023
:1013D00070470A460021816821F440111143816061
:1013E0007047816841F480018160704701460020A8
:1013F0008A6802F480020AB1012000E000207047F0
:1014000021B1426842F48062426003E0426822F403
:1014100080624260704721B1426842F4805242606B
:1014200003E0426822F480524260704708B50246E9
:1014300000200090009201F12800009B18440090C9
:101440000098006880B208BD10B50B460021D9B2E3
:10145000012404FA01F11AB144680C43446002E02B
:1014600044688C43446010BDFFFEFFFCFDF7FFC0E5
:1014700004230140E030FCFF00200140FFFD3FFF5E
:101480000246002013680B400BB1012000E0002051
:101490007047CA430260704770B5024600200023BF
:1014A00000240B12556801268E4005EA06041568D3
:1014B0001D4015B10CB1012000E0002070BD0022DC
:1014C0000A12D3430360704710B50446984884421B
:1014D00008D10121084600F086FB0021012000F020
:1014E00082FB76E09348844208D10121022000F07B
:1014F0007AFB0021022000F076FB6AE08E488442ED
:1015000008D10121042000F06EFB0021042000F02E
:101510006AFB5EE08948844208D10121082000F07E
:1015200062FB0021082000F05EFB52E08448844208
:1015300008D10121102000F056FB0021102000F0FE
:1015400052FB46E07F48844208D10121202000F070
:101550004AFB0021202000F046FB3AE07A48844212
:1015600008D10121402000F03EFB0021402000F086
:101570003AFB2EE07548844208D10121802000F01A
:1015800032FB0021802000F02EFB22E070488442D4
:1015900008D10121801500F026FB0021A01500F0E4
:1015A00022FB16E06B48844208D10121401500F06F
:1015B0001AFB0021601500F016FB0AE06648844221
:1015C00007D10121001500F00EFB0021201500F0CD
:1015D0000AFB10BDF0B50A4600210023002400BF1D
:1015E0003DE0012505FA01F3156805EA03049C4274
:1015F00034D105684F000326BE40B5430560157918
:101600004E00B5400668354305601579012D02D0BE
:101610001579022D16D185684F000326BE40B543CB
:10162000856055794E00B5408668354385604568CC
:1016300001268E40B5434560456896798E40B6B226
:1016400035434560C5684F000326BE40B543C560BD
:10165000D5794E00B540C6683543C560491C102990
:10166000BFD3F0BD4FF6FF710160002101714171E0
:101670008171C171704708B54FF480320092009AB1
:101680000A430092009AC261C161009AC261C269B4
:101690000092C269009208BD0246002013690B4007
:1016A0000BB1012000E0002070470146086980B2BC
:1016B00070470246002053690B400BB1012000E047
:1016C000002070470146486980B270470183704727
:1016D000418370470AB1018300E041837047416153
:1016E000704742694A4042617047F0B500230024C8
:1016F0004D07ED0E02FA05F3CE1000F1200555F866
:1017000026504E07F70E0F26BE40B543CF1000F10E
:10171000200646F82750CE1000F1200555F8265037
:1017200045EA0304CE1000F1200545F82640F0BD3F
:10173000000002400004024000080240000C024089
:10174000001002400014024000180240001C024039
:10175000002002400024024000280240F9480068AE
:1017600040F00100F74908600020F64908310860A0
:10177000F4480068F4490840F2490860F348091D3C
:101780000860F348EF4984310860F0481038091DBB
:101790000860EC48006820F48020EA4908600020D6
:1017A000E8490C310860E7498C3108607047002136
:1017B000E44A921C117011460870704710B501463A
:1017C0000022002300204A11012A02D1DD4C2368A7
:1017D00008E0022A03D1DB4C7034236802E0D94CC4
:1017E0007434236801F01F02012494401C400CB1A2
:1017F000012000E0002010BD38B50020009000243A
:10180000002500BF3120FFF7D9FF05460098401C96
:1018100000900098B0F5A04F01D0002DF2D03120FB
:10182000FFF7CCFF08B1012400E00024204638BDBA
:1018300001460020C34A106820F0F80040EAC100C9
:1018400010607047C349086070470021BD4A70327C
:1018500011701170012802D004280AD104E001217E
:10186000B84A7032117005E00521B64A7032117025
:1018700000E000BF00BF7047B7490860704770B50F
:10188000049C41EA82150126C6EB530645EA06454B
:10189000054345EA0465AB4E361D356070BDAD4964
:1018A00008667047820142EA0172A64B84331A60CF
:1018B0007047A8498866704710B5830143EA016301
:1018C00043EA02739F4C8834236010BDA149086726
:1018D0007047A049C864704702460020994B0833FE
:1018E000186820F0EC6042EA01031843954B083376
:1018F0001860704702460020924B0833186820F0A9
:10190000784042EA010318438E4B08331860704751
:10191000014600208B4A0832106820F0030008437B
:101920001060704787480830006800F00C0070476E
:1019300001460020834A0832106820F0F000084376
:1019400010607047014600207E4A0832106820F47B
:10195000E05008431060704701460020794A083281
:10196000106820F4604040EAC10010607047F0B594
:10197000002100220024022500260223714F08378F
:101980003F6807F00C0121B1042905D0082937D19F
:1019900005E0724F076036E0714F076033E0694F32
:1019A0003F1D3F68C7F38056664F3F1D3F6807F0F5
:1019B0003F036EB16A4FB7FBF3F7DFF888C10CF154
:1019C000040CDCF800C0CCF3881C07FB0CF40CE022
:1019D000624FB7FBF3F7DFF86CC10CF1040CDCF8D5
:1019E00000C0CCF3881C07FB0CF4564F3F1D3F682A
:1019F000C7F301477F1C7D00B4FBF5F7076002E0E9
:101A0000564F076000BF00BF4E4F08373F6807F0D2
:101A1000F0010909534F7A5C0768D7404760494F86
:101A200008373F6807F4E051890A4E4F7A5C4768EF
:101A3000D7408760434F08373F6807F46041490B40
:101A4000484F7A5C4768D740C760F0BD002100F47A
:101A50004072B2F5407F0AD13A4A0832116821F447
:101A6000F811414A02401143364A08321160354AA2
:101A700070321268C0F30B031A43324B70331A6092
:101A80007047354944390860704733494039086028
:101A9000704736490860704701460020294A8C3259
:101AA000106820F01F004A1E1043264A8C32106036
:101AB000704701460020234A8C32106820F4F85009
:101AC0004A1E40EA02201F4A8C32106070470146CD
:101AD00000201C4A8C32106820F44010084310602B
:101AE000704701460020174A8C32106820F44000ED
:101AF00008431060704701460020124A8C3210687B
:101B000020F440300843106070471949086070475E
:101B100039B10C4A3032126802430A4B30331A6032
:101B200006E0084A303212688243064B30331A60AE
:101B30007047F9B1034A343212680243014B34331F
:101B40001A601CE000380240FFFFF6EA1030002463
:101B50000030002000004742800E47420024F4007D
:101B600000127A0012100020FFFCFF0F5C014742B8
:101B7000E01147428F4A126882438E4B1A607047C9
:101B800039B18C4A121D126802438A4B1B1D1A6020
:101B900006E0884A121D12688243864B1B1D1A609C
:101BA000704739B1834A0C3212680243814B0C33BF
:101BB0001A6006E07F4A0C32126882437D4B0C3378
:101BC0001A60704739B17B4A103212680243794B70
:101BD00010331A6006E0774A103212688243754B60
:101BE00010331A60704739B1724A243A12680243BE
:101BF000704B243B1A6006E06E4A243A1268824316
:101C00006C4B243B1A60704739B16A4A203A12681B
:101C10000243684B203B1A6006E0664A203A12688D
:101C20008243644B203B1A60704739B1614A1C3AC9
:101C3000126802435F4B1C3B1A6006E05D4A1C3A87
:101C4000126882435B4B1C3B1A60704739B1594A9A
:101C5000143A12680243574B143B1A6006E0554A87
:101C6000143A12688243534B143B1A60704739B1DF
:101C7000504A103A126802434E4B103B1A6006E07D
:101C80004C4A103A126882434A4B103B1A60704724
:101C900039B1484A1C3212680243464B1C331A6061
:101CA00006E0444A1C3212688243424B1C331A60DD
:101CB000704739B13F4A2032126802433D4B20330E
:101CC0001A6006E03B4A203212688243394B2033C7
:101CD0001A60704739B1374A243212680243354BD3
:101CE00024331A6006E0334A243212688243314BAF
:101CF00024331A60704739B12E4A2C3212680243DD
:101D00002C4B2C331A6006E02A4A2C32126882438C
:101D1000284B2C331A60704739B1264A303212688A
:101D20000243244B30331A6006E0224A30321268F4
:101D30008243204B30331A607047012808D11D4977
:101D40003C31096841F008011A4A3C32116007E051
:101D500018493C31096821F00801164A3C321160EB
:101D6000704739B1134A273A12780243114B273B87
:101D70001A7006E00F4A273A127882430D4B273B30
:101D80001A7070470B484030006840F08070094975
:101D900040310860704701460020064A283A126820
:101DA0000A400AB1012000E00020704701492639AD
:101DB000087070473438024010B50446FA4884422F
:101DC00008D101211020FFF752FF00211020FFF75A
:101DD0004EFF57E0F548844209D101214804FFF73E
:101DE00035FF00214FF40030FFF730FF4AE0F048A4
:101DF000844209D101218804FFF728FF00214FF414
:101E00008020FFF723FF3DE0EA48844209D1012109
:101E1000C804FFF71BFF00214FF40020FFF716FF57
:101E200030E0E548844209D101210805FFF70EFFA3
:101E300000214FF48010FFF709FF23E0DF488442C0
:101E400008D101212020FFF712FF00212020FFF7F9
:101E50000EFF17E0DA48844209D101218807FFF715
:101E6000F5FE00214FF08040FFF7F0FE0AE0D54874
:101E7000844207D101214005FFF7E8FE00216005FB
:101E8000FFF7E4FE10BD2DE9FF4705460E4600248E
:101E9000A14600BFA046B08900B100BF2C8A24F43F
:101EA0004054F08804432C82AC8941F20C60844396
:101EB000B08831890843718908430443AC81AC8AF6
:101EC00024F44074B0890443AC826846FFF74FFDA8
:101ED000B548854202D0B948854202D1DDF80C9060
:101EE00001E0DDF80890A88900F4004040B109EB5A
:101EF000C90000EB091031684900B0FBF1F707E0B9
:101F000009EBC90000EB091031688900B0FBF1F75B
:101F10006420B7FBF0F004012009642101FB107874
:101F2000A88900F4004040B1322000EBC800B0FBAB
:101F3000F1F000F00700044308E0322000EB081045
:101F40006421B0FBF1F000F00F0004432C81BDE8E8
:101F5000FF874FF41651016000218180C18001810B
:101F60000C21418100218181704710B5024600207B
:101F7000108A20F470600B884C8823438C8823439C
:101F8000CC8823431843108210BD0021018041807A
:101F90008180C180704721B1828942F400528281E0
:101FA00004E082894DF6FF731A4082817047028BEC
:101FB00002F47F420283028B0A430283704721B1FD
:101FC000828942F40042828103E08289C2F30E02D8
:101FD0008281704721B1828A42F40062828204E0E9
:101FE000828A4FF2FF731A4082827047C1F308025F
:101FF0008280704701468888C0F308007047028AD3
:102000004FF6F0731A400282028A0A430282704736
:1020100021B1828942F00202828104E082894FF676
:10202000FD731A408281704782894FF2FF731A4014
:10203000828182890A4382817047028A4FF6DF7368
:102040001A400282028A0A430282704721B1028A40
:1020500042F48042028204E0028A4BF6FF731A4087
:1020600002827047818941F001018181704721B16D
:10207000828A42F00802828204E0828A4FF6F77375
:102080001A4082827047028BD2B20283028B42EAEC
:1020900001220283704721B1828A42F020028282AB
:1020A00004E0828A4FF6DF731A408282704721B1C2
:1020B000828A42F01002828204E0828A4FF6EF7335
:1020C0001A4082827047828A4FF6FB731A408282DE
:1020D000828A0A438282704721B1828A42F00202D8
:1020E000828204E0828A4FF6FD731A408282704732
:1020F0001AB1838A0B43838202E0838A8B438382F3
:102100007047F0B50346002400260025002040F665
:102110006A17B94200D100BF1846C1F3421401F05A
:102120001F06012707FA06F5012C01D10C3004E047
:10213000022C01D1103000E014301AB107682F438F
:10214000076002E00768AF430760F0BD0246002069
:10215000B1F5007F00D100BF13880B400BB1012007
:1021600000E00020704701F40072B2F5007F00D15A
:1021700000BFCA430280704770B5024600240023A6
:102180000025002040F66A16B14200D100BFC1F31D
:10219000421501F01F03012606FA03F3012D13D1A6
:1021A0009689334017E000000010014000440040D1
:1021B00000480040004C0040005000400014014026
:1021C00000780040007C0040022D02D1168A334086
:1021D00001E0968A33400C12012606FA04F41688B0
:1021E000344013B10CB1012000E0002070BD10B5E7
:1021F0000022002340F66A14A14200D100BF0A1257
:1022000001249440A3B2DC43048010BD10B5044601
:10221000FE48844208D101210846FFF728FD00212D
:102220000120FFF724FD9DE0B4F1804F08D101218A
:102230000846FFF70BFD00210120FFF707FD91E0A5
:10224000F348844208D101210220FFF7FFFC00215E
:102250000220FFF7FBFC85E0EE48844208D1012113
:102260000420FFF7F3FC00210420FFF7EFFC79E0E6
:10227000E948844208D101210820FFF7E7FC00214A
:102280000820FFF7E3FC6DE0E448844208D1012117
:102290001020FFF7DBFC00211020FFF7D7FC61E0E6
:1022A000DF48844208D101212020FFF7CFFC002124
:1022B0002020FFF7CBFC55E0DA48844208D1012109
:1022C0000220FFF7D4FC00210220FFF7D0FC49E0F8
:1022D000D548844209D101210804FFF7C8FC002138
:1022E0004FF48030FFF7C3FC3CE0D048844209D172
:1022F00001214804FFF7BBFC00214FF40030FFF739
:10230000B6FC2FE0CA48844209D101218804FFF7B6
:10231000AEFC00214FF48020FFF7A9FC22E0C54865
:10232000844208D101214020FFF790FC0021402089
:10233000FFF78CFC16E0C048844208D101218020C0
:10234000FFF784FC00218020FFF780FC0AE0BB48F7
:10235000844207D101218015FFF778FC0021A015E8
:10236000FFF774FC10BD00220288A84B98420ED0E3
:10237000AC4B98420BD0B0F1804F08D0A44B9842A0
:1023800005D0A44B984202D0A34B984204D14FF6FB
:102390008F731A404B881A43A04B984207D0A04B2A
:1023A000984204D04FF6FF431A400B891A4302802B
:1023B0004B68C3620B880385944B984202D0994BBB
:1023C000984201D18B7A03860123838270474FF0B4
:1023D000FF3141600021018001814180817270479D
:1023E0000185828270470A46002101884FF68F736B
:1023F000194011430180704741627047C1627047C4
:102400000146486A70470146088D704721B102882D
:1024100042F00202028004E002884FF6FD731A4087
:102420000280704721B1028842F00402028004E079
:1024300002884FF6FB731A400280704721B1028870
:1024400042F08002028004E002884FF67F731A4057
:102450000280704702884FF6F7731A4002800288A4
:102460000A430280704702884FF6FF431A400280F9
:1024700002880A430280704721B1028842F00102BB
:10248000028004E002884FF6FE731A400280704713
:1024900070B5002400220023058C4FF6FE763540EF
:1024A0000584028C8388048B4FF68F752C40B51EF3
:1024B0002C400D882C43751E2A408D892A434D8857
:1024C0002A43524DA84202D0564DA84213D14FF68E
:1024D000F7752A40CD892A434FF6FB752A408D882F
:1024E0002A434FF6FF652B404FF6FF552B400D8AD0
:1024F0002B434D8A2B43838004838D68456302847C
:1025000070BD70B5002400220023058C4FF6EF76D5
:1025100035400584028C8388048B48F6FF752C4077
:102520004FF6FF452C400D884FF6FF7606EA05254D
:102530002C434FF6DF752A408D8906EA05152A439C
:102540004D8806EA05152A43304DA84202D0354D84
:10255000A8421DD14FF67F752A40CD894FF6FF76F0
:1025600006EA05152A434FF6BF752A408D8806EA0C
:1025700005152A434FF6FF352B404FF2FF752B40D0
:102580000D8A06EA85052B434D8A06EA85052B430D
:10259000838004838D688563028470BD70B50024D8
:1025A00000220023058C4FF6FF6635400584028C1F
:1025B0008388848B4FF68F752C404FF6FC752C402A
:1025C0000D882C434FF6FF552A408D894FF6FF7634
:1025D00006EA05252A434D8806EA05252A430B4DC0
:1025E000A84202D00F4DA84238D14FF2FF752A40C1
:1025F000CD894FF6FF7606EA05252A434FF6FF35CB
:102600002A408D8806EA05252A4319E0000001408A
:102610000004004000080040000C00400010004092
:10262000001400400004014000400140004401400B
:102630000048014000180040001C004000200040FD
:102640004EF6FF752B404DF6FF752B400D8A06EABE
:1026500005152B434D8A06EA05152B438380848399
:102660008D68C563028470BD70B50022002300240C
:10267000058C4EF6FF7635400584038C8488828B6A
:1026800048F6FF752A404FF6FF452A400D884FF661
:10269000FF7606EA05252A434DF6FF752B408D8906
:1026A00006EA05352B434D8806EA05352B43FE4DDA
:1026B000A84202D0FD4DA84208D14BF6FF752C4030
:1026C0000D8A4FF6FF7606EA85152C4384808283B7
:1026D0008D680564038470BD002101804180818084
:1026E00081608181C18101824182704770B503465A
:1026F000002000241846183001258D40ACB21D8CF6
:10270000A5431D8409B108290AD100EB61000568C1
:102710004FF68F76354005600568154305600FE07C
:102720000D1FC5F34E052844056848F6FF76354071
:10273000056005684FF6FF7606EA02263543056018
:1027400070BD4163704781637047C1637047016426
:1027500070470A460021018B4FF68F7319401143D1
:10276000018370470A460021018B48F6FF73194028
:102770004FF6FF7303EA02231943018370470A46A9
:102780000021818B4FF68F7319401143818370476D
:102790000A460021818B48F6FF7319404FF6FF73FC
:1027A00003EA02231943818370470A460021018B03
:1027B0004FF6F77319401143018370470A46002111
:1027C000018B4FF2FF7319404FF6FF7303EA0223A8
:1027D0001943018370470A460021818B4FF6F77336
:1027E00019401143818370470A460021818B4FF2C3
:1027F000FF7319404FF6FF7303EA022319438183E5
:1028000070470A460021018B4FF6FB7319401143B4
:10281000018370470A460021018B4FF6FF331940B0
:102820004FF6FF7303EA02231943018370470A46F8
:102830000021818B4FF6FB73194011438183704750
:102840000A460021818B4FF6FF3319404FF6FF7384
:1028500003EA02231943818370470A460021018B52
:102860004FF67F7319401143018370470A460021D8
:10287000018BC1F30E014FF6FF7303EA02231943E4
:10288000018370470A460021818B4FF67F73194000
:102890001143818370470A460021818BC1F30E01E9
:1028A0004FF6FF7303EA02231943818370470A46F8
:1028B0000021018C4FF6FD731940114301847047CC
:1028C0000A460021018C4FF6F77319401143018429
:1028D00070470A460021018C4FF6DF7319404FF60E
:1028E000FF7303EA02131943018470470A4600216B
:1028F000018C4FF67F7319404FF6FF7303EA021302
:102900001943018470470A460021018C4FF6FF539A
:1029100019404FF6FF7303EA0223194301847047FD
:102920000A460021018C4FF2FF7319404FF6FF73E6
:1029300003EA02231943018470470A460021018CEF
:102940004DF6FF7319404FF6FF7303EA0233194344
:102950000184704730B5002301248C40A3B2048C5D
:102960009C430484048C02FA01F5ADB22C43048428
:1029700030BD30B5002304248C40A3B2048C9C43AA
:102980000484048C02FA01F5ADB22C43048430BDFA
:10299000828B4FF2FF331A408283828B4FF6FF7394
:1029A00003EA01231A4382837047F0B50C461546AB
:1029B000002100220026078C4EF6FF7C07EA0C0758
:1029C0000784818B028C4FF6FF7707EA043640F6C6
:1029D000FF4739404FF6FF7707EA052739434FF69F
:1029E000FF7707EA0337394345F6FF773A4046F465
:1029F00080573A4381830284F0BD828B4FF6F37394
:102A00001A408283828B0A4382837047F0B50C465A
:102A10001546002100220026078C4FF6FF6C07EABE
:102A20000C070784818B028C4FF6FF7707EA042698
:102A30004FF60C7739404FF6FF7707EA03172F431D
:102A400039434FF2FF573A4046F480773A43818347
:102A50000284F0BD028B4FF2FF331A400283028BD7
:102A60004FF6FF7303EA01231A4302837047F0B560
:102A70000C461546002100220026078C4FF6EF7CFD
:102A800007EA0C070784018B028C4FF6FF7707EAF1
:102A9000041640F6FF4739404FF6FF7707EA033741
:102AA00039434FF6FF7703E0000001400004014086
:102AB00007EA052739434FF65F773A4046F010079B
:102AC0003A4301830284F0BD028B4FF6F3731A4040
:102AD0000283028B0A4302837047F0B50C46154609
:102AE00000210022068C4FF6FE773E400684018BC3
:102AF000028C4FF60C7631407E1C06EA03162E43FC
:102B000031434FF6F576324044F0010632430183FB
:102B10000284F0BD70B505460C46208850B9238963
:102B2000A28861882846FFF7D8FFE1882846FFF78A
:102B3000CBFF25E0208804280AD12389A288618858
:102B40002846FFF794FFE1882846FFF783FF17E048
:102B5000208808280AD12389A28861882846FFF79F
:102B600055FFE1882846FFF748FF09E02389A2883E
:102B700061882846FFF719FFE1882846FFF708FF1C
:102B800070BD002101804180012181800021C18030
:102B9000018170472DE9F04105460C4600260127CA
:102BA000608808B9022600E00026A088012801D12B
:102BB000022700E001272088A0B92389A288618824
:102BC0002846FFF78AFFE1882846FFF77DFF238923
:102BD0003A4631462846FFF74AFFE1882846FFF784
:102BE00039FF13E02389A28861882846FFF73FFF59
:102BF000E1882846FFF72EFF23893A4631462846CA
:102C0000FFF76BFFE1882846FFF75EFFBDE8F08124
:102C10000146486B70470146886B70470146C86B98
:102C200070470146086C70470A884B881A438B88A6
:102C30001A43CB881A430B891A434B891A438B8951
:102C40001A43A0F844207047002101804180818010
:102C5000C180018141818181704731B1B0F8442048
:102C600042F40042A0F8442005E0B0F84420C2F34A
:102C70000E02A0F84420704721B1828842F004027D
:102C8000828004E082884FF6FB731A40828070478E
:102C900021B1828842F00102828004E082884FF6EE
:102CA000FE731A40828070471AB183890B43838177
:102CB00002E083898B43838170478182704702469B
:102CC0000020138A0B400BB1012000E00020704768
:102CD000CA430282704730B5024600200023002418
:102CE000158A05EA0103958905EA010413B10CB1BF
:102CF000012000E0002030BDCA430282704741EA53
:102D00000203A0F8483070471AB183890B438381CE
:102D100002E083898B438381704721B1828842F02E
:102D20000802828004E082884FF6F7731A4082809E
:102D3000704701894FF6F8721140018170470A46C9
:102D4000002101894FF68F731940114301817047AB
:102D500030B504460D4629462046FFF7F0FF20898E
:102D600040F00700208130BD2DE9F04104460D46BA
:102D700016461F46602D06D13B46012231462046AD
:102D8000FFF775FE05E03B46012231462046FFF77E
:102D9000A4FE29462046FFF7D2FF208940F0070015
:102DA0002081BDE8F08130B50C4600210189C9B20F
:102DB0004FF6FF7505EA0325154325432943018195
:102DC00030BD2DE9F04105460E46174698460024D1
:102DD00043463A4631462846FFF7E5FF2C894FF631
:102DE000F870044044F007044FF68F70044044F03C
:102DF00070042C81BDE8F081F0B504460D461646FE
:102E00001F463B46324629462046FFF7CCFF208925
:102E100040F480402081F0BD82884FF68F731A40C5
:102E2000828082880A438280704702894FF6F87355
:102E30001A40028102890A430281704702894FF6D3
:102E40007F731A40028102890A4302817047F0B5FC
:102E50000C4615461E460021002200230189028BE4
:102E6000038C4FF6F877394021434FF6FC473A4040
:102E700040F201173A434FF6DD773B404FF6FF77BC
:102E800007EA06172F433B43018102830384F0BD09
:102E900021B1828842F08002828004E082884FF66D
:102EA0007F731A4082807047A0F85010704700006E
:102EB000016821F001010160002101604160816031
:102EC000C160016121214161DB49884204D13D217A
:102ED000D94A103A91608CE0D7491831884205D11F
:102EE0004FF47461D44A103A916082E0D249303193
:102EF000884205D14FF47411CF4A103A916078E0BE
:102F0000CD494831884205D14FF07461CA4A103A20
:102F100091606EE0C8496031884204D1C749C64A11
:102F2000103AD16065E0C4497831884204D1C4497F
:102F3000C14A103AD1605CE0BF499031884204D167
:102F4000C049BD4A103AD16053E0BB49A83188421C
:102F500005D14FF03D51B84A103AD16049E0BA4925
:102F6000884204D13D21B84A083A116041E0B6498F
:102F70001831884205D14FF47461B34A083A1160A0
:102F800037E0B1493031884205D14FF47411AE4A6F
:102F9000083A11602DE0AC494831884205D14FF024
:102FA0007461A94A083A116023E0A7496031884258
:102FB00004D1A249A44A121F11601AE0A249783133
:102FC000884204D19E49A04A121F116011E09E4917
:102FD0009031884204D19B499B4A121F116008E03E
:102FE0009949A831884204D14FF03D51964A121FA9
:102FF0001160704710B500220268944B1A40CC68EB
:103000000B6823434C6923438C692343CC692343D6
:103010000C6A23434C6A23438C6A23434C6B23433F
:103020008C6B23431A430260426922F00702D1E904
:103030000B3423431A4342610B6943604B6883603E
:103040008B68C36010BD0021016041608160C16078
:10305000016141618161C161016241628162C1625C
:10306000016341638163704721B1026842F001024C
:10307000026003E0026822F001020260704721B1A1
:10308000026842F40042026003E0026822F4004257
:103090000260704721B1026842F02002026003E042
:1030A000026822F0200202607047416070470146CA
:1030B000486880B2704722B1036843F4002303607C
:1030C00003E0036823F4002303600161704721B12A
:1030D000026842F48022026003E0026822F4802247
:1030E000026070470AB1016100E0C16070470146AB
:1030F00000200A6802F400220AB1012000E000204A
:103100007047014600200A6802F001020AB101205E
:1031100000E000207047014600204A6902F03800B4
:10312000704730B503460A4600200024464DAB42A6
:1031300002D24149103901E04349103902F00055EB
:103140000DB14C6800E00C68414D2C4004EA0205CA
:103150000DB1012000E0002030BD02463A4B9A42FA
:1031600002D23548103801E03748103801F00053DA
:103170001BB1374B0B40C36002E0354B0B40836003
:10318000704710B501F080034BB122B1436943F0A1
:103190008003436103E0436923F080034361802996
:1031A0000BD02AB1036801F01E042343036004E03E
:1031B000036801F01E04A343036010BD70B502460E
:1031C000002000240025204EB24202D21A4B103BB0
:1031D00001E01D4B103B1F4E0E4036B11E2606EA85
:1031E000D124166806EA040502E0566906F0800557
:1031F00001F000560EB15C6800E01C68144E3440CB
:1032000004EA010616B10DB1012000E0002070BDF6
:1032100002460D4B9A4202D20748103801E00A4894
:10322000103801F000531BB1094B0B40C36002E0A2
:10323000074B0B4083607047106002403D00002048
:10324000400F002000003D20106402403F801CF031
:103250007D0F7D0F3C0F3C0F2DE9F04D81EA0304FB
:1032600004F0004B21F0004514464FF0000A23F013
:10327000004150EA050220D054EA01021DD0C5F3F6
:103280000A570246C5F31303C1F31300C1F30A56EC
:1032900040F4801543F48013A7EB0608101BD646B4
:1032A00008F2FD3873EB050002D308F1010801E0D4
:1032B00092185B41B8F1000F03DA00200146BDE827
:1032C000F08D00204FF48011064684460EE0171B57
:1032D00073EB050705D3121B63EB050306434CEAAA
:1032E000010C49084FEA300092185B4150EA01078F
:1032F000EDD152EA030012D082EA040083EA05010C
:10330000084305D0101BAB4106D20122002306E082
:1033100000224FF0004302E06FF0010253101AEB5D
:1033200006004CEB085110EB0A0041EB0B01BDE825
:10333000F04D00F0A7B800F0004230F000400AD095
:10334000C10D01F56071C0F3160042EA0151C208D7
:1033500040071143704700200146704701F00043C9
:1033600030B421F0004150EA010206D00A0DA2F566
:103370006072C1F31301002A02DC30BC00207047E8
:10338000440F44EAC104C100E01830BC00EBC25055
:1033900000F041B82DE9F05F0546002092469B46BB
:1033A00088460646814640241BE02846414647465B
:1033B000224600F020F853465A46C01A914110D3D5
:1033C00011461846224600F01DF92D1A67EB010838
:1033D0004F4622460120002100F014F917EB0009A6
:1033E0004E41201EA4F10104DFDC484631462A4646
:1033F0004346BDE8F09F202A04DB203A21FA02F080
:103400000021704721FA02F3D040C2F1200291401E
:103410000843194670470029A8BF7047401C49005F
:1034200008BF20F00100704710B4B0FA80FC00FA29
:103430000CF050EA010404BF10BC704749B1CCF154
:10344000200421FA04F411FA0CF118BF01212143E0
:103450000843A3EB0C01CB1D4FEA00614FEA10209B
:1034600042BF002010BC704700EBC350104400293D
:10347000A4BF10BC7047401C490008BF20F00100E9
:1034800010BC704710B5141E73F1000408DA401C1C
:1034900041F1000192185B411A4301D120F0010073
:1034A00010BD2DE9F04D92469B4611B1B1FA81F263
:1034B00002E0B0FA80F22032904600F0A3F8044611
:1034C0000F4640EA0A0041EA0B0153465A460843B8
:1034D00013D0114653EA010019D0C8F140025046FA
:1034E000FFF789FF05460E4650465946424600F012
:1034F00089F8084305D0012004E020463946BDE89C
:10350000F08D0020054346EAE0762C4337430A98C5
:103510006305E40AA0EB08000022FD0A44EA4754D0
:103520000A3002D500200146E9E70105101969417A
:10353000DDE9084500196941BDE8F04DA2E72DE934
:10354000F04D00231A461B1A8A4103DB0020014676
:10355000BDE8F08DC1F30A52C1F3130141F48015A7
:103560004FF0000BD10702D100186D41521E002709
:10357000044640F2FF11384601EB620A3E4680469F
:10358000024600204FF48011FFF735FFC219714148
:10359000BB1846EB0100B4EB030C75EB000C04D335
:1035A000E41A65EB000517460E46241908F10100E0
:1035B0006D4180463428E3DDF91946EB0600091B0E
:1035C000A84103D24FF0FF32134601E00022134618
:1035D0001BEB070046EB0A51BDE8F04DFFF752BF69
:1035E000064C074D06E0E06840F0010394E8070050
:1035F00098471034AC42F6D3FCF7CAFD043A0008F1
:10360000243A0008202A04DB203A00FA02F10020C4
:1036100070479140C2F1200320FA03F31943904010
:10362000704770B58D1810F8014B14F0030201D1EA
:1036300010F8012B231106D110F8013B03E010F81C
:10364000016B01F8016B521EF9D1ABB110F8012BDF
:1036500004F00C048A1A0C2C03D0A2EB84129B1CDD
:1036600008E010F8014BA2EB0422F8E712F8014B36
:1036700001F8014B5B1EF9D5A942D4D3002070BDDF
:103680000FB4054B10B503A9044A029800F05AF88C
:1036900010BC5DF814FB00001D0E00080C1000208B
:1036A00000B52DED048BB0EE409AF0EE609A83B039
:1036B00051EC190BFFF743FF41EC180B18EE100A01
:1036C00018EE901A8DED008B002818BF01200843DA
:1036D00020F00040C0F17F6000F1E040C00F14D046
:1036E00019EE101A19EE900A8DED009B002918BFF3
:1036F0000121084320F00040C0F17F6000F1E0406C
:10370000C00F04BF012000F017F8B0EE480A03B064
:10371000F0EE680ABDEC048B00BD02E008C8121F81
:1037200008C1002AFAD170477047002001E001C1AA
:10373000121F002AFBD17047014908607047000042
:10374000241000202DE9FF4F8DB09B460F46044604
:10375000002606E025280BD05A460F999047641C96
:10376000761C20780028F5D111B03046BDE8F08FE6
:103770000025A8460122984900E0054314F8013FBE
:10378000203B02FA03F00842F7D120782E2817D107
:1037900014F8010F45F004052A280ED06FF02F020F
:1037A0002078A0F1300109290AD808EB880102EB42
:1037B000410100EB0108641CF2E757F8048B641C1C
:1037C00020786C280DD004DC4C2812D06A2811D146
:1037D00004E074280DD07A280CD10AE045F40015D5
:1037E00007E0617845F48015814202D1641C05F53B
:1037F0008015641C2278692A45D008DC002AB3D0E1
:10380000582A69D0632A10D0642A08D13BE0702A74
:1038100067D0732A13D0752A5CD0782A5CD0104602
:103820005A460F999047761CD3E017F8040B8DF891
:10383000000000208DF80100E946012003E057F860
:10384000049B4FF0FF3069074FF0000501D40AE0F8
:103850006D1C45450DDA8542FADB19F80510002983
:10386000F6D106E06D1C8542FCDB19F80510002935
:10387000F8D12E4404E019F8010B5A460F999047ED
:103880006D1EF8D2A5E00A200021CDE90801C5F39C
:10389000025002280DD001CFC117031E71F10003A1
:1038A0000DDA4FF0000CD0EB0C006CEB01012D2376
:1038B00008E0FF1D27F00707F7E80201EDE72B05F9
:1038C00004D52B238DF8283001233BE0EB0739D0BA
:1038D0002023F7E70A2000E010200021CDE90801AD
:1038E00007E01020002145F00405CDE908014FF064
:1038F0000808C5F3025002280FD001CF00214FF075
:10390000000A2B071FD5702A0DD0DDE908C38CF003
:10391000100C5CEA030C0CD015E0FF1D27F0070724
:10392000F7E80201EBE740228DF828204FF0010A6A
:103930000BE050EA010306D030238DF828308DF8D3
:10394000292002239A46582A04D024A20DF12009E6
:103950000B9209E026A2F9E7DDE90823FFF71AFD3B
:103960000B9B9B5C09F8013D50EA0102F4D1ADEBE1
:10397000090020300890680701D44FF00108089929
:10398000884502DDA8EB010000E00020804600250C
:1039900006E00AA85A46405D0F9990476D1C761CB8
:1039A0005545F6DB04E030205A460F999047761CC7
:1039B000B8F10001A8F10108F5DC05E019F8010BE8
:1039C0005A460F999047761C0899481E089000297E
:1039D000F4DC641CC5E600000928010030313233F4
:1039E000343536373839616263646566000000003B
:1039F0003031323334353637383941424344454625
:103A000000000000243A00080000002028100000F8
:103A1000223600084046000828100020C812000086
:103A20002A3700086005004000000420115DDD21F8
:103A30003BA3227E180000412D7EA5412D082009C0
:103A400000C000405DDD82E71C311491302011AAD6
:103A50002A94126B39460649327C0CA8118E230831
:103A60002140200521F779311C2114A154601195C2
:103A7000C6B13F461A2B1E58EE3735BEB4C53E20A0
:103A8000A00D63A97138DF089A28B7CDC53E78200C
:103A90000563A92B1E4C212C2005BEB47C0C38A03C
:103AA0001161AC213B95C6BAF9BAE571383BA7372D
:103AB000359C201121F766D756D53F3D3BA78E2375
:103AC000A811C9CA50200961AC7E18AA2AC1C27CBB
:103AD0002144A1F020111E3BB504693E9201C83C6F
:103AE0002403EB3564090821D020056C30060E1C38
:103AF0002114A1E46011AE240917AF37D607882E30
:103B00008D0F7E1E5D1B20A40D24188C1F1E34F10A
:103B10000AB3269015082005140B60274C212C2091
:103B2000057104FB2A382500A40DC7FD5A2E9D2CD3
:103B30001211FE15E7202C201187F05334B2281300
:103B400014480D202602EAE53650251820059CE38E
:103B50002B397C2144A5A420114ED7C53C9320EFDE
:103B6000198FFB6C2F78D1153E682530A40DE2CB60
:103B70000F3F641CC61CB8F2683374200597C1FB64
:103B80003FAC215C2005F0BCEC3F802548A40DA68D
:103B9000B8853FD5133D2282E1DB3998201140B131
:103BA000AF3D790FDA244DD9423C2EAE423C9825E8
:103BB0006020058EAB823ADC2174A5BC2011B1A730
:103BC0001236A906CE2915CA4F3F78A66833F425C8
:103BD00078A40DBCA576303902212C38C3EC3FE027
:103BE0002405BCA5CE290C218C200578A62026C84A
:103BF000A81109BAB13FB1A73D2257F976304DB7A8
:103C00004F3F0420118EABEF19ECF474325EB21505
:103C10003E2EAE9015E024092DB03F3D40B112116B
:103C20003C21A4A9282411A6B8D6072BEC1236C82B
:103C3000AADB39F0BC240354296CA80D97C16EFE91
:103C4000DCE7B03734A8E5364C153826F56C21BCD6
:103C5000240578D173F010A811EDA579314ED7ED78
:103C6000EB6DDF823A99A56C2F7024119CE33AE347
:103C700052DBB63B99A5FB2A02EA19DF282409ED9D
:103C8000A59A2887F026DB9C21D4A9944411C7FD6E
:103C9000DFD363D3AF3D34A8E720710494D040A8AC
:103CA0000F2B1E140B8CCD94CF723EC8AA5D1BB88F
:103CB0002405241850C8CC21EC24057E1E25C658A6
:103CC000A8112DB09412AE244AC451C8853F5EB2EB
:103CD0008D0FDC24116C308EC1E2C4D43F4DB7642B
:103CE00009EB35B1C070240909BA46061E3B2CC049
:103CF000FC2504ADC0032011D03E2E019B3F650082
:103D0000363FC9009A3D5B02082D100320055F3C39
:103D100088031C2114AD24036011D939E205023E49
:103D2000F701F43BED038E380E0720AC0D3F373919
:103D300008313DC002463A7E054803200592348E84
:103D40000A4C212C20053433B70B382D4003AC0D21
:103D5000D231DF0C8A3B5104CE369D086C03201112
:103D6000022F2B0FB23A1A0505352B0A932D50104E
:103D7000502D58032005212C73117C2144AD74046F
:103D800020113129B413FD38AA065B31410DB32748
:103D9000D214942D7003AC0D3226EE151F38720725
:103DA0007B2FCA0EB403200526232118AC215C20EA
:103DB000059C213719802D8803AC0D0E204B1A5D10
:103DC000360109A42BD311D8032011EB1C6C1C78ED
:103DD00035C709AF295413561B791D982DA0032010
:103DE00005BE19841EDC2174ADFC032011881691D8
:103DF00020A933540BB1254C16EA149321F42DB8A5
:103E000003AC0D4A139222BF321A0CA923C4172007
:103E1000042405051088240C218C2005610E7E25C4
:103E2000C82DD003AC0DBB0C7126E430A40D891F46
:103E3000A71A440420116D094C28F42F680E721D36
:103E4000121CC4073529E02DE80324051B061A2A95
:103E50003C21A4BD6804241002D82B0E2EEE0F3591
:103E600019DC1E1C01B22C542DAC04AC0D72FF8861
:103E70002D182DB11011173A208C0424051DFC2893
:103E80002F6C21BC240573FAF22F102D1804AC0DF1
:103E9000CAF8B830282B3412BF12E722B00424111C
:103EA00079F536322D2AF41291103524D2F3EF32FF
:103EB000282D300424052CF2A3339C21D4ADD40446
:103EC0002411E3EEFF34332873142E0CC12641ED88
:103ED000A535402D4804AC0DA1EB483633273115EC
:103EE000FA09FE27F804240565E87E37CC21EC2486
:103EF00005CBE61238582D6004AC0D32E5A1382F01
:103F000025AB168D05652A1C05241108E2B0392B56
:103F100024661755038F2B77E0303A702D780424F0
:103F200005E9DEAB3AFC2504AD90062811D5DB92FD
:103F30003B1F22DB18E4FECF2D4FDAFD3B142D9002
:103F400004AC0DCDD8643C17219319ABFCE42E646E
:103F5000052805D3D5213D2C251C24055CD4783DAE
:103F6000A02DA804AC0DE8D2C93D041F021B3CF8EB
:103F7000F930880524110CD05C3EF81DB81B06F6FC
:103F8000F831A5CE9D3EB82DC004280541CDD83EC0
:103F90005C2534ADAC05241188CA403FDD1B201DD3
:103FA0009FF1DF3332C96B3FD02540AC0DE1C791A3
:103FB0003FCE1AD31D6FEFC634D00528054EC5CCB1
:103FC0003F8C254C24050CC4E13FE82DF004AC0DDA
:103FD000CFC2F13FAD18341F16EB7D36F4051E65D8
:103FE0007405280D9B17E31FEFE84B3738BFFF3FE1
:103FF000002D0805280511BEF83FBC2564AD180644
:104000002811D4BBDB3F74153D21AAE4CF38BFBAD9
:10401000C43F182D8C06AC0DAFB9A73F5F14E82143
:104020008EE284393C062805A2B75D3FEC257C284A
:1040300005A5B6303F302D3805AC0DAFB5FD3E348B
:10404000123B2364DED33AF8072811D5B3883E1D0E
:1040500011E22357DC6D3BF2B2453E482D50052C52
:104060000515B2FC3D1C032594AD84062C1171B0DE
:104070005B3DED0E2C254DD8853CA9AF033D3403A7
:1040800025A0AC0DE8AEA53CD40DCF2551D6033DFF
:10409000A8062C057BADDA3B4C0325AC2805D0AC3B
:1040A0006D3B782D8005BC0C2BACFA3AA10B112787
:1040B0006DD2E3CC062811F8AA063A870AAF278505
:1040C000D0453E6AAA8439902D98052C05E3A9FDB8
:1040D000387C0325C4ADF0062811EBA8E13752085F
:1040E000E728CCCCEB3E7BA84B37A82DB005AC0D18
:1040F00012A8B13636078129FBCA303F14072C05B8
:1041000057A76E35AC0325DC280505A7C634C02D9E
:10411000C805BC0CBBA61934FF04B02A72C79C3872
:104120000728113EA6B232E303452BBAC5C43F0BA4
:10413000A6F831D82DE0052C05E0A53931DC0325A2
:10414000F4AD5C072C11A1A5AF2FAA016A2C66C2A1
:10415000F53F8DA5E42EF4032DF805BC0C81A515C3
:104160002E8E00FA2CCAC0FF80072C0581A56A2C70
:104170000C04290C2C058DA58F2B0803100473BE8D
:10418000FB48AC0BB02A56FE152EB0BDF53FA40778
:10419000100CE0A5E72839FD9F2E32BCE1902FFEE0
:1041A000272003100477BBD4A82F11273C0429240F
:1041B000ADC807100CBBA62C2501FBAF2F56B99C30
:1041C000F02F352454042930BC0C57A73B23E5F9C4
:1041D0003430F8B76BEC072C0512A83D216C04298C
:1041E0003C2C057BA83A205003AC1100B60F3FEBE6
:1041F000A8341FAEF739315EB5EB3E140A140CE358
:10420000A9201D93F6B93122B49DB02F121C68036A
:10421000140488B372C82F021B9C042954AD3408BF
:10422000180C2BACDB185FF4B232CDB1E3102FC405
:1042300017B4042960AC0D7BADAB1645F32C33B538
:10424000B0783D58082C05E8AE7314CC04296C2CCA
:1042500005A9AF54139803180428AFC588AC0B34D4
:104260001213F11934A9AE853C7C08180C15B2EE76
:104270000FFBEF8D34B6ADFDD02FCA0EB00318047E
:1042800041ADB6E82FA40DFC042984ADA0081C0C98
:10429000AFB5540BCCED6E35F6ABD330032F2B0AF4
:1042A00014052990AC0DA2B70109B6ECDC3529AB99
:1042B000303AC4082C05AFB9AA062C05299C2C0558
:1042C000BFBA7E05E003AC110FAA2B39D4BB510451
:1042D0008CEAB136B7A9CF38E8082C1111BEF70126
:1042E00078E9183712A9123838BFC900F8032C0929
:1042F000C5A8B03765C09BFF5C0529B4AD0C093C6F
:1043000011CFC240FD53E7E137F1A77D360CC4134E
:10431000FC740519C0AC0D4EC5E6FA42E64238748D
:10432000A7A53530092C05E1C78EF88C0529CC2CC2
:104330000532C963F72804AC11D3A6533488CA39AF
:10434000F623E4FD38A4A6DF3354092C1141CDE651
:10435000F315E3583950A6EF32A5CEBFF240042C36
:10436000092CA674320CD098F1BC0529E4AD78096B
:104370002C11E8D24FEFFCE0063AD3A5F9305CD41B
:104380002DEED40529F0AC0DD3D50CEDF2DF593A62
:10439000A9A5F22F9C092C05CDD8CFEAEC0529FC64
:1043A0002C054FDAB4E97004AC1185A55A2ED5DB83
:1043B0009AE8E1DDFA3A7FA5CF2DC0092C11E9DE9C
:1043C0006DE6DADC473B7FA5B22C77E059E588043F
:1043D0002C0985A5212C08E248E41C062D1403AD08
:1043E000E4092C1132E52DE2D1DADA3BA9A5652AE0
:1043F000CBE624E134062DC40AAC0D65E81DE0CE01
:10440000D9203CD3A53529080A2C05A1EB18DE4C90
:10441000062D2C032C0541ED19DDB804AC112CA69A
:104420006027E3EE1EDCCDD7A53C50A6C1262C0AA2
:104430002C112CF231DACFD6E43CA4A67E25D2F39F
:104440003FD9D0042C09D3A6DA2479F551D87C06BB
:104450002D4403AD500A2C11CAF87FD6D8D45B3D49
:1044600074A7E72273FA9BD5E8042D5003AC0D1D09
:10447000FCBBD4DFD3933DF1A79321740A2C0572C2
:10448000FF06D3AC062D5C032C051C0131D20005C0
:10449000AC11C5A88C1FC70261D1F2D1FC3D12A995
:1044A000DC1E980A2C111B06CCCFFED02D3EB7A9DE
:1044B000791DC40707CF18052C090FAAC61C6D0962
:1044C00047CEDC062D7403ADBC0A2C11BB0CD4CC3A
:1044D0001CCF883E29ABA71A610E21CCF4062D8093
:1044E00003AC0D051073CB2ECEB13EF6AB37199849
:1044F0000D2C054A1324CA0C072D8C032C05EA1435
:1045000083C94805AC1141AD09178816E8C857CCD6
:10451000FD3EB6AD4C16040B2C11BE19BEC76ECBBA
:10452000203FA9AED214561B31C760052C0928AF15
:104530001314EB1CA8C63C072DA403AD280B2C11AB
:104540000E20A7C5A3C95D3FB5B0D3119C212DC5D1
:1045500054072DB003AC0D2623B9C4C1C8783FCD94
:10456000B150104C0B2C053226E0C36C072DBC0358
:104570002C05B3277BC39005AC1188B3060E3129F7
:104580001CC303C7A73F22B4410D700B2C11212C73
:104590006DC227C6BB3F5EB5B70B932D1DC2A805E4
:1045A0002C0900B6F10A022FD3C19C072DD403AD0C
:1045B000940B2C11D2314FC176C4DB3FF8B79D0864
:1045C000343315C1C0052DA40CAC0D9234E0C0A14C
:1045D000C3E73F56B90E07B80B2C053F3788C0CC50
:1045E000072DEC032C058E3864C0D805AC1177BBC1
:1045F000B504D93945C0FEC1F83F32BCED03DC0B30
:104600002C115F3C19C030C1FD3FB0BD5B029A3D2B
:104610000BC0F0052C0973BE9201D03E03C0FC070D
:104620002D0404310140047A030A09B00C00000192
:104630000203040607080900012116C11A00000040
:040000050800018965
:00000001FF
