:020000040800F2
:10000000A8080020650100088B0D0008830D00087A
:10001000870D0008810A000879110008000000001F
:10002000000000000000000000000000850E000835
:10003000850A0008000000008D0D0008710F0008FF
:100040007F0100087F0100087F0100087F01000890
:100050007F0100087F0100087F0100087F01000880
:100060007F0100087F0100087F0100087F01000870
:100070007F0100087F0100087F0100087F01000860
:100080007F0100087F0100087F0100087F01000850
:100090007F0100087F0100087F0100087F01000840
:1000A0007F0100087F0100087F0100087F01000830
:1000B0007F0100087F0100087F0100087F01000820
:1000C0007F0100087F0100087F0100087F01000810
:1000D0007F0100087F0100087F0100087F01000800
:1000E0007F0100087F0100087F0100080000000078
:1000F0000000000000000000000000000000000000
:1001000000000000000000007F0100087F010008DF
:100110007F0100087F0100087F0100087F010008BF
:100120007F0100087F0100087F0100087F010008AF
:100130007F0100087F0100087F0100087F0100089F
:100140007F0100087F0100087F0100087F0100088F
:10015000DFF80CD000F05EFC004800478922000860
:10016000A80800200648804706480047FEE7FEE74B
:10017000FEE7FEE7FEE7FEE7FEE7FEE7FEE7FEE757
:10018000750F000851010008F0B480EA0102D40F95
:100190004200B2EB410F02D20246084611464A0025
:1001A00042D0C30DDDB2C1F3C752AD1A202D35DAEE
:1001B000C1F3160141F4000204B15242C5F1200618
:1001C00002FA06F12A411044B3EBD05F23D0C4B148
:1001D000012DA0EBC35009DCF0BC4FF0004202EA55
:1001E000C352DBB200F5000000F01FBB400000F17D
:1001F000807000EBC350A0F1807040EAD1704900DC
:1002000009E0490841EAC071A0EBC35000F50000C5
:10021000400800EBC350F0BC00F0FEBA614201227E
:1002200002EB4101001BF6E7F0BC704781F0004192
:10023000AAE780F00040A7E780EA010210B502F0CB
:100240000043400022D04A001FD0010E01EB126192
:10025000C0F35600C2F3560240F4000042F400021C
:10026000A0FB022000047F39140400D0401C50EA97
:10027000124001D44000491EC2B20C0604EBD0105B
:10028000401C4008802A02D003E0002010BD20F06E
:100290000100002900DA0020184310BD30B480EAC4
:1002A000010202F0004530F0004221F0004013D07E
:1002B00090B1C30DD40DC2F31601C0F31600E41AB9
:1002C00041F4000140F400027D34914201D3641CEA
:1002D00000E04900002C02DA30BC002070474FF4E7
:1002E00000000023914201D3891A034340084FEADA
:1002F0004101F7D151B1914202D14FF0004105E0E7
:1003000002D24FF0010101E06FF0010103EBC45094
:10031000284430BC00F080BA2DE9FE4F804681EAC7
:100320000300C00F0C46009021F0004123F000456F
:10033000B8EB0200A94105D24046214690461C4632
:100340000B46024623F00040104347D0270DC7F369
:100350000A00C3F30A510290401A019040286BDA58
:10036000C3F3130040F4801B0098924620B1002391
:10037000D2EB030A63EB0B0B01985946C0F1400224
:10038000504600F018FA06460D4650465946019A66
:1003900000F030FA10EB08006141002487EA1152A6
:1003A00084EAE7731A4340D0009A62B3019A012AA3
:1003B0004FEA075215DC001B61EB02014FF00042CF
:1003C00002EA0752CDE90042001C41F58011324695
:1003D0002B4600F067FA03B0BDE8F08F4046214697
:1003E000F9E7001B61EB0201001C41F580130018C6
:1003F0005B412018A2F5001747EB030140EAD570D6
:10040000B6196D4111E06D084FEA360645EAC07530
:100410004FEA0752001B61EB0201001C41F58011FD
:1004200049084FEA30000019514132462B4603B0CB
:10043000BDE8F04F00F027BA0098012240000023E9
:10044000D0EB020263EBE073009821464FEAE074C0
:10045000B8EB000061EB0401E9E783F000435BE7E0
:1004600081F0004158E72DE9FE4F81EA030404F0D2
:10047000004421F0004100944FF0000B23F00043B2
:1004800050EA01045ED052EA03045BD0C3F30A547D
:10049000C1F30A552C44A4F2F3340194A0FB025496
:1004A000C1F3130141F48011C3F3130343F4801328
:1004B00001FB024400FB034E840A970A44EA81547C
:1004C00047EA8357A4FB076802958D0A05FB078559
:1004D0004FEA932C04FB0C542705029D4FEA065863
:1004E00047EA1637B5EB08056EEB070C870E920E40
:1004F00047EA811742EA8312A7FB0201B6EB0B0120
:1005000064EB00042B0D43EA0C335E1844EB1C50E3
:10051000DA465146E7FB0201C5F313044FEA0B33F9
:1005200043EA14534FEA0432019C43EA0603A4F160
:100530000C040294009CCDE900B400F0B3F903B0C0
:10054000BDE8F08F00200146F9E72DE9F04D81EA82
:10055000030404F0004B21F0004514464FF0000A5C
:1005600023F0004150EA050220D054EA01021DD0D8
:10057000C5F30A570246C5F31303C1F31300C1F3D1
:100580000A5640F4801543F48013A7EB0608101BAD
:10059000D64608F2FD3873EB050002D308F10108D6
:1005A00001E092185B41B8F1000F03DA0020014628
:1005B000BDE8F08D00204FF48011064684460EE021
:1005C000171B73EB050705D3121B63EB05030643EB
:1005D0004CEA010C49084FEA300092185B4150EA9E
:1005E0000107EDD152EA030012D082EA040083EA47
:1005F0000501084305D0101BAB4106D201220023A0
:1006000006E000224FF0004302E06FF001025310B9
:100610001AEB06004CEB085110EB0A0041EB0B0102
:10062000BDE8F04D00F02FB9C10F80EAE07008443A
:10063000CA079623002100F0F8B80EB5C10F80EA72
:10064000E0700844CA07002140F233438DE80E00F1
:100650000A460B4600F026F903B000BD70B5C1F3A1
:100660000A5201F000450024C1F3130140F2FF33A8
:1006700041F480119A4201DA002070BD40F2334308
:100680009A42A2F2334203DC524200F0A3F800E0A7
:1006900090402C43F1D0404270BD00F0004230F059
:1006A00000400AD0C10D01F56071C0F3160042EAA6
:1006B0000151C208400711437047002001467047AE
:1006C00030B5041E71F1000404DB4FF000444042D9
:1006D00064EB0101141E73F1000405DB1C464FF0AE
:1006E0000043524263EB0403994208BF904230BD7D
:1006F00001F0004330B421F0004150EA010206D07D
:100700000A0DA2F56072C1F31301002A02DC30BCAD
:1007100000207047440F44EAC104C100E01830BC17
:1007200000EBC25000F078B830B50B46014600200F
:100730002022012409E021FA02F59D4205D303FAA3
:1007400002F5491B04FA02F52844151EA2F1010224
:10075000F1DC30BD2DE9F05F0546002092469B4656
:1007600088460646814640241BE0284641464746C7
:10077000224600F02FF853465A46C01A914110D332
:1007800011461846224600F016F82D1A67EB0108AC
:100790004F4622460120002100F00DF817EB00091A
:1007A0004E41201EA4F10104DFDC484631462A46B2
:1007B0004346BDE8F09F202A04DB203A00FA02F10C
:1007C000002070479140C2F1200320FA03F319433F
:1007D00090407047202A04DB203A21FA02F00021E1
:1007E000704721FA02F3D040C2F120029140084341
:1007F00019467047202A06DBCB17203A41FA02F04F
:1008000043EAE07306E041FA02F3D040C2F120026D
:1008100091400843194670470029A8BF7047401C03
:10082000490008BF20F00100704710B4B0FA80FC06
:1008300000FA0CF050EA010404BF10BC704749B143
:10084000CCF1200421FA04F411FA0CF118BF0121B3
:1008500021430843A3EB0C01CB1D4FEA00614FEA93
:10086000102042BF002010BC704700EBC350104462
:100870000029A4BF10BC7047401C490008BF20F0ED
:10088000010010BC704710B5141E73F1000408DAA3
:10089000401C41F1000192185B411A4301D120F044
:1008A000010010BD2DE9F04D92469B4611B1B1FA01
:1008B00081F202E0B0FA80F220329046FFF77BFF2F
:1008C00004460F4640EA0A0041EA0B0153465A46E5
:1008D000084313D0114653EA010019D0C8F1400271
:1008E0005046FFF777FF05460E46504659464246AA
:1008F000FFF761FF084305D0012004E02046394698
:10090000BDE8F08D0020054346EAE0762C433743EE
:100910000A986305E40AA0EB08000022FD0A44EAF5
:1009200047540A3002D500200146E9E701051019B5
:100930006941DDE9084500196941BDE8F04DA2E7CC
:100940002DE9F04D00231A461B1A8A4103DB0020D3
:100950000146BDE8F08DC1F30A52C1F3130141F421
:1009600080154FF0000BD10702D100186D41521EC7
:100970000027044640F2FF11384601EB620A3E466A
:100980008046024600204FF48011FFF723FFC21972
:100990007141BB1846EB0100B4EB030C75EB000C86
:1009A00004D3E41A65EB000517460E46241908F136
:1009B00001006D4180463428E3DDF91946EB06005D
:1009C000091BA84103D24FF0FF32134601E0002279
:1009D00013461BEB070046EB0A51BDE8F04DFFF74D
:1009E00052BFC1F30A52C1F3130140F2FF3341F485
:1009F00080119A4202DA00200146704740F23343E8
:100A00009A42A2F2334202DC5242FFF7E3BEFFF702
:100A1000D2BE0000064C074D06E0E06840F001033E
:100A200094E8070098471034AC42F6D3FFF794FBE4
:100A3000402900086029000870B521F000430343F5
:100A40000CD0C1F30A550024D5EB040564EB040374
:100A5000D617AD1AB34102DB0020014670BD201845
:100A600041EB025170BD0EB540F2334102910021BD
:100A7000CDE900110A460B46FFF714FF03B000BD95
:100A800000BFFEE770470FB47CB504460A9908988A
:100A9000FFF7D2FB054609990798FFF7CDFB0646FD
:100AA0002946FFF7C3FB0090DDE90801FFF7C4FB0F
:100AB00005460A990798FFF7BFFB06462946FFF748
:100AC00063FB0190DDE90001C4E900017CBC5DF835
:100AD00014FB00002DE9F04F8FB00446002660495A
:100AE000086800EBD07149100C915D480068401E09
:100AF0000B9000251CE0B5420FDA04EBC60103C9D8
:100B0000CDE9050104EBC60004EBC50206CA06C028
:100B100004EBC500DDE9051206C00C9F04E0F61BDE
:100B2000384607EBD0714F10B742F8DD3E446D1CDC
:100B30000B988542DFDB4A4800680E9001200D903B
:100B400002E00D98401C0D900E9800EBD0714910FA
:100B50000E910129F5D188467BE0A8F10100022120
:100B600001FA00F9484609EBD0714FEA610A4FF0EB
:100B70007E50099000200A905046FFF75EFD024625
:100B80000B46CDE9000137483749FFF7DEFCCDE9D8
:100B90000201FFF7ADFD049001F0F2FA0790504614
:100BA000FFF74BFD02460B46CDE900012D482E49CB
:100BB000FFF7CBFCCDE90201FFF79AFD049001F0AD
:100BC000CDFC80F00040089000263CE035462CE04B
:100BD00005EB0A0B0A9804EBCB0C0090099B05A8C7
:100BE000DCE90012FFF74FFF54F835000599FFF7D5
:100BF0001DFB44F83B0004EBC50206995068FFF763
:100C000015FB04EBCB01486054F835000599FFF75C
:100C1000BBFA44F8350004EBC50206995068FFF7AB
:100C2000B3FA04EBC50148604D440D480068401E0E
:100C3000A842CDDA0898009009A8079BDDE90912BF
:100C4000FFF721FF761CAAF10100B042BEDA08F1DD
:100C500001080D98804580DD0FB0BDE8F08F0000E1
:100C60001C000020182D4454FB2109402DE9F041BF
:100C7000024600250026002000230024002791F8CA
:100C800003C00CF00F0591F803C00CF0100CBCF180
:100C9000000F03D091F802C04CEA050591F800C09E
:100CA000BCF1000F31D0146800202BE04FF0010C94
:100CB0000CFA00F3B1F800C00CEA03069E4220D102
:100CC00083004FF00F0C0CFA03F7BC4305FA03FC4A
:100CD0004CEA040491F803C0BCF1280F06D14FF090
:100CE000010C0CFA00FCC2F814C00AE091F803C031
:100CF000BCF1480F05D14FF0010C0CFA00FCC2F812
:100D000010C0401C0828D1D31460B1F800C0BCF159
:100D1000FF0F34DD546800202EE000F1080C4FF086
:100D2000010808FA0CF3B1F800C00CEA03069E4271
:100D300021D183004FF00F0C0CFA03F7BC4305FAE6
:100D400003FC4CEA040491F803C0BCF1280F05D160
:100D500000F1080C08FA0CF8C2F8148091F803C0EE
:100D6000BCF1480F07D100F1080C4FF0010808FA58
:100D70000CF8C2F81080401C0828CED35460BDE89F
:100D8000F08100BFFEE700BFFEE77047704700003C
:100D900029B1064A92690243044B9A6104E0034A6E
:100DA00092698243014B9A61704700000010024033
:100DB00030B500210022002400232D4D6D6805F080
:100DC0000C0121B1042905D0082923D105E0294DC2
:100DD000056022E0274D05601FE0254D6D6805F494
:100DE0007012234D6D6805F48034022505EB9242A4
:100DF0001CB9214D554305600BE01D4D6D6805F490
:100E000000351DB11C4D5543056002E0194D554399
:100E1000056002E0174D056000BF00BF144D6D680E
:100E200005F0F0010909154D6B5C0568DD40456072
:100E30000F4D6D6805F4E061090A104D6B5C456863
:100E4000DD4085600A4D6D6805F46051C90A0B4D9F
:100E50006B5C4568DD40C560054D6D6805F440413B
:100E6000890B074D6B5CC568B5FBF3F5056130BDBB
:100E70000010024000127A0000093D00000000202E
:100E800010000020704710B500F002F810BD0000FF
:100E90000CB50020019000903348006840F4803089
:100EA0003149086000BF3048006800F4003000900D
:100EB0000198401C0190009818B90198B0F5A06FF6
:100EC000F1D12948006800F4003010B101200090F1
:100ED00001E0002000900098012843D123480068D9
:100EE00040F01000214908600846006820F0030027
:100EF00008600846006840F0020008601A48406830
:100F0000194948600846406848600846406840F40F
:100F1000806048600846406820F47C1048600846BD
:100F2000406840F4E81048600846006840F080706F
:100F3000086000BF0C48006800F000700028F9D07D
:100F40000948406820F003000749486008464068A7
:100F500040F00200486000BF0348406800F00C0009
:100F60000828F9D10CBD000000100240002002400A
:100F70007047000010B51348006840F001001149A7
:100F8000086008464068104908400E494860084615
:100F900000680E4908400B4908600846006820F4C4
:100FA000802008600846406820F4FE0048604FF446
:100FB0001F008860FFF767FF4FF00060044908607A
:100FC00010BD0000001002400000FFF8FFFFF6FE19
:100FD00008ED00E021B1828942F40052828104E0F0
:100FE00082894DF6FF731A40828170471FB500F069
:100FF000B3F84FF4E13000900020ADF80600ADF8F2
:101000000400ADF80800ADF80C000C20ADF80A00A3
:101010006946054800F034F801210348FFF7DAFF7C
:1010200000F004F81FBD00000038014008B518208A
:101030008DF803004FF40070ADF8000003208DF828
:10104000020069460648FFF711FE04208DF80300F0
:101050000002ADF8000069460148FFF707FE08BD31
:101060000008014002460020B1F5007F00D100BF1A
:1010700013880B400BB1012000E0002070470000F6
:101080002DE9F04786B005460E460024A24600BF73
:10109000A1460027B08900B100BF2F462C8A4CF62C
:1010A000FF700440F08804432C82AC894EF6F310A4
:1010B0000440B08831890843718908430443AC81F6
:1010C000AC8A4FF6FF400440B0890443AC8201A8CB
:1010D000FFF76EFE1F48874202D1DDF810A001E045
:1010E000DDF80CA0A88900F4004040B10AEBCA006A
:1010F00000EB0A1031684900B0FBF1F807E00AEB99
:10110000CA0000EB0A1031688900B0FBF1F86420D6
:10111000B8FBF0F004012009642101FB1089A889C3
:1011200000F4004040B1322000EBC900B0FBF1F008
:1011300000F00700044308E0322000EB09106421AE
:10114000B0FBF1F000F00F0004432C8106B0BDE8C5
:10115000F08700000038014010B5012144F204007E
:10116000FFF716FE10BD01468888C0F308007047DF
:10117000C1F308028280704700BFFEE70FB4054B41
:1011800010B503A9044A029800F014FC10BC5DF8E5
:1011900014FB00006522000814000020490050EAFA
:1011A000C12018BF04204A0D18BF40F0010040F2D2
:1011B000FF72B2EB515F08BF40F00200012808BF88
:1011C000052070472DE9F74F144694B00021C4E97B
:1011D00002111599079121F00045C9498D4206DC9D
:1011E0001599C4E9000117B00020BDE8F08FC5498A
:1011F000DFF814A3A9423CDD0799C44E0029C44F6F
:10120000C44A1599534619DDFFF727F9554506D00D
:10121000C14AC24BFFF721F9C4E900010AE04FF0CF
:10122000D352BE4BFFF719F932463B46FFF715F98B
:10123000C4E9000117B00120BDE8F08FFFF76CF89A
:10124000554506D0B44AB54BFFF766F8C4E900012E
:101250000AE04FF0D352B14BFFF75EF832463B46FF
:10126000FFF75AF8C4E9000117B04FF0FF30BDE8AE
:10127000F08FAB49A942159978DB21F000418346F4
:101280008846A84AA84BFFF7EEF80022A74BFFF7C5
:1012900043F8FFF7E3F90990FFF7CFF906460F4649
:1012A0009C4A5346FFF7DFF843465A46FFF7D8F803
:1012B00080468A46984A994B30463946FFF7D3F81C
:1012C0002A0D01250B9242465346FFF7C9F8032D1C
:1012D000C4E9000139D00B98C1F30A51401A05EB5B
:1012E00045111139814230DA9148C346784400EB08
:1012F0000510CDF80CA00C90D0E9002330463946FB
:10130000FFF7B1F802460B46049106905846039940
:10131000FFF7A3F880468A4602460B4658460399D3
:10132000FFF79BF8049B069AFFF797F883460C9803
:1013300003913946D0E902233046FFF794F85A4624
:10134000039BFFF78AF86D1CBDE707980028A2BF32
:10135000099817B0BDE8F08F616881F000416160C5
:10136000099817B04042BDE8F08FFFE78446159812
:10137000C1F31301C0F30A50A0F2F5304FEA601830
:1013800000F01F06C6F12000139000200690079081
:1013900041F4801E05206D4676B1664A08EB0001D7
:1013A0007A4452F8213002EB8101B3404A68139924
:1013B00022FA01F1194305E05F4908EB0002794484
:1013C00051F82210A1FB0E27A1FB0C131A449A42DC
:1013D00034BF0123002303EB070A05EB8003D3E9A5
:1013E00001B70F448F4234BF0121002193448B4445
:1013F00011B1934502D903E0934501D2012100E0E8
:101400000021C3E901B7514445F82010011EA0F1A5
:101410000100C1DC0298059F00F10050800F12907E
:101420000298DDE903568000FFF707F98346284656
:101430000D91FFF718FB6FF01D02FFF7FDFACDE9E4
:101440000E013046FFF70FFB6FF03D02FFF7F4FA95
:1014500080468A463846FFF706FB6FF05D02FFF7CD
:10146000EBFA0746424653461191FEF755FFDDE978
:101470000E23FEF751FF5A460D9BFEF74DFF002548
:101480000E465A4628460D9BFEF7E7FFDDE90E2380
:10149000FEF7E3FF42465346FEF7DFFF3A46119B55
:1014A000FEF7DEFFDFF898A0244A5346FEF7DBFF85
:1014B00007468846234A244B31462846FEF7D3FF89
:1014C0003A464346FEF728FF074688464FF0A842B3
:1014D000534631462846FEF7C6FF3A464346FEF7D6
:1014E0001BFF159A12F0004F04D0129A81F00041B0
:1014F00052421292C4E90001129817B0BDE8F08F71
:10150000FB21E93F7CD90240FB21F93F7370032E98
:101510008A19A33B000040543163621A61B4D03D84
:10152000FB21394183C8C96D305FE43F0000E03FD3
:10153000101400008C1300006E130000182D44548A
:10154000FB21F93D3326A611460B113C2DE9FF4D39
:1015500021F0004807460C46B8F1795F08DAFFF73A
:101560007DF8002801BF0020324904B0BDE8F08DAD
:101570003A46234610461946FEF775FF05460246D1
:101580002D480E460B460621784400F05DF82A46A9
:101590003346FEF768FFDDE9022382468B46384674
:1015A0002146FEF760FF04460F4652465B4628463A
:1015B0003146FEF758FF22463B46FEF74EFF0746F0
:1015C0008A464FF0FF3228463146FFF735FA1B4A6C
:1015D00090450ADA3A465346FEF73FFF04B0002230
:1015E000BDE8F04D134BFEF73BBF154A4245A8BF7F
:1015F000A8F500154FF00004B8BF124D22462B4647
:10160000FEF72BFF0646884622462B460020094956
:10161000FEF723FF04460D463A4653463046414600
:10162000FEF71BFF04B022462B46BDE8F04DFEF747
:1016300017BF00000000F03F441100003333D33FD8
:101640000000E93F0000D23F2DE9F0414F1E00EBC2
:10165000C7010446D1E9000115461E4637F00602CF
:101660000DD02A463346FEF7FEFE7F1E04EBC7036D
:10167000D3E90023FEF750FE37F00602F1D1022F26
:1016800025D0042F13D0062F18BFBDE8F0812A46BD
:101690003346FEF7E8FED4E90A23FEF73DFE2A466C
:1016A0003346FEF7E0FED4E90823FEF735FE2A466E
:1016B0003346FEF7D8FED4E90623FEF72DFE2A4670
:1016C0003346FEF7D0FED4E90423FEF725FE2A4672
:1016D0003346FEF7C8FED4E90223FEF71DFE2A4674
:1016E0003346FEF7C0FED4E90023BDE8F041FEF723
:1016F00013BE00002DE9FF4D054621F0004084B0E7
:101700000C46B0F1795F0BDA2846FFF747FD042855
:1017100008BF00F06FF8284608B02146BDE8F08DFC
:101720002A460B461046FEF79EFE06460F462A4600
:101730002346FEF798FE804626488A4632463B46B8
:1017400005217844FFF780FF83461098029160B32B
:10175000214A224B40465146FEF785FECDE9000165
:101760005A4640465146029BFEF77DFE8246884619
:10177000DDE906014FF0FF32FFF75EF952464346BE
:10178000FEF76BFE32463B46FEF76DFEDDE90623B3
:10179000FEF763FEDDE90023FEF75FFE08B02A4690
:1017A0002346BDE8F04DFEF75BBE0B465A46304679
:1017B0003946FEF758FE084A084BFEF7ADFD424693
:1017C0005346FEF750FE08B02A462346BDE8F04DCA
:1017D000FEF7A2BD82100000495555555555C5BFAD
:1017E0000122FFF729B90022134610461146FEF7E1
:1017F000ACBE0000024A00201107FFF71DB900002F
:1018000001FDFFFF02E008C8121F08C1002AFAD13B
:1018100070477047002001E001C1121F002AFBD170
:101820007047000001490860704700002000002058
:101830002DE9FF5F82B00021DDE90430020DDDF803
:1018400040B0034318D044F61050A2F2FF32424396
:101850001514119801281FD0A5EB0B00401C5FEA5E
:10186000000A4FF000064E4FDFF83891B046504660
:1018700015D5CAF1000413E0119801244AA30128E8
:1018800001D16FEA0B010298119AC0E90031C0E959
:10189000024206B0BDE8F09FCBF10000DFE704464E
:1018A0000021404A491842EB0450CDE9001012E0F3
:1018B000E00707D032463B4640464946FEF7D3FD97
:1018C0008046894632463B4610461946FEF7CBFD18
:1018D00006460F466410002CEAD1DDE90401DDE97B
:1018E0000023BAF1000F06DAFEF7BDFD42464B4673
:1018F000FEF7B9FD05E0FEF728FE42464B46FEF72F
:1019000024FE04460E460022284BFEF7D9FE03D8DB
:101910004FF0FF30014607E00022254B20463146BC
:10192000FEF7FAFCFFF75DF8102409E0002C0ADB53
:101930000A220023FEF70EFF039B30321A55641E65
:1019400050EA0102F2D1641C039AC4F11103144459
:10195000119A012A03D0012208430DD10AE008435D
:1019600004D000204FF0110B119072E7A3EB0B0590
:101970006D1E0DE05B4504DD4FF0000205F1010531
:1019800004E003DA4FF00002A5F10105002AECD0D3
:1019900002981199C0E90231C0E9004579E70000D9
:1019A000000014400000F03F300000000000F04351
:1019B0000000E03F2DE9FF4F95B09B468946064663
:1019C00000250FE2252877D100242746F84A012177
:1019D000059400E0044316F8013F203B01FA03F0B0
:1019E0001042F7D130782A2811D06FF02F033078C9
:1019F000A0F13002092A16D8059A44F0020402EB3D
:101A0000820203EB42021044761C0590EFE759F87E
:101A1000042B0592002A03DA504244F40054059046
:101A200044F00204761C30782E2816D116F8010FE7
:101A300044F004042A280DD06FF02F023078A0F172
:101A40003003092B09D807EB870302EB4303C718C0
:101A5000761CF3E759F8047B761C30786C280FD09D
:101A600006DC4C2817D068280DD06A2814D104E071
:101A7000742810D07A280FD10DE044F400140AE045
:101A800044F4801401E044F440147278824202D19C
:101A900004F58014761C761C307866280BD013DC95
:101AA000582877D009DC002875D04528F6D046287C
:101AB000F4D047281AD19DE118E0632835D0642876
:101AC00079D0652812D195E1702873D008DC672899
:101AD000F1D069286FD06E280DD06F2806D1B5E0FF
:101AE00073282CD0752875D0782874D05A46179949
:101AF00090476D1C75E1C4F30250022809D00328F9
:101B00000DD0D9F8001004280DD00D6009F104099A
:101B100067E1D9F80010EA17C1E90052F6E7D9F8F1
:101B200000100D80F2E70D70F0E719F8041B8DF836
:101B3000001000208DF80100EA46012003E059F86A
:101B400004AB4FF0FF3061074FF0000102D40DE00D
:101B500008F101018846B9420FDA8045F8DB1AF82E
:101B600008100029F4D108E008F1010188468142FB
:101B7000FADB1AF808100029F6D105985B46A0EBAD
:101B8000080721463846179A00F094FA284400EBDB
:101B9000080507E04DE029E10DE01AF8010B5A466F
:101BA00017999047B8F10108F7D25B4621463846AD
:101BB000179A13E142E00A220092C4F302524FF056
:101BC000000A022A08D059F804CB032A4FEAEC7124
:101BD0000AD00DE029E02AE009F1070121F007020F
:101BE000F2E802C1914609E00FFA8CFC4FEAEC7171
:101BF000042A03D14FFA8CFC4FEAEC71002907DA72
:101C00000A460021DCF1000C61EB02012D2202E00A
:101C1000220504D52B228DF80420012203E0E207DF
:101C200001D02022F7E7904659E00A2102E0102275
:101C30000DE010214FF0000A00910BE010224FF050
:101C4000000A44F004040827009203E008224FF041
:101C5000000A0092C4F30252022A05D059F804CBBC
:101C60000021032A08D009E009F1070121F0070249
:101C7000F2E802C1914605E01FFA8CFC042A01D16A
:101C80000CF0FF0C4FF00008220728D5702806D072
:101C9000009B83F0100353EA0A0305D00EE04022B4
:101CA0008DF80420012208E05CEA010206D030220F
:101CB0008DF804208DF8050002229046009B83F0E9
:101CC000080353EA0A030AD15CEA010201D1620760
:101CD00005D530228DF804204FF001087F1E5828CA
:101CE00004D034A003900EA802900DE036A0F9E7CE
:101CF00053466046009AFEF72DFD84460398825CA9
:101D00000298401E029002705CEA0100F0D1029835
:101D100006A9081A00F1200A600702D524F48034CD
:101D200000E00127574502DDA7EB0A0000E0002094
:101D300000EB0A01009005984144401A0590E00329
:101D400006D45B462146179A059800F0B3F905447E
:101D5000002706E001A85A46C05D179990476D1C00
:101D60007F1C4745F6DBE0030CD55B462146179AFE
:101D7000059800F09FF9054404E030205A46179971
:101D800090476D1C0099481E00900029F5DC08E082
:101D9000029802995A460078491C02911799904777
:101DA0006D1CBAF10001AAF1010AF1DC65E1000045
:101DB0000928010030313233343536373839616221
:101DC00063646566000000003031323334353637E5
:101DD00038394142434445460000000000F058F9BC
:101DE0000544761C307800287FF4ECAD19B0284605
:101DF000BDE8F08F620700D4062709F1070222F040
:101E0000070CFCE80223E14603F000485FEA080CF7
:101E100002D00FF2702C0DE05FEA045C02D50FF2E5
:101E2000682C07E05FEAC47C02D00FF2602C01E06E
:101E3000AFF2700C4FF0FF3823F00043CDF850C0E4
:101E400065280CD006DC452809D046281DD0472837
:101E50003DD13DE0662818D067287ED138E00021CA
:101E6000112F01DB112000E0781CCDE9000106A94B
:101E70000EA8FFF7DDFCDDE90F010E9A03910021AA
:101E8000009207F1010A04914DE04FF000400097E5
:101E9000CDE9011006A90EA8FFF7CAFCDDE90F0283
:101EA00003920E9B11990022DDF80CA0009304927E
:101EB00011B9791C00EB010AB7EB0A0004D4C0F198
:101EC000FF3007F1010A0490AAEB0700019044E0FB
:101ED000012F00DA01270021112F01DD112000E080
:101EE0003846CDE9000106A90EA8FFF7A1FCDDE9FF
:101EF0000F010E9A0391002104910092BA46210726
:101F00000CD40399514500DA8A46BAF1010F05DD78
:101F1000009AAAF10101515C302908D0B84202DAD6
:101F200010F1040F06DA0121CDE9011015E0AAF144
:101F30000101E9E7002805DC049901440491AAEBBA
:101F4000000102E0411C514500DD8A460499401A17
:101F5000401C01904FF000400290200704D40198EB
:101F6000504501DBCDF8048000208DF84F00029829
:101F70000DF14F07B0F1004F25D02B200E900298A5
:101F80004FF0020800280CDA404202902D200E90FB
:101F900007E00A210298FEF7C7FB3031029007F8EC
:101FA000011DB8F10001A8F10108F2DC0298002837
:101FB000EFD1791E0E980870307800F0200040F0C4
:101FC000450007F8020D12A8C01B00F1070814987D
:101FD000007800B1012000EB0A01019801EBE071EB
:101FE00005984144401A401E0590E00306D45B4624
:101FF0002146179A059800F05DF80544149800787A
:1020000018B15A46179990476D1CE00324D55B46DA
:102010002146179A059800F04DF805441CE00498F5
:10202000002807DBDDE90301884203DD0098405CFE
:10203000179901E0179930205A469047049805F106
:102040000105401C04900198401E019004D12E20EF
:102050005A46179990476D1CBAF10001AAF1010A7E
:10206000DDDC05E017F8010B5A46179990476D1C07
:10207000B8F10001A8F10108F4DC5B462146179A8B
:102080000598ABE62D0000002B00000020000000AA
:102090002DE9F041044600251E461746880404D465
:1020A00005E039462020B0476D1C641EF9D528464E
:1020B000BDE8F0812DE9F041044600251E4690461A
:1020C000C80301D5302700E02027880404D505E0A7
:1020D00041463846B0476D1C641EF9D52846BDE818
:1020E000F081000000B5244B21F0004287B09A42F5
:1020F000DCBF0022134629DD204B9A4208D140B9AB
:102100004FF00100FFF78EFBFFF76DFB07B000BD3E
:1021100003DBFFF765FB07B000BD02AAFFF752F82B
:1021200010F0030104BF0DF1080C9CE80F000DD066
:10213000012001290ED0022914D00DF1080C0090C5
:102140009CE80F00FFF7D6FA07B000BDFFF7FEF9D5
:1021500007B000BD0DF1080C00909CE80F00FFF7E0
:10216000C9FA05E00DF1080C9CE80F00FFF7EEF945
:1021700007B081F0004100BDFB21E93F0000F07F86
:102180002DE9F04704462046FEF787FA0746124A33
:10219000124BFEF7C1F80546FEF7AAFA81464846FB
:1021A000FEF77BFA05460C4A0D4BFEF789FA0BD277
:1021B0004846FEF772FA0746074A094BFEF74DF903
:1021C0000546FEF795FA8146484600F0C7F9824673
:1021D0005046BDE8F0870000182D4454FB21F93F1C
:1021E000FB2119402DE9F04786B081468A461948FF
:1021F000C0F800901848C0F800A000241FE016485E
:102200000068FEF71AFACDE902012046FEF715FA3A
:102210000746124A124BFEF726F9CDE90001DDE927
:102220000223FEF792F9054600F048F9CDE90401D2
:10223000FEF75EFA0749096841F82400641C064964
:102240000868C11700EB9171B4EBA10FD7DD06B0A0
:10225000BDE8F087180000201C000020182D445411
:10226000FB21194070B504460D46E1B20548FEF762
:102270007FFF00BF80210348FEF7F4FE0028F9D05D
:10228000204670BD003801408CB0FEF773FEFEF7AB
:10229000ADFE70A0FEF772FF6EA0FEF76FFF6EA09E
:1022A000FEF76CFF6F48FEF769FF6F48FEF766FFA9
:1022B0006E48FEF763FF6E48FEF760FF6948FEF761
:1022C0005DFF6CA0FEF75AFF80216B48FFF78AFF85
:1022D0004FF0000B53E05846FEF7AFF90446674A4B
:1022E000674BFEF7C0F806460022664BFEF72DF955
:1022F000654A664BCDE90201FEF70EF8CDE904010F
:10230000FFF7F0FE80460022614BFEF7ACF8CDE906
:1023100008015846FEF791F95E4A5F4BCDE900018E
:10232000FEF7A1F806460022564BFEF70EF90446CA
:102330005A4A5B4BFEF791F88046FFF7D3FE002226
:10234000584BCDE90201FEF78EF800224FF0804392
:10235000CDE90401FDF7E0FFCDE90601DDE9082341
:10236000FDF7DAFFCDE90A01FEF7C2F94E4941F85F
:102370003B00002001EBCB0148600BF1010BBBF1EE
:10238000800FA8DB4848FEF7A5FB4FF0000A4DE0A0
:10239000BAF1000F01D1802100E040210846FEF78C
:1023A0004CF980468946404A02EBCA0251683E4ACF
:1023B00002EBCA025068FDF73FFF3B4A089052F813
:1023C0003A1052F83A00FDF737FF07900899FDF7E9
:1023D000DBFE0990FEF761F9CDE90A0100F050F942
:1023E000064642464B46FEF7B0F80446FEF780F933
:1023F0002D4941F83A00BAF1000F0ADD4FEAEA71BF
:102400000AEB5171C910AAEBC10111B919A0FEF76D
:10241000B5FE254951F83A00FEF73FF90446224639
:102420000B4622A0FEF7AAFE0AF1010ABAF1800FBC
:10243000AEDB0DE040F225511E48FEF713FE38B129
:102440001C48FEF790FE044621461BA0FEF796FEB0
:10245000F0E700000C0000001B5B313B34303B33E5
:10246000326D0000EC280008F0270008442800081E
:10247000982800080D0A000024000020D8E4BF8638
:10248000D2737D4000006040182D4454FB21F93F79
:102490000000F83F3B43D5598CA2734065732D383B
:1024A00052C1E03F00000840A800002025382E352A
:1024B00066200000003801402563000000B5254B70
:1024C00021F0004287B09A4203DC002213460092BA
:1024D0002BE0214B9A4208D140B94FF00100FFF7A1
:1024E000A1F9FFF780F907B000BD03DBFFF778F92A
:1024F00007B000BD02AAFEF765FE10F003014FF021
:1025000001000DD0012914D002291AD00DF1080CB8
:102510009CE80F00FFF71AF807B081F0004100BDFA
:102520000DF1080C00909CE80F00FFF7E3F807B0EE
:1025300000BD0DF1080C9CE80F00FFF707F807B08D
:1025400000BD0DF1080C00909CE80F00FFF7D2F8D9
:10255000E2E70000FB21E93F0000F07F2DE9FC5F8E
:1025600081460024A24642480068FEF75DF84946CD
:102570000090FDF761FE4FF080410190FDF78EFE67
:102580008346FEF78AF807463A4A3B4BFDF7DDFFE4
:102590000546FEF763F80446002C0CDB3449086856
:1025A000C11700EB91718910A14204DB3348006828
:1025B00050F824A058E02E4A1168CA1701EB927215
:1025C0009210A24219DA2A4A106800EBD072521017
:1025D000A24212DD26490868C11700EB9171A4EBF5
:1025E000A10423490868C11700EB9171C4EBA10154
:1025F000224A126852F821A036E01D4A116801EB08
:10260000D1725210A24216DC194A126802EB420043
:10261000C21700EB92729210A2420CDD14490868B6
:1026200000EBD071A4EB61041448006850F824005A
:1026300080F0004A18E00E49096801EB4100C1171B
:1026400000EB91718910A1420EDC0949096801EB88
:102650004101A14208DD06480068041B07480068E4
:1026600050F8240080F0004A5046BDE8FC9F00006E
:102670001C000020182D4454FB21094018000020A4
:102680002DE9F04106460F46FEF75AF9041E0D46A5
:1026900018BF0120284320F00040C0F17F6000F106
:1026A000E040C00F0ED0301C18BF0120384320F08E
:1026B0000040C0F17F6000F1E040C00F04BF012086
:1026C000FFF7B0F820462946BDE8F0810000000081
:1026D0004C5555555555A53F7751C1166CC156BF40
:1026E0009015CB19A001FA3EAD529C804F7E92BE50
:1026F000C4B1B4BD9EEE213ED43888BEE9FAA8BD6F
:1027000000004054FB21F93F3163621A61B4D03DAF
:102710000000601A61B4D03D7370032E8A19A33B88
:102720000000002E8A19A33BC14920259A837B39DA
:1027300000000000000000006E83F9A22915444E3D
:10274000D15727FCC0DD34F5999562DB4190433CBD
:10275000AB6351FE61C5BBDE3A6E24B7E0D24D4299
:10276000EA2E49061C92D1091CEB1DFE3EA729B199
:10277000F53582E88444BB2E26709CE9417E5FB427
:1027800039D69139F43953838B5F849C3B28F9BD4A
:10279000FF97F81F0F9805DE8B112FEF1F6D0A5A58
:1027A000CF7E366DB709CB27663F464F2DEA5F9E39
:1027B000C7BA27757BF1E5EBF739073DEA92528AF4
:1027C000B15FFB6B085D8D1FA6F810111111813FE1
:1027D000D561C119A0012ABF7DFEB157E31DC73ED7
:1027E000EB9C2B8AE6E55ABE7CD5CF5A3AD9E53D1B
:1027F0000D0A2A2A2A2A2A2A2A2A2A2A2A2A2A2A76
:102800002A2A2A2A2A2A2A2A2A2A20436F707972F7
:102810006967687420323030392D323031322C20E3
:1028200056696577546F6F6C202A2A2A2A2A2A2A29
:102830002A2A2A2A2A2A2A2A2A2A2A2A2A2A2A2AF8
:102840002A0000000D0A2A2A2A2A2A2A2A2A2A2AA3
:102850002A2A2A2A2A2A2A2A2A2A2A2A2A2A2A2AD8
:102860002A20687474703A2F2F7777772E766965EF
:1028700077746F6F6C2E636F6D202A2A2A2A2A2A9A
:102880002A2A2A2A2A2A2A2A2A2A2A2A2A2A2A2AA8
:102890002A2A2A2A2A0000000D0A2A2A2A2A2A2A53
:1028A0002A2A2A2A2A2A2A2A2A2A2A2A2A2A2A2A88
:1028B0002A2A2A2A2A2A2A20416C6C20526967680F
:1028C0007473205265736572766564202A2A2A2AF9
:1028D0002A2A2A2A2A2A2A2A2A2A2A2A2A2A2A2A58
:1028E0002A2A2A2A2A2A2A2A2A0000000D0A2A2A03
:1028F0002A2A2A2A2A2A2A2A2A2A2A2A2A2A2A2A38
:102900002A2A2A2A2A2A2A2A2A2A2A2A2A2A2A2A27
:102910002A2A2A2A2A2A2A2A2A2A2A2A2A2A2A2A17
:102920002A2A2A2A2A2A2A2A2A2A2A2A2A2A2A2A07
:102930002A2A2A2A2A2A2A2A2A2A2A2A2A00000075
:10294000602900080000002024000000041800088E
:1029500084290008240000208408000014180008BE
:102960000000000001020304010203040607080935
:1029700002040608000000000000000080000000C3
:042980000000000053
:04000005080001519D
:00000001FF
